{"abi":[{"type":"constructor","inputs":[{"name":"_escrow","type":"address","internalType":"address"},{"name":"oracle_","type":"address","internalType":"address"},{"name":"arbiter_","type":"address","internalType":"address"},{"name":"borrower_","type":"address","internalType":"address"},{"name":"ttl_","type":"uint256","internalType":"uint256"}],"stateMutability":"nonpayable"},{"type":"function","name":"accrueInterest","inputs":[],"outputs":[],"stateMutability":"nonpayable"},{"type":"function","name":"addCredit","inputs":[{"name":"drate","type":"uint128","internalType":"uint128"},{"name":"frate","type":"uint128","internalType":"uint128"},{"name":"amount","type":"uint256","internalType":"uint256"},{"name":"token","type":"address","internalType":"address"},{"name":"lender","type":"address","internalType":"address"}],"outputs":[{"name":"","type":"bytes32","internalType":"bytes32"}],"stateMutability":"payable"},{"type":"function","name":"arbiter","inputs":[],"outputs":[{"name":"","type":"address","internalType":"address"}],"stateMutability":"view"},{"type":"function","name":"available","inputs":[{"name":"id","type":"bytes32","internalType":"bytes32"}],"outputs":[{"name":"","type":"uint256","internalType":"uint256"},{"name":"","type":"uint256","internalType":"uint256"}],"stateMutability":"view"},{"type":"function","name":"borrow","inputs":[{"name":"id","type":"bytes32","internalType":"bytes32"},{"name":"amount","type":"uint256","internalType":"uint256"}],"outputs":[],"stateMutability":"nonpayable"},{"type":"function","name":"borrower","inputs":[],"outputs":[{"name":"","type":"address","internalType":"address"}],"stateMutability":"view"},{"type":"function","name":"close","inputs":[{"name":"id","type":"bytes32","internalType":"bytes32"}],"outputs":[],"stateMutability":"payable"},{"type":"function","name":"counts","inputs":[],"outputs":[{"name":"","type":"uint256","internalType":"uint256"},{"name":"","type":"uint256","internalType":"uint256"}],"stateMutability":"view"},{"type":"function","name":"credits","inputs":[{"name":"","type":"bytes32","internalType":"bytes32"}],"outputs":[{"name":"deposit","type":"uint256","internalType":"uint256"},{"name":"principal","type":"uint256","internalType":"uint256"},{"name":"interestAccrued","type":"uint256","internalType":"uint256"},{"name":"interestRepaid","type":"uint256","internalType":"uint256"},{"name":"decimals","type":"uint8","internalType":"uint8"},{"name":"token","type":"address","internalType":"address"},{"name":"lender","type":"address","internalType":"address"},{"name":"isOpen","type":"bool","internalType":"bool"}],"stateMutability":"view"},{"type":"function","name":"deadline","inputs":[],"outputs":[{"name":"","type":"uint256","internalType":"uint256"}],"stateMutability":"view"},{"type":"function","name":"declareInsolvent","inputs":[],"outputs":[],"stateMutability":"nonpayable"},{"type":"function","name":"depositAndClose","inputs":[],"outputs":[],"stateMutability":"payable"},{"type":"function","name":"depositAndRepay","inputs":[{"name":"amount","type":"uint256","internalType":"uint256"}],"outputs":[],"stateMutability":"payable"},{"type":"function","name":"escrow","inputs":[],"outputs":[{"name":"","type":"address","internalType":"contract IEscrow"}],"stateMutability":"view"},{"type":"function","name":"healthcheck","inputs":[],"outputs":[{"name":"","type":"uint8","internalType":"enum LineLib.STATUS"}],"stateMutability":"nonpayable"},{"type":"function","name":"ids","inputs":[{"name":"","type":"uint256","internalType":"uint256"}],"outputs":[{"name":"","type":"bytes32","internalType":"bytes32"}],"stateMutability":"view"},{"type":"function","name":"increaseCredit","inputs":[{"name":"id","type":"bytes32","internalType":"bytes32"},{"name":"amount","type":"uint256","internalType":"uint256"}],"outputs":[],"stateMutability":"payable"},{"type":"function","name":"init","inputs":[],"outputs":[],"stateMutability":"nonpayable"},{"type":"function","name":"interestAccrued","inputs":[{"name":"id","type":"bytes32","internalType":"bytes32"}],"outputs":[{"name":"","type":"uint256","internalType":"uint256"}],"stateMutability":"view"},{"type":"function","name":"interestRate","inputs":[],"outputs":[{"name":"","type":"address","internalType":"contract InterestRateCredit"}],"stateMutability":"view"},{"type":"function","name":"liquidate","inputs":[{"name":"amount","type":"uint256","internalType":"uint256"},{"name":"targetToken","type":"address","internalType":"address"}],"outputs":[{"name":"","type":"uint256","internalType":"uint256"}],"stateMutability":"nonpayable"},{"type":"function","name":"mutualConsentProposals","inputs":[{"name":"","type":"bytes32","internalType":"bytes32"}],"outputs":[{"name":"","type":"address","internalType":"address"}],"stateMutability":"view"},{"type":"function","name":"nextInQ","inputs":[],"outputs":[{"name":"","type":"bytes32","internalType":"bytes32"},{"name":"","type":"address","internalType":"address"},{"name":"","type":"address","internalType":"address"},{"name":"","type":"uint256","internalType":"uint256"},{"name":"","type":"uint256","internalType":"uint256"},{"name":"","type":"uint256","internalType":"uint256"},{"name":"","type":"uint128","internalType":"uint128"},{"name":"","type":"uint128","internalType":"uint128"}],"stateMutability":"view"},{"type":"function","name":"oracle","inputs":[],"outputs":[{"name":"","type":"address","internalType":"contract IOracle"}],"stateMutability":"view"},{"type":"function","name":"revokeConsent","inputs":[{"name":"_reconstrucedMsgData","type":"bytes","internalType":"bytes"}],"outputs":[],"stateMutability":"nonpayable"},{"type":"function","name":"setRates","inputs":[{"name":"id","type":"bytes32","internalType":"bytes32"},{"name":"drate","type":"uint128","internalType":"uint128"},{"name":"frate","type":"uint128","internalType":"uint128"}],"outputs":[],"stateMutability":"nonpayable"},{"type":"function","name":"status","inputs":[],"outputs":[{"name":"","type":"uint8","internalType":"enum LineLib.STATUS"}],"stateMutability":"view"},{"type":"function","name":"stepQ","inputs":[],"outputs":[],"stateMutability":"nonpayable"},{"type":"function","name":"updateOutstandingDebt","inputs":[],"outputs":[{"name":"","type":"uint256","internalType":"uint256"},{"name":"","type":"uint256","internalType":"uint256"}],"stateMutability":"nonpayable"},{"type":"function","name":"withdraw","inputs":[{"name":"id","type":"bytes32","internalType":"bytes32"},{"name":"amount","type":"uint256","internalType":"uint256"}],"outputs":[],"stateMutability":"nonpayable"},{"type":"event","name":"AddCredit","inputs":[{"name":"lender","type":"address","indexed":true,"internalType":"address"},{"name":"token","type":"address","indexed":true,"internalType":"address"},{"name":"deposit","type":"uint256","indexed":true,"internalType":"uint256"},{"name":"id","type":"bytes32","indexed":false,"internalType":"bytes32"}],"anonymous":false},{"type":"event","name":"Borrow","inputs":[{"name":"id","type":"bytes32","indexed":true,"internalType":"bytes32"},{"name":"amount","type":"uint256","indexed":true,"internalType":"uint256"}],"anonymous":false},{"type":"event","name":"CloseCreditPosition","inputs":[{"name":"id","type":"bytes32","indexed":true,"internalType":"bytes32"}],"anonymous":false},{"type":"event","name":"Default","inputs":[{"name":"id","type":"bytes32","indexed":true,"internalType":"bytes32"}],"anonymous":false},{"type":"event","name":"DeployLine","inputs":[{"name":"oracle","type":"address","indexed":true,"internalType":"address"},{"name":"arbiter","type":"address","indexed":true,"internalType":"address"},{"name":"borrower","type":"address","indexed":true,"internalType":"address"}],"anonymous":false},{"type":"event","name":"IncreaseCredit","inputs":[{"name":"id","type":"bytes32","indexed":true,"internalType":"bytes32"},{"name":"deposit","type":"uint256","indexed":true,"internalType":"uint256"}],"anonymous":false},{"type":"event","name":"InterestAccrued","inputs":[{"name":"id","type":"bytes32","indexed":true,"internalType":"bytes32"},{"name":"amount","type":"uint256","indexed":true,"internalType":"uint256"}],"anonymous":false},{"type":"event","name":"Liquidate","inputs":[{"name":"id","type":"bytes32","indexed":true,"internalType":"bytes32"},{"name":"amount","type":"uint256","indexed":true,"internalType":"uint256"},{"name":"token","type":"address","indexed":true,"internalType":"address"},{"name":"escrow","type":"address","indexed":false,"internalType":"address"}],"anonymous":false},{"type":"event","name":"MutualConsentAccepted","inputs":[{"name":"proposalId","type":"bytes32","indexed":false,"internalType":"bytes32"}],"anonymous":false},{"type":"event","name":"MutualConsentRegistered","inputs":[{"name":"proposalId","type":"bytes32","indexed":false,"internalType":"bytes32"},{"name":"taker","type":"address","indexed":false,"internalType":"address"}],"anonymous":false},{"type":"event","name":"MutualConsentRevoked","inputs":[{"name":"proposalId","type":"bytes32","indexed":false,"internalType":"bytes32"}],"anonymous":false},{"type":"event","name":"RepayInterest","inputs":[{"name":"id","type":"bytes32","indexed":true,"internalType":"bytes32"},{"name":"amount","type":"uint256","indexed":true,"internalType":"uint256"}],"anonymous":false},{"type":"event","name":"RepayPrincipal","inputs":[{"name":"id","type":"bytes32","indexed":true,"internalType":"bytes32"},{"name":"amount","type":"uint256","indexed":true,"internalType":"uint256"}],"anonymous":false},{"type":"event","name":"SetRates","inputs":[{"name":"id","type":"bytes32","indexed":true,"internalType":"bytes32"},{"name":"dRate","type":"uint128","indexed":true,"internalType":"uint128"},{"name":"fRate","type":"uint128","indexed":true,"internalType":"uint128"}],"anonymous":false},{"type":"event","name":"SortedIntoQ","inputs":[{"name":"id","type":"bytes32","indexed":true,"internalType":"bytes32"},{"name":"newIdx","type":"uint256","indexed":true,"internalType":"uint256"},{"name":"oldIdx","type":"uint256","indexed":true,"internalType":"uint256"},{"name":"oldId","type":"bytes32","indexed":false,"internalType":"bytes32"}],"anonymous":false},{"type":"event","name":"UpdateStatus","inputs":[{"name":"status","type":"uint256","indexed":true,"internalType":"uint256"}],"anonymous":false},{"type":"event","name":"WithdrawDeposit","inputs":[{"name":"id","type":"bytes32","indexed":true,"internalType":"bytes32"},{"name":"amount","type":"uint256","indexed":true,"internalType":"uint256"}],"anonymous":false},{"type":"event","name":"WithdrawProfit","inputs":[{"name":"id","type":"bytes32","indexed":true,"internalType":"bytes32"},{"name":"amount","type":"uint256","indexed":true,"internalType":"uint256"}],"anonymous":false},{"type":"error","name":"AlreadyInitialized","inputs":[]},{"type":"error","name":"BadModule","inputs":[{"name":"module","type":"address","internalType":"address"}]},{"type":"error","name":"BorrowFailed","inputs":[]},{"type":"error","name":"CallerAccessDenied","inputs":[]},{"type":"error","name":"CantStepQ","inputs":[]},{"type":"error","name":"CloseFailedWithPrincipal","inputs":[]},{"type":"error","name":"EthSupportDisabled","inputs":[]},{"type":"error","name":"InvalidConsent","inputs":[]},{"type":"error","name":"NoLiquidity","inputs":[]},{"type":"error","name":"NoTokenPrice","inputs":[]},{"type":"error","name":"NonZeroEthValue","inputs":[]},{"type":"error","name":"NotActive","inputs":[]},{"type":"error","name":"NotBorrowing","inputs":[]},{"type":"error","name":"NotInsolvent","inputs":[{"name":"module","type":"address","internalType":"address"}]},{"type":"error","name":"NotLiquidatable","inputs":[]},{"type":"error","name":"NotUserConsent","inputs":[]},{"type":"error","name":"PositionExists","inputs":[]},{"type":"error","name":"PositionIsClosed","inputs":[]},{"type":"error","name":"ReentrancyGuardReentrantCall","inputs":[]},{"type":"error","name":"RepayAmountExceedsDebt","inputs":[{"name":"totalAvailable","type":"uint256","internalType":"uint256"}]},{"type":"error","name":"TokenTransferFailed","inputs":[]},{"type":"error","name":"Unauthorized","inputs":[]},{"type":"error","name":"UnsupportedMutualConsentFunction","inputs":[]}],"bytecode":{"object":"0x6101406040523480156200001257600080fd5b5060405162003cf638038062003cf6833981016040819052620000359162000116565b6001600160a01b03808616608052600180558085166101005280841660e052821660c052838383836200006981426200017d565b60a0526040516200007a90620000eb565b604051809103906000f08015801562000097573d6000803e3d6000fd5b506001600160a01b03908116610120526040518382169185811691908716907f823bb3f9854921652e62f2fcf067240bf72adb3bf3717b6e65c78f99df300e5890600090a4505050505050505050620001a5565b61053680620037c083390190565b80516001600160a01b03811681146200011157600080fd5b919050565b600080600080600060a086880312156200012f57600080fd5b6200013a86620000f9565b94506200014a60208701620000f9565b93506200015a60408701620000f9565b92506200016a60608701620000f9565b9150608086015190509295509295909350565b808201808211156200019f57634e487b7160e01b600052601160045260246000fd5b92915050565b60805160a05160c05160e051610100516101205161351c620002a46000396000818161042d01528181610fd001528181611d3601528181611dfb01528181611fbb015281816123c40152612801015260008181610481015281816123a201526129bb01526000818161068801528181610af30152611ebc0152600081816104b5015281816108890152818161096401528181610c9801528181610ebe015281816110ab015281816111ba0152818161150d015281816116c50152611929015260006102360152600081816105cc01528181612b3701528181612bfb01528181612ceb01528181612d9201528181612dc30152612e61015261351c6000f3fe6080604052600436106101cd5760003560e01c80637df33c20116100f7578063cb83620911610095578063e701af9911610064578063e701af99146105ee578063fac333ac14610656578063fe25e00a14610676578063feccf26f146106aa57600080fd5b8063cb8362091461057f578063dfe9608314610592578063e1c7392a146105a5578063e2fdcc17146105ba57600080fd5b8063a4e7d38f116100d1578063a4e7d38f14610517578063a6afed9514610537578063ac856fac1461054c578063c36515741461056c57600080fd5b80637df33c20146104d75780637eef544d146104f7578063817cc1ea146104ff57600080fd5b8063501b56d81161016f5780637c3a00fd1161013e5780637c3a00fd1461041b5780637c93ec301461044f5780637dc0d1d01461046f5780637df1f1b9146104a357600080fd5b8063501b56d81461039c5780635fae8b3d146103c657806362bfcc68146103e65780636932854f146103fb57600080fd5b806338deee8f116101ab57806338deee8f1461026657806339c79e0c146102b457806342997913146102c75780634f42fc021461038757600080fd5b8063040cf020146101d2578063200d2ed2146101f457806329dcb0cf14610224575b600080fd5b3480156101de57600080fd5b506101f26101ed366004612eea565b6106bf565b005b34801561020057600080fd5b5060055461020e9060ff1681565b60405161021b9190612f22565b60405180910390f35b34801561023057600080fd5b506102587f000000000000000000000000000000000000000000000000000000000000000081565b60405190815260200161021b565b34801561027257600080fd5b5061029c610281366004612f4a565b6000602081905290815260409020546001600160a01b031681565b6040516001600160a01b03909116815260200161021b565b6101f26102c2366004612f4a565b610876565b3480156102d357600080fd5b5061033b6102e2366004612f4a565b600460208190526000918252604090912080546001820154600283015460038401549484015460059094015492949193909260ff808316926001600160a01b0361010090910481169290811691600160a01b9091041688565b60408051988952602089019790975295870194909452606086019290925260ff1660808501526001600160a01b0390811660a08501521660c0830152151560e08201526101000161021b565b34801561039357600080fd5b5061020e610a35565b3480156103a857600080fd5b506103b1610a70565b6040805192835260208301919091520161021b565b3480156103d257600080fd5b506102586103e1366004612f78565b610a83565b3480156103f257600080fd5b506101f2610ba0565b34801561040757600080fd5b506103b1610416366004612f4a565b610c14565b34801561042757600080fd5b5061029c7f000000000000000000000000000000000000000000000000000000000000000081565b34801561045b57600080fd5b506101f261046a366004612eea565b610c4e565b34801561047b57600080fd5b5061029c7f000000000000000000000000000000000000000000000000000000000000000081565b3480156104af57600080fd5b5061029c7f000000000000000000000000000000000000000000000000000000000000000081565b3480156104e357600080fd5b506102586104f2366004612f4a565b610f8d565b6101f2611037565b34801561050b57600080fd5b506002546003546103b1565b34801561052357600080fd5b506101f2610532366004612fa8565b611282565b34801561054357600080fd5b506101f2611391565b34801561055857600080fd5b506101f261056736600461302f565b6114f3565b6101f261057a366004612eea565b61166c565b61025861058d366004613071565b6118e5565b6101f26105a0366004612f4a565b611a13565b3480156105b157600080fd5b506101f2611c2a565b3480156105c657600080fd5b5061029c7f000000000000000000000000000000000000000000000000000000000000000081565b3480156105fa57600080fd5b50610603611c72565b604080519889526001600160a01b0397881660208a015296909516958701959095526060860192909252608085015260a08401526001600160801b0391821660c08401521660e08201526101000161021b565b34801561066257600080fd5b50610258610671366004612f4a565b611e99565b34801561068257600080fd5b5061029c7f000000000000000000000000000000000000000000000000000000000000000081565b3480156106b657600080fd5b506101f2611eba565b6106c7611f56565b6000828152600460208181526040928390208351610100808201865282548252600183015493820193909352600282015494810194909452600381015460608501529182015460ff80821660808601526001600160a01b0392909104821660a085015260059092015490811660c0840152600160a01b900416151560e0820152734dca189d7fb51d9cc375e4d697e5800c5d21ff879063d4ce93339061076d9085611f80565b8433856040518563ffffffff1660e01b815260040161078f949392919061313a565b61010060405180830381865af41580156107ad573d6000803e3d6000fd5b505050506040513d601f19601f820116820180604052508101906107d1919061325b565b60008381526004602081815260409283902084518155908401516001820155918301516002830155606083015160038301556080830151908201805460a08501516001600160a01b03908116610100026001600160a81b031992831660ff909516949094179390931790915560c08401516005909301805460e0909501511515600160a01b0294909116929091169190911791909117905561087260018055565b5050565b61087e611f56565b336001600160a01b037f000000000000000000000000000000000000000000000000000000000000000016146108c757604051631172e7cd60e01b815260040160405180910390fd5b60008181526004602081815260408084208151610100808201845282548252600183015494820194909452600282015492810192909252600381015460608301529283015460ff80821660808401529290046001600160a01b0390811660a083015260059093015492831660c0820152600160a01b90920416151560e08201526109519083611f80565b604081015190915061098e6109888385847f0000000000000000000000000000000000000000000000000000000000000000612025565b846120ac565b60008481526004602081815260409283902084518155908401516001820155918301516002830155606083015160038301556080830151908201805460a08501516001600160a01b03908116610100026001600160a81b031992831660ff909516949094179390931790915560c08401516005909301805460e0909501511515600160a01b0294909116929091169190911791909117905550610a32905060018055565b50565b6000600160055460ff166004811115610a5057610a50612f0c565b1015610a5b57600080fd5b610a6b610a6661226d565b612277565b905090565b600080610a7b61230f565b915091509091565b600060025460001480610aca5750600460006003600081548110610aa957610aa9613278565b90600052602060002001548152602001908152602001600020600101546000145b15610ae85760405163e0d00bd360e01b815260040160405180910390fd5b336001600160a01b037f00000000000000000000000000000000000000000000000000000000000000001614610b3157604051631172e7cd60e01b815260040160405180910390fd5b6002610b3e610a6661226d565b6004811115610b4f57610b4f612f0c565b14610b6d57604051636ef5bcdd60e11b815260040160405180910390fd5b610b976003600081548110610b8457610b84613278565b90600052602060002001548484336124f8565b90505b92915050565b604051631272aa3360e11b815260036004820152739cbe9741b3503a790e69e1587b5d51c0056154dc906324e5546690602401602060405180830381865af4158015610bf0573d6000803e3d6000fd5b505050506040513d601f19601f82011682018060405250810190610a32919061328e565b6000818152600460205260408120600181015490548291610c34916132bf565b600093845260046020526040909320600301549293915050565b610c56611f56565b600160055460ff166004811115610c6f57610c6f612f0c565b14610c8d57604051634065aaf160e11b815260040160405180910390fd5b336001600160a01b037f00000000000000000000000000000000000000000000000000000000000000001614610cd657604051631172e7cd60e01b815260040160405180910390fd5b60008281526004602081815260408084208151610100808201845282548252600183015494820194909452600282015492810192909252600381015460608301529283015460ff80821660808401529290046001600160a01b0390811660a083015260059093015492831660c0820152600160a01b90920416151560e0820152610d609084611f80565b90508060e00151610d845760405163d320557760e01b815260040160405180910390fd5b60208101518151610d9591906132bf565b821115610db557604051636180f03f60e11b815260040160405180910390fd5b8181602001818151610dc791906132d2565b9052506000838152600460208181526040928390208451815590840151600180830191909155928401516002820155606084015160038201556080840151918101805460a08601516001600160a01b03908116610100026001600160a81b031992831660ff909616959095179490941790915560c08501516005909201805460e08701511515600160a01b0292169290931691909117179055610e6b610a6661226d565b6004811115610e7c57610e7c612f0c565b14610e9a57604051636b263a7560e01b815260040160405180910390fd5b60a081015160405163d55fad0560e01b81526001600160a01b0391821660048201527f00000000000000000000000000000000000000000000000000000000000000009091166024820152604481018390527373cb72a7efaddd99cdd2d110e2f4b8b65bf3b8129063d55fad0590606401602060405180830381865af4158015610f28573d6000803e3d6000fd5b505050506040513d601f19601f82011682018060405250810190610f4c919061328e565b50604051829084907f23a87b7444856c0a68cbd431aaafca806284c2bd83791d761cc6adb66f92075990600090a3610f8383612506565b5061087260018055565b60008181526004602081905260408083209051631ebff4d960e11b8152734dca189d7fb51d9cc375e4d697e5800c5d21ff8792633d7fe9b292610ff692909187917f00000000000000000000000000000000000000000000000000000000000000009101613356565b602060405180830381865af4158015611013573d6000803e3d6000fd5b505050506040513d601f19601f82011682018060405250810190610b9a9190613386565b61103f611f56565b6002541580611082575060046000600360008154811061106157611061613278565b90600052602060002001548152602001908152602001600020600101546000145b156110a05760405163e0d00bd360e01b815260040160405180910390fd5b336001600160a01b037f000000000000000000000000000000000000000000000000000000000000000016146110e957604051631172e7cd60e01b815260040160405180910390fd5b600060036000815481106110ff576110ff613278565b6000918252602080832090910154808352600480835260408085208151610100808201845282548252600183015496820196909652600282015492810192909252600381015460608301529182015460ff80821660808401526001600160a01b0395909104851660a083015260059092015493841660c0820152600160a01b90930416151560e083015292506111959083611f80565b90506000816040015182602001516111ad91906132d2565b90506111de6109888385847f0000000000000000000000000000000000000000000000000000000000000000612025565b60009384526004602081815260409586902083518155908301516001820155948201516002860155606082015160038601556080820151908501805460a08401516001600160a01b03908116610100026001600160a81b031992831660ff909516949094179390931790915560c08301516005909601805460e0909401511515600160a01b029390911695909116949094171790925550611280905060018055565b565b60a48111806112915750600481105b156112af57604051632c9dd1c960e01b815260040160405180910390fd5b60008282336040516020016112c69392919061339f565b60408051601f1981840301815291815281516020928301206000818152928390529120549091506001600160a01b03168061131457604051630df0f4e960e41b815260040160405180910390fd5b6001600160a01b038116331461133d5760405163110dc63f60e01b815260040160405180910390fd5b6000828152602081815260409182902080546001600160a01b031916905590518381527f2d8bff7bc81a295ee86f540e195478665ae7503c42e2fe02600843e860a1d9db910160405180910390a150505050565b6003546000805b828110156114ee57600381815481106113b3576113b3613278565b600091825260208083209091015480835260048083526040938490208451610100808201875282548252600183015495820195909552600282015495810195909552600381015460608601529081015460ff80821660808701526001600160a01b0394909104841660a086015260059091015492831660c0850152600160a01b909204909116151560e0830152925061144c8184611f80565b60008481526004602081815260409283902084518155908401516001820155918301516002830155606083015160038301556080830151908201805460a085015160ff9093166001600160a81b0319918216176101006001600160a01b03948516021790915560c08401516005909301805460e09095015193909216931692909217600160a01b91151591909102179055506114e7816133c5565b9050611398565b505050565b600083815260046020526040902060050154839061153b907f0000000000000000000000000000000000000000000000000000000000000000906001600160a01b031661264a565b15611666576000848152600460208181526040928390208351610100808201865282548252600183015493820193909352600282015494810194909452600381015460608501529182015460ff80821660808601526001600160a01b0392909104821660a085015260059092015490811660c0840152600160a01b900416151560e08201526115ca9085611f80565b60008581526004602081815260409283902084518155908401516001820155918301516002830155606083015160038301556080830151908201805460a085015160ff9093166001600160a81b0319918216176101006001600160a01b03948516021790915560c08401516005909301805460e09095015193909216931692909217600160a01b911515919091021790556116668484846127d4565b50505050565b611674611f56565b600160055460ff16600481111561168d5761168d612f0c565b146116ab57604051634065aaf160e11b815260040160405180910390fd5b60008281526004602052604090206005015482906116f3907f0000000000000000000000000000000000000000000000000000000000000000906001600160a01b031661264a565b15610f835760008381526004602081815260408084208151610100808201845282548252600183015494820194909452600282015492810192909252600381015460608301529283015460ff80821660808401529290046001600160a01b0390811660a083015260059093015492831660c0820152600160a01b90920416151560e08201526117829085611f80565b9050828160000181815161179691906132d2565b90525060008481526004602081815260409283902084518155908401516001820155838301516002820155606084015160038201556080840151818301805460a08701516001600160a01b0390811661010081026001600160a81b031993841660ff909616959095179490941790925560c08701516005909401805460e08901511515600160a01b02921694909216938417179055925162f6020f60e71b8152918201929092526024810191909152604481018490527373cb72a7efaddd99cdd2d110e2f4b8b65bf3b81290637b01078090606401602060405180830381865af4158015611888573d6000803e3d6000fd5b505050506040513d601f19601f820116820180604052508101906118ac919061328e565b50604051839085907f12a48a2aa5f96e98f382b97b87c5f26c4fa0811d2dc20810972985835540286f90600090a3505061087260018055565b60006118ef611f56565b600160055460ff16600481111561190857611908612f0c565b1461192657604051634065aaf160e11b815260040160405180910390fd5b817f0000000000000000000000000000000000000000000000000000000000000000611952828261264a565b156119ff5760006119648587896128bd565b9050611971818a8a6127d4565b60405162f6020f60e71b81526001600160a01b03808816600483015286166024820152604481018890527373cb72a7efaddd99cdd2d110e2f4b8b65bf3b81290637b01078090606401602060405180830381865af41580156119d7573d6000803e3d6000fd5b505050506040513d601f19601f820116820180604052508101906119fb919061328e565b5092505b5050611a0a60018055565b95945050505050565b611a1b611f56565b6002541580611a5e5750600460006003600081548110611a3d57611a3d613278565b90600052602060002001548152602001908152602001600020600101546000145b15611a7c5760405163e0d00bd360e01b815260040160405180910390fd5b60006003600081548110611a9257611a92613278565b6000918252602080832090910154808352600480835260408085208151610100808201845282548252600183015496820196909652600282015492810192909252600381015460608301529182015460ff80821660808401526001600160a01b0395909104851660a083015260059092015493841660c0820152600160a01b90930416151560e08301529250611b289083611f80565b905080604001518160200151611b3e91906132d2565b831115611b7e5780604001518160200151611b5991906132d2565b6040516373a50fb160e01b8152600401611b7591815260200190565b60405180910390fd5b611b8a81838533612025565b60009283526004602081815260409485902083518155908301516001820155938201516002850155606082015160038501556080820151908401805460a08401516001600160a01b03908116610100026001600160a81b031992831660ff909516949094179390931790915560c08301516005909501805460e0909401511515600160a01b029390911694909116939093171790915550610a3260018055565b600060055460ff166004811115611c4357611c43612f0c565b14611c605760405162dc149f60e41b815260040160405180910390fd5b611c68612b21565b610a326001612277565b60008060008060008060008060006003600081548110611c9457611c94613278565b6000918252602080832091909101548083526004808352604080852081516101008082018452825482526001830154968201879052600283015482850152600383015460608301528285015460ff80821660808501529190046001600160a01b0390811660a084015260059093015480841660c0840152600160a01b900416151560e0820152915163cc280aaf60e01b815292830194909452602482018390527f000000000000000000000000000000000000000000000000000000000000000090931660448201529093509091908190734dca189d7fb51d9cc375e4d697e5800c5d21ff879063cc280aaf906064016040805180830381865af4158015611da0573d6000803e3d6000fd5b505050506040513d601f19601f82011682018060405250810190611dc491906133de565b91509150838360c001518460a0015185602001518660000151734dca189d7fb51d9cc375e4d697e5800c5d21ff87633d7fe9b2898b7f00000000000000000000000000000000000000000000000000000000000000006040518463ffffffff1660e01b8152600401611e389392919061340d565b602060405180830381865af4158015611e55573d6000803e3d6000fd5b505050506040513d601f19601f82011682018060405250810190611e799190613386565b87879b509b509b509b509b509b509b509b50505050509091929394959697565b60038181548110611ea957600080fd5b600091825260209091200154905081565b7f00000000000000000000000000000000000000000000000000000000000000006001600160a01b03163314611f0357604051631172e7cd60e01b815260040160405180910390fd5b611f0e610a6661226d565b6004811115611f1f57611f1f612f0c565b600214611f3f57604051636ef5bcdd60e11b815260040160405180910390fd5b611f47612b29565b1561128057610a326004612277565b600260015403611f7957604051633ee5aeb560e01b815260040160405180910390fd5b6002600155565b611f88612e8e565b604051634a4b6ed160e11b8152734dca189d7fb51d9cc375e4d697e5800c5d21ff8790639496dda290611fe390869086907f00000000000000000000000000000000000000000000000000000000000000009060040161340d565b61010060405180830381865af4158015612001573d6000803e3d6000fd5b505050506040513d601f19601f82011682018060405250810190610b97919061325b565b61202d612e8e565b60405163d7c637c960e01b8152734dca189d7fb51d9cc375e4d697e5800c5d21ff879063d7c637c99061206a90889088908890889060040161341c565b61010060405180830381865af4158015612088573d6000803e3d6000fd5b505050506040513d601f19601f82011682018060405250810190611a0a919061325b565b6120b4612e8e565b8260e001516120d65760405163d320557760e01b815260040160405180910390fd5b6020830151156120f95760405163131689dd60e01b815260040160405180910390fd5b600060e08401526040516299c7a960e21b81526003600482015260248101839052739cbe9741b3503a790e69e1587b5d51c0056154dc906302671ea490604401602060405180830381865af4158015612156573d6000803e3d6000fd5b505050506040513d601f19601f8201168201806040525081019061217a919061328e565b506000801b600360008154811061219357612193613278565b90600052602060002001540361221957604051631272aa3360e11b815260036004820152739cbe9741b3503a790e69e1587b5d51c0056154dc906324e5546690602401602060405180830381865af41580156121f3573d6000803e3d6000fd5b505050506040513d601f19601f82011682018060405250810190612217919061328e565b505b60028054600019810190915560000360010161223b576122396003612277565b505b60405182907f7a6d4520711ed1189e0417ec7e099096e5ac3c188863274446a6d3dafded499890600090a25090919050565b6000610a6b612b33565b600081600481111561228b5761228b612f0c565b60055460ff1660048111156122a2576122a2612f0c565b036122ab575090565b8160048111156122bd576122bd612f0c565b6040517f2125b4f86fd7a6a349e4e174a768e7c98ec9b7d124822556b128e40a16b642f790600090a26005805483919060ff1916600183600481111561230557612305612f0c565b0217905592915050565b600354600090819080820361232957506000928392509050565b6000805b828110156124f1576003818154811061234857612348613278565b600091825260209091200154915081156124e15760008281526004602081905260408083209051636b579f7b60e11b815283928392734dca189d7fb51d9cc375e4d697e5800c5d21ff879263d6af3ef6926123ea92918a917f0000000000000000000000000000000000000000000000000000000000000000917f00000000000000000000000000000000000000000000000000000000000000009101613452565b61014060405180830381865af4158015612408573d6000803e3d6000fd5b505050506040513d601f19601f8201168201806040525081019061242c9190613489565b9194509250905061243d82896132d2565b975061244981886132d2565b60008681526004602081815260409283902087518155908701516001820155918601516002830155606086015160038301556080860151908201805460a088015160ff9093166001600160a81b0319918216176101006001600160a01b03948516021790915560c08701516005909301805460e09098015193909216961695909517600160a01b911515919091021790935550909450505b6124ea816133c5565b905061232d565b5050509091565b6000611a0a85858585612bca565b600354600090612518906001906132bf565b9050806000805b838111612643576003818154811061253957612539613278565b906000526020600020015491508185146125815781158061255a5750838314155b80612575575060008281526004602052604090206001015415155b61263357809250612633565b83830361258f575050505050565b6000600384815481106125a4576125a4613278565b9060005260206000200154905080600383815481106125c5576125c5613278565b906000526020600020018190555085600385815481106125e7576125e7613278565b90600052602060002001819055508184877fee3e50299ece6c644a824740e6a8ff24a83a4b747cbf3796a156def7107a8feb8460405161262991815260200190565b60405180910390a4505b61263c816133c5565b905061251f565b5050505050565b6000336001600160a01b0384161480159061266e5750336001600160a01b03831614155b1561268b576040516282b42960e81b815260040160405180910390fd5b60006126978484612cc1565b905060008036836040516020016126b09392919061339f565b60408051601f1981840301815291815281516020928301206000818152928390529120549091506001600160a01b031661277b5760008036336040516020016126fb9392919061339f565b60408051601f198184030181528282528051602091820120600081815280835283902080546001600160a01b031916331790558084526001600160a01b0387169184019190915292507f1396bca9f810b74b131a089057c919e38ad204e3df53fec73db0e1f3be4caa0d910160405180910390a160009350505050610b9a565b6000818152602081815260409182902080546001600160a01b031916905590518281527f590cb0fad602b541ce3d8b8de5ea73f5db52e7bafb4fab2595dca5e904009ff1910160405180910390a1506001949350505050565b604051639412647f60e01b8152600481018490526001600160801b038084166024830152821660448201527f00000000000000000000000000000000000000000000000000000000000000006001600160a01b031690639412647f906064016020604051808303816000875af1158015612852573d6000803e3d6000fd5b505050506040513d601f19601f82011682018060405250810190612876919061328e565b50806001600160801b0316826001600160801b0316847feb29c2b3e23350f884045ab45689641c7503ccc09063055895c6a8edcf0a7ad160405160405180910390a4505050565b6040516310ccadff60e21b81523060048201526001600160a01b03808516602483015283166044820152600090734dca189d7fb51d9cc375e4d697e5800c5d21ff8790634332b7fc90606401602060405180830381865af4158015612926573d6000803e3d6000fd5b505050506040513d601f19601f8201168201806040525081019061294a9190613386565b6000818152600460205260409020600501549091506001600160a01b0316156129865760405163384e583f60e11b815260040160405180910390fd5b60405163beccf5db60e01b815260048101829052602481018390526001600160a01b03808616604483015280851660648301527f0000000000000000000000000000000000000000000000000000000000000000166084820152734dca189d7fb51d9cc375e4d697e5800c5d21ff879063beccf5db9060a40161010060405180830381865af4158015612a1d573d6000803e3d6000fd5b505050506040513d601f19601f82011682018060405250810190612a41919061325b565b600082815260046020818152604080842085518155918501516001808401919091559085015160028084019190915560608601516003808501919091556080870151948401805460a08901516001600160a01b03908116610100026001600160a81b031992831660ff909916989098179790971790915560c08801516005909501805460e0909901511515600160a01b02989091169490951693909317959095179092558054808301825592527fc2575a0e9e593c00f959f8c92f12db2869c3395a3b0502d05e2516446f71f85b90910183905581540190559392505050565b611280612cdf565b6000610a6b612dbf565b60007f00000000000000000000000000000000000000000000000000000000000000006001600160a01b031663578c65e46040518163ffffffff1660e01b81526004016020604051808303816000875af1158015612b95573d6000803e3d6000fd5b505050506040513d601f19601f82011682018060405250810190612bb9919061328e565b15612bc45750600290565b50600190565b604051630180cdbb60e21b8152600481018490526001600160a01b03838116602483015282811660448301526000917f00000000000000000000000000000000000000000000000000000000000000009182169063060336ec906064016020604051808303816000875af1158015612c46573d6000803e3d6000fd5b505050506040513d601f19601f82011682018060405250810190612c6a919061328e565b612c7357600080fd5b6040516001600160a01b038281168252851690869088907feb18a64f5be27a04f549ac2ef204545abfbd24f9274dde558c5321804b08f2629060200160405180910390a45092949350505050565b6000336001600160a01b03841614612cd95782610b97565b50919050565b306001600160a01b03167f00000000000000000000000000000000000000000000000000000000000000006001600160a01b031663b56b83536040518163ffffffff1660e01b81526004016020604051808303816000875af1158015612d49573d6000803e3d6000fd5b505050506040513d601f19601f82011682018060405250810190612d6d91906134c2565b6001600160a01b0316146112805760405163219f710160e11b81526001600160a01b037f0000000000000000000000000000000000000000000000000000000000000000166004820152602401611b75565b60007f00000000000000000000000000000000000000000000000000000000000000006001600160a01b031663c047e5636040518163ffffffff1660e01b81526004016020604051808303816000875af1158015612e21573d6000803e3d6000fd5b505050506040513d601f19601f82011682018060405250810190612e459190613386565b15612bc4576040516368f5afab60e01b81526001600160a01b037f0000000000000000000000000000000000000000000000000000000000000000166004820152602401611b75565b60405180610100016040528060008152602001600081526020016000815260200160008152602001600060ff16815260200160006001600160a01b0316815260200160006001600160a01b031681526020016000151581525090565b60008060408385031215612efd57600080fd5b50508035926020909101359150565b634e487b7160e01b600052602160045260246000fd5b6020810160058310612f4457634e487b7160e01b600052602160045260246000fd5b91905290565b600060208284031215612f5c57600080fd5b5035919050565b6001600160a01b0381168114610a3257600080fd5b60008060408385031215612f8b57600080fd5b823591506020830135612f9d81612f63565b809150509250929050565b60008060208385031215612fbb57600080fd5b823567ffffffffffffffff80821115612fd357600080fd5b818501915085601f830112612fe757600080fd5b813581811115612ff657600080fd5b86602082850101111561300857600080fd5b60209290920196919550909350505050565b6001600160801b0381168114610a3257600080fd5b60008060006060848603121561304457600080fd5b8335925060208401356130568161301a565b915060408401356130668161301a565b809150509250925092565b600080600080600060a0868803121561308957600080fd5b85356130948161301a565b945060208601356130a48161301a565b93506040860135925060608601356130bb81612f63565b915060808601356130cb81612f63565b809150509295509295909350565b8051825260208101516020830152604081015160408301526060810151606083015260ff608082015116608083015260a081015160018060a01b0380821660a08501528060c08401511660c0850152505060e0810151151560e08301525050565b610160810161314982876130d9565b6101008201949094526001600160a01b039290921661012083015261014090910152919050565b805160ff8116811461318157600080fd5b919050565b805161318181612f63565b8051801515811461318157600080fd5b60006101008083850312156131b557600080fd5b6040519081019067ffffffffffffffff821181831017156131e657634e487b7160e01b600052604160045260246000fd5b816040528092508351815260208401516020820152604084015160408201526060840151606082015261321b60808501613170565b608082015261322c60a08501613186565b60a082015261323d60c08501613186565b60c082015261324e60e08501613191565b60e0820152505092915050565b6000610100828403121561326e57600080fd5b610b9783836131a1565b634e487b7160e01b600052603260045260246000fd5b6000602082840312156132a057600080fd5b610b9782613191565b634e487b7160e01b600052601160045260246000fd5b81810381811115610b9a57610b9a6132a9565b80820180821115610b9a57610b9a6132a9565b80548252600181015460208301526002810154604083015260038101546060830152600481015460ff811660808401526001600160a01b03600882901c811660a085015260058301546001600160a01b038282161660c08601529150506114ee60e0840160ff8360a01c1615159052565b610140810161336582866132e5565b6101008201939093526001600160a01b039190911661012090910152919050565b60006020828403121561339857600080fd5b5051919050565b8284823760609190911b6bffffffffffffffffffffffff19169101908152601401919050565b6000600182016133d7576133d76132a9565b5060010190565b600080604083850312156133f157600080fd5b82516133fc8161301a565b6020840151909250612f9d8161301a565b610140810161336582866130d9565b610160810161342b82876130d9565b6101008201949094526101208101929092526001600160a01b031661014090910152919050565b610160810161346182876132e5565b6101008201949094526001600160a01b03928316610120820152911661014090910152919050565b6000806000610140848603121561349f57600080fd5b6134a985856131a1565b9250610100840151915061012084015190509250925092565b6000602082840312156134d457600080fd5b81516134df81612f63565b939250505056fea26469706673582212201900b44cda029a7a8ec146aeef7a7f345c48ce66c06d787b0ca4ba4b6403dce764736f6c6343000814003360a060405234801561001057600080fd5b50336080526080516104ff6100376000396000818161017c015261023a01526104ff6000f3fe608060405234801561001057600080fd5b50600436106100575760003560e01c80637443c9071461005c5780639412647f146100b6578063b6973283146100d9578063c6198352146100fa578063dc7262051461010d575b600080fd5b61009161006a36600461036c565b6000908152602081905260409020546001600160801b0380821692600160801b9092041690565b604080516001600160801b039384168152929091166020830152015b60405180910390f35b6100c96100c43660046103a1565b61016f565b60405190151581526020016100ad565b6100ec6100e73660046103dd565b610218565b6040519081526020016100ad565b6100ec6101083660046103dd565b61022d565b61014961011b36600461036c565b600060208190529081526040902080546001909101546001600160801b0380831692600160801b9004169083565b604080516001600160801b039485168152939092166020840152908201526060016100ad565b6000336001600160a01b037f000000000000000000000000000000000000000000000000000000000000000016146101c25760405162461bcd60e51b81526004016101b990610409565b60405180910390fd5b50604080516060810182526001600160801b038085168252838116602080840191825242848601908152600089815291829052949020925190518216600160801b02911617815590516001918201559392505050565b60006102258484846102a0565b949350505050565b6000336001600160a01b037f000000000000000000000000000000000000000000000000000000000000000016146102775760405162461bcd60e51b81526004016101b990610409565b6102828484846102a0565b60009485526020859052604090942042600190910155509192915050565b600083815260208181526040808320815160608101835281546001600160801b038082168352600160801b90910416938101939093526001015490820181905282906102ec9042610464565b905061031182602001516001600160801b0316868661030b9190610464565b8361033b565b8251610327906001600160801b0316878461033b565b610331919061047d565b9695505050505050565b600061034d6127106301e187e0610490565b826103588587610490565b6103629190610490565b61022591906104a7565b60006020828403121561037e57600080fd5b5035919050565b80356001600160801b038116811461039c57600080fd5b919050565b6000806000606084860312156103b657600080fd5b833592506103c660208501610385565b91506103d460408501610385565b90509250925092565b6000806000606084860312156103f257600080fd5b505081359360208301359350604090920135919050565b60208082526025908201527f496e74657265737452617465437265643a206f6e6c79206c696e6520636f6e746040820152643930b1ba1760d91b606082015260800190565b634e487b7160e01b600052601160045260246000fd5b818103818111156104775761047761044e565b92915050565b808201808211156104775761047761044e565b80820281158282048414176104775761047761044e565b6000826104c457634e487b7160e01b600052601260045260246000fd5b50049056fea2646970667358221220cc319329f225bb958bcd4f2ad83f42002b262e8b8c6bfae743f6187613790f3964736f6c63430008140033","linkReferences":{}},"methodIdentifiers":{"accrueInterest()":"a6afed95","addCredit(uint128,uint128,uint256,address,address)":"cb836209","arbiter()":"fe25e00a","available(bytes32)":"6932854f","borrow(bytes32,uint256)":"7c93ec30","borrower()":"7df1f1b9","close(bytes32)":"39c79e0c","counts()":"817cc1ea","credits(bytes32)":"42997913","deadline()":"29dcb0cf","declareInsolvent()":"feccf26f","depositAndClose()":"7eef544d","depositAndRepay(uint256)":"dfe96083","escrow()":"e2fdcc17","healthcheck()":"4f42fc02","ids(uint256)":"fac333ac","increaseCredit(bytes32,uint256)":"c3651574","init()":"e1c7392a","interestAccrued(bytes32)":"7df33c20","interestRate()":"7c3a00fd","liquidate(uint256,address)":"5fae8b3d","mutualConsentProposals(bytes32)":"38deee8f","nextInQ()":"e701af99","oracle()":"7dc0d1d0","revokeConsent(bytes)":"a4e7d38f","setRates(bytes32,uint128,uint128)":"ac856fac","status()":"200d2ed2","stepQ()":"62bfcc68","updateOutstandingDebt()":"501b56d8","withdraw(bytes32,uint256)":"040cf020"},"id":11}