{"abi":[{"type":"constructor","inputs":[],"stateMutability":"nonpayable"},{"type":"function","name":"MAX_PRICE_LATENCY","inputs":[],"outputs":[{"name":"","type":"uint256","internalType":"uint256"}],"stateMutability":"view"},{"type":"function","name":"NULL_PRICE","inputs":[],"outputs":[{"name":"","type":"int256","internalType":"int256"}],"stateMutability":"view"},{"type":"function","name":"PRICE_DECIMALS","inputs":[],"outputs":[{"name":"","type":"uint8","internalType":"uint8"}],"stateMutability":"view"},{"type":"function","name":"_getLatestAnswer","inputs":[{"name":"token","type":"address","internalType":"address"}],"outputs":[{"name":"","type":"int256","internalType":"int256"}],"stateMutability":"view"},{"type":"function","name":"getLatestAnswer","inputs":[{"name":"token_","type":"address","internalType":"address"}],"outputs":[{"name":"","type":"int256","internalType":"int256"}],"stateMutability":"nonpayable"},{"type":"function","name":"priceFeed","inputs":[{"name":"","type":"address","internalType":"address"}],"outputs":[{"name":"","type":"address","internalType":"address"}],"stateMutability":"view"},{"type":"event","name":"NoDecimalData","inputs":[{"name":"token","type":"address","indexed":true,"internalType":"address"},{"name":"errData","type":"bytes","indexed":false,"internalType":"bytes"}],"anonymous":false},{"type":"event","name":"NoRoundData","inputs":[{"name":"token","type":"address","indexed":true,"internalType":"address"},{"name":"errData","type":"bytes","indexed":false,"internalType":"bytes"}],"anonymous":false},{"type":"event","name":"NullPrice","inputs":[{"name":"token","type":"address","indexed":true,"internalType":"address"}],"anonymous":false},{"type":"event","name":"StalePrice","inputs":[{"name":"token","type":"address","indexed":true,"internalType":"address"},{"name":"answerTimestamp","type":"uint256","indexed":false,"internalType":"uint256"}],"anonymous":false}],"bytecode":{"object":"0x608060405234801561001057600080fd5b50600060208190527f055aec32800c1157d69820865326b61e91384dc9cf7d6e5d81cc0f17b3c3978380546001600160a01b0319908116734746dec9e833a82ec7c2c1356372ccf2cfcd2f3d17909155732791bca1f2de4661ed88a30c99a7a9449aa841749091527f905324f6ac5b7ced7b5c02238633a89b1812b204b997b2d9662e7ee96782f059805490911673fe4a8cc5b5b2366c1b58bea3858e81843581b2f71790556109c6806100c56000396000f3fe608060405234801561001057600080fd5b50600436106100625760003560e01c8063168909db146100675780631fd48b9a1461008d5780634e184a56146100ce5780636849a3ba146100d85780639d431b6a146100eb578063f1a640f8146100f3575b600080fd5b61007a6100753660046106de565b61010d565b6040519081526020015b60405180910390f35b6100b661009b3660046106de565b6000602081905290815260409020546001600160a01b031681565b6040516001600160a01b039091168152602001610084565b61007a62015f9081565b61007a6100e63660046106de565b610328565b61007a600081565b6100fb600881565b60405160ff9091168152602001610084565b6001600160a01b03808216600090815260208190526040808220548151633fabe5a360e21b815291519293169163feaf968c9160048082019260a0929091908290030181865afa925050508015610181575060408051601f3d908101601f1916820190925261017e91810190610728565b60015b6101be573d8080156101af576040519150601f19603f3d011682016040523d82523d6000602084013e6101b4565b606091505b5060009392505050565b8115806101d6575062015f906101d4834261078e565b115b156101e8575060009695505050505050565b600084136101fd575060009695505050505050565b6001600160a01b038088166000908152602081815260409182902054825163313ce56760e01b8152925193169263313ce5679260048082019392918290030181865afa92505050801561026d575060408051601f3d908101601f1916820190925261026a918101906107a7565b60015b6102af573d80801561029b576040519150601f19603f3d011682016040523d82523d6000602084013e6102a0565b606091505b50600098975050505050505050565b60071960ff8216016102c75750929695505050505050565b600860ff8216106102f7576102dd6008826107ca565b6102e890600a6108c7565b6102f290866108d6565b610317565b6103028160086107ca565b61030d90600a6108c7565b6103179086610912565b98975050505050505050565b919050565b6001600160a01b038181166000908152602081905260408120549091166103835760405162461bcd60e51b815260206004820152600b60248201526a155394d5541413d495115160aa1b604482015260640160405180910390fd5b60006001600160a01b03831673c02aaa39b223fe8d0a0e5c4f27ead9083c756cc2146103af57826103c5565b73eeeeeeeeeeeeeeeeeeeeeeeeeeeeeeeeeeeeeeee5b6001600160a01b0380851660009081526020819052604090819020548151633fabe5a360e21b815291519394509091169163feaf968c9160048082019260a0929091908290030181865afa92505050801561043d575060408051601f3d908101601f1916820190925261043a91810190610728565b60015b6104bc573d80801561046b576040519150601f19603f3d011682016040523d82523d6000602084013e610470565b606091505b50816001600160a01b03167f92929f88aa3ceb38c4107911285a1a5aa696da78d3c5f89e288dc6288aa24cfb826040516104aa9190610942565b60405180910390a25060009392505050565b8115806104d4575062015f906104d2834261078e565b115b1561052a57856001600160a01b03167feb1fe96e2dd16e9b4fe45d158bdab7094ab3db25b6f7f792f4c820126e77079a8360405161051491815260200190565b60405180910390a2506000979650505050505050565b60008413610574576040516001600160a01b038716907f5f29f4c3a52cdc9b909b8bdcfb6cf9353c1f0659ba63a0b7a3e31eb97815164090600090a2506000979650505050505050565b6001600160a01b038089166000908152602081815260409182902054825163313ce56760e01b8152925193169263313ce5679260048082019392918290030181865afa9250505080156105e4575060408051601f3d908101601f191682019092526105e1918101906107a7565b60015b610668573d808015610612576040519150601f19603f3d011682016040523d82523d6000602084013e610617565b606091505b50866001600160a01b03167f54dad17a3ccb587987f05fc671e0a4d35d9e1f9f5249833c103cfbae1e44ca64826040516106519190610942565b60405180910390a250600098975050505050505050565b60071960ff821601610681575092979650505050505050565b600860ff8216106106b1576106976008826107ca565b6106a290600a6108c7565b6106ac90866108d6565b6106d1565b6106bc8160086107ca565b6106c790600a6108c7565b6106d19086610912565b9998505050505050505050565b6000602082840312156106f057600080fd5b81356001600160a01b038116811461070757600080fd5b9392505050565b805169ffffffffffffffffffff8116811461032357600080fd5b600080600080600060a0868803121561074057600080fd5b6107498661070e565b945060208601519350604086015192506060860151915061076c6080870161070e565b90509295509295909350565b634e487b7160e01b600052601160045260246000fd5b818103818111156107a1576107a1610778565b92915050565b6000602082840312156107b957600080fd5b815160ff8116811461070757600080fd5b60ff82811682821603908111156107a1576107a1610778565b600181815b8085111561081e57816000190482111561080457610804610778565b8085161561081157918102915b93841c93908002906107e8565b509250929050565b600082610835575060016107a1565b81610842575060006107a1565b816001811461085857600281146108625761087e565b60019150506107a1565b60ff84111561087357610873610778565b50506001821b6107a1565b5060208310610133831016604e8410600b84101617156108a1575081810a6107a1565b6108ab83836107e3565b80600019048211156108bf576108bf610778565b029392505050565b600061070760ff841683610826565b6000826108f357634e487b7160e01b600052601260045260246000fd5b600160ff1b82146000198414161561090d5761090d610778565b500590565b80820260008212600160ff1b8414161561092e5761092e610778565b81810583148215176107a1576107a1610778565b600060208083528351808285015260005b8181101561096f57858101830151858201604001528201610953565b506000604082860101526040601f19601f830116850101925050509291505056fea26469706673582212202034c918ee4e6c7a213b12b4b861f75ffd274dcd4160d900975085dff0c57ab664736f6c63430008140033","linkReferences":{}},"methodIdentifiers":{"MAX_PRICE_LATENCY()":"4e184a56","NULL_PRICE()":"9d431b6a","PRICE_DECIMALS()":"f1a640f8","_getLatestAnswer(address)":"168909db","getLatestAnswer(address)":"6849a3ba","priceFeed(address)":"1fd48b9a"},"id":37}