{"abi":[{"type":"function","name":"canDeclareInsolvent","inputs":[{"name":"spigot","type":"address","internalType":"address"},{"name":"arbiter","type":"address","internalType":"address"}],"outputs":[{"name":"","type":"bool","internalType":"bool"}],"stateMutability":"view"},{"type":"event","name":"ReservesChanged","inputs":[{"name":"token","type":"address","indexed":true,"internalType":"address"},{"name":"diff","type":"int256","indexed":true,"internalType":"int256"},{"name":"tokenType","type":"uint256","indexed":false,"internalType":"uint256"}],"anonymous":false},{"type":"event","name":"TradeSpigotRevenue","inputs":[{"name":"revenueToken","type":"address","indexed":true,"internalType":"address"},{"name":"revenueTokenAmount","type":"uint256","indexed":false,"internalType":"uint256"},{"name":"debtToken","type":"address","indexed":true,"internalType":"address"},{"name":"debtTokensBought","type":"uint256","indexed":true,"internalType":"uint256"}],"anonymous":false},{"type":"error","name":"BadTradingPair","inputs":[]},{"type":"error","name":"CallerAccessDenied","inputs":[]},{"type":"error","name":"NoSpigot","inputs":[]},{"type":"error","name":"NotInsolvent","inputs":[{"name":"module","type":"address","internalType":"address"}]},{"type":"error","name":"ReleaseSpigotFailed","inputs":[]},{"type":"error","name":"ReservesOverdrawn","inputs":[{"name":"token","type":"address","internalType":"address"},{"name":"amountAvailable","type":"uint256","internalType":"uint256"}]},{"type":"error","name":"TradeFailed","inputs":[]}],"bytecode":{"object":"0x6111ed61003a600b82828239805160001a60731461002d57634e487b7160e01b600052600060045260246000fd5b30600052607381538281f3fe73000000000000000000000000000000000000000030146080604052600436106100875760003560e01c80635415ce3d116100655780635415ce3d146100f457806385831bc314610114578063b085a00d14610142578063f6be8d101461017757600080fd5b8063243dc2ee1461008c578063306d4f03146100b457806342cef4b1146100d4575b600080fd5b61009f61009a366004610d9e565b610197565b60405190151581526020015b60405180910390f35b8180156100c057600080fd5b5061009f6100cf366004610dfa565b610260565b8180156100e057600080fd5b5061009f6100ef366004610d9e565b61041a565b81801561010057600080fd5b5061009f61010f366004610e9d565b61049c565b81801561012057600080fd5b5061013461012f366004610f10565b61064d565b6040519081526020016100ab565b81801561014e57600080fd5b5061016261015d366004610f92565b610821565b604080519283526020830191909152016100ab565b81801561018357600080fd5b5061009f61019236600461102a565b610c68565b600080836001600160a01b0316638da5cb5b6040518163ffffffff1660e01b8152600401602060405180830381865afa1580156101d8573d6000803e3d6000fd5b505050506040513d601f19601f820116820180604052508101906101fc9190611099565b9050306001600160a01b03821614806102265750806001600160a01b0316836001600160a01b0316145b15610254576040516368f5afab60e01b81526001600160a01b03851660048201526024015b60405180910390fd5b60019150505b92915050565b604051631855cc1b60e31b81526001600160a01b038481166004830152600091829182919088169063c2ae60d890602401606060405180830381865afa1580156102ae573d6000803e3d6000fd5b505050506040513d601f19601f820116820180604052508101906102d291906110d5565b919350909150506001600160e01b0319811661030157604051637f84e42960e01b815260040160405180910390fd5b60018560048111156103155761031561111a565b14801561032857508360ff168260ff1614155b156103ac57604051630943cd2960e11b81526001600160a01b03878116600483015260ff861660248301528816906312879a52906044015b6020604051808303816000875af115801561037f573d6000803e3d6000fd5b505050506040513d601f19601f820116820180604052508101906103a39190611130565b92505050610412565b60028560048111156103c0576103c061111a565b1480156103d1575060ff8216606414155b1561040b57604051630943cd2960e11b81526001600160a01b038781166004830152606460248301528816906312879a5290604401610360565b6000925050505b949350505050565b60405163880cdc3160e01b81526001600160a01b0382811660048301526000919084169063880cdc31906024016020604051808303816000875af1158015610466573d6000803e3d6000fd5b505050506040513d601f19601f8201168201806040525081019061048a9190611130565b61049357600080fd5b50600192915050565b600073eeeeeeeeeeeeeeeeeeeeeeeeeeeeeeeeeeeeeeed196001600160a01b0386160161054a576000846001600160a01b03168785856040516104e0929190611152565b60006040518083038185875af1925050503d806000811461051d576040519150601f19603f3d011682016040523d82523d6000602084013e610522565b606091505b505090508061054457604051632d8ef0cf60e01b815260040160405180910390fd5b50610640565b60405163095ea7b360e01b81526001600160a01b0385811660048301526024820188905286169063095ea7b3906044016020604051808303816000875af1158015610599573d6000803e3d6000fd5b505050506040513d601f19601f820116820180604052508101906105bd9190611130565b506000846001600160a01b031684846040516105da929190611152565b6000604051808303816000865af19150503d8060008114610617576040519150601f19603f3d011682016040523d82523d6000602084013e61061c565b606091505b505090508061063e57604051632d8ef0cf60e01b815260040160405180910390fd5b505b5060015b95945050505050565b60008460000361065f57506000610816565b8560000361066f578495506106a1565b848611156106a157604051625ea67960e21b81526001600160a01b03881660048201526024810186905260440161024b565b60038460048111156106b5576106b561111a565b1480156106ca5750336001600160a01b038416145b156107645760405163d55fad0560e01b81526001600160a01b03808916600483015289166024820152604481018790527373cb72a7efaddd99cdd2d110e2f4b8b65bf3b8129063d55fad05906064015b602060405180830381865af4158015610737573d6000803e3d6000fd5b505050506040513d601f19601f8201168201806040525081019061075b9190611130565b50859050610816565b60028460048111156107785761077861111a565b1480610795575060048460048111156107935761079361111a565b145b80156107a95750336001600160a01b038316145b156107fd5760405163d55fad0560e01b81526001600160a01b03808916600483015289166024820152604481018790527373cb72a7efaddd99cdd2d110e2f4b8b65bf3b8129063d55fad059060640161071a565b604051631172e7cd60e01b815260040160405180910390fd5b979650505050505050565b600080876001600160a01b0316896001600160a01b031603610856576040516320458ce160e11b815260040160405180910390fd5b60405163f8b2cb4f60e01b81526001600160a01b038a1660048201526000907373cb72a7efaddd99cdd2d110e2f4b8b65bf3b8129063f8b2cb4f90602401602060405180830381865af41580156108b1573d6000803e3d6000fd5b505050506040513d601f19601f820116820180604052508101906108d59190611162565b60405163f8b2cb4f60e01b81526001600160a01b038b1660048201529091506000907373cb72a7efaddd99cdd2d110e2f4b8b65bf3b8129063f8b2cb4f90602401602060405180830381865af4158015610933573d6000803e3d6000fd5b505050506040513d601f19601f820116820180604052508101906109579190611162565b60405163f07c570960e01b81526001600160a01b038d811660048301529192506000918a169063f07c5709906024016020604051808303816000875af11580156109a5573d6000803e3d6000fd5b505050506040513d601f19601f820116820180604052508101906109c99190611162565b90506109e16109d88983611191565b8d8c8a8a61049c565b5060405163f8b2cb4f60e01b81526001600160a01b038c16600482015260009083907373cb72a7efaddd99cdd2d110e2f4b8b65bf3b8129063f8b2cb4f90602401602060405180830381865af4158015610a3f573d6000803e3d6000fd5b505050506040513d601f19601f82011682018060405250810190610a639190611162565b610a6d91906111a4565b905080600003610a9057604051632d8ef0cf60e01b815260040160405180910390fd5b60405163f8b2cb4f60e01b81526001600160a01b038e1660048201526000907373cb72a7efaddd99cdd2d110e2f4b8b65bf3b8129063f8b2cb4f90602401602060405180830381865af4158015610aeb573d6000803e3d6000fd5b505050506040513d601f19601f82011682018060405250810190610b0f9190611162565b9050818d6001600160a01b03168f6001600160a01b03167f9c7e3719be13960547a8b4b08bb9a149591882ce5bdd3f07331d27590ab41e6186604051610b5791815260200190565b60405180910390a480851115610bff5760008186039050806000038f6001600160a01b03167f7dcdf49c7e92795e08b749f8dd551c92f7be794148ac2f9db089e2e67cbdd5196000604051610bae91815260200190565b60405180910390a38a811115610bee578e8b604051625ea67960e21b815260040161024b9291906001600160a01b03929092168252602082015260400190565b9196505088039350610c5c92505050565b60008582039050808f6001600160a01b03167f7dcdf49c7e92795e08b749f8dd551c92f7be794148ac2f9db089e2e67cbdd5196000604051610c4391815260200190565b60405180910390a39196505088019350610c5c92505050565b97509795505050505050565b60006003856004811115610c7e57610c7e61111a565b148015610c935750336001600160a01b038516145b15610d2a5760405163880cdc3160e01b81526001600160a01b03838116600483015287169063880cdc31906024015b6020604051808303816000875af1158015610ce1573d6000803e3d6000fd5b505050506040513d601f19601f82011682018060405250810190610d059190611130565b610d2257604051631e262ded60e31b815260040160405180910390fd5b506001610644565b6002856004811115610d3e57610d3e61111a565b148015610d535750336001600160a01b038416145b156107fd5760405163880cdc3160e01b81526001600160a01b03838116600483015287169063880cdc3190602401610cc2565b6001600160a01b0381168114610d9b57600080fd5b50565b60008060408385031215610db157600080fd5b8235610dbc81610d86565b91506020830135610dcc81610d86565b809150509250929050565b803560058110610de657600080fd5b919050565b60ff81168114610d9b57600080fd5b60008060008060808587031215610e1057600080fd5b8435610e1b81610d86565b93506020850135610e2b81610d86565b9250610e3960408601610dd7565b91506060850135610e4981610deb565b939692955090935050565b60008083601f840112610e6657600080fd5b50813567ffffffffffffffff811115610e7e57600080fd5b602083019150836020828501011115610e9657600080fd5b9250929050565b600080600080600060808688031215610eb557600080fd5b853594506020860135610ec781610d86565b93506040860135610ed781610d86565b9250606086013567ffffffffffffffff811115610ef357600080fd5b610eff88828901610e54565b969995985093965092949392505050565b600080600080600080600060e0888a031215610f2b57600080fd5b8735610f3681610d86565b96506020880135610f4681610d86565b95506040880135945060608801359350610f6260808901610dd7565b925060a0880135610f7281610d86565b915060c0880135610f8281610d86565b8091505092959891949750929550565b600080600080600080600060c0888a031215610fad57600080fd5b8735610fb881610d86565b96506020880135610fc881610d86565b95506040880135610fd881610d86565b94506060880135610fe881610d86565b93506080880135925060a088013567ffffffffffffffff81111561100b57600080fd5b6110178a828b01610e54565b989b979a50959850939692959293505050565b600080600080600060a0868803121561104257600080fd5b853561104d81610d86565b945061105b60208701610dd7565b9350604086013561106b81610d86565b9250606086013561107b81610d86565b9150608086013561108b81610d86565b809150509295509295909350565b6000602082840312156110ab57600080fd5b81516110b681610d86565b9392505050565b80516001600160e01b031981168114610de657600080fd5b6000806000606084860312156110ea57600080fd5b83516110f581610deb565b9250611103602085016110bd565b9150611111604085016110bd565b90509250925092565b634e487b7160e01b600052602160045260246000fd5b60006020828403121561114257600080fd5b815180151581146110b657600080fd5b8183823760009101908152919050565b60006020828403121561117457600080fd5b5051919050565b634e487b7160e01b600052601160045260246000fd5b8082018082111561025a5761025a61117b565b8181038181111561025a5761025a61117b56fea26469706673582212200719854fdbfcb25e3503fb486c812c7489fdab2a6986b0ea841e5393a15a4b8164736f6c63430008140033","linkReferences":{}},"methodIdentifiers":{"canDeclareInsolvent(address,address)":"243dc2ee","claimAndTrade(address,address,address,address,uint256,bytes)":"b085a00d","releaseSpigot(address,LineLib.STATUS,address,address,address)":"f6be8d10","rollover(address,address)":"42cef4b1","sweep(address,address,uint256,uint256,LineLib.STATUS,address,address)":"85831bc3","trade(uint256,address,address,bytes)":"5415ce3d","updateSplit(address,address,LineLib.STATUS,uint8)":"306d4f03"},"id":76}