{"abi":[{"type":"function","name":"calculateValue","inputs":[{"name":"price","type":"int256","internalType":"int256"},{"name":"amount","type":"uint256","internalType":"uint256"},{"name":"decimals","type":"uint8","internalType":"uint8"}],"outputs":[{"name":"","type":"uint256","internalType":"uint256"}],"stateMutability":"pure"},{"type":"function","name":"computeId","inputs":[{"name":"line","type":"address","internalType":"address"},{"name":"lender","type":"address","internalType":"address"},{"name":"token","type":"address","internalType":"address"}],"outputs":[{"name":"","type":"bytes32","internalType":"bytes32"}],"stateMutability":"pure"},{"type":"function","name":"getNextRateInQ","inputs":[{"name":"principal","type":"uint256","internalType":"uint256"},{"name":"id","type":"bytes32","internalType":"bytes32"},{"name":"interest","type":"address","internalType":"address"}],"outputs":[{"name":"","type":"uint128","internalType":"uint128"},{"name":"","type":"uint128","internalType":"uint128"}],"stateMutability":"view"},{"type":"function","name":"interestAccrued","inputs":[{"name":"credit","type":"tuple","internalType":"struct ILineOfCredit.Credit","components":[{"name":"deposit","type":"uint256","internalType":"uint256"},{"name":"principal","type":"uint256","internalType":"uint256"},{"name":"interestAccrued","type":"uint256","internalType":"uint256"},{"name":"interestRepaid","type":"uint256","internalType":"uint256"},{"name":"decimals","type":"uint8","internalType":"uint8"},{"name":"token","type":"address","internalType":"address"},{"name":"lender","type":"address","internalType":"address"},{"name":"isOpen","type":"bool","internalType":"bool"}]},{"name":"id","type":"bytes32","internalType":"bytes32"},{"name":"interest","type":"address","internalType":"address"}],"outputs":[{"name":"","type":"uint256","internalType":"uint256"}],"stateMutability":"view"},{"type":"event","name":"AddCredit","inputs":[{"name":"lender","type":"address","indexed":true,"internalType":"address"},{"name":"token","type":"address","indexed":true,"internalType":"address"},{"name":"deposit","type":"uint256","indexed":true,"internalType":"uint256"},{"name":"id","type":"bytes32","indexed":false,"internalType":"bytes32"}],"anonymous":false},{"type":"event","name":"Borrow","inputs":[{"name":"id","type":"bytes32","indexed":true,"internalType":"bytes32"},{"name":"amount","type":"uint256","indexed":true,"internalType":"uint256"}],"anonymous":false},{"type":"event","name":"InterestAccrued","inputs":[{"name":"id","type":"bytes32","indexed":true,"internalType":"bytes32"},{"name":"amount","type":"uint256","indexed":true,"internalType":"uint256"}],"anonymous":false},{"type":"event","name":"RepayInterest","inputs":[{"name":"id","type":"bytes32","indexed":true,"internalType":"bytes32"},{"name":"amount","type":"uint256","indexed":true,"internalType":"uint256"}],"anonymous":false},{"type":"event","name":"RepayPrincipal","inputs":[{"name":"id","type":"bytes32","indexed":true,"internalType":"bytes32"},{"name":"amount","type":"uint256","indexed":true,"internalType":"uint256"}],"anonymous":false},{"type":"event","name":"WithdrawDeposit","inputs":[{"name":"id","type":"bytes32","indexed":true,"internalType":"bytes32"},{"name":"amount","type":"uint256","indexed":true,"internalType":"uint256"}],"anonymous":false},{"type":"event","name":"WithdrawProfit","inputs":[{"name":"id","type":"bytes32","indexed":true,"internalType":"bytes32"},{"name":"amount","type":"uint256","indexed":true,"internalType":"uint256"}],"anonymous":false},{"type":"error","name":"CallerAccessDenied","inputs":[]},{"type":"error","name":"CloseFailedWithPrincipal","inputs":[]},{"type":"error","name":"InvalidTokenDecimals","inputs":[]},{"type":"error","name":"NoLiquidity","inputs":[]},{"type":"error","name":"NoLiquidity","inputs":[]},{"type":"error","name":"NoQueue","inputs":[]},{"type":"error","name":"NoTokenPrice","inputs":[]},{"type":"error","name":"PositionExists","inputs":[]},{"type":"error","name":"PositionIsClosed","inputs":[]},{"type":"error","name":"RepayAmountExceedsDebt","inputs":[{"name":"totalAvailable","type":"uint256","internalType":"uint256"}]}],"bytecode":{"object":"0x61112c61003a600b82828239805160001a60731461002d57634e487b7160e01b600052600060045260246000fd5b30600052607381538281f3fe730000000000000000000000000000000000000000301460806040526004361061009d5760003560e01c8063cc280aaf11610070578063cc280aaf1461016e578063d4ce9333146101a1578063d6af3ef6146101c1578063d7c637c9146101f0578063ec65f1bf1461021057600080fd5b80633d7fe9b2146100a25780634332b7fc146100c85780639496dda214610121578063beccf5db1461014e575b600080fd5b6100b56100b0366004610c2c565b610223565b6040519081526020015b60405180910390f35b6100b56100d6366004610c6c565b604080516001600160a01b0380861660208301528085169282019290925290821660608201526000906080016040516020818303038152906040528051906020012090509392505050565b81801561012d57600080fd5b5061014161013c366004610c2c565b6102bc565b6040516100bf9190610d07565b81801561015a57600080fd5b50610141610169366004610d1c565b610398565b61018161017c366004610d73565b6105b1565b604080516001600160801b039384168152929091166020830152016100bf565b8180156101ad57600080fd5b506101416101bc366004610d9f565b610649565b8180156101cd57600080fd5b506101e16101dc366004610de8565b610810565b6040516100bf93929190610e3a565b8180156101fc57600080fd5b5061014161020b366004610e5c565b6108d5565b6100b561021e366004610e9c565b610a81565b6020830151835160405163b697328360e01b815260048101859052602481019290925260448201526000906001600160a01b0383169063b697328390606401602060405180830381865afa15801561027f573d6000803e3d6000fd5b505050506040513d601f19601f820116820180604052508101906102a39190610ed5565b84604001516102b29190610f04565b90505b9392505050565b6102c4610ac4565b8360e001516102d45750826102b5565b6020840151845160405163630cc1a960e11b815260048101869052602481019290925260448201526000906001600160a01b0384169063c6198352906064016020604051808303816000875af1158015610332573d6000803e3d6000fd5b505050506040513d601f19601f820116820180604052508101906103569190610ed5565b604080870180518301905251909150819085907f0af10eb295a95d39da2bdd3886bc7184c16b2dd4bff03d6879ce1ec5e7435c9d90600090a350929392505050565b6103a0610ac4565b604051633424d1dd60e11b81526001600160a01b03848116600483015260009190841690636849a3ba906024016020604051808303816000875af11580156103ec573d6000803e3d6000fd5b505050506040513d601f19601f820116820180604052508101906104109190610ed5565b9050600081136104335760405163f053c44960e01b815260040160405180910390fd5b60408051600481526024810182526020810180516001600160e01b031663313ce56760e01b179052905160009182916001600160a01b0388169161047691610f17565b6000604051808303816000865af19150503d80600081146104b3576040519150601f19603f3d011682016040523d82523d6000602084013e6104b8565b606091505b50915091508115806104c957508051155b156104e75760405163686d360760e01b815260040160405180910390fd5b6000818060200190518101906104fd9190610f46565b90506040518061010001604052808a81526020016000815260200160008152602001600081526020018260ff168152602001886001600160a01b03168152602001896001600160a01b0316815260200160011515815250945088876001600160a01b0316896001600160a01b03167f0ed17caf762b6cecb5e1725587f5cf76bd3c92af215ec2f19a773d976e693bb68d60405161059c91815260200190565b60405180910390a45050505095945050505050565b600080846000036105d55760405163517661c360e01b815260040160405180910390fd5b604051637443c90760e01b8152600481018590526001600160a01b03841690637443c907906024016040805180830381865afa158015610619573d6000803e3d6000fd5b505050506040513d601f19601f8201168201806040525081019061063d9190610f7a565b91509150935093915050565b610651610ac4565b8460c001516001600160a01b0316836001600160a01b03161461068757604051631172e7cd60e01b815260040160405180910390fd5b60608501516020860151865103018211156106b557604051636180f03f60e11b815260040160405180910390fd5b84606001518211156107375760608501805186518185039081900388526000928390526040519192909187917fa8c6fb49698d38e185a46a516da8802444a0816d0e0ee3a5d3f530e17b6fa41f91a3604051819086907f4f78e5d544f0502bfc2b8cfc5ae7f6b6918cab2266650ddf720f878b6b832c8390600090a350610770565b6060850180518390039052604051829085907f4f78e5d544f0502bfc2b8cfc5ae7f6b6918cab2266650ddf720f878b6b832c8390600090a35b60a085015160c086015160405163d55fad0560e01b81526001600160a01b03928316600482015291166024820152604481018390527373cb72a7efaddd99cdd2d110e2f4b8b65bf3b8129063d55fad05906064015b602060405180830381865af41580156107e2573d6000803e3d6000fd5b505050506040513d601f19601f820116820180604052508101906108069190610fad565b5093949350505050565b610818610ac4565b6000806108268787866102bc565b60a0810151604051633424d1dd60e11b81526001600160a01b03918216600482015291945060009190871690636849a3ba906024016020604051808303816000875af115801561087a573d6000803e3d6000fd5b505050506040513d601f19601f8201168201806040525081019061089e9190610ed5565b90506108b38185602001518660800151610a81565b92506108c88185604001518660800151610a81565b9150509450945094915050565b6108dd610ac4565b8460e001516108ff5760405163d320557760e01b815260040160405180910390fd5b84604001518560200151018311156109415784604001518560200151016040516373a50fb160e01b815260040161093891815260200190565b60405180910390fd5b84604001518311610992576040808601805185900390526060860180518501905251839085907f456ba55dea464bc558df162999372fd0cbe95b91cd2bcc1349883a369d02080d90600090a3610a15565b6040808601805160208801805182880390819003909152606089018051830190526000928390529251909291839188917f456ba55dea464bc558df162999372fd0cbe95b91cd2bcc1349883a369d02080d91a3604051819087907f4a4ac2794c0e12ecef8c0bcc232f21af4af8f92ffe355e95409eb612e90e64f390600090a350505b6001600160a01b03821615610a785760a085015160405162f6020f60e71b81526001600160a01b0391821660048201529083166024820152604481018490527373cb72a7efaddd99cdd2d110e2f4b8b65bf3b81290637b010780906064016107c5565b50929392505050565b600080841315610aba57610a9682600a6110ae565b610aa19060016110bd565b610aab85856110bd565b610ab591906110d4565b6102b2565b5060009392505050565b60405180610100016040528060008152602001600081526020016000815260200160008152602001600060ff16815260200160006001600160a01b0316815260200160006001600160a01b031681526020016000151581525090565b60ff81168114610b2f57600080fd5b50565b8035610b3d81610b20565b919050565b80356001600160a01b0381168114610b3d57600080fd5b8015158114610b2f57600080fd5b8035610b3d81610b59565b6000610100808385031215610b8657600080fd5b6040519081019067ffffffffffffffff82118183101715610bb757634e487b7160e01b600052604160045260246000fd5b8160405280925083358152602084013560208201526040840135604082015260608401356060820152610bec60808501610b32565b6080820152610bfd60a08501610b42565b60a0820152610c0e60c08501610b42565b60c0820152610c1f60e08501610b67565b60e0820152505092915050565b60008060006101408486031215610c4257600080fd5b610c4c8585610b72565b92506101008401359150610c636101208501610b42565b90509250925092565b600080600060608486031215610c8157600080fd5b610c8a84610b42565b9250610c9860208501610b42565b9150610c6360408501610b42565b8051825260208101516020830152604081015160408301526060810151606083015260ff608082015116608083015260a081015160018060a01b0380821660a08501528060c08401511660c0850152505060e0810151151560e08301525050565b6101008101610d168284610ca6565b92915050565b600080600080600060a08688031215610d3457600080fd5b8535945060208601359350610d4b60408701610b42565b9250610d5960608701610b42565b9150610d6760808701610b42565b90509295509295909350565b600080600060608486031215610d8857600080fd5b8335925060208401359150610c6360408501610b42565b6000806000806101608587031215610db657600080fd5b610dc08686610b72565b93506101008501359250610dd76101208601610b42565b939692955092936101400135925050565b6000806000806101608587031215610dff57600080fd5b610e098686610b72565b93506101008501359250610e206101208601610b42565b9150610e2f6101408601610b42565b905092959194509250565b6101408101610e498286610ca6565b6101008201939093526101200152919050565b6000806000806101608587031215610e7357600080fd5b610e7d8686610b72565b935061010085013592506101208501359150610e2f6101408601610b42565b600080600060608486031215610eb157600080fd5b83359250602084013591506040840135610eca81610b20565b809150509250925092565b600060208284031215610ee757600080fd5b5051919050565b634e487b7160e01b600052601160045260246000fd5b80820180821115610d1657610d16610eee565b6000825160005b81811015610f385760208186018101518583015201610f1e565b506000920191825250919050565b600060208284031215610f5857600080fd5b81516102b581610b20565b80516001600160801b0381168114610b3d57600080fd5b60008060408385031215610f8d57600080fd5b610f9683610f63565b9150610fa460208401610f63565b90509250929050565b600060208284031215610fbf57600080fd5b81516102b581610b59565b600181815b80851115611005578160001904821115610feb57610feb610eee565b80851615610ff857918102915b93841c9390800290610fcf565b509250929050565b60008261101c57506001610d16565b8161102957506000610d16565b816001811461103f576002811461104957611065565b6001915050610d16565b60ff84111561105a5761105a610eee565b50506001821b610d16565b5060208310610133831016604e8410600b8410161715611088575081810a610d16565b6110928383610fca565b80600019048211156110a6576110a6610eee565b029392505050565b60006102b560ff84168361100d565b8082028115828204841417610d1657610d16610eee565b6000826110f157634e487b7160e01b600052601260045260246000fd5b50049056fea2646970667358221220dbf7b4bf678346d3242116c760a9a19676db7c266bad406fec8629ffec8a8fc064736f6c63430008140033","linkReferences":{}},"methodIdentifiers":{"accrue(ILineOfCredit.Credit,bytes32,address)":"9496dda2","calculateValue(int256,uint256,uint8)":"ec65f1bf","computeId(address,address,address)":"4332b7fc","create(bytes32,uint256,address,address,address)":"beccf5db","getNextRateInQ(uint256,bytes32,address)":"cc280aaf","getOutstandingDebt(ILineOfCredit.Credit,bytes32,address,address)":"d6af3ef6","interestAccrued(ILineOfCredit.Credit,bytes32,address)":"3d7fe9b2","repay(ILineOfCredit.Credit,bytes32,uint256,address)":"d7c637c9","withdraw(ILineOfCredit.Credit,bytes32,address,uint256)":"d4ce9333"},"id":68}