{"abi":[{"type":"constructor","inputs":[],"stateMutability":"nonpayable"},{"type":"function","name":"trade","inputs":[{"name":"tokenIn","type":"address","internalType":"address"},{"name":"tokenOut","type":"address","internalType":"address"},{"name":"amountIn","type":"uint256","internalType":"uint256"},{"name":"minAmountOut","type":"uint256","internalType":"uint256"}],"outputs":[{"name":"","type":"bool","internalType":"bool"}],"stateMutability":"payable"},{"type":"event","name":"Received","inputs":[{"name":"token","type":"address","indexed":false,"internalType":"address"},{"name":"value","type":"uint256","indexed":false,"internalType":"uint256"}],"anonymous":false},{"type":"event","name":"Sent","inputs":[{"name":"token","type":"address","indexed":false,"internalType":"address"},{"name":"value","type":"uint256","indexed":false,"internalType":"uint256"}],"anonymous":false}],"bytecode":{"object":"0x608060405234801561001057600080fd5b506102ac806100206000396000f3fe60806040526004361061001e5760003560e01c80634849b6c814610023575b600080fd5b61003661003136600461020b565b61004a565b604051901515815260200160405180910390f35b60405162f6020f60e71b81526001600160a01b0385166004820152336024820152604481018390526000907373cb72a7efaddd99cdd2d110e2f4b8b65bf3b81290637b01078090606401602060405180830381865af41580156100b1573d6000803e3d6000fd5b505050506040513d601f19601f820116820180604052508101906100d5919061024d565b50604080516001600160a01b0387168152602081018590527f88a5966d370b9919b20f3e2c13ff65706f196a4e32cc2c12bf57088f88525874910160405180910390a160405163d55fad0560e01b81526001600160a01b0385166004820152336024820152604481018390527373cb72a7efaddd99cdd2d110e2f4b8b65bf3b8129063d55fad0590606401602060405180830381865af415801561017d573d6000803e3d6000fd5b505050506040513d601f19601f820116820180604052508101906101a1919061024d565b50604080516001600160a01b0386168152602081018490527f510ffb4dcab972ae9d2007a58e13f1b0881776d23cd8f5cc32f8c5be2dbf70d2910160405180910390a1506001949350505050565b80356001600160a01b038116811461020657600080fd5b919050565b6000806000806080858703121561022157600080fd5b61022a856101ef565b9350610238602086016101ef565b93969395505050506040820135916060013590565b60006020828403121561025f57600080fd5b8151801515811461026f57600080fd5b939250505056fea26469706673582212204854fcc7c75b535958c3e4ae0ea68546f2a7a902b39bcd6143056c39b6bffc5064736f6c63430008140033","linkReferences":{}},"methodIdentifiers":{"trade(address,address,uint256,uint256)":"4849b6c8"},"id":26}