{"abi":[{"type":"constructor","inputs":[],"stateMutability":"nonpayable"},{"type":"function","name":"creditLib","inputs":[],"outputs":[{"name":"","type":"address","internalType":"address"}],"stateMutability":"view"},{"type":"function","name":"creditListLib","inputs":[],"outputs":[{"name":"","type":"address","internalType":"address"}],"stateMutability":"view"},{"type":"function","name":"escrowLib","inputs":[],"outputs":[{"name":"","type":"address","internalType":"address"}],"stateMutability":"view"},{"type":"function","name":"lineFactoryLib","inputs":[],"outputs":[{"name":"","type":"address","internalType":"address"}],"stateMutability":"view"},{"type":"function","name":"lineLib","inputs":[],"outputs":[{"name":"","type":"address","internalType":"address"}],"stateMutability":"view"},{"type":"function","name":"spigotLib","inputs":[],"outputs":[{"name":"","type":"address","internalType":"address"}],"stateMutability":"view"},{"type":"function","name":"spigotedLineLib","inputs":[],"outputs":[{"name":"","type":"address","internalType":"address"}],"stateMutability":"view"}],"bytecode":{"object":"0x608060405234801561001057600080fd5b50600080546001600160a01b0319908116734dca189d7fb51d9cc375e4d697e5800c5d21ff876001600160a01b03908116919091178355600180548316739cbe9741b3503a790e69e1587b5d51c0056154dc8316179055600280548316739ae9c76276e503105f20c8b452ccd0c4ee3b2df28316179055600380548316732b721a999b83cbcc1dbd697a27199d5b4be7010283161790556004805483167373cb72a7efaddd99cdd2d110e2f4b8b65bf3b812831617905560058054831673274946031d204567281f7616718b4abb940ef78483161790556006805490921673__$7703afd4da5b3150468ac963f777627f3c$__90911617905561015990819061011990396000f3fe608060405234801561001057600080fd5b506004361061007d5760003560e01c806374201b841161005b57806374201b84146100d7578063a07072a4146100ea578063c1d016e3146100fd578063cb486c761461011057600080fd5b806306238b3814610082578063235c2012146100b1578063501f4733146100c4575b600080fd5b600654610095906001600160a01b031681565b6040516001600160a01b03909116815260200160405180910390f35b600154610095906001600160a01b031681565b600554610095906001600160a01b031681565b600354610095906001600160a01b031681565b600454610095906001600160a01b031681565b600254610095906001600160a01b031681565b600054610095906001600160a01b03168156fea26469706673582212205fd8018a69fbefa01e70e5abe17ad6d2111c9dca49ecf110bde0729dd7f9ac5864736f6c63430008140033","linkReferences":{"contracts/utils/SpigotLib.sol":{"SpigotLib":[{"start":240,"length":20}]}}},"methodIdentifiers":{"creditLib()":"cb486c76","creditListLib()":"235c2012","escrowLib()":"c1d016e3","lineFactoryLib()":"74201b84","lineLib()":"a07072a4","spigotLib()":"06238b38","spigotedLineLib()":"501f4733"},"id":71}