{"abi":[{"type":"constructor","inputs":[],"stateMutability":"nonpayable"},{"type":"function","name":"MAX_PRICE_LATENCY","inputs":[],"outputs":[{"name":"","type":"uint256","internalType":"uint256"}],"stateMutability":"view"},{"type":"function","name":"NULL_PRICE","inputs":[],"outputs":[{"name":"","type":"int256","internalType":"int256"}],"stateMutability":"view"},{"type":"function","name":"PRICE_DECIMALS","inputs":[],"outputs":[{"name":"","type":"uint8","internalType":"uint8"}],"stateMutability":"view"},{"type":"function","name":"_getLatestAnswer","inputs":[{"name":"token","type":"address","internalType":"address"}],"outputs":[{"name":"","type":"int256","internalType":"int256"}],"stateMutability":"view"},{"type":"function","name":"getLatestAnswer","inputs":[{"name":"token_","type":"address","internalType":"address"}],"outputs":[{"name":"","type":"int256","internalType":"int256"}],"stateMutability":"nonpayable"},{"type":"function","name":"owner","inputs":[],"outputs":[{"name":"","type":"address","internalType":"address"}],"stateMutability":"view"},{"type":"function","name":"priceFeed","inputs":[{"name":"","type":"address","internalType":"address"}],"outputs":[{"name":"","type":"address","internalType":"address"}],"stateMutability":"view"},{"type":"function","name":"setOwner","inputs":[{"name":"_owner","type":"address","internalType":"address"}],"outputs":[],"stateMutability":"nonpayable"},{"type":"function","name":"setPriceFeed","inputs":[{"name":"token","type":"address","internalType":"address"},{"name":"feed","type":"address","internalType":"address"}],"outputs":[],"stateMutability":"nonpayable"},{"type":"event","name":"NoDecimalData","inputs":[{"name":"token","type":"address","indexed":true,"internalType":"address"},{"name":"errData","type":"bytes","indexed":false,"internalType":"bytes"}],"anonymous":false},{"type":"event","name":"NoRoundData","inputs":[{"name":"token","type":"address","indexed":true,"internalType":"address"},{"name":"errData","type":"bytes","indexed":false,"internalType":"bytes"}],"anonymous":false},{"type":"event","name":"NullPrice","inputs":[{"name":"token","type":"address","indexed":true,"internalType":"address"}],"anonymous":false},{"type":"event","name":"StalePrice","inputs":[{"name":"token","type":"address","indexed":true,"internalType":"address"},{"name":"answerTimestamp","type":"uint256","indexed":false,"internalType":"uint256"}],"anonymous":false}],"bytecode":{"object":"0x608060405234801561001057600080fd5b50600060208190527f8ab31c90a837d3116d15e74d32c78cb399edadb5a9dcfb2ececb6b4b485a1b3880546001600160a01b031990811673c5c8e77b397e531b8ec06bfb0048328b30e9ecfb179091557f5b9be64bf9cee843a021a73d059f41c67bf33ba01053f7c3baec4bdf7883e3b1805482167350834f3163758fcc1df9973b6e91f0f0f0434ad31790557382af49447d8a07e3bd95bd0d56f35241523fbab19091527f2ee3ce93276a30df11f2931388da8e88d2f6af84c2cefaed6b979fab0cd0e3588054821673639fe6ab55c921f74e7fac1ee960c0b6293ba6121790556001805490911633179055610b4b8061010c6000396000f3fe608060405234801561001057600080fd5b50600436106100935760003560e01c80636849a3ba116100665780636849a3ba1461011e57806376e11286146101315780638da5cb5b146101445780639d431b6a14610157578063f1a640f81461015f57600080fd5b806313af403514610098578063168909db146100ad5780631fd48b9a146100d35780634e184a5614610114575b600080fd5b6100ab6100a636600461083e565b610179565b005b6100c06100bb36600461083e565b6101e6565b6040519081526020015b60405180910390f35b6100fc6100e136600461083e565b6000602081905290815260409020546001600160a01b031681565b6040516001600160a01b0390911681526020016100ca565b6100c062015f9081565b6100c061012c36600461083e565b610401565b6100ab61013f366004610860565b6107b3565b6001546100fc906001600160a01b031681565b6100c0600081565b610167600881565b60405160ff90911681526020016100ca565b6001546001600160a01b031633146101c45760405162461bcd60e51b81526020600482015260096024820152682727aa2fa7aba722a960b91b60448201526064015b60405180910390fd5b600180546001600160a01b0319166001600160a01b0392909216919091179055565b6001600160a01b03808216600090815260208190526040808220548151633fabe5a360e21b815291519293169163feaf968c9160048082019260a0929091908290030181865afa92505050801561025a575060408051601f3d908101601f19168201909252610257918101906108ad565b60015b610297573d808015610288576040519150601f19603f3d011682016040523d82523d6000602084013e61028d565b606091505b5060009392505050565b8115806102af575062015f906102ad8342610913565b115b156102c1575060009695505050505050565b600084136102d6575060009695505050505050565b6001600160a01b038088166000908152602081815260409182902054825163313ce56760e01b8152925193169263313ce5679260048082019392918290030181865afa925050508015610346575060408051601f3d908101601f191682019092526103439181019061092c565b60015b610388573d808015610374576040519150601f19603f3d011682016040523d82523d6000602084013e610379565b606091505b50600098975050505050505050565b60071960ff8216016103a05750929695505050505050565b600860ff8216106103d0576103b660088261094f565b6103c190600a610a4c565b6103cb9086610a5b565b6103f0565b6103db81600861094f565b6103e690600a610a4c565b6103f09086610a97565b98975050505050505050565b919050565b6001600160a01b038181166000908152602081905260408120549091166104585760405162461bcd60e51b815260206004820152600b60248201526a155394d5541413d495115160aa1b60448201526064016101bb565b60006001600160a01b03831673c02aaa39b223fe8d0a0e5c4f27ead9083c756cc214610484578261049a565b73eeeeeeeeeeeeeeeeeeeeeeeeeeeeeeeeeeeeeeee5b6001600160a01b0380851660009081526020819052604090819020548151633fabe5a360e21b815291519394509091169163feaf968c9160048082019260a0929091908290030181865afa925050508015610512575060408051601f3d908101601f1916820190925261050f918101906108ad565b60015b610591573d808015610540576040519150601f19603f3d011682016040523d82523d6000602084013e610545565b606091505b50816001600160a01b03167f92929f88aa3ceb38c4107911285a1a5aa696da78d3c5f89e288dc6288aa24cfb8260405161057f9190610ac7565b60405180910390a25060009392505050565b8115806105a9575062015f906105a78342610913565b115b156105ff57856001600160a01b03167feb1fe96e2dd16e9b4fe45d158bdab7094ab3db25b6f7f792f4c820126e77079a836040516105e991815260200190565b60405180910390a2506000979650505050505050565b60008413610649576040516001600160a01b038716907f5f29f4c3a52cdc9b909b8bdcfb6cf9353c1f0659ba63a0b7a3e31eb97815164090600090a2506000979650505050505050565b6001600160a01b038089166000908152602081815260409182902054825163313ce56760e01b8152925193169263313ce5679260048082019392918290030181865afa9250505080156106b9575060408051601f3d908101601f191682019092526106b69181019061092c565b60015b61073d573d8080156106e7576040519150601f19603f3d011682016040523d82523d6000602084013e6106ec565b606091505b50866001600160a01b03167f54dad17a3ccb587987f05fc671e0a4d35d9e1f9f5249833c103cfbae1e44ca64826040516107269190610ac7565b60405180910390a250600098975050505050505050565b60071960ff821601610756575092979650505050505050565b600860ff8216106107865761076c60088261094f565b61077790600a610a4c565b6107819086610a5b565b6107a6565b61079181600861094f565b61079c90600a610a4c565b6107a69086610a97565b9998505050505050505050565b6001546001600160a01b031633146107f95760405162461bcd60e51b81526020600482015260096024820152682727aa2fa7aba722a960b91b60448201526064016101bb565b6001600160a01b03918216600090815260208190526040902080546001600160a01b03191691909216179055565b80356001600160a01b03811681146103fc57600080fd5b60006020828403121561085057600080fd5b61085982610827565b9392505050565b6000806040838503121561087357600080fd5b61087c83610827565b915061088a60208401610827565b90509250929050565b805169ffffffffffffffffffff811681146103fc57600080fd5b600080600080600060a086880312156108c557600080fd5b6108ce86610893565b94506020860151935060408601519250606086015191506108f160808701610893565b90509295509295909350565b634e487b7160e01b600052601160045260246000fd5b81810381811115610926576109266108fd565b92915050565b60006020828403121561093e57600080fd5b815160ff8116811461085957600080fd5b60ff8281168282160390811115610926576109266108fd565b600181815b808511156109a3578160001904821115610989576109896108fd565b8085161561099657918102915b93841c939080029061096d565b509250929050565b6000826109ba57506001610926565b816109c757506000610926565b81600181146109dd57600281146109e757610a03565b6001915050610926565b60ff8411156109f8576109f86108fd565b50506001821b610926565b5060208310610133831016604e8410600b8410161715610a26575081810a610926565b610a308383610968565b8060001904821115610a4457610a446108fd565b029392505050565b600061085960ff8416836109ab565b600082610a7857634e487b7160e01b600052601260045260246000fd5b600160ff1b821460001984141615610a9257610a926108fd565b500590565b80820260008212600160ff1b84141615610ab357610ab36108fd565b8181058314821517610926576109266108fd565b600060208083528351808285015260005b81811015610af457858101830151858201604001528201610ad8565b506000604082860101526040601f19601f830116850101925050509291505056fea2646970667358221220cf4c29ebb440ec6bb5949bc154b74143f97370cfce1cfe25d145d205cccaceef64736f6c63430008140033","linkReferences":{}},"methodIdentifiers":{"MAX_PRICE_LATENCY()":"4e184a56","NULL_PRICE()":"9d431b6a","PRICE_DECIMALS()":"f1a640f8","_getLatestAnswer(address)":"168909db","getLatestAnswer(address)":"6849a3ba","owner()":"8da5cb5b","priceFeed(address)":"1fd48b9a","setOwner(address)":"13af4035","setPriceFeed(address,address)":"76e11286"},"id":35}