{"abi":[{"type":"constructor","inputs":[{"name":"initialOwner","type":"address","internalType":"address"},{"name":"_factory","type":"address","internalType":"address"}],"stateMutability":"nonpayable"},{"type":"function","name":"factory","inputs":[],"outputs":[{"name":"","type":"address","internalType":"address"}],"stateMutability":"view"},{"type":"function","name":"owner","inputs":[],"outputs":[{"name":"","type":"address","internalType":"address"}],"stateMutability":"view"},{"type":"function","name":"renounceOwnership","inputs":[],"outputs":[],"stateMutability":"nonpayable"},{"type":"function","name":"transferOwnership","inputs":[{"name":"newOwner","type":"address","internalType":"address"}],"outputs":[],"stateMutability":"nonpayable"},{"type":"function","name":"withdrawAsset","inputs":[{"name":"_asset","type":"address","internalType":"address"},{"name":"_recipient","type":"address","internalType":"address"},{"name":"_amount","type":"uint256","internalType":"uint256"}],"outputs":[],"stateMutability":"nonpayable"},{"type":"event","name":"OwnershipTransferred","inputs":[{"name":"previousOwner","type":"address","indexed":true,"internalType":"address"},{"name":"newOwner","type":"address","indexed":true,"internalType":"address"}],"anonymous":false},{"type":"error","name":"AddressEmptyCode","inputs":[{"name":"target","type":"address","internalType":"address"}]},{"type":"error","name":"AddressInsufficientBalance","inputs":[{"name":"account","type":"address","internalType":"address"}]},{"type":"error","name":"FailedInnerCall","inputs":[]},{"type":"error","name":"OwnableInvalidOwner","inputs":[{"name":"owner","type":"address","internalType":"address"}]},{"type":"error","name":"OwnableUnauthorizedAccount","inputs":[{"name":"account","type":"address","internalType":"address"}]},{"type":"error","name":"SafeERC20FailedOperation","inputs":[{"name":"token","type":"address","internalType":"address"}]}],"bytecode":{"object":"0x608060405234801561001057600080fd5b506040516106b53803806106b583398101604081905261002f916100fa565b816001600160a01b03811661005e57604051631e4fbdf760e01b81526000600482015260240160405180910390fd5b6100678161008e565b50600180546001600160a01b0319166001600160a01b03929092169190911790555061012d565b600080546001600160a01b038381166001600160a01b0319831681178455604051919092169283917f8be0079c531659141344cd1fd0a4f28419497f9722a3daafe3b4186f6b6457e09190a35050565b80516001600160a01b03811681146100f557600080fd5b919050565b6000806040838503121561010d57600080fd5b610116836100de565b9150610124602084016100de565b90509250929050565b6105798061013c6000396000f3fe608060405234801561001057600080fd5b50600436106100575760003560e01c8063092ae4dc1461005c578063715018a6146100715780638da5cb5b14610079578063c45a0155146100a2578063f2fde38b146100b5575b600080fd5b61006f61006a366004610477565b6100c8565b005b61006f610134565b6000546001600160a01b03165b6040516001600160a01b03909116815260200160405180910390f35b600154610086906001600160a01b031681565b61006f6100c33660046104b8565b610148565b336100d1610186565b6001600160a01b03161461011b5760405162461bcd60e51b815260206004820152600c60248201526b155b985d5d1a1bdc9a5e995960a21b60448201526064015b60405180910390fd5b61012f6001600160a01b03841683836101f9565b505050565b61013c61024b565b6101466000610278565b565b61015061024b565b6001600160a01b03811661017a57604051631e4fbdf760e01b815260006004820152602401610112565b61018381610278565b50565b6001546040805163f77c479160e01b815290516000926001600160a01b03169163f77c47919160048083019260209291908290030181865afa1580156101d0573d6000803e3d6000fd5b505050506040513d601f19601f820116820180604052508101906101f491906104d5565b905090565b604080516001600160a01b038416602482015260448082018490528251808303909101815260649091019091526020810180516001600160e01b031663a9059cbb60e01b17905261012f9084906102c8565b6000546001600160a01b031633146101465760405163118cdaa760e01b8152336004820152602401610112565b600080546001600160a01b038381166001600160a01b0319831681178455604051919092169283917f8be0079c531659141344cd1fd0a4f28419497f9722a3daafe3b4186f6b6457e09190a35050565b60006102dd6001600160a01b0384168361032b565b9050805160001415801561030257508080602001905181019061030091906104f2565b155b1561012f57604051635274afe760e01b81526001600160a01b0384166004820152602401610112565b606061033983836000610340565b9392505050565b6060814710156103655760405163cd78605960e01b8152306004820152602401610112565b600080856001600160a01b031684866040516103819190610514565b60006040518083038185875af1925050503d80600081146103be576040519150601f19603f3d011682016040523d82523d6000602084013e6103c3565b606091505b50915091506103d38683836103dd565b9695505050505050565b6060826103f2576103ed82610439565b610339565b815115801561040957506001600160a01b0384163b155b1561043257604051639996b31560e01b81526001600160a01b0385166004820152602401610112565b5080610339565b8051156104495780518082602001fd5b604051630a12f52160e11b815260040160405180910390fd5b6001600160a01b038116811461018357600080fd5b60008060006060848603121561048c57600080fd5b833561049781610462565b925060208401356104a781610462565b929592945050506040919091013590565b6000602082840312156104ca57600080fd5b813561033981610462565b6000602082840312156104e757600080fd5b815161033981610462565b60006020828403121561050457600080fd5b8151801515811461033957600080fd5b6000825160005b81811015610535576020818601810151858301520161051b565b50600092019182525091905056fea2646970667358221220ef0df3acb05dd67b9eb1f8b069ae7086aa9b97557bdc5cc099197ece120f01b964736f6c63430008140033","linkReferences":{}},"methodIdentifiers":{"factory()":"c45a0155","owner()":"8da5cb5b","renounceOwnership()":"715018a6","transferOwnership(address)":"f2fde38b","withdrawAsset(address,address,uint256)":"092ae4dc"},"id":18}