{"abi":[{"type":"constructor","inputs":[],"stateMutability":"nonpayable"},{"type":"function","name":"addToken","inputs":[{"name":"token","type":"address","internalType":"address"},{"name":"price","type":"int256","internalType":"int256"}],"outputs":[],"stateMutability":"nonpayable"},{"type":"function","name":"decimals","inputs":[{"name":"base","type":"address","internalType":"address"},{"name":"quote","type":"address","internalType":"address"}],"outputs":[{"name":"","type":"uint8","internalType":"uint8"}],"stateMutability":"view"},{"type":"function","name":"getAggregator","inputs":[{"name":"token","type":"address","internalType":"address"}],"outputs":[{"name":"","type":"address","internalType":"contract MockAggregator"}],"stateMutability":"view"},{"type":"function","name":"latestRoundData","inputs":[{"name":"base","type":"address","internalType":"address"},{"name":"quote","type":"address","internalType":"address"}],"outputs":[{"name":"roundId","type":"uint80","internalType":"uint80"},{"name":"answer","type":"int256","internalType":"int256"},{"name":"startedAt","type":"uint256","internalType":"uint256"},{"name":"updatedAt","type":"uint256","internalType":"uint256"},{"name":"answeredInRound","type":"uint80","internalType":"uint80"}],"stateMutability":"view"},{"type":"function","name":"overrideTokenTimestamp","inputs":[{"name":"token","type":"address","internalType":"address"},{"name":"shouldOverride","type":"bool","internalType":"bool"}],"outputs":[],"stateMutability":"nonpayable"},{"type":"function","name":"revertDecimals","inputs":[{"name":"token","type":"address","internalType":"address"},{"name":"shouldOverride","type":"bool","internalType":"bool"}],"outputs":[],"stateMutability":"nonpayable"},{"type":"function","name":"updateTokenBasePrice","inputs":[{"name":"token","type":"address","internalType":"address"},{"name":"price","type":"int256","internalType":"int256"}],"outputs":[],"stateMutability":"nonpayable"},{"type":"function","name":"updateTokenDecimals","inputs":[{"name":"token","type":"address","internalType":"address"},{"name":"decimals_","type":"uint8","internalType":"uint8"}],"outputs":[],"stateMutability":"nonpayable"}],"bytecode":{"object":"0x608060405234801561001057600080fd5b50610c07806100206000396000f3fe608060405234801561001057600080fd5b50600436106100885760003560e01c8063c9a9d0ba1161005b578063c9a9d0ba1461015a578063cc4ae0301461016d578063cf17c1c214610180578063e62d984b1461019357600080fd5b806305bce0981461008d57806329a42d56146100a257806358e2d3a8146100eb578063bcfd032d14610110575b600080fd5b6100a061009b366004610523565b6101a6565b005b6100ce6100b036600461055a565b6001600160a01b039081166000908152600160205260409020541690565b6040516001600160a01b0390911681526020015b60405180910390f35b6100fe6100f9366004610575565b610219565b60405160ff90911681526020016100e2565b61012361011e366004610575565b61031f565b6040805169ffffffffffffffffffff968716815260208101959095528401929092526060830152909116608082015260a0016100e2565b6100a06101683660046105a8565b6103b6565b6100a061017b366004610523565b6103f6565b6100a061018e3660046105a8565b610437565b6100a06101a13660046105e1565b6104a7565b6001600160a01b0382811660009081526001602052604090819020549051631fc3446760e11b81528315156004820152911690633f8688ce906024015b600060405180830381600087803b1580156101fd57600080fd5b505af1158015610211573d6000803e3d6000fd5b505050505050565b6001600160a01b03808316600090815260016020908152604080832054815163cdfc22e960e01b815291519394169263cdfc22e9926004808401939192918290030181865afa158015610270573d6000803e3d6000fd5b505050506040513d601f19601f82011682018060405250810190610294919061060d565b1561029e57600080fd5b6001600160a01b0380841660009081526001602090815260409182902054825163313ce56760e01b8152925193169263313ce5679260048082019392918290030181865afa1580156102f4573d6000803e3d6000fd5b505050506040513d601f19601f82011682018060405250810190610318919061062a565b9392505050565b6001600160a01b0380831660009081526001602052604080822054815163708fe4df60e01b8152915192938493849384938493169163708fe4df9160048082019260a0929091908290030181865afa15801561037f573d6000803e3d6000fd5b505050506040513d601f19601f820116820180604052508101906103a39190610661565b939b929a50909850965090945092505050565b6001600160a01b03828116600090815260016020526040908190205490516352ee41eb60e11b81526004810184905291169063a5dc83d6906024016101e3565b6001600160a01b0382811660009081526001602052604090819020549051639972978f60e01b81528315156004820152911690639972978f906024016101e3565b8181604051610445906104e9565b6001600160a01b0390921682526020820152604001604051809103906000f080158015610476573d6000803e3d6000fd5b506001600160a01b03928316600090815260016020526040902080546001600160a01b031916919093161790915550565b6001600160a01b038281166000908152600160205260409081902054905163c112dfa360e01b815260ff8416600482015291169063c112dfa3906024016101e3565b610520806106b283390190565b80356001600160a01b038116811461050d57600080fd5b919050565b801515811461052057600080fd5b50565b6000806040838503121561053657600080fd5b61053f836104f6565b9150602083013561054f81610512565b809150509250929050565b60006020828403121561056c57600080fd5b610318826104f6565b6000806040838503121561058857600080fd5b610591836104f6565b915061059f602084016104f6565b90509250929050565b600080604083850312156105bb57600080fd5b6105c4836104f6565b946020939093013593505050565b60ff8116811461052057600080fd5b600080604083850312156105f457600080fd5b6105fd836104f6565b9150602083013561054f816105d2565b60006020828403121561061f57600080fd5b815161031881610512565b60006020828403121561063c57600080fd5b8151610318816105d2565b805169ffffffffffffffffffff8116811461050d57600080fd5b600080600080600060a0868803121561067957600080fd5b61068286610647565b94506020860151935060408601519250606086015191506106a560808701610647565b9050929550929590935056fe60a06040526000805462ff000019166208000017905534801561002157600080fd5b5060405161052038038061052083398101604081905261004091610056565b6001600160a01b03909116608052600155610090565b6000806040838503121561006957600080fd5b82516001600160a01b038116811461008057600080fd5b6020939093015192949293505050565b6080516104756100ab600039600061018701526104756000f3fe608060405234801561001057600080fd5b50600436106100885760003560e01c8063a5dc83d61161005b578063a5dc83d61461013a578063c112dfa31461014d578063cdfc22e914610160578063fc0c546a1461018257600080fd5b8063313ce5671461008d5780633f8688ce146100b0578063708fe4df146100d35780639972978f14610112575b600080fd5b60005462010000900460ff1660405160ff90911681526020015b60405180910390f35b6100d16100be36600461028c565b6000805460ff1916911515919091179055565b005b6100db6101c1565b6040805169ffffffffffffffffffff968716815260208101959095528401929092526060830152909116608082015260a0016100a7565b6100d161012036600461028c565b600080549115156101000261ff0019909216919091179055565b6100d16101483660046102b5565b600155565b6100d161015b3660046102ce565b610223565b60005461017290610100900460ff1681565b60405190151581526020016100a7565b6101a97f000000000000000000000000000000000000000000000000000000000000000081565b6040516001600160a01b0390911681526020016100a7565b60008060008060008060029054906101000a900460ff16600a6101e491906103ed565b6001546101f191906103fc565b60005490945060ff166102045742610211565b610211620189c04261042c565b60009694955086949093508492509050565b60328160ff161061026e5760405162461bcd60e51b8152602060048201526011602482015270546f6f206d616e7920646563696d616c7360781b604482015260640160405180910390fd5b6000805460ff909216620100000262ff000019909216919091179055565b60006020828403121561029e57600080fd5b813580151581146102ae57600080fd5b9392505050565b6000602082840312156102c757600080fd5b5035919050565b6000602082840312156102e057600080fd5b813560ff811681146102ae57600080fd5b634e487b7160e01b600052601160045260246000fd5b600181815b80851115610342578160001904821115610328576103286102f1565b8085161561033557918102915b93841c939080029061030c565b509250929050565b600082610359575060016103e7565b81610366575060006103e7565b816001811461037c5760028114610386576103a2565b60019150506103e7565b60ff841115610397576103976102f1565b50506001821b6103e7565b5060208310610133831016604e8410600b84101617156103c5575081810a6103e7565b6103cf8383610307565b80600019048211156103e3576103e36102f1565b0290505b92915050565b60006102ae60ff84168361034a565b80820260008212600160ff1b84141615610418576104186102f1565b81810583148215176103e7576103e76102f1565b818103818111156103e7576103e76102f156fea26469706673582212200be282a342f59e1c7cf2078f2f640f9c92f6f08ae523dee41e84bee66ed0c0d064736f6c63430008140033a2646970667358221220550af1dad501d666fea74a99d64433f8ef23925708daaab3a1a383c62bc5e05064736f6c63430008140033","linkReferences":{}},"methodIdentifiers":{"addToken(address,int256)":"cf17c1c2","decimals(address,address)":"58e2d3a8","getAggregator(address)":"29a42d56","latestRoundData(address,address)":"bcfd032d","overrideTokenTimestamp(address,bool)":"05bce098","revertDecimals(address,bool)":"cc4ae030","updateTokenBasePrice(address,int256)":"c9a9d0ba","updateTokenDecimals(address,uint8)":"e62d984b"},"id":14}