{"abi":[{"type":"constructor","inputs":[{"name":"_debt","type":"uint256","internalType":"uint256"},{"name":"arbiter_","type":"address","internalType":"address"}],"stateMutability":"nonpayable"},{"type":"function","name":"accrueInterest","inputs":[],"outputs":[{"name":"","type":"uint256","internalType":"uint256"}],"stateMutability":"pure"},{"type":"function","name":"arbiter","inputs":[],"outputs":[{"name":"","type":"address","internalType":"address"}],"stateMutability":"view"},{"type":"function","name":"liquidate","inputs":[{"name":"id","type":"uint256","internalType":"uint256"},{"name":"amount","type":"uint256","internalType":"uint256"},{"name":"token","type":"address","internalType":"address"},{"name":"to","type":"address","internalType":"address"}],"outputs":[],"stateMutability":"nonpayable"},{"type":"function","name":"setArbiter","inputs":[{"name":"_arbiter","type":"address","internalType":"address"}],"outputs":[],"stateMutability":"nonpayable"},{"type":"function","name":"setDebtValue","inputs":[{"name":"_debt","type":"uint256","internalType":"uint256"}],"outputs":[],"stateMutability":"nonpayable"},{"type":"function","name":"setEscrow","inputs":[{"name":"_escrow","type":"address","internalType":"address"}],"outputs":[],"stateMutability":"nonpayable"},{"type":"function","name":"setStatus","inputs":[{"name":"_status","type":"uint8","internalType":"enum LineLib.STATUS"}],"outputs":[],"stateMutability":"nonpayable"},{"type":"function","name":"status","inputs":[],"outputs":[{"name":"","type":"uint8","internalType":"enum LineLib.STATUS"}],"stateMutability":"view"},{"type":"function","name":"updateOutstandingDebt","inputs":[],"outputs":[{"name":"","type":"uint256","internalType":"uint256"},{"name":"","type":"uint256","internalType":"uint256"}],"stateMutability":"view"}],"bytecode":{"object":"0x608060405234801561001057600080fd5b5060405161048138038061048183398101604081905261002f91610061565b600091909155600280546001600160a01b039092166001600160a81b031990921691909117600160a01b17905561009e565b6000806040838503121561007457600080fd5b825160208401519092506001600160a01b038116811461009357600080fd5b809150509250929050565b6103d4806100ad6000396000f3fe608060405234801561001057600080fd5b50600436106100935760003560e01c8063a6afed9511610066578063a6afed9514610126578063c10c354614610135578063f010a5f514610165578063f0b36d0c14610178578063fe25e00a1461018b57600080fd5b80631c9c088a14610098578063200d2ed2146100ca5780632e49d78b146100f4578063501b56d814610107575b600080fd5b6100c86100a636600461029c565b600280546001600160a01b0319166001600160a01b0392909216919091179055565b005b6002546100de90600160a01b900460ff1681565b6040516100eb91906102d4565b60405180910390f35b6100c86101023660046102fc565b6101b6565b6101116000805491565b604080519283526020830191909152016100eb565b604051600081526020016100eb565b6100c861014336600461029c565b600180546001600160a01b0319166001600160a01b0392909216919091179055565b6100c861017336600461031d565b600055565b6100c8610186366004610336565b6101e3565b60025461019e906001600160a01b031681565b6040516001600160a01b0390911681526020016100eb565b6002805482919060ff60a01b1916600160a01b8360048111156101db576101db6102be565b021790555050565b6002546001600160a01b031633146101fa57600080fd5b600154604051630180cdbb60e21b8152600481018590526001600160a01b03848116602483015283811660448301529091169063060336ec906064016020604051808303816000875af1158015610255573d6000803e3d6000fd5b505050506040513d601f19601f82011682018060405250810190610279919061037c565b5050505050565b80356001600160a01b038116811461029757600080fd5b919050565b6000602082840312156102ae57600080fd5b6102b782610280565b9392505050565b634e487b7160e01b600052602160045260246000fd5b60208101600583106102f657634e487b7160e01b600052602160045260246000fd5b91905290565b60006020828403121561030e57600080fd5b8135600581106102b757600080fd5b60006020828403121561032f57600080fd5b5035919050565b6000806000806080858703121561034c57600080fd5b843593506020850135925061036360408601610280565b915061037160608601610280565b905092959194509250565b60006020828403121561038e57600080fd5b815180151581146102b757600080fdfea26469706673582212208640e707c10fba01daa51fd9b48088f9fb625998131c845a29b91dd9d3a0be6964736f6c63430008140033","linkReferences":{}},"methodIdentifiers":{"accrueInterest()":"a6afed95","arbiter()":"fe25e00a","liquidate(uint256,uint256,address,address)":"f0b36d0c","setArbiter(address)":"1c9c088a","setDebtValue(uint256)":"f010a5f5","setEscrow(address)":"c10c3546","setStatus(uint8)":"2e49d78b","status()":"200d2ed2","updateOutstandingDebt()":"501b56d8"},"id":12}