{"abi":[{"type":"constructor","inputs":[{"name":"_minimumCollateralRatio","type":"uint32","internalType":"uint32"},{"name":"_oracle","type":"address","internalType":"address"},{"name":"_line","type":"address","internalType":"address"},{"name":"_borrower","type":"address","internalType":"address"}],"stateMutability":"nonpayable"},{"type":"function","name":"addCollateral","inputs":[{"name":"amount","type":"uint256","internalType":"uint256"},{"name":"token","type":"address","internalType":"address"}],"outputs":[{"name":"","type":"uint256","internalType":"uint256"}],"stateMutability":"payable"},{"type":"function","name":"borrower","inputs":[],"outputs":[{"name":"","type":"address","internalType":"address"}],"stateMutability":"view"},{"type":"function","name":"enableCollateral","inputs":[{"name":"token","type":"address","internalType":"address"}],"outputs":[{"name":"","type":"bool","internalType":"bool"}],"stateMutability":"nonpayable"},{"type":"function","name":"getCollateralRatio","inputs":[],"outputs":[{"name":"","type":"uint256","internalType":"uint256"}],"stateMutability":"nonpayable"},{"type":"function","name":"getCollateralValue","inputs":[],"outputs":[{"name":"","type":"uint256","internalType":"uint256"}],"stateMutability":"nonpayable"},{"type":"function","name":"isLiquidatable","inputs":[],"outputs":[{"name":"","type":"bool","internalType":"bool"}],"stateMutability":"nonpayable"},{"type":"function","name":"line","inputs":[],"outputs":[{"name":"","type":"address","internalType":"address"}],"stateMutability":"view"},{"type":"function","name":"liquidate","inputs":[{"name":"amount","type":"uint256","internalType":"uint256"},{"name":"token","type":"address","internalType":"address"},{"name":"to","type":"address","internalType":"address"}],"outputs":[{"name":"","type":"bool","internalType":"bool"}],"stateMutability":"nonpayable"},{"type":"function","name":"minimumCollateralRatio","inputs":[],"outputs":[{"name":"","type":"uint32","internalType":"uint32"}],"stateMutability":"view"},{"type":"function","name":"oracle","inputs":[],"outputs":[{"name":"","type":"address","internalType":"address"}],"stateMutability":"view"},{"type":"function","name":"releaseCollateral","inputs":[{"name":"amount","type":"uint256","internalType":"uint256"},{"name":"token","type":"address","internalType":"address"},{"name":"to","type":"address","internalType":"address"}],"outputs":[{"name":"","type":"uint256","internalType":"uint256"}],"stateMutability":"nonpayable"},{"type":"function","name":"updateLine","inputs":[{"name":"_line","type":"address","internalType":"address"}],"outputs":[{"name":"","type":"bool","internalType":"bool"}],"stateMutability":"nonpayable"},{"type":"event","name":"AddCollateral","inputs":[{"name":"token","type":"address","indexed":true,"internalType":"address"},{"name":"amount","type":"uint256","indexed":true,"internalType":"uint256"}],"anonymous":false},{"type":"event","name":"EnableCollateral","inputs":[{"name":"token","type":"address","indexed":true,"internalType":"address"}],"anonymous":false},{"type":"event","name":"RemoveCollateral","inputs":[{"name":"token","type":"address","indexed":true,"internalType":"address"},{"name":"amount","type":"uint256","indexed":true,"internalType":"uint256"}],"anonymous":false},{"type":"error","name":"CallerAccessDenied","inputs":[]},{"type":"error","name":"InvalidCollateral","inputs":[]},{"type":"error","name":"NotLiquidatable","inputs":[]},{"type":"error","name":"ReentrancyGuardReentrantCall","inputs":[]},{"type":"error","name":"UnderCollateralized","inputs":[]}],"bytecode":{"object":"0x60e060405234801561001057600080fd5b50604051610a8c380380610a8c83398101604081905261002f91610087565b6001600081905563ffffffff949094166080526001600160a01b0392831660a052821660c05282546001600160a01b03191691161790556100e6565b80516001600160a01b038116811461008257600080fd5b919050565b6000806000806080858703121561009d57600080fd5b845163ffffffff811681146100b157600080fd5b93506100bf6020860161006b565b92506100cd6040860161006b565b91506100db6060860161006b565b905092959194509250565b60805160a05160c051610938610154600039600081816101a20152610414015260008181610156015281816103550152818161043c0152818161052201528181610643015281816106f401526107b20152600081816101d601528181610469015261054e01526109386000f3fe6080604052600436106100a75760003560e01c80639f1837ce116100645780639f1837ce146101c4578063a2c5925f1461020d578063b56b83531461022d578063c047e5631461024b578063cadac47914610260578063cd377c531461027357600080fd5b8063060336ec146100ac57806311be0de5146100e1578063250bc38414610101578063578c65e41461012f5780637dc0d1d0146101445780637df1f1b914610190575b600080fd5b3480156100b857600080fd5b506100cc6100c7366004610844565b610288565b60405190151581526020015b60405180910390f35b3480156100ed57600080fd5b506100cc6100fc366004610880565b610337565b34801561010d57600080fd5b5061012161011c366004610844565b6103ec565b6040519081526020016100d8565b34801561013b57600080fd5b506100cc610504565b34801561015057600080fd5b506101787f000000000000000000000000000000000000000000000000000000000000000081565b6040516001600160a01b0390911681526020016100d8565b34801561019c57600080fd5b506101787f000000000000000000000000000000000000000000000000000000000000000081565b3480156101d057600080fd5b506101f87f000000000000000000000000000000000000000000000000000000000000000081565b60405163ffffffff90911681526020016100d8565b34801561021957600080fd5b506100cc610228366004610880565b6105db565b34801561023957600080fd5b506001546001600160a01b0316610178565b34801561025757600080fd5b50610121610625565b61012161026e36600461089b565b6106cc565b34801561027f57600080fd5b50610121610794565b60006102926107fe565b60405163ec77178760e01b815260016004820152602481018590526001600160a01b03808516604483015283166064820152739ae9c76276e503105f20c8b452ccd0c4ee3b2df29063ec77178790608401602060405180830381865af4158015610300573d6000803e3d6000fd5b505050506040513d601f19601f8201168201806040525081019061032491906108c7565b90506103306001600055565b9392505050565b604051631377ce7f60e01b8152600160048201526001600160a01b037f00000000000000000000000000000000000000000000000000000000000000008116602483015282166044820152600090739ae9c76276e503105f20c8b452ccd0c4ee3b2df290631377ce7f906064015b602060405180830381865af41580156103c2573d6000803e3d6000fd5b505050506040513d601f19601f820116820180604052508101906103e691906108c7565b92915050565b60006103f66107fe565b604051631a505ed360e11b8152600160048201526001600160a01b037f0000000000000000000000000000000000000000000000000000000000000000811660248301527f00000000000000000000000000000000000000000000000000000000000000008116604483015263ffffffff7f00000000000000000000000000000000000000000000000000000000000000001660648301526084820186905280851660a4830152831660c4820152739ae9c76276e503105f20c8b452ccd0c4ee3b2df2906334a0bda69060e401602060405180830381865af41580156104e0573d6000803e3d6000fd5b505050506040513d601f19601f8201168201806040525081019061032491906108e9565b604051630e36a96960e31b8152600160048201526001600160a01b037f000000000000000000000000000000000000000000000000000000000000000016602482015263ffffffff7f0000000000000000000000000000000000000000000000000000000000000000166044820152600090739ae9c76276e503105f20c8b452ccd0c4ee3b2df2906371b54b4890606401602060405180830381865af41580156105b2573d6000803e3d6000fd5b505050506040513d601f19601f820116820180604052508101906105d691906108c7565b905090565b604051630b0cb18160e41b8152600160048201526001600160a01b0382166024820152600090739ae9c76276e503105f20c8b452ccd0c4ee3b2df29063b0cb1810906044016103a5565b60405163796748bf60e11b8152600160048201526001600160a01b037f0000000000000000000000000000000000000000000000000000000000000000166024820152600090739ae9c76276e503105f20c8b452ccd0c4ee3b2df29063f2ce917e906044015b602060405180830381865af41580156106a8573d6000803e3d6000fd5b505050506040513d601f19601f820116820180604052508101906105d691906108e9565b60006106d66107fe565b604051633d9e93eb60e21b8152600160048201526001600160a01b037f0000000000000000000000000000000000000000000000000000000000000000811660248301526044820185905283166064820152739ae9c76276e503105f20c8b452ccd0c4ee3b2df29063f67a4fac90608401602060405180830381865af4158015610764573d6000803e3d6000fd5b505050506040513d601f19601f8201168201806040525081019061078891906108e9565b90506103e66001600055565b60405163788fa08960e01b8152600160048201526001600160a01b037f0000000000000000000000000000000000000000000000000000000000000000166024820152600090739ae9c76276e503105f20c8b452ccd0c4ee3b2df29063788fa0899060440161068b565b60026000540361082157604051633ee5aeb560e01b815260040160405180910390fd5b6002600055565b80356001600160a01b038116811461083f57600080fd5b919050565b60008060006060848603121561085957600080fd5b8335925061086960208501610828565b915061087760408501610828565b90509250925092565b60006020828403121561089257600080fd5b61033082610828565b600080604083850312156108ae57600080fd5b823591506108be60208401610828565b90509250929050565b6000602082840312156108d957600080fd5b8151801515811461033057600080fd5b6000602082840312156108fb57600080fd5b505191905056fea26469706673582212201600d4f7fcbd1f54110f887d033728a7b697354e94a3a9054c7ad06b30d0d77064736f6c63430008140033","linkReferences":{}},"methodIdentifiers":{"addCollateral(uint256,address)":"cadac479","borrower()":"7df1f1b9","enableCollateral(address)":"11be0de5","getCollateralRatio()":"cd377c53","getCollateralValue()":"c047e563","isLiquidatable()":"578c65e4","line()":"b56b8353","liquidate(uint256,address,address)":"060336ec","minimumCollateralRatio()":"9f1837ce","oracle()":"7dc0d1d0","releaseCollateral(uint256,address,address)":"250bc384","updateLine(address)":"a2c5925f"},"id":31}