{"abi":[{"type":"constructor","inputs":[{"name":"_controllerAdmin","type":"address","internalType":"address"},{"name":"_treasury","type":"address","internalType":"address"},{"name":"initialOwner","type":"address","internalType":"address"}],"stateMutability":"nonpayable"},{"type":"function","name":"controllerAdmin","inputs":[],"outputs":[{"name":"","type":"address","internalType":"address"}],"stateMutability":"view"},{"type":"function","name":"increaseNonce","inputs":[{"name":"_collateralProxy","type":"address","internalType":"address"}],"outputs":[],"stateMutability":"nonpayable"},{"type":"function","name":"liquidateAsset","inputs":[{"name":"_collateralProxy","type":"address","internalType":"address"},{"name":"_asset","type":"address","internalType":"address"},{"name":"_amount","type":"uint256","internalType":"uint256"}],"outputs":[],"stateMutability":"nonpayable"},{"type":"function","name":"nonce","inputs":[{"name":"","type":"address","internalType":"address"}],"outputs":[{"name":"","type":"uint256","internalType":"uint256"}],"stateMutability":"view"},{"type":"function","name":"owner","inputs":[],"outputs":[{"name":"","type":"address","internalType":"address"}],"stateMutability":"view"},{"type":"function","name":"renounceOwnership","inputs":[],"outputs":[],"stateMutability":"nonpayable"},{"type":"function","name":"transferOwnership","inputs":[{"name":"newOwner","type":"address","internalType":"address"}],"outputs":[],"stateMutability":"nonpayable"},{"type":"function","name":"treasury","inputs":[],"outputs":[{"name":"","type":"address","internalType":"address"}],"stateMutability":"view"},{"type":"function","name":"updateControllerAdmin","inputs":[{"name":"_controllerAdmin","type":"address","internalType":"address"}],"outputs":[],"stateMutability":"nonpayable"},{"type":"function","name":"updateTreasury","inputs":[{"name":"_treasury","type":"address","internalType":"address"}],"outputs":[],"stateMutability":"nonpayable"},{"type":"event","name":"OwnershipTransferred","inputs":[{"name":"previousOwner","type":"address","indexed":true,"internalType":"address"},{"name":"newOwner","type":"address","indexed":true,"internalType":"address"}],"anonymous":false},{"type":"error","name":"OwnableInvalidOwner","inputs":[{"name":"owner","type":"address","internalType":"address"}]},{"type":"error","name":"OwnableUnauthorizedAccount","inputs":[{"name":"account","type":"address","internalType":"address"}]}],"bytecode":{"object":"0x608060405234801561001057600080fd5b5060405161067738038061067783398101604081905261002f91610106565b806001600160a01b03811661005e57604051631e4fbdf760e01b81526000600482015260240160405180910390fd5b6100678161009a565b5050600180546001600160a01b039384166001600160a01b03199182161790915560028054929093169116179055610149565b600080546001600160a01b038381166001600160a01b0319831681178455604051919092169283917f8be0079c531659141344cd1fd0a4f28419497f9722a3daafe3b4186f6b6457e09190a35050565b80516001600160a01b038116811461010157600080fd5b919050565b60008060006060848603121561011b57600080fd5b610124846100ea565b9250610132602085016100ea565b9150610140604085016100ea565b90509250925092565b61051f806101586000396000f3fe608060405234801561001057600080fd5b506004361061009e5760003560e01c80638247a97c116100665780638247a97c146101315780638605352e146101445780638da5cb5b14610157578063e334bea114610168578063f2fde38b1461017b57600080fd5b806325235511146100a357806361d027b3146100d357806370ae92d2146100e6578063715018a6146101145780637f51bb1f1461011e575b600080fd5b6001546100b6906001600160a01b031681565b6040516001600160a01b0390911681526020015b60405180910390f35b6002546100b6906001600160a01b031681565b6101066100f4366004610464565b60036020526000908152604090205481565b6040519081526020016100ca565b61011c61018e565b005b61011c61012c366004610464565b6101a2565b61011c61013f366004610464565b610216565b61011c610152366004610464565b61024a565b6000546001600160a01b03166100b6565b61011c610176366004610486565b6102b9565b61011c610189366004610464565b61031a565b610196610358565b6101a06000610385565b565b6101aa610358565b6001600160a01b0381166101f45760405162461bcd60e51b815260206004820152600c60248201526b5a65726f204164647265737360a01b60448201526064015b60405180910390fd5b600280546001600160a01b0319166001600160a01b0392909216919091179055565b61021e610358565b6001600160a01b0381166000908152600360205260408120805491610242836104c2565b919050555050565b610252610358565b6001600160a01b0381166102975760405162461bcd60e51b815260206004820152600c60248201526b5a65726f204164647265737360a01b60448201526064016101eb565b600180546001600160a01b0319166001600160a01b0392909216919091179055565b6001546001600160a01b0316331461030a5760405162461bcd60e51b81526020600482015260146024820152732737ba1031b7b73a3937b63632b91030b236b4b760611b60448201526064016101eb565b6103158383836103d5565b505050565b610322610358565b6001600160a01b03811661034c57604051631e4fbdf760e01b8152600060048201526024016101eb565b61035581610385565b50565b6000546001600160a01b031633146101a05760405163118cdaa760e01b81523360048201526024016101eb565b600080546001600160a01b038381166001600160a01b0319831681178455604051919092169283917f8be0079c531659141344cd1fd0a4f28419497f9722a3daafe3b4186f6b6457e09190a35050565b60025460405163024ab93760e21b81526001600160a01b0384811660048301529182166024820152604481018390529084169063092ae4dc90606401600060405180830381600087803b15801561042b57600080fd5b505af115801561043f573d6000803e3d6000fd5b50505050505050565b80356001600160a01b038116811461045f57600080fd5b919050565b60006020828403121561047657600080fd5b61047f82610448565b9392505050565b60008060006060848603121561049b57600080fd5b6104a484610448565b92506104b260208501610448565b9150604084013590509250925092565b6000600182016104e257634e487b7160e01b600052601160045260246000fd5b506001019056fea26469706673582212208004d9afdc656c8a8cba92f8eb8e5619fa86e456367752e195ef29d19ebfd9ea64736f6c63430008140033","linkReferences":{}},"methodIdentifiers":{"controllerAdmin()":"25235511","increaseNonce(address)":"8247a97c","liquidateAsset(address,address,uint256)":"e334bea1","nonce(address)":"70ae92d2","owner()":"8da5cb5b","renounceOwnership()":"715018a6","transferOwnership(address)":"f2fde38b","treasury()":"61d027b3","updateControllerAdmin(address)":"8605352e","updateTreasury(address)":"7f51bb1f"},"id":19}