{"abi":[{"type":"function","name":"deployEscrow","inputs":[{"name":"minCRatio","type":"uint32","internalType":"uint32"},{"name":"oracle","type":"address","internalType":"address"},{"name":"owner","type":"address","internalType":"address"},{"name":"borrower","type":"address","internalType":"address"}],"outputs":[{"name":"module","type":"address","internalType":"address"}],"stateMutability":"nonpayable"},{"type":"function","name":"deploySpigot","inputs":[{"name":"owner","type":"address","internalType":"address"},{"name":"operator","type":"address","internalType":"address"}],"outputs":[{"name":"module","type":"address","internalType":"address"}],"stateMutability":"nonpayable"},{"type":"function","name":"registerEscrow","inputs":[{"name":"minCRatio","type":"uint32","internalType":"uint32"},{"name":"oracle","type":"address","internalType":"address"},{"name":"owner","type":"address","internalType":"address"},{"name":"escrow","type":"address","internalType":"address"}],"outputs":[],"stateMutability":"nonpayable"},{"type":"function","name":"registerSpigot","inputs":[{"name":"spigot","type":"address","internalType":"address"},{"name":"owner","type":"address","internalType":"address"},{"name":"borrower","type":"address","internalType":"address"},{"name":"operator","type":"address","internalType":"address"}],"outputs":[],"stateMutability":"nonpayable"},{"type":"event","name":"DeployedEscrow","inputs":[{"name":"deployedAt","type":"address","indexed":true,"internalType":"address"},{"name":"minCRatio","type":"uint32","indexed":true,"internalType":"uint32"},{"name":"oracle","type":"address","indexed":true,"internalType":"address"},{"name":"owner","type":"address","indexed":false,"internalType":"address"}],"anonymous":false},{"type":"event","name":"DeployedSpigot","inputs":[{"name":"deployedAt","type":"address","indexed":true,"internalType":"address"},{"name":"owner","type":"address","indexed":true,"internalType":"address"},{"name":"operator","type":"address","indexed":false,"internalType":"address"}],"anonymous":false},{"type":"event","name":"RegisteredEscrow","inputs":[{"name":"deployedAt","type":"address","indexed":true,"internalType":"address"},{"name":"minCRatio","type":"uint32","indexed":true,"internalType":"uint32"},{"name":"oracle","type":"address","indexed":true,"internalType":"address"},{"name":"owner","type":"address","indexed":false,"internalType":"address"}],"anonymous":false},{"type":"event","name":"RegisteredSpigot","inputs":[{"name":"deployedAt","type":"address","indexed":true,"internalType":"address"},{"name":"owner","type":"address","indexed":true,"internalType":"address"},{"name":"borrower","type":"address","indexed":false,"internalType":"address"},{"name":"operator","type":"address","indexed":false,"internalType":"address"}],"anonymous":false}],"bytecode":{"object":"0x608060405234801561001057600080fd5b50611c2f806100206000396000f3fe608060405234801561001057600080fd5b506004361061004c5760003560e01c80631caefd3714610051578063931ee11c14610080578063baf1341a14610095578063fc049db8146100a8575b600080fd5b61006461005f3660046102eb565b6100bb565b6040516001600160a01b03909116815260200160405180910390f35b61009361008e36600461031e565b61014c565b005b6100936100a336600461037d565b61019e565b6100646100b636600461031e565b6101f0565b600082826040516100cb906102b5565b6001600160a01b03928316815291166020820152604001604051809103906000f0801580156100fe573d6000803e3d6000fd5b506040516001600160a01b038481168252919250818516918316907f1b5ac485fbeff1072d51769ff36324ab69aca22b73c05c867c03b5d40d2191789060200160405180910390a392915050565b6040516001600160a01b0383811682528085169163ffffffff8716918416907f125d96a924e37d3cc94595f6a1dbd29dd8985c0ffd167fc725d1637c125a31cf9060200160405180910390a450505050565b604080516001600160a01b038481168252838116602083015280861692908716917fc1046650f6db922cdde59d911414bc888c2acaa4c3418c0984e6e619b2456056910160405180910390a350505050565b600084848484604051610202906102c2565b63ffffffff90941684526001600160a01b0392831660208501529082166040840152166060820152608001604051809103906000f080158015610249573d6000803e3d6000fd5b509050836001600160a01b03168563ffffffff16826001600160a01b03167f795112e1546f70e94f47252ccd7189f90d711b2e6557885dc3def7b589c7f7ac866040516102a591906001600160a01b0391909116815260200190565b60405180910390a4949350505050565b610dd18061039d83390190565b610a8c8061116e83390190565b80356001600160a01b03811681146102e657600080fd5b919050565b600080604083850312156102fe57600080fd5b610307836102cf565b9150610315602084016102cf565b90509250929050565b6000806000806080858703121561033457600080fd5b843563ffffffff8116811461034857600080fd5b9350610356602086016102cf565b9250610364604086016102cf565b9150610372606086016102cf565b905092959194509250565b6000806000806080858703121561039357600080fd5b610348856102cf56fe608060405234801561001057600080fd5b50604051610dd1380380610dd183398101604081905261002f91610081565b6001600081905580546001600160a01b039384166001600160a01b031991821617909155600280549290931691161790556100b4565b80516001600160a01b038116811461007c57600080fd5b919050565b6000806040838503121561009457600080fd5b61009d83610065565b91506100ab60208401610065565b90509250929050565b610d0e806100c36000396000f3fe6080604052600436106100f75760003560e01c8063880cdc311161008a578063d2ee198611610059578063d2ee1986146102f6578063d403e9ec14610316578063d63d4af014610336578063f07c57091461036c57600080fd5b8063880cdc311461024e5780638da5cb5b1461026e578063ac7475ed1461028c578063c2ae60d8146102ac57600080fd5b806353ad370d116100c657806353ad370d146101bc578063570ca735146101dc5780635beb0deb1461020e578063744790511461022e57600080fd5b806312879a52146101035780631846f4791461013857806318906bf7146101585780634e6dcd901461017857600080fd5b366100fe57005b600080fd5b34801561010f57600080fd5b5061012361011e366004610954565b61038c565b60405190151581526020015b60405180910390f35b34801561014457600080fd5b5061012361015336600461098b565b610423565b34801561016457600080fd5b506101236101733660046109bc565b6104b0565b34801561018457600080fd5b506101ae61019336600461098b565b6001600160a01b031660009081526004602052604090205490565b60405190815260200161012f565b3480156101c857600080fd5b506101236101d7366004610aac565b610527565b3480156101e857600080fd5b506002546001600160a01b03165b6040516001600160a01b03909116815260200161012f565b34801561021a57600080fd5b506101ae61022936600461098b565b6105b1565b34801561023a57600080fd5b506101ae610249366004610aff565b610650565b34801561025a57600080fd5b5061012361026936600461098b565b6106e7565b34801561027a57600080fd5b506001546001600160a01b03166101f6565b34801561029857600080fd5b506101236102a736600461098b565b610731565b3480156102b857600080fd5b506102cc6102c736600461098b565b61077b565b6040805160ff90941684526001600160e01b0319928316602085015291169082015260600161012f565b34801561030257600080fd5b50610123610311366004610b60565b610812565b34801561032257600080fd5b50610123610331366004610b8b565b61085d565b34801561034257600080fd5b506101ae61035136600461098b565b6001600160a01b031660009081526003602052604090205490565b34801561037857600080fd5b506101ae61038736600461098b565b6108b0565b6040516324c4684d60e21b8152600160048201526001600160a01b038316602482015260ff8216604482015260009073__$7703afd4da5b3150468ac963f777627f3c$__90639311a134906064015b602060405180830381865af41580156103f8573d6000803e3d6000fd5b505050506040513d601f19601f8201168201806040525081019061041c9190610bb9565b9392505050565b60405163d72efba960e01b8152600160048201526001600160a01b038216602482015260009073__$7703afd4da5b3150468ac963f777627f3c$__9063d72efba9906044015b602060405180830381865af4158015610486573d6000803e3d6000fd5b505050506040513d601f19601f820116820180604052508101906104aa9190610bb9565b92915050565b6040805163f51fdc4b60e01b8152600160048201526001600160a01b0384166024820152825160ff16604482015260208301516001600160e01b0319908116606483015291830151909116608482015260009073__$7703afd4da5b3150468ac963f777627f3c$__9063f51fdc4b9060a4016103db565b604051637f6b516f60e01b815260009073__$7703afd4da5b3150468ac963f777627f3c$__90637f6b516f9061056890600190889088908890600401610bff565b602060405180830381865af4158015610585573d6000803e3d6000fd5b505050506040513d601f19601f820116820180604052508101906105a99190610bb9565b949350505050565b60006105bb610901565b60405163eacd6e0960e01b8152600160048201526001600160a01b038316602482015273__$7703afd4da5b3150468ac963f777627f3c$__9063eacd6e09906044015b602060405180830381865af415801561061b573d6000803e3d6000fd5b505050506040513d601f19601f8201168201806040525081019061063f9190610c34565b905061064b6001600055565b919050565b600061065a610901565b604051637796f76360e01b815273__$7703afd4da5b3150468ac963f777627f3c$__90637796f7639061069a906001908990899089908990600401610c4d565b602060405180830381865af41580156106b7573d6000803e3d6000fd5b505050506040513d601f19601f820116820180604052508101906106db9190610c34565b90506105a96001600055565b604051633f279f2760e11b8152600160048201526001600160a01b038216602482015260009073__$7703afd4da5b3150468ac963f777627f3c$__90637e4f3e4e90604401610469565b60405163939ee34160e01b8152600160048201526001600160a01b038216602482015260009073__$7703afd4da5b3150468ac963f777627f3c$__9063939ee34190604401610469565b604051634f94f74160e01b8152600160048201526001600160a01b03821660248201526000908190819073__$7703afd4da5b3150468ac963f777627f3c$__90634f94f74190604401606060405180830381865af41580156107e1573d6000803e3d6000fd5b505050506040513d601f19601f820116820180604052508101906108059190610c8b565b9250925092509193909250565b6040516320a7a3e560e01b8152600160048201526001600160e01b03198216602482015260009073__$7703afd4da5b3150468ac963f777627f3c$__906320a7a3e590604401610469565b604051633f28cbf160e01b8152600160048201526001600160e01b031983166024820152811515604482015260009073__$7703afd4da5b3150468ac963f777627f3c$__90633f28cbf1906064016103db565b60006108ba610901565b604051631bb69fcd60e21b8152600160048201526001600160a01b038316602482015273__$7703afd4da5b3150468ac963f777627f3c$__90636eda7f34906044016105fe565b60026000540361092457604051633ee5aeb560e01b815260040160405180910390fd5b6002600055565b80356001600160a01b038116811461064b57600080fd5b60ff8116811461095157600080fd5b50565b6000806040838503121561096757600080fd5b6109708361092b565b9150602083013561098081610942565b809150509250929050565b60006020828403121561099d57600080fd5b61041c8261092b565b6001600160e01b03198116811461095157600080fd5b60008082840360808112156109d057600080fd5b6109d98461092b565b92506060601f19820112156109ed57600080fd5b506040516060810181811067ffffffffffffffff82111715610a1f57634e487b7160e01b600052604160045260246000fd5b6040526020840135610a3081610942565b81526040840135610a40816109a6565b60208201526060840135610a53816109a6565b6040820152919491935090915050565b60008083601f840112610a7557600080fd5b50813567ffffffffffffffff811115610a8d57600080fd5b602083019150836020828501011115610aa557600080fd5b9250929050565b600080600060408486031215610ac157600080fd5b610aca8461092b565b9250602084013567ffffffffffffffff811115610ae657600080fd5b610af286828701610a63565b9497909650939450505050565b60008060008060608587031215610b1557600080fd5b610b1e8561092b565b9350610b2c6020860161092b565b9250604085013567ffffffffffffffff811115610b4857600080fd5b610b5487828801610a63565b95989497509550505050565b600060208284031215610b7257600080fd5b813561041c816109a6565b801515811461095157600080fd5b60008060408385031215610b9e57600080fd5b8235610ba9816109a6565b9150602083013561098081610b7d565b600060208284031215610bcb57600080fd5b815161041c81610b7d565b81835281816020850137506000828201602090810191909152601f909101601f19169091010190565b8481526001600160a01b0384166020820152606060408201819052600090610c2a9083018486610bd6565b9695505050505050565b600060208284031215610c4657600080fd5b5051919050565b8581526001600160a01b03858116602083015284166040820152608060608201819052600090610c809083018486610bd6565b979650505050505050565b600080600060608486031215610ca057600080fd5b8351610cab81610942565b6020850151909350610cbc816109a6565b6040850151909250610ccd816109a6565b80915050925092509256fea2646970667358221220a3dfd1b3d62f894d664f8a473d4db41f2af850408408edc3ad1c1ebfabb244f764736f6c6343000814003360e060405234801561001057600080fd5b50604051610a8c380380610a8c83398101604081905261002f91610087565b6001600081905563ffffffff949094166080526001600160a01b0392831660a052821660c05282546001600160a01b03191691161790556100e6565b80516001600160a01b038116811461008257600080fd5b919050565b6000806000806080858703121561009d57600080fd5b845163ffffffff811681146100b157600080fd5b93506100bf6020860161006b565b92506100cd6040860161006b565b91506100db6060860161006b565b905092959194509250565b60805160a05160c051610938610154600039600081816101a20152610414015260008181610156015281816103550152818161043c0152818161052201528181610643015281816106f401526107b20152600081816101d601528181610469015261054e01526109386000f3fe6080604052600436106100a75760003560e01c80639f1837ce116100645780639f1837ce146101c4578063a2c5925f1461020d578063b56b83531461022d578063c047e5631461024b578063cadac47914610260578063cd377c531461027357600080fd5b8063060336ec146100ac57806311be0de5146100e1578063250bc38414610101578063578c65e41461012f5780637dc0d1d0146101445780637df1f1b914610190575b600080fd5b3480156100b857600080fd5b506100cc6100c7366004610844565b610288565b60405190151581526020015b60405180910390f35b3480156100ed57600080fd5b506100cc6100fc366004610880565b610337565b34801561010d57600080fd5b5061012161011c366004610844565b6103ec565b6040519081526020016100d8565b34801561013b57600080fd5b506100cc610504565b34801561015057600080fd5b506101787f000000000000000000000000000000000000000000000000000000000000000081565b6040516001600160a01b0390911681526020016100d8565b34801561019c57600080fd5b506101787f000000000000000000000000000000000000000000000000000000000000000081565b3480156101d057600080fd5b506101f87f000000000000000000000000000000000000000000000000000000000000000081565b60405163ffffffff90911681526020016100d8565b34801561021957600080fd5b506100cc610228366004610880565b6105db565b34801561023957600080fd5b506001546001600160a01b0316610178565b34801561025757600080fd5b50610121610625565b61012161026e36600461089b565b6106cc565b34801561027f57600080fd5b50610121610794565b60006102926107fe565b60405163ec77178760e01b815260016004820152602481018590526001600160a01b03808516604483015283166064820152739ae9c76276e503105f20c8b452ccd0c4ee3b2df29063ec77178790608401602060405180830381865af4158015610300573d6000803e3d6000fd5b505050506040513d601f19601f8201168201806040525081019061032491906108c7565b90506103306001600055565b9392505050565b604051631377ce7f60e01b8152600160048201526001600160a01b037f00000000000000000000000000000000000000000000000000000000000000008116602483015282166044820152600090739ae9c76276e503105f20c8b452ccd0c4ee3b2df290631377ce7f906064015b602060405180830381865af41580156103c2573d6000803e3d6000fd5b505050506040513d601f19601f820116820180604052508101906103e691906108c7565b92915050565b60006103f66107fe565b604051631a505ed360e11b8152600160048201526001600160a01b037f0000000000000000000000000000000000000000000000000000000000000000811660248301527f00000000000000000000000000000000000000000000000000000000000000008116604483015263ffffffff7f00000000000000000000000000000000000000000000000000000000000000001660648301526084820186905280851660a4830152831660c4820152739ae9c76276e503105f20c8b452ccd0c4ee3b2df2906334a0bda69060e401602060405180830381865af41580156104e0573d6000803e3d6000fd5b505050506040513d601f19601f8201168201806040525081019061032491906108e9565b604051630e36a96960e31b8152600160048201526001600160a01b037f000000000000000000000000000000000000000000000000000000000000000016602482015263ffffffff7f0000000000000000000000000000000000000000000000000000000000000000166044820152600090739ae9c76276e503105f20c8b452ccd0c4ee3b2df2906371b54b4890606401602060405180830381865af41580156105b2573d6000803e3d6000fd5b505050506040513d601f19601f820116820180604052508101906105d691906108c7565b905090565b604051630b0cb18160e41b8152600160048201526001600160a01b0382166024820152600090739ae9c76276e503105f20c8b452ccd0c4ee3b2df29063b0cb1810906044016103a5565b60405163796748bf60e11b8152600160048201526001600160a01b037f0000000000000000000000000000000000000000000000000000000000000000166024820152600090739ae9c76276e503105f20c8b452ccd0c4ee3b2df29063f2ce917e906044015b602060405180830381865af41580156106a8573d6000803e3d6000fd5b505050506040513d601f19601f820116820180604052508101906105d691906108e9565b60006106d66107fe565b604051633d9e93eb60e21b8152600160048201526001600160a01b037f0000000000000000000000000000000000000000000000000000000000000000811660248301526044820185905283166064820152739ae9c76276e503105f20c8b452ccd0c4ee3b2df29063f67a4fac90608401602060405180830381865af4158015610764573d6000803e3d6000fd5b505050506040513d601f19601f8201168201806040525081019061078891906108e9565b90506103e66001600055565b60405163788fa08960e01b8152600160048201526001600160a01b037f0000000000000000000000000000000000000000000000000000000000000000166024820152600090739ae9c76276e503105f20c8b452ccd0c4ee3b2df29063788fa0899060440161068b565b60026000540361082157604051633ee5aeb560e01b815260040160405180910390fd5b6002600055565b80356001600160a01b038116811461083f57600080fd5b919050565b60008060006060848603121561085957600080fd5b8335925061086960208501610828565b915061087760408501610828565b90509250925092565b60006020828403121561089257600080fd5b61033082610828565b600080604083850312156108ae57600080fd5b823591506108be60208401610828565b90509250929050565b6000602082840312156108d957600080fd5b8151801515811461033057600080fd5b6000602082840312156108fb57600080fd5b505191905056fea26469706673582212201600d4f7fcbd1f54110f887d033728a7b697354e94a3a9054c7ad06b30d0d77064736f6c63430008140033a264697066735822122006d4bc9efbd8a15e4bd52d99828133c4157783d0ef098eedf28d1892a728e69b64736f6c63430008140033","linkReferences":{"contracts/utils/SpigotLib.sol":{"SpigotLib":[{"start":2109,"length":20},{"start":2251,"length":20},{"start":2437,"length":20},{"start":2489,"length":20},{"start":2656,"length":20},{"start":2793,"length":20},{"start":2959,"length":20},{"start":3033,"length":20},{"start":3111,"length":20},{"start":3259,"length":20},{"start":3342,"length":20},{"start":3423,"length":20}]}}},"methodIdentifiers":{"deployEscrow(uint32,address,address,address)":"fc049db8","deploySpigot(address,address)":"1caefd37","registerEscrow(uint32,address,address,address)":"931ee11c","registerSpigot(address,address,address,address)":"baf1341a"},"id":33}