{"abi":[{"type":"constructor","inputs":[{"name":"token_","type":"address","internalType":"address"},{"name":"basePrice_","type":"int256","internalType":"int256"}],"stateMutability":"nonpayable"},{"type":"function","name":"changeDecimals","inputs":[{"name":"newDecimals","type":"uint8","internalType":"uint8"}],"outputs":[],"stateMutability":"nonpayable"},{"type":"function","name":"changePrice","inputs":[{"name":"basePrice_","type":"int256","internalType":"int256"}],"outputs":[],"stateMutability":"nonpayable"},{"type":"function","name":"decimals","inputs":[],"outputs":[{"name":"","type":"uint8","internalType":"uint8"}],"stateMutability":"view"},{"type":"function","name":"getLatestRound","inputs":[],"outputs":[{"name":"","type":"uint80","internalType":"uint80"},{"name":"answer","type":"int256","internalType":"int256"},{"name":"","type":"uint256","internalType":"uint256"},{"name":"updatedAt","type":"uint256","internalType":"uint256"},{"name":"","type":"uint80","internalType":"uint80"}],"stateMutability":"view"},{"type":"function","name":"revertDecimals","inputs":[],"outputs":[{"name":"","type":"bool","internalType":"bool"}],"stateMutability":"view"},{"type":"function","name":"setOverrideTimestamp","inputs":[{"name":"value","type":"bool","internalType":"bool"}],"outputs":[],"stateMutability":"nonpayable"},{"type":"function","name":"setShouldRevertDecimals","inputs":[{"name":"shouldRevert","type":"bool","internalType":"bool"}],"outputs":[],"stateMutability":"nonpayable"},{"type":"function","name":"token","inputs":[],"outputs":[{"name":"","type":"address","internalType":"address"}],"stateMutability":"view"}],"bytecode":{"object":"0x60a06040526000805462ff000019166208000017905534801561002157600080fd5b5060405161052038038061052083398101604081905261004091610056565b6001600160a01b03909116608052600155610090565b6000806040838503121561006957600080fd5b82516001600160a01b038116811461008057600080fd5b6020939093015192949293505050565b6080516104756100ab600039600061018701526104756000f3fe608060405234801561001057600080fd5b50600436106100885760003560e01c8063a5dc83d61161005b578063a5dc83d61461013a578063c112dfa31461014d578063cdfc22e914610160578063fc0c546a1461018257600080fd5b8063313ce5671461008d5780633f8688ce146100b0578063708fe4df146100d35780639972978f14610112575b600080fd5b60005462010000900460ff1660405160ff90911681526020015b60405180910390f35b6100d16100be36600461028c565b6000805460ff1916911515919091179055565b005b6100db6101c1565b6040805169ffffffffffffffffffff968716815260208101959095528401929092526060830152909116608082015260a0016100a7565b6100d161012036600461028c565b600080549115156101000261ff0019909216919091179055565b6100d16101483660046102b5565b600155565b6100d161015b3660046102ce565b610223565b60005461017290610100900460ff1681565b60405190151581526020016100a7565b6101a97f000000000000000000000000000000000000000000000000000000000000000081565b6040516001600160a01b0390911681526020016100a7565b60008060008060008060029054906101000a900460ff16600a6101e491906103ed565b6001546101f191906103fc565b60005490945060ff166102045742610211565b610211620189c04261042c565b60009694955086949093508492509050565b60328160ff161061026e5760405162461bcd60e51b8152602060048201526011602482015270546f6f206d616e7920646563696d616c7360781b604482015260640160405180910390fd5b6000805460ff909216620100000262ff000019909216919091179055565b60006020828403121561029e57600080fd5b813580151581146102ae57600080fd5b9392505050565b6000602082840312156102c757600080fd5b5035919050565b6000602082840312156102e057600080fd5b813560ff811681146102ae57600080fd5b634e487b7160e01b600052601160045260246000fd5b600181815b80851115610342578160001904821115610328576103286102f1565b8085161561033557918102915b93841c939080029061030c565b509250929050565b600082610359575060016103e7565b81610366575060006103e7565b816001811461037c5760028114610386576103a2565b60019150506103e7565b60ff841115610397576103976102f1565b50506001821b6103e7565b5060208310610133831016604e8410600b84101617156103c5575081810a6103e7565b6103cf8383610307565b80600019048211156103e3576103e36102f1565b0290505b92915050565b60006102ae60ff84168361034a565b80820260008212600160ff1b84141615610418576104186102f1565b81810583148215176103e7576103e76102f1565b818103818111156103e7576103e76102f156fea26469706673582212200be282a342f59e1c7cf2078f2f640f9c92f6f08ae523dee41e84bee66ed0c0d064736f6c63430008140033","linkReferences":{}},"methodIdentifiers":{"changeDecimals(uint8)":"c112dfa3","changePrice(int256)":"a5dc83d6","decimals()":"313ce567","getLatestRound()":"708fe4df","revertDecimals()":"cdfc22e9","setOverrideTimestamp(bool)":"3f8688ce","setShouldRevertDecimals(bool)":"9972978f","token()":"fc0c546a"},"id":10}