{"abi":[{"type":"function","name":"ARS","inputs":[],"outputs":[{"name":"","type":"address","internalType":"address"}],"stateMutability":"view"},{"type":"function","name":"AUD","inputs":[],"outputs":[{"name":"","type":"address","internalType":"address"}],"stateMutability":"view"},{"type":"function","name":"BRL","inputs":[],"outputs":[{"name":"","type":"address","internalType":"address"}],"stateMutability":"view"},{"type":"function","name":"BTC","inputs":[],"outputs":[{"name":"","type":"address","internalType":"address"}],"stateMutability":"view"},{"type":"function","name":"CAD","inputs":[],"outputs":[{"name":"","type":"address","internalType":"address"}],"stateMutability":"view"},{"type":"function","name":"CHF","inputs":[],"outputs":[{"name":"","type":"address","internalType":"address"}],"stateMutability":"view"},{"type":"function","name":"CNY","inputs":[],"outputs":[{"name":"","type":"address","internalType":"address"}],"stateMutability":"view"},{"type":"function","name":"ETH","inputs":[],"outputs":[{"name":"","type":"address","internalType":"address"}],"stateMutability":"view"},{"type":"function","name":"EUR","inputs":[],"outputs":[{"name":"","type":"address","internalType":"address"}],"stateMutability":"view"},{"type":"function","name":"GBP","inputs":[],"outputs":[{"name":"","type":"address","internalType":"address"}],"stateMutability":"view"},{"type":"function","name":"INR","inputs":[],"outputs":[{"name":"","type":"address","internalType":"address"}],"stateMutability":"view"},{"type":"function","name":"JPY","inputs":[],"outputs":[{"name":"","type":"address","internalType":"address"}],"stateMutability":"view"},{"type":"function","name":"KRW","inputs":[],"outputs":[{"name":"","type":"address","internalType":"address"}],"stateMutability":"view"},{"type":"function","name":"NGN","inputs":[],"outputs":[{"name":"","type":"address","internalType":"address"}],"stateMutability":"view"},{"type":"function","name":"NZD","inputs":[],"outputs":[{"name":"","type":"address","internalType":"address"}],"stateMutability":"view"},{"type":"function","name":"PHP","inputs":[],"outputs":[{"name":"","type":"address","internalType":"address"}],"stateMutability":"view"},{"type":"function","name":"RUB","inputs":[],"outputs":[{"name":"","type":"address","internalType":"address"}],"stateMutability":"view"},{"type":"function","name":"SGD","inputs":[],"outputs":[{"name":"","type":"address","internalType":"address"}],"stateMutability":"view"},{"type":"function","name":"USD","inputs":[],"outputs":[{"name":"","type":"address","internalType":"address"}],"stateMutability":"view"},{"type":"function","name":"ZAR","inputs":[],"outputs":[{"name":"","type":"address","internalType":"address"}],"stateMutability":"view"}],"bytecode":{"object":"0x61026161003a600b82828239805160001a60731461002d57634e487b7160e01b600052600060045260246000fd5b30600052607381538281f3fe73000000000000000000000000000000000000000030146080604052600436106101365760003560e01c806356ef4514116100b7578063a4a235951161007b578063a4a2359514610200578063ca9d1a7214610208578063e774928e14610211578063f37fcc421461021a578063fd760c491461022357600080fd5b806356ef4514146101c15780636b09583c146101ca5780638322fff2146101d3578063976d5e77146101ee5780639db2a472146101f757600080fd5b80632792949d116100fe5780632792949d14610182578063294a2bf21461019d5780632e79477f146101a6578063465bd0a3146101af57806353f7c367146101b857600080fd5b806301b8b3391461013b57806303d698f2146101605780630c0128341461016957806319342a64146101715780631bf6c21b14610179575b600080fd5b61014461033a81565b6040516001600160a01b03909116815260200160405180910390f35b61014461023681565b610144602081565b610144607c81565b61014461034881565b61014473bbbbbbbbbbbbbbbbbbbbbbbbbbbbbbbbbbbbbbbb81565b6101446103d281565b6101446102be81565b61014461018881565b61014461026081565b61014461019a81565b6101446103da81565b61014473eeeeeeeeeeeeeeeeeeeeeeeeeeeeeeeeeeeeeeee81565b61014461028381565b6101446102c681565b610144609c81565b61014461022a81565b61014461016481565b6101446102f481565b61014460248156fea2646970667358221220a5e54bcca69137f4580bb1177dc2517d0b9a3c7cde8c7c95717483ea2bd254c264736f6c63430008140033","linkReferences":{}},"methodIdentifiers":{"ARS()":"0c012834","AUD()":"fd760c49","BRL()":"6b09583c","BTC()":"2792949d","CAD()":"19342a64","CHF()":"f37fcc42","CNY()":"a4a23595","ETH()":"8322fff2","EUR()":"294a2bf2","GBP()":"01b8b339","INR()":"e774928e","JPY()":"465bd0a3","KRW()":"56ef4514","NGN()":"03d698f2","NZD()":"ca9d1a72","PHP()":"53f7c367","RUB()":"976d5e77","SGD()":"2e79477f","USD()":"1bf6c21b","ZAR()":"9db2a472"},"id":77}