{"abi":[{"type":"constructor","inputs":[{"name":"moduleFactory","type":"address","internalType":"address"},{"name":"arbiter_","type":"address","internalType":"address"},{"name":"oracle_","type":"address","internalType":"address"},{"name":"swapTarget_","type":"address","internalType":"address payable"}],"stateMutability":"nonpayable"},{"type":"function","name":"arbiter","inputs":[],"outputs":[{"name":"","type":"address","internalType":"address"}],"stateMutability":"view"},{"type":"function","name":"deployEscrow","inputs":[{"name":"minCRatio","type":"uint32","internalType":"uint32"},{"name":"owner","type":"address","internalType":"address"},{"name":"borrower","type":"address","internalType":"address"}],"outputs":[{"name":"","type":"address","internalType":"address"}],"stateMutability":"nonpayable"},{"type":"function","name":"deploySecuredLine","inputs":[{"name":"borrower","type":"address","internalType":"address"},{"name":"ttl","type":"uint256","internalType":"uint256"}],"outputs":[{"name":"line","type":"address","internalType":"address"}],"stateMutability":"nonpayable"},{"type":"function","name":"deploySecuredLineWithConfig","inputs":[{"name":"coreParams","type":"tuple","internalType":"struct ILineFactory.CoreLineParams","components":[{"name":"borrower","type":"address","internalType":"address"},{"name":"ttl","type":"uint256","internalType":"uint256"},{"name":"cratio","type":"uint32","internalType":"uint32"},{"name":"revenueSplit","type":"uint8","internalType":"uint8"}]}],"outputs":[{"name":"line","type":"address","internalType":"address"}],"stateMutability":"nonpayable"},{"type":"function","name":"deploySecuredLineWithModules","inputs":[{"name":"coreParams","type":"tuple","internalType":"struct ILineFactory.CoreLineParams","components":[{"name":"borrower","type":"address","internalType":"address"},{"name":"ttl","type":"uint256","internalType":"uint256"},{"name":"cratio","type":"uint32","internalType":"uint32"},{"name":"revenueSplit","type":"uint8","internalType":"uint8"}]},{"name":"mSpigot","type":"address","internalType":"address"},{"name":"mEscrow","type":"address","internalType":"address"}],"outputs":[{"name":"line","type":"address","internalType":"address"}],"stateMutability":"nonpayable"},{"type":"function","name":"deploySpigot","inputs":[{"name":"owner","type":"address","internalType":"address"},{"name":"operator","type":"address","internalType":"address"}],"outputs":[{"name":"","type":"address","internalType":"address"}],"stateMutability":"nonpayable"},{"type":"function","name":"oracle","inputs":[],"outputs":[{"name":"","type":"address","internalType":"address"}],"stateMutability":"view"},{"type":"function","name":"registerSecuredLine","inputs":[{"name":"line","type":"address","internalType":"address"},{"name":"spigot","type":"address","internalType":"address"},{"name":"escrow","type":"address","internalType":"address"},{"name":"borrower","type":"address","internalType":"address"},{"name":"operator","type":"address","internalType":"address"},{"name":"revenueSplit","type":"uint8","internalType":"uint8"},{"name":"minCRatio","type":"uint32","internalType":"uint32"}],"outputs":[],"stateMutability":"nonpayable"},{"type":"function","name":"rolloverSecuredLine","inputs":[{"name":"oldLine","type":"address","internalType":"address payable"},{"name":"borrower","type":"address","internalType":"address"},{"name":"ttl","type":"uint256","internalType":"uint256"}],"outputs":[{"name":"line","type":"address","internalType":"address"}],"stateMutability":"nonpayable"},{"type":"function","name":"swapTarget","inputs":[],"outputs":[{"name":"","type":"address","internalType":"address payable"}],"stateMutability":"view"},{"type":"event","name":"DeployedSecuredLine","inputs":[{"name":"deployedAt","type":"address","indexed":true,"internalType":"address"},{"name":"escrow","type":"address","indexed":true,"internalType":"address"},{"name":"spigot","type":"address","indexed":true,"internalType":"address"},{"name":"swapTarget","type":"address","indexed":false,"internalType":"address"},{"name":"revenueSplit","type":"uint8","indexed":false,"internalType":"uint8"}],"anonymous":false},{"type":"event","name":"RegisteredLine","inputs":[{"name":"line","type":"address","indexed":true,"internalType":"address"},{"name":"oracle","type":"address","indexed":true,"internalType":"address"},{"name":"arbiter","type":"address","indexed":true,"internalType":"address"},{"name":"borrower","type":"address","indexed":false,"internalType":"address"},{"name":"operator","type":"address","indexed":false,"internalType":"address"}],"anonymous":false},{"type":"event","name":"RegisteredSecuredLine","inputs":[{"name":"deployedAt","type":"address","indexed":true,"internalType":"address"},{"name":"escrow","type":"address","indexed":true,"internalType":"address"},{"name":"spigot","type":"address","indexed":true,"internalType":"address"},{"name":"swapTarget","type":"address","indexed":false,"internalType":"address"},{"name":"revenueSplit","type":"uint8","indexed":false,"internalType":"uint8"}],"anonymous":false},{"type":"event","name":"RegisteredUpdatedStatus","inputs":[{"name":"line","type":"address","indexed":true,"internalType":"address"},{"name":"status","type":"uint256","indexed":true,"internalType":"uint256"}],"anonymous":false},{"type":"error","name":"InvalidArbiterAddress","inputs":[]},{"type":"error","name":"InvalidEscrowAddress","inputs":[]},{"type":"error","name":"InvalidOracleAddress","inputs":[]},{"type":"error","name":"InvalidRevenueSplit","inputs":[]},{"type":"error","name":"InvalidSpigotAddress","inputs":[]},{"type":"error","name":"InvalidSwapTargetAddress","inputs":[]},{"type":"error","name":"ModuleTransferFailed","inputs":[{"name":"line","type":"address","internalType":"address"},{"name":"spigot","type":"address","internalType":"address"},{"name":"escrow","type":"address","internalType":"address"}]}],"bytecode":{"object":"0x6101006040523480156200001257600080fd5b5060405162001736380380620017368339810160408190526200003591620000eb565b6001600160a01b03808516608052831662000063576040516364d5422d60e11b815260040160405180910390fd5b6001600160a01b0382166200008b57604051635521068160e01b815260040160405180910390fd5b6001600160a01b038116620000b3576040516371f1ac4960e11b815260040160405180910390fd5b6001600160a01b0392831660a05290821660c0521660e0525062000153565b6001600160a01b0381168114620000e857600080fd5b50565b600080600080608085870312156200010257600080fd5b84516200010f81620000d2565b60208601519094506200012281620000d2565b60408601519093506200013581620000d2565b60608601519092506200014881620000d2565b939692955090935050565b60805160a05160c05160e0516114d06200026660003960008181610139015281816105210152818161081a0152818161091501528181610ab701528181610b3701528181610c4d01528181610d0c01528181610f8d01526110c8015260008181610112015281816102ea01528181610419015281816105d60152818161071c015281816107d401528181610a7101528181610bfe01528181610e910152610f3e01526000818161019901528181610266015281816103f4015281816107f601528181610a9301528181610c1f0152610f5f0152600081816101e5015281816102bb0152818161037d015281816105a701528181610677015281816106ea01528181610da80152610e5a01526114d06000f3fe608060405234801561001057600080fd5b506004361061009e5760003560e01c80637e7f0cde116100665780637e7f0cde146101345780638d17afab1461015b578063b079b26a1461016e578063c0e423e014610181578063fe25e00a1461019457600080fd5b80631caefd37146100a357806324380d01146100d25780633e3d8df5146100e75780637a6a89ca146100fa5780637dc0d1d01461010d575b600080fd5b6100b66100b136600461113a565b6101bb565b6040516001600160a01b03909116815260200160405180910390f35b6100e56100e036600461119d565b61025b565b005b6100b66100f536600461122d565b61058d565b6100b6610108366004611276565b61064d565b6100b67f000000000000000000000000000000000000000000000000000000000000000081565b6100b67f000000000000000000000000000000000000000000000000000000000000000081565b6100b66101693660046112a2565b610970565b6100b661017c3660046112fb565b610b92565b6100b661018f36600461133a565b610d66565b6100b67f000000000000000000000000000000000000000000000000000000000000000081565b604051631caefd3760e01b81526001600160a01b03838116600483015282811660248301526000917f000000000000000000000000000000000000000000000000000000000000000090911690631caefd37906044016020604051808303816000875af1158015610230573d6000803e3d6000fd5b505050506040513d601f19601f820116820180604052508101906102549190611356565b9392505050565b336001600160a01b037f000000000000000000000000000000000000000000000000000000000000000016146102a4576040516364d5422d60e11b815260040160405180910390fd5b6040516324c7b84760e21b81526001600160a01b037f0000000000000000000000000000000000000000000000000000000000000000169063931ee11c906103169084907f0000000000000000000000000000000000000000000000000000000000000000908c908b90600401611373565b600060405180830381600087803b15801561033057600080fd5b505af1158015610344573d6000803e3d6000fd5b5050604051635d789a0d60e11b81526001600160a01b0389811660048301528a81166024830152878116604483015286811660648301527f000000000000000000000000000000000000000000000000000000000000000016925063baf1341a9150608401600060405180830381600087803b1580156103c357600080fd5b505af11580156103d7573d6000803e3d6000fd5b5050604080516001600160a01b03888116825287811660208301527f0000000000000000000000000000000000000000000000000000000000000000811694507f0000000000000000000000000000000000000000000000000000000000000000811693508b16917fa67e35d0ede9cdd8262c5716c87202c9eb30da10b4d80f151cfb28d0a768bcc7910160405180910390a4866001600160a01b031663200d2ed26040518163ffffffff1660e01b81526004016020604051808303816000875af11580156104aa573d6000803e3d6000fd5b505050506040513d601f19601f820116820180604052508101906104ce91906113a2565b60048111156104df576104df6113c3565b6040516001600160a01b038916907fbdb3168be7ce4b574a3ee22cd8d4683a60425b578d9fb819bcef9434989636f290600090a3604080516001600160a01b037f00000000000000000000000000000000000000000000000000000000000000008116825260ff851660208301528881169288821692918b16917f50d9afec02deb397407ec2d7ca4d261fb91411b9c1459901f594f6a18aa08960910160405180910390a450505050505050565b604051631f8093b760e31b81526000906001600160a01b037f0000000000000000000000000000000000000000000000000000000000000000169063fc049db8906106029087907f00000000000000000000000000000000000000000000000000000000000000009088908890600401611373565b6020604051808303816000875af1158015610621573d6000803e3d6000fd5b505050506040513d601f19601f820116820180604052508101906106459190611356565b949350505050565b604051631caefd3760e01b81523060048201526001600160a01b03838116602483015260009182917f00000000000000000000000000000000000000000000000000000000000000001690631caefd37906044016020604051808303816000875af11580156106c0573d6000803e3d6000fd5b505050506040513d601f19601f820116820180604052508101906106e49190611356565b905060007f00000000000000000000000000000000000000000000000000000000000000006001600160a01b031663fc049db8610bb87f000000000000000000000000000000000000000000000000000000000000000030896040518563ffffffff1660e01b815260040161075c9493929190611373565b6020604051808303816000875af115801561077b573d6000803e3d6000fd5b505050506040513d601f19601f8201168201806040525081019061079f9190611356565b60405163ad31a1f360e01b8152909150605a90732b721a999b83cbcc1dbd697a27199d5b4be701029063ad31a1f39061084a907f0000000000000000000000000000000000000000000000000000000000000000907f0000000000000000000000000000000000000000000000000000000000000000908b907f0000000000000000000000000000000000000000000000000000000000000000908a908a908e908b906004016113d9565b602060405180830381865af4158015610867573d6000803e3d6000fd5b505050506040513d601f19601f8201168201806040525081019061088b9190611356565b604051636bef62a760e11b81526001600160a01b038083166004830152808616602483015284166044820152909450732b721a999b83cbcc1dbd697a27199d5b4be701029063d7dec54e9060640160006040518083038186803b1580156108f157600080fd5b505af4158015610905573d6000803e3d6000fd5b5050604080516001600160a01b037f00000000000000000000000000000000000000000000000000000000000000008116825260ff861660208301528681169450878116935088169160008051602061147b833981519152910160405180910390a450505092915050565b600080846001600160a01b0316635e235d546040518163ffffffff1660e01b81526004016020604051808303816000875af11580156109b3573d6000803e3d6000fd5b505050506040513d601f19601f820116820180604052508101906109d79190611356565b90506000856001600160a01b031663e2fdcc176040518163ffffffff1660e01b81526004016020604051808303816000875af1158015610a1b573d6000803e3d6000fd5b505050506040513d601f19601f82011682018060405250810190610a3f9190611356565b60405163ad31a1f360e01b8152909150732b721a999b83cbcc1dbd697a27199d5b4be701029063ad31a1f390610ae8907f0000000000000000000000000000000000000000000000000000000000000000907f0000000000000000000000000000000000000000000000000000000000000000908a907f000000000000000000000000000000000000000000000000000000000000000090899089908d90605a906004016113d9565b602060405180830381865af4158015610b05573d6000803e3d6000fd5b505050506040513d601f19601f82011682018060405250810190610b299190611356565b604080516001600160a01b037f000000000000000000000000000000000000000000000000000000000000000081168252605a602083015292955083831692858116929087169160008051602061147b833981519152910160405180910390a450509392505050565b60006001600160a01b038316610bbb5760405163ba512edf60e01b815260040160405180910390fd5b6001600160a01b038216610be257604051637398f3f360e11b815260040160405180910390fd5b732b721a999b83cbcc1dbd697a27199d5b4be7010263ad31a1f37f00000000000000000000000000000000000000000000000000000000000000007f0000000000000000000000000000000000000000000000000000000000000000610c4b6020890189611427565b7f0000000000000000000000000000000000000000000000000000000000000000888860208c0135610c8360808e0160608f01611444565b6040518963ffffffff1660e01b8152600401610ca69897969594939291906113d9565b602060405180830381865af4158015610cc3573d6000803e3d6000fd5b505050506040513d601f19601f82011682018060405250810190610ce79190611356565b90506001600160a01b038084169083811690831660008051602061147b8339815191527f0000000000000000000000000000000000000000000000000000000000000000610d3b60808a0160608b01611444565b604080516001600160a01b03909316835260ff90911660208301520160405180910390a49392505050565b60006064610d7a6080840160608501611444565b60ff161115610d9c57604051630346e1b360e41b815260040160405180910390fd5b60006001600160a01b037f000000000000000000000000000000000000000000000000000000000000000016631caefd3730610ddb6020870187611427565b6040516001600160e01b031960e085901b1681526001600160a01b039283166004820152911660248201526044016020604051808303816000875af1158015610e28573d6000803e3d6000fd5b505050506040513d601f19601f82011682018060405250810190610e4c9190611356565b905060006001600160a01b037f00000000000000000000000000000000000000000000000000000000000000001663fc049db8610e8f606087016040880161145f565b7f000000000000000000000000000000000000000000000000000000000000000030610ebe60208a018a611427565b6040518563ffffffff1660e01b8152600401610edd9493929190611373565b6020604051808303816000875af1158015610efc573d6000803e3d6000fd5b505050506040513d601f19601f82011682018060405250810190610f209190611356565b9050732b721a999b83cbcc1dbd697a27199d5b4be7010263ad31a1f37f00000000000000000000000000000000000000000000000000000000000000007f0000000000000000000000000000000000000000000000000000000000000000610f8b6020890189611427565b7f0000000000000000000000000000000000000000000000000000000000000000878760208c0135610fc360808e0160608f01611444565b6040518963ffffffff1660e01b8152600401610fe69897969594939291906113d9565b602060405180830381865af4158015611003573d6000803e3d6000fd5b505050506040513d601f19601f820116820180604052508101906110279190611356565b604051636bef62a760e11b81526001600160a01b038083166004830152808516602483015283166044820152909350732b721a999b83cbcc1dbd697a27199d5b4be701029063d7dec54e9060640160006040518083038186803b15801561108d57600080fd5b505af41580156110a1573d6000803e3d6000fd5b50506001600160a01b0380841692508481169150851660008051602061147b8339815191527f00000000000000000000000000000000000000000000000000000000000000006110f760808a0160608b01611444565b604080516001600160a01b03909316835260ff90911660208301520160405180910390a45050919050565b6001600160a01b038116811461113757600080fd5b50565b6000806040838503121561114d57600080fd5b823561115881611122565b9150602083013561116881611122565b809150509250929050565b803560ff8116811461118457600080fd5b919050565b803563ffffffff8116811461118457600080fd5b600080600080600080600060e0888a0312156111b857600080fd5b87356111c381611122565b965060208801356111d381611122565b955060408801356111e381611122565b945060608801356111f381611122565b9350608088013561120381611122565b925061121160a08901611173565b915061121f60c08901611189565b905092959891949750929550565b60008060006060848603121561124257600080fd5b61124b84611189565b9250602084013561125b81611122565b9150604084013561126b81611122565b809150509250925092565b6000806040838503121561128957600080fd5b823561129481611122565b946020939093013593505050565b6000806000606084860312156112b757600080fd5b83356112c281611122565b925060208401356112d281611122565b929592945050506040919091013590565b6000608082840312156112f557600080fd5b50919050565b600080600060c0848603121561131057600080fd5b61131a85856112e3565b9250608084013561132a81611122565b915060a084013561126b81611122565b60006080828403121561134c57600080fd5b61025483836112e3565b60006020828403121561136857600080fd5b815161025481611122565b63ffffffff9490941684526001600160a01b039283166020850152908216604084015216606082015260800190565b6000602082840312156113b457600080fd5b81516005811061025457600080fd5b634e487b7160e01b600052602160045260246000fd5b6001600160a01b039889168152968816602088015294871660408701529286166060860152908516608085015290931660a083015260c082019290925260ff90911660e08201526101000190565b60006020828403121561143957600080fd5b813561025481611122565b60006020828403121561145657600080fd5b61025482611173565b60006020828403121561147157600080fd5b6102548261118956fec043ebb31424e42a4ec1454f0de8a7ab9ba0443b8b556c538484c873ae8e64b5a26469706673582212205e66cc6bf10731f04ee7944b555679d69fc1063b918ff9b5b4d16e71cb6b148464736f6c63430008140033","linkReferences":{}},"methodIdentifiers":{"arbiter()":"fe25e00a","deployEscrow(uint32,address,address)":"3e3d8df5","deploySecuredLine(address,uint256)":"7a6a89ca","deploySecuredLineWithConfig((address,uint256,uint32,uint8))":"c0e423e0","deploySecuredLineWithModules((address,uint256,uint32,uint8),address,address)":"b079b26a","deploySpigot(address,address)":"1caefd37","oracle()":"7dc0d1d0","registerSecuredLine(address,address,address,address,address,uint8,uint32)":"24380d01","rolloverSecuredLine(address,address,uint256)":"8d17afab","swapTarget()":"7e7f0cde"},"id":32}