{"abi":[{"type":"constructor","inputs":[{"name":"_registry","type":"address","internalType":"address"}],"stateMutability":"nonpayable"},{"type":"function","name":"MAX_PRICE_LATENCY","inputs":[],"outputs":[{"name":"","type":"uint256","internalType":"uint256"}],"stateMutability":"view"},{"type":"function","name":"NULL_PRICE","inputs":[],"outputs":[{"name":"","type":"int256","internalType":"int256"}],"stateMutability":"view"},{"type":"function","name":"PRICE_DECIMALS","inputs":[],"outputs":[{"name":"","type":"uint8","internalType":"uint8"}],"stateMutability":"view"},{"type":"function","name":"_getLatestAnswer","inputs":[{"name":"token","type":"address","internalType":"address"}],"outputs":[{"name":"","type":"int256","internalType":"int256"}],"stateMutability":"view"},{"type":"function","name":"getLatestAnswer","inputs":[{"name":"token_","type":"address","internalType":"address"}],"outputs":[{"name":"","type":"int256","internalType":"int256"}],"stateMutability":"nonpayable"},{"type":"function","name":"registry","inputs":[],"outputs":[{"name":"","type":"address","internalType":"contract FeedRegistryInterface"}],"stateMutability":"view"},{"type":"event","name":"NoDecimalData","inputs":[{"name":"token","type":"address","indexed":true,"internalType":"address"},{"name":"errData","type":"bytes","indexed":false,"internalType":"bytes"}],"anonymous":false},{"type":"event","name":"NoRoundData","inputs":[{"name":"token","type":"address","indexed":true,"internalType":"address"},{"name":"errData","type":"bytes","indexed":false,"internalType":"bytes"}],"anonymous":false},{"type":"event","name":"NullPrice","inputs":[{"name":"token","type":"address","indexed":true,"internalType":"address"}],"anonymous":false},{"type":"event","name":"StalePrice","inputs":[{"name":"token","type":"address","indexed":true,"internalType":"address"},{"name":"answerTimestamp","type":"uint256","indexed":false,"internalType":"uint256"}],"anonymous":false}],"bytecode":{"object":"0x60a060405234801561001057600080fd5b50604051610a76380380610a7683398101604081905261002f91610040565b6001600160a01b0316608052610070565b60006020828403121561005257600080fd5b81516001600160a01b038116811461006957600080fd5b9392505050565b6080516109d06100a66000396000818160af015281816101350152818161023d015281816103c8015261058b01526109d06000f3fe608060405234801561001057600080fd5b50600436106100625760003560e01c8063168909db146100675780634e184a561461008d5780636849a3ba146100975780637b103999146100aa5780639d431b6a146100e9578063f1a640f8146100f1575b600080fd5b61007a6100753660046106e8565b61010b565b6040519081526020015b60405180910390f35b61007a62015f9081565b61007a6100a53660046106e8565b61035b565b6100d17f000000000000000000000000000000000000000000000000000000000000000081565b6040516001600160a01b039091168152602001610084565b61007a600081565b6100f9600881565b60405160ff9091168152602001610084565b60405163bcfd032d60e01b81526001600160a01b03828116600483015261034860248301526000917f00000000000000000000000000000000000000000000000000000000000000009091169063bcfd032d9060440160a060405180830381865afa92505050801561019a575060408051601f3d908101601f1916820190925261019791810190610732565b60015b6101d7573d8080156101c8576040519150601f19603f3d011682016040523d82523d6000602084013e6101cd565b606091505b5060009392505050565b8115806101ef575062015f906101ed8342610798565b115b15610201575060009695505050505050565b60008413610216575060009695505050505050565b604051630b1c5a7560e31b81526001600160a01b03888116600483015261034860248301527f000000000000000000000000000000000000000000000000000000000000000016906358e2d3a890604401602060405180830381865afa9250505080156102a0575060408051601f3d908101601f1916820190925261029d918101906107b1565b60015b6102e2573d8080156102ce576040519150601f19603f3d011682016040523d82523d6000602084013e6102d3565b606091505b50600098975050505050505050565b60071960ff8216016102fa5750929695505050505050565b600860ff82161061032a576103106008826107d4565b61031b90600a6108d1565b61032590866108e0565b61034a565b6103358160086107d4565b61034090600a6108d1565b61034a908661091c565b98975050505050505050565b919050565b6000806001600160a01b03831673c02aaa39b223fe8d0a0e5c4f27ead9083c756cc214610388578261039e565b73eeeeeeeeeeeeeeeeeeeeeeeeeeeeeeeeeeeeeeee5b60405163bcfd032d60e01b81526001600160a01b03808316600483015261034860248301529192507f00000000000000000000000000000000000000000000000000000000000000009091169063bcfd032d9060440160a060405180830381865afa92505050801561042d575060408051601f3d908101601f1916820190925261042a91810190610732565b60015b6104ac573d80801561045b576040519150601f19603f3d011682016040523d82523d6000602084013e610460565b606091505b50816001600160a01b03167f92929f88aa3ceb38c4107911285a1a5aa696da78d3c5f89e288dc6288aa24cfb8260405161049a919061094c565b60405180910390a25060009392505050565b8115806104c4575062015f906104c28342610798565b115b1561051a57856001600160a01b03167feb1fe96e2dd16e9b4fe45d158bdab7094ab3db25b6f7f792f4c820126e77079a8360405161050491815260200190565b60405180910390a2506000979650505050505050565b60008413610564576040516001600160a01b038716907f5f29f4c3a52cdc9b909b8bdcfb6cf9353c1f0659ba63a0b7a3e31eb97815164090600090a2506000979650505050505050565b604051630b1c5a7560e31b81526001600160a01b03878116600483015261034860248301527f000000000000000000000000000000000000000000000000000000000000000016906358e2d3a890604401602060405180830381865afa9250505080156105ee575060408051601f3d908101601f191682019092526105eb918101906107b1565b60015b610672573d80801561061c576040519150601f19603f3d011682016040523d82523d6000602084013e610621565b606091505b50866001600160a01b03167f54dad17a3ccb587987f05fc671e0a4d35d9e1f9f5249833c103cfbae1e44ca648260405161065b919061094c565b60405180910390a250600098975050505050505050565b60071960ff82160161068b575092979650505050505050565b600860ff8216106106bb576106a16008826107d4565b6106ac90600a6108d1565b6106b690866108e0565b6106db565b6106c68160086107d4565b6106d190600a6108d1565b6106db908661091c565b9998505050505050505050565b6000602082840312156106fa57600080fd5b81356001600160a01b038116811461071157600080fd5b9392505050565b805169ffffffffffffffffffff8116811461035657600080fd5b600080600080600060a0868803121561074a57600080fd5b61075386610718565b945060208601519350604086015192506060860151915061077660808701610718565b90509295509295909350565b634e487b7160e01b600052601160045260246000fd5b818103818111156107ab576107ab610782565b92915050565b6000602082840312156107c357600080fd5b815160ff8116811461071157600080fd5b60ff82811682821603908111156107ab576107ab610782565b600181815b8085111561082857816000190482111561080e5761080e610782565b8085161561081b57918102915b93841c93908002906107f2565b509250929050565b60008261083f575060016107ab565b8161084c575060006107ab565b8160018114610862576002811461086c57610888565b60019150506107ab565b60ff84111561087d5761087d610782565b50506001821b6107ab565b5060208310610133831016604e8410600b84101617156108ab575081810a6107ab565b6108b583836107ed565b80600019048211156108c9576108c9610782565b029392505050565b600061071160ff841683610830565b6000826108fd57634e487b7160e01b600052601260045260246000fd5b600160ff1b82146000198414161561091757610917610782565b500590565b80820260008212600160ff1b8414161561093857610938610782565b81810583148215176107ab576107ab610782565b600060208083528351808285015260005b818110156109795785810183015185820160400152820161095d565b506000604082860101526040601f19601f830116850101925050509291505056fea264697066735822122032fa365e22985ae44e7b6e4bbec71e13e7c0e8a6b1c7e3c832f3e04cd553c4fc64736f6c63430008140033","linkReferences":{}},"methodIdentifiers":{"MAX_PRICE_LATENCY()":"4e184a56","NULL_PRICE()":"9d431b6a","PRICE_DECIMALS()":"f1a640f8","_getLatestAnswer(address)":"168909db","getLatestAnswer(address)":"6849a3ba","registry()":"7b103999"},"id":36}