{"abi":[{"type":"constructor","inputs":[{"name":"oracle_","type":"address","internalType":"address"},{"name":"arbiter_","type":"address","internalType":"address"},{"name":"borrower_","type":"address","internalType":"address"},{"name":"swapTarget_","type":"address","internalType":"address payable"},{"name":"spigot_","type":"address","internalType":"address"},{"name":"escrow_","type":"address","internalType":"address"},{"name":"ttl_","type":"uint256","internalType":"uint256"},{"name":"defaultSplit_","type":"uint8","internalType":"uint8"}],"stateMutability":"nonpayable"},{"type":"receive","stateMutability":"payable"},{"type":"function","name":"accrueInterest","inputs":[],"outputs":[],"stateMutability":"nonpayable"},{"type":"function","name":"addCredit","inputs":[{"name":"drate","type":"uint128","internalType":"uint128"},{"name":"frate","type":"uint128","internalType":"uint128"},{"name":"amount","type":"uint256","internalType":"uint256"},{"name":"token","type":"address","internalType":"address"},{"name":"lender","type":"address","internalType":"address"}],"outputs":[{"name":"","type":"bytes32","internalType":"bytes32"}],"stateMutability":"payable"},{"type":"function","name":"addSpigot","inputs":[{"name":"revenueContract","type":"address","internalType":"address"},{"name":"setting","type":"tuple","internalType":"struct ISpigot.Setting","components":[{"name":"ownerSplit","type":"uint8","internalType":"uint8"},{"name":"claimFunction","type":"bytes4","internalType":"bytes4"},{"name":"transferOwnerFunction","type":"bytes4","internalType":"bytes4"}]}],"outputs":[{"name":"","type":"bool","internalType":"bool"}],"stateMutability":"nonpayable"},{"type":"function","name":"arbiter","inputs":[],"outputs":[{"name":"","type":"address","internalType":"address"}],"stateMutability":"view"},{"type":"function","name":"available","inputs":[{"name":"id","type":"bytes32","internalType":"bytes32"}],"outputs":[{"name":"","type":"uint256","internalType":"uint256"},{"name":"","type":"uint256","internalType":"uint256"}],"stateMutability":"view"},{"type":"function","name":"borrow","inputs":[{"name":"id","type":"bytes32","internalType":"bytes32"},{"name":"amount","type":"uint256","internalType":"uint256"}],"outputs":[],"stateMutability":"nonpayable"},{"type":"function","name":"borrower","inputs":[],"outputs":[{"name":"","type":"address","internalType":"address"}],"stateMutability":"view"},{"type":"function","name":"claimAndRepay","inputs":[{"name":"claimToken","type":"address","internalType":"address"},{"name":"zeroExTradeData","type":"bytes","internalType":"bytes"}],"outputs":[{"name":"","type":"uint256","internalType":"uint256"}],"stateMutability":"nonpayable"},{"type":"function","name":"claimAndTrade","inputs":[{"name":"claimToken","type":"address","internalType":"address"},{"name":"zeroExTradeData","type":"bytes","internalType":"bytes"}],"outputs":[{"name":"","type":"uint256","internalType":"uint256"}],"stateMutability":"nonpayable"},{"type":"function","name":"close","inputs":[{"name":"id","type":"bytes32","internalType":"bytes32"}],"outputs":[],"stateMutability":"payable"},{"type":"function","name":"counts","inputs":[],"outputs":[{"name":"","type":"uint256","internalType":"uint256"},{"name":"","type":"uint256","internalType":"uint256"}],"stateMutability":"view"},{"type":"function","name":"credits","inputs":[{"name":"","type":"bytes32","internalType":"bytes32"}],"outputs":[{"name":"deposit","type":"uint256","internalType":"uint256"},{"name":"principal","type":"uint256","internalType":"uint256"},{"name":"interestAccrued","type":"uint256","internalType":"uint256"},{"name":"interestRepaid","type":"uint256","internalType":"uint256"},{"name":"decimals","type":"uint8","internalType":"uint8"},{"name":"token","type":"address","internalType":"address"},{"name":"lender","type":"address","internalType":"address"},{"name":"isOpen","type":"bool","internalType":"bool"}],"stateMutability":"view"},{"type":"function","name":"deadline","inputs":[],"outputs":[{"name":"","type":"uint256","internalType":"uint256"}],"stateMutability":"view"},{"type":"function","name":"declareInsolvent","inputs":[],"outputs":[],"stateMutability":"nonpayable"},{"type":"function","name":"defaultRevenueSplit","inputs":[],"outputs":[{"name":"","type":"uint8","internalType":"uint8"}],"stateMutability":"view"},{"type":"function","name":"depositAndClose","inputs":[],"outputs":[],"stateMutability":"payable"},{"type":"function","name":"depositAndRepay","inputs":[{"name":"amount","type":"uint256","internalType":"uint256"}],"outputs":[],"stateMutability":"payable"},{"type":"function","name":"escrow","inputs":[],"outputs":[{"name":"","type":"address","internalType":"contract IEscrow"}],"stateMutability":"view"},{"type":"function","name":"healthcheck","inputs":[],"outputs":[{"name":"","type":"uint8","internalType":"enum LineLib.STATUS"}],"stateMutability":"nonpayable"},{"type":"function","name":"ids","inputs":[{"name":"","type":"uint256","internalType":"uint256"}],"outputs":[{"name":"","type":"bytes32","internalType":"bytes32"}],"stateMutability":"view"},{"type":"function","name":"increaseCredit","inputs":[{"name":"id","type":"bytes32","internalType":"bytes32"},{"name":"amount","type":"uint256","internalType":"uint256"}],"outputs":[],"stateMutability":"payable"},{"type":"function","name":"init","inputs":[],"outputs":[],"stateMutability":"nonpayable"},{"type":"function","name":"interestAccrued","inputs":[{"name":"id","type":"bytes32","internalType":"bytes32"}],"outputs":[{"name":"","type":"uint256","internalType":"uint256"}],"stateMutability":"view"},{"type":"function","name":"interestRate","inputs":[],"outputs":[{"name":"","type":"address","internalType":"contract InterestRateCredit"}],"stateMutability":"view"},{"type":"function","name":"liquidate","inputs":[{"name":"amount","type":"uint256","internalType":"uint256"},{"name":"targetToken","type":"address","internalType":"address"}],"outputs":[{"name":"","type":"uint256","internalType":"uint256"}],"stateMutability":"nonpayable"},{"type":"function","name":"mutualConsentProposals","inputs":[{"name":"","type":"bytes32","internalType":"bytes32"}],"outputs":[{"name":"","type":"address","internalType":"address"}],"stateMutability":"view"},{"type":"function","name":"nextInQ","inputs":[],"outputs":[{"name":"","type":"bytes32","internalType":"bytes32"},{"name":"","type":"address","internalType":"address"},{"name":"","type":"address","internalType":"address"},{"name":"","type":"uint256","internalType":"uint256"},{"name":"","type":"uint256","internalType":"uint256"},{"name":"","type":"uint256","internalType":"uint256"},{"name":"","type":"uint128","internalType":"uint128"},{"name":"","type":"uint128","internalType":"uint128"}],"stateMutability":"view"},{"type":"function","name":"oracle","inputs":[],"outputs":[{"name":"","type":"address","internalType":"contract IOracle"}],"stateMutability":"view"},{"type":"function","name":"releaseSpigot","inputs":[{"name":"to","type":"address","internalType":"address"}],"outputs":[{"name":"","type":"bool","internalType":"bool"}],"stateMutability":"nonpayable"},{"type":"function","name":"revokeConsent","inputs":[{"name":"_reconstrucedMsgData","type":"bytes","internalType":"bytes"}],"outputs":[],"stateMutability":"nonpayable"},{"type":"function","name":"rollover","inputs":[{"name":"newLine","type":"address","internalType":"address"}],"outputs":[],"stateMutability":"nonpayable"},{"type":"function","name":"setRates","inputs":[{"name":"id","type":"bytes32","internalType":"bytes32"},{"name":"drate","type":"uint128","internalType":"uint128"},{"name":"frate","type":"uint128","internalType":"uint128"}],"outputs":[],"stateMutability":"nonpayable"},{"type":"function","name":"spigot","inputs":[],"outputs":[{"name":"","type":"address","internalType":"contract ISpigot"}],"stateMutability":"view"},{"type":"function","name":"status","inputs":[],"outputs":[{"name":"","type":"uint8","internalType":"enum LineLib.STATUS"}],"stateMutability":"view"},{"type":"function","name":"stepQ","inputs":[],"outputs":[],"stateMutability":"nonpayable"},{"type":"function","name":"swapTarget","inputs":[],"outputs":[{"name":"","type":"address","internalType":"address payable"}],"stateMutability":"view"},{"type":"function","name":"sweep","inputs":[{"name":"to","type":"address","internalType":"address"},{"name":"token","type":"address","internalType":"address"},{"name":"amount","type":"uint256","internalType":"uint256"}],"outputs":[{"name":"","type":"uint256","internalType":"uint256"}],"stateMutability":"nonpayable"},{"type":"function","name":"tradeable","inputs":[{"name":"token","type":"address","internalType":"address"}],"outputs":[{"name":"","type":"uint256","internalType":"uint256"}],"stateMutability":"view"},{"type":"function","name":"unused","inputs":[{"name":"token","type":"address","internalType":"address"}],"outputs":[{"name":"","type":"uint256","internalType":"uint256"}],"stateMutability":"view"},{"type":"function","name":"updateOutstandingDebt","inputs":[],"outputs":[{"name":"","type":"uint256","internalType":"uint256"},{"name":"","type":"uint256","internalType":"uint256"}],"stateMutability":"nonpayable"},{"type":"function","name":"updateOwnerSplit","inputs":[{"name":"revenueContract","type":"address","internalType":"address"}],"outputs":[{"name":"","type":"bool","internalType":"bool"}],"stateMutability":"nonpayable"},{"type":"function","name":"updateWhitelist","inputs":[{"name":"func","type":"bytes4","internalType":"bytes4"},{"name":"allowed","type":"bool","internalType":"bool"}],"outputs":[{"name":"","type":"bool","internalType":"bool"}],"stateMutability":"nonpayable"},{"type":"function","name":"useAndRepay","inputs":[{"name":"amount","type":"uint256","internalType":"uint256"}],"outputs":[{"name":"","type":"bool","internalType":"bool"}],"stateMutability":"nonpayable"},{"type":"function","name":"withdraw","inputs":[{"name":"id","type":"bytes32","internalType":"bytes32"},{"name":"amount","type":"uint256","internalType":"uint256"}],"outputs":[],"stateMutability":"nonpayable"},{"type":"event","name":"AddCredit","inputs":[{"name":"lender","type":"address","indexed":true,"internalType":"address"},{"name":"token","type":"address","indexed":true,"internalType":"address"},{"name":"deposit","type":"uint256","indexed":true,"internalType":"uint256"},{"name":"id","type":"bytes32","indexed":false,"internalType":"bytes32"}],"anonymous":false},{"type":"event","name":"Borrow","inputs":[{"name":"id","type":"bytes32","indexed":true,"internalType":"bytes32"},{"name":"amount","type":"uint256","indexed":true,"internalType":"uint256"}],"anonymous":false},{"type":"event","name":"CloseCreditPosition","inputs":[{"name":"id","type":"bytes32","indexed":true,"internalType":"bytes32"}],"anonymous":false},{"type":"event","name":"Default","inputs":[{"name":"id","type":"bytes32","indexed":true,"internalType":"bytes32"}],"anonymous":false},{"type":"event","name":"DeployLine","inputs":[{"name":"oracle","type":"address","indexed":true,"internalType":"address"},{"name":"arbiter","type":"address","indexed":true,"internalType":"address"},{"name":"borrower","type":"address","indexed":true,"internalType":"address"}],"anonymous":false},{"type":"event","name":"IncreaseCredit","inputs":[{"name":"id","type":"bytes32","indexed":true,"internalType":"bytes32"},{"name":"deposit","type":"uint256","indexed":true,"internalType":"uint256"}],"anonymous":false},{"type":"event","name":"InterestAccrued","inputs":[{"name":"id","type":"bytes32","indexed":true,"internalType":"bytes32"},{"name":"amount","type":"uint256","indexed":true,"internalType":"uint256"}],"anonymous":false},{"type":"event","name":"Liquidate","inputs":[{"name":"id","type":"bytes32","indexed":true,"internalType":"bytes32"},{"name":"amount","type":"uint256","indexed":true,"internalType":"uint256"},{"name":"token","type":"address","indexed":true,"internalType":"address"},{"name":"escrow","type":"address","indexed":false,"internalType":"address"}],"anonymous":false},{"type":"event","name":"MutualConsentAccepted","inputs":[{"name":"proposalId","type":"bytes32","indexed":false,"internalType":"bytes32"}],"anonymous":false},{"type":"event","name":"MutualConsentRegistered","inputs":[{"name":"proposalId","type":"bytes32","indexed":false,"internalType":"bytes32"},{"name":"taker","type":"address","indexed":false,"internalType":"address"}],"anonymous":false},{"type":"event","name":"MutualConsentRevoked","inputs":[{"name":"proposalId","type":"bytes32","indexed":false,"internalType":"bytes32"}],"anonymous":false},{"type":"event","name":"RepayInterest","inputs":[{"name":"id","type":"bytes32","indexed":true,"internalType":"bytes32"},{"name":"amount","type":"uint256","indexed":true,"internalType":"uint256"}],"anonymous":false},{"type":"event","name":"RepayPrincipal","inputs":[{"name":"id","type":"bytes32","indexed":true,"internalType":"bytes32"},{"name":"amount","type":"uint256","indexed":true,"internalType":"uint256"}],"anonymous":false},{"type":"event","name":"ReservesChanged","inputs":[{"name":"token","type":"address","indexed":true,"internalType":"address"},{"name":"diff","type":"int256","indexed":true,"internalType":"int256"},{"name":"tokenType","type":"uint256","indexed":false,"internalType":"uint256"}],"anonymous":false},{"type":"event","name":"RevenuePayment","inputs":[{"name":"token","type":"address","indexed":true,"internalType":"address"},{"name":"amount","type":"uint256","indexed":true,"internalType":"uint256"}],"anonymous":false},{"type":"event","name":"SetRates","inputs":[{"name":"id","type":"bytes32","indexed":true,"internalType":"bytes32"},{"name":"dRate","type":"uint128","indexed":true,"internalType":"uint128"},{"name":"fRate","type":"uint128","indexed":true,"internalType":"uint128"}],"anonymous":false},{"type":"event","name":"SortedIntoQ","inputs":[{"name":"id","type":"bytes32","indexed":true,"internalType":"bytes32"},{"name":"newIdx","type":"uint256","indexed":true,"internalType":"uint256"},{"name":"oldIdx","type":"uint256","indexed":true,"internalType":"uint256"},{"name":"oldId","type":"bytes32","indexed":false,"internalType":"bytes32"}],"anonymous":false},{"type":"event","name":"TradeSpigotRevenue","inputs":[{"name":"revenueToken","type":"address","indexed":true,"internalType":"address"},{"name":"revenueTokenAmount","type":"uint256","indexed":false,"internalType":"uint256"},{"name":"debtToken","type":"address","indexed":true,"internalType":"address"},{"name":"debtTokensBought","type":"uint256","indexed":true,"internalType":"uint256"}],"anonymous":false},{"type":"event","name":"UpdateStatus","inputs":[{"name":"status","type":"uint256","indexed":true,"internalType":"uint256"}],"anonymous":false},{"type":"event","name":"WithdrawDeposit","inputs":[{"name":"id","type":"bytes32","indexed":true,"internalType":"bytes32"},{"name":"amount","type":"uint256","indexed":true,"internalType":"uint256"}],"anonymous":false},{"type":"event","name":"WithdrawProfit","inputs":[{"name":"id","type":"bytes32","indexed":true,"internalType":"bytes32"},{"name":"amount","type":"uint256","indexed":true,"internalType":"uint256"}],"anonymous":false},{"type":"error","name":"AlreadyInitialized","inputs":[]},{"type":"error","name":"BadModule","inputs":[{"name":"module","type":"address","internalType":"address"}]},{"type":"error","name":"BadNewLine","inputs":[]},{"type":"error","name":"BadRollover","inputs":[]},{"type":"error","name":"BorrowFailed","inputs":[]},{"type":"error","name":"CallerAccessDenied","inputs":[]},{"type":"error","name":"CantStepQ","inputs":[]},{"type":"error","name":"CloseFailedWithPrincipal","inputs":[]},{"type":"error","name":"DebtOwed","inputs":[]},{"type":"error","name":"EthSupportDisabled","inputs":[]},{"type":"error","name":"InvalidConsent","inputs":[]},{"type":"error","name":"NoLiquidity","inputs":[]},{"type":"error","name":"NoTokenPrice","inputs":[]},{"type":"error","name":"NonZeroEthValue","inputs":[]},{"type":"error","name":"NotActive","inputs":[]},{"type":"error","name":"NotBorrowing","inputs":[]},{"type":"error","name":"NotInsolvent","inputs":[{"name":"module","type":"address","internalType":"address"}]},{"type":"error","name":"NotLiquidatable","inputs":[]},{"type":"error","name":"NotUserConsent","inputs":[]},{"type":"error","name":"PositionExists","inputs":[]},{"type":"error","name":"PositionIsClosed","inputs":[]},{"type":"error","name":"ReentrancyGuardReentrantCall","inputs":[]},{"type":"error","name":"RepayAmountExceedsDebt","inputs":[{"name":"totalAvailable","type":"uint256","internalType":"uint256"}]},{"type":"error","name":"ReservesOverdrawn","inputs":[{"name":"token","type":"address","internalType":"address"},{"name":"amountAvailable","type":"uint256","internalType":"uint256"}]},{"type":"error","name":"TokenTransferFailed","inputs":[]},{"type":"error","name":"Unauthorized","inputs":[]},{"type":"error","name":"UnsupportedMutualConsentFunction","inputs":[]}],"bytecode":{"object":"0x6101a06040523480156200001257600080fd5b506040516200590f3803806200590f833981016040819052620000359162000152565b600180556001600160a01b0380891660e05280881660c052861660a0528288888887898787868686846200006a81426200020c565b6080526040516200007b906200012b565b604051809103906000f08015801562000098573d6000803e3d6000fd5b506001600160a01b03908116610100526040518382169185811691908716907f823bb3f9854921652e62f2fcf067240bf72adb3bf3717b6e65c78f99df300e5890600090a4505050606460ff831611159050620000f457600080fd5b6001600160a01b039384166101205260ff166101405250811661016052939093166101805250620002349950505050505050505050565b61053680620053d983390190565b6001600160a01b03811681146200014f57600080fd5b50565b600080600080600080600080610100898b0312156200017057600080fd5b88516200017d8162000139565b60208a0151909850620001908162000139565b60408a0151909750620001a38162000139565b60608a0151909650620001b68162000139565b60808a0151909550620001c98162000139565b60a08a0151909450620001dc8162000139565b60c08a015160e08b0151919450925060ff81168114620001fb57600080fd5b809150509295985092959890939650565b808201808211156200022e57634e487b7160e01b600052601160045260246000fd5b92915050565b60805160a05160c05160e0516101005161012051610140516101605161018051614fcf6200040a6000396000818161083b01528181613287015281816139ef015281816141ce01528181614369015281816144100152818161444101526144df0152600081816106e401526134030152600081816108d701526127a701526000818161051f01528181610bad01528181610d6601528181612289015281816122e20152818161277a0152818161304c01528181613341015281816134250152818161428b01528181614330015261452301526000818161060801528181611f6501528181612ecb01528181612f90015281816131fb0152818161388a0152613db001526000818161065c015281816138680152613f6a01526000818161095d01528181610b5801528181610f8601528181611491015281816115a30152818161172e0152818161222401528181613099015281816130fc015261454b01526000818161069001528181610c3b01528181611222015281816112fd0152818161170d0152818161193701528181611c2d01528181611e53015281816120400152818161214f015281816125fd0152818161287f01528181612ae30152613078015260008181610355015261413f0152614fcf6000f3fe60806040526004361061026b5760003560e01c80637df1f1b911610144578063c3651574116100b6578063e701af991161007a578063e701af991461085d578063e96b496f146108c5578063ebb65a0f1461090b578063fac333ac1461092b578063fe25e00a1461094b578063feccf26f1461097f57600080fd5b8063c3651574146107db578063cb836209146107ee578063dfe9608314610801578063e1c7392a14610814578063e2fdcc171461082957600080fd5b8063921c5fcb11610108578063921c5fcb146107265780639637b5d314610746578063a4e7d38f14610766578063a6afed9514610786578063ac856fac1461079b578063b57cb9fc146107bb57600080fd5b80637df1f1b91461067e5780637df33c20146106b25780637e7f0cde146106d25780637eef544d14610706578063817cc1ea1461070e57600080fd5b8063501b56d8116101dd57806362c06767116101a157806362c067671461059657806367828fbd146105b65780636932854f146105d65780637c3a00fd146105f65780637c93ec301461062a5780637dc0d1d01461064a57600080fd5b8063501b56d8146104e35780635e235d541461050d5780635f618768146105415780635fae8b3d1461056157806362bfcc681461058157600080fd5b806329dcb0cf1161022f57806329dcb0cf1461034357806338deee8f1461037757806339c79e0c146103c557806342997913146103d8578063461035af146104985780634f42fc02146104ce57600080fd5b8063040cf0201461027757806318906bf7146102995780631a5bb098146102ce5780631acb7525146102ee578063200d2ed21461031c57600080fd5b3661027257005b600080fd5b34801561028357600080fd5b5061029761029236600461462f565b610994565b005b3480156102a557600080fd5b506102b96102b4366004614666565b610b4b565b60405190151581526020015b60405180910390f35b3480156102da57600080fd5b506102976102e93660046146a7565b610c30565b3480156102fa57600080fd5b5061030e61030936600461470d565b610e60565b6040519081526020016102c5565b34801561032857600080fd5b506005546103369060ff1681565b6040516102c5919061479a565b34801561034f57600080fd5b5061030e7f000000000000000000000000000000000000000000000000000000000000000081565b34801561038357600080fd5b506103ad6103923660046147a8565b6000602081905290815260409020546001600160a01b031681565b6040516001600160a01b0390911681526020016102c5565b6102976103d33660046147a8565b61120f565b3480156103e457600080fd5b5061044c6103f33660046147a8565b600460208190526000918252604090912080546001820154600283015460038401549484015460059094015492949193909260ff808316926001600160a01b0361010090910481169290811691600160a01b9091041688565b60408051988952602089019790975295870194909452606086019290925260ff1660808501526001600160a01b0390811660a08501521660c0830152151560e0820152610100016102c5565b3480156104a457600080fd5b5061030e6104b33660046146a7565b6001600160a01b031660009081526006602052604090205490565b3480156104da57600080fd5b506103366113cb565b3480156104ef57600080fd5b506104f8611406565b604080519283526020830191909152016102c5565b34801561051957600080fd5b506103ad7f000000000000000000000000000000000000000000000000000000000000000081565b34801561054d57600080fd5b5061030e61055c36600461470d565b611419565b34801561056d57600080fd5b5061030e61057c3660046147c1565b611596565b34801561058d57600080fd5b50610297611647565b3480156105a257600080fd5b5061030e6105b13660046147f1565b6116bb565b3480156105c257600080fd5b506102b96105d13660046147a8565b61182d565b3480156105e257600080fd5b506104f86105f13660046147a8565b611ba9565b34801561060257600080fd5b506103ad7f000000000000000000000000000000000000000000000000000000000000000081565b34801561063657600080fd5b5061029761064536600461462f565b611be3565b34801561065657600080fd5b506103ad7f000000000000000000000000000000000000000000000000000000000000000081565b34801561068a57600080fd5b506103ad7f000000000000000000000000000000000000000000000000000000000000000081565b3480156106be57600080fd5b5061030e6106cd3660046147a8565b611f22565b3480156106de57600080fd5b506103ad7f000000000000000000000000000000000000000000000000000000000000000081565b610297611fcc565b34801561071a57600080fd5b506002546003546104f8565b34801561073257600080fd5b506102b9610741366004614858565b612217565b34801561075257600080fd5b5061030e6107613660046146a7565b6122c0565b34801561077257600080fd5b50610297610781366004614884565b612372565b34801561079257600080fd5b50610297612481565b3480156107a757600080fd5b506102976107b63660046148db565b6125e3565b3480156107c757600080fd5b506102b96107d63660046146a7565b61275c565b6102976107e936600461462f565b612826565b61030e6107fc36600461491d565b612a9f565b61029761080f3660046147a8565b612bcd565b34801561082057600080fd5b50610297612dbf565b34801561083557600080fd5b506103ad7f000000000000000000000000000000000000000000000000000000000000000081565b34801561086957600080fd5b50610872612e07565b604080519889526001600160a01b0397881660208a015296909516958701959095526060860192909252608085015260a08401526001600160801b0391821660c08401521660e0820152610100016102c5565b3480156108d157600080fd5b506108f97f000000000000000000000000000000000000000000000000000000000000000081565b60405160ff90911681526020016102c5565b34801561091757600080fd5b506102b96109263660046146a7565b61302e565b34801561093757600080fd5b5061030e6109463660046147a8565b6130d9565b34801561095757600080fd5b506103ad7f000000000000000000000000000000000000000000000000000000000000000081565b34801561098b57600080fd5b506102976130fa565b61099c613196565b6000828152600460208181526040928390208351610100808201865282548252600183015493820193909352600282015494810194909452600381015460608501529182015460ff80821660808601526001600160a01b0392909104821660a085015260059092015490811660c0840152600160a01b900416151560e0820152734dca189d7fb51d9cc375e4d697e5800c5d21ff879063d4ce933390610a4290856131c0565b8433856040518563ffffffff1660e01b8152600401610a6494939291906149e6565b61010060405180830381865af4158015610a82573d6000803e3d6000fd5b505050506040513d601f19601f82011682018060405250810190610aa69190614b06565b60008381526004602081815260409283902084518155908401516001820155918301516002830155606083015160038301556080830151908201805460a08501516001600160a01b03908116610100026001600160a81b031992831660ff909516949094179390931790915560c08401516005909301805460e0909501511515600160a01b02949091169290911691909117919091179055610b4760018055565b5050565b6000336001600160a01b037f00000000000000000000000000000000000000000000000000000000000000001614610b9657604051631172e7cd60e01b815260040160405180910390fd5b6040516318906bf760e01b81526001600160a01b037f000000000000000000000000000000000000000000000000000000000000000016906318906bf790610be49086908690600401614b23565b6020604051808303816000875af1158015610c03573d6000803e3d6000fd5b505050506040513d601f19601f82011682018060405250810190610c279190614b80565b90505b92915050565b336001600160a01b037f00000000000000000000000000000000000000000000000000000000000000001614610c7957604051631172e7cd60e01b815260040160405180910390fd5b600360055460ff166004811115610c9257610c92614762565b14610cb0576040516309b4550360e41b815260040160405180910390fd5b6000816001600160a01b031663200d2ed26040518163ffffffff1660e01b81526004016020604051808303816000875af1158015610cf2573d6000803e3d6000fd5b505050506040513d601f19601f82011682018060405250810190610d169190614b9d565b6004811115610d2757610d27614762565b14610d4557604051633cd70f8d60e01b815260040160405180910390fd5b610d4e81613265565b506040516342cef4b160e01b81526001600160a01b037f0000000000000000000000000000000000000000000000000000000000000000811660048301528216602482015273274946031d204567281f7616718b4abb940ef784906342cef4b190604401602060405180830381865af4158015610dcf573d6000803e3d6000fd5b505050506040513d601f19601f82011682018060405250810190610df39190614b80565b50806001600160a01b031663e1c7392a6040518163ffffffff1660e01b8152600401600060405180830381600087803b158015610e2f57600080fd5b505af1925050508015610e40575060015b610e5d5760405163b75799e960e01b815260040160405180910390fd5b50565b600060025460001480610ea75750600460006003600081548110610e8657610e86614bbe565b90600052602060002001548152602001908152602001600020600101546000145b15610ec55760405163e0d00bd360e01b815260040160405180910390fd5b610ecd613196565b60006003600081548110610ee357610ee3614bbe565b6000918252602080832090910154808352600480835260408085208151610100808201845282548252600183015496820196909652600282015492810192909252600381015460608301529182015460ff80821660808401526001600160a01b0395909104851660a083015260059092015493841660c0820152600160a01b90930416151560e08301529250610f7990836131c0565b9050336001600160a01b037f00000000000000000000000000000000000000000000000000000000000000001614610fc457604051631172e7cd60e01b815260040160405180910390fd5b6000610fd6878360a001518888613307565b60a08301516001600160a01b0316600090815260066020526040812054919250906110019083614bea565b90506000836020015184604001516110199190614bea565b905080821115611027578091505b828211156110b457600061103b8484614bfd565b905061104681614c10565b8560a001516001600160a01b0316600080516020614f7a833981519152600160405161107491815260200190565b60405180910390a360a08501516001600160a01b0316600090815260066020526040812080548392906110a8908490614bfd565b9091555061112c915050565b60006110c08385614bfd565b9050808560a001516001600160a01b0316600080516020614f7a83398151915260016040516110f191815260200190565b60405180910390a360a08501516001600160a01b031660009081526006602052604081208054839290611125908490614bea565b9091555050505b61113984868460006134bc565b600086815260046020818152604080842085518155918501516001830155848101516002830155606085015160038301556080850151928201805460a087015160ff9095166001600160a81b0319918216176101006001600160a01b03968716021790915560c08601516005909301805460e0909701519385169690911695909517600160a01b9215159290920291909117909355915184928c16917f8343d4254deba24e9e0e659e47f973c9705b70baa52a884516698b13af1588bb91a35090935050505061120860018055565b9392505050565b611217613196565b336001600160a01b037f0000000000000000000000000000000000000000000000000000000000000000161461126057604051631172e7cd60e01b815260040160405180910390fd5b60008181526004602081815260408084208151610100808201845282548252600183015494820194909452600282015492810192909252600381015460608301529283015460ff80821660808401529290046001600160a01b0390811660a083015260059093015492831660c0820152600160a01b90920416151560e08201526112ea90836131c0565b60408101519091506113276113218385847f00000000000000000000000000000000000000000000000000000000000000006134bc565b84613543565b60008481526004602081815260409283902084518155908401516001820155918301516002830155606083015160038301556080830151908201805460a08501516001600160a01b03908116610100026001600160a81b031992831660ff909516949094179390931790915560c08401516005909301805460e0909501511515600160a01b0294909116929091169190911791909117905550610e5d905060018055565b6000600160055460ff1660048111156113e6576113e6614762565b10156113f157600080fd5b6114016113fc613704565b61373d565b905090565b6000806114116137d5565b915091509091565b600060025460001480611460575060046000600360008154811061143f5761143f614bbe565b90600052602060002001548152602001908152602001600020600101546000145b1561147e5760405163e0d00bd360e01b815260040160405180910390fd5b611486613196565b336001600160a01b037f000000000000000000000000000000000000000000000000000000000000000016146114cf57604051631172e7cd60e01b815260040160405180910390fd5b60006004600060036000815481106114e9576114e9614bbe565b9060005260206000200154815260200190815260200160002060040160019054906101000a90046001600160a01b03169050600061152986838787613307565b6001600160a01b038316600090815260066020526040812080549293508392909190611556908490614bea565b90915550506040516001815281906001600160a01b03841690600080516020614f7a8339815191529060200160405180910390a391505061120860018055565b6000336001600160a01b037f000000000000000000000000000000000000000000000000000000000000000016146115e157604051631172e7cd60e01b815260040160405180910390fd5b60026115ee6113fc613704565b60048111156115ff576115ff614762565b1461161d57604051636ef5bcdd60e11b815260040160405180910390fd5b610c27600360008154811061163457611634614bbe565b90600052602060002001548484336139be565b604051631272aa3360e11b815260036004820152739cbe9741b3503a790e69e1587b5d51c0056154dc906324e5546690602401602060405180830381865af4158015611697573d6000803e3d6000fd5b505050506040513d601f19601f82011682018060405250810190610e5d9190614b80565b60006116c5613196565b6001600160a01b03831660009081526006602052604081205473274946031d204567281f7616718b4abb940ef784906385831bc39087908790879061170b6113fc613704565b7f00000000000000000000000000000000000000000000000000000000000000007f00000000000000000000000000000000000000000000000000000000000000006040518863ffffffff1660e01b815260040161176f9796959493929190614c2c565b602060405180830381865af415801561178c573d6000803e3d6000fd5b505050506040513d601f19601f820116820180604052508101906117b09190614c7e565b90508015611822576001600160a01b038416600090815260066020526040812080548392906117e0908490614bfd565b909155506117ef905081614c10565b846001600160a01b0316600080516020614f7a833981519152600160405161181991815260200190565b60405180910390a35b905061120860018055565b600060025460001480611874575060046000600360008154811061185357611853614bbe565b90600052602060002001548152602001908152602001600020600101546000145b156118925760405163e0d00bd360e01b815260040160405180910390fd5b600060036000815481106118a8576118a8614bbe565b600091825260208083209091015480835260048083526040938490208451610100808201875282548252600183015495820195909552600282015495810195909552600381015460608601529081015460ff80821660808701526001600160a01b0394909104841660a086015260059091015480841660c0860152600160a01b900416151560e08401529250337f00000000000000000000000000000000000000000000000000000000000000009091161480159061197d57508060c001516001600160a01b0316336001600160a01b031614155b1561199b57604051631172e7cd60e01b815260040160405180910390fd5b806040015181602001516119af9190614bea565b8411156119ef57806040015181602001516119ca9190614bea565b6040516373a50fb160e01b81526004016119e691815260200190565b60405180910390fd5b60a08101516001600160a01b0316600090815260066020526040902054841115611a525760a08101516001600160a01b031660008181526006602052604090819020549051625ea67960e21b8152600481019290925260248201526044016119e6565b60a08101516001600160a01b031660009081526006602052604081208054869290611a7e908490614bfd565b90915550611a8d905084614c10565b8160a001516001600160a01b0316600080516020614f7a8339815191526000604051611abb91815260200190565b60405180910390a3611ad9611ad082846131c0565b838660006134bc565b600083815260046020818152604080842085518155918501516001830155848101516002830155606085015160038301556080850151928201805460a08088015160ff9096166001600160a81b0319928316176101006001600160a01b03978816021790925560c08701516005909401805460e0909801519486169790911696909617600160a01b931515939093029290921790945584015192518793909116917f8343d4254deba24e9e0e659e47f973c9705b70baa52a884516698b13af1588bb91a36001925050505b919050565b6000818152600460205260408120600181015490548291611bc991614bfd565b600093845260046020526040909320600301549293915050565b611beb613196565b600160055460ff166004811115611c0457611c04614762565b14611c2257604051634065aaf160e11b815260040160405180910390fd5b336001600160a01b037f00000000000000000000000000000000000000000000000000000000000000001614611c6b57604051631172e7cd60e01b815260040160405180910390fd5b60008281526004602081815260408084208151610100808201845282548252600183015494820194909452600282015492810192909252600381015460608301529283015460ff80821660808401529290046001600160a01b0390811660a083015260059093015492831660c0820152600160a01b90920416151560e0820152611cf590846131c0565b90508060e00151611d195760405163d320557760e01b815260040160405180910390fd5b60208101518151611d2a9190614bfd565b821115611d4a57604051636180f03f60e11b815260040160405180910390fd5b8181602001818151611d5c9190614bea565b9052506000838152600460208181526040928390208451815590840151600180830191909155928401516002820155606084015160038201556080840151918101805460a08601516001600160a01b03908116610100026001600160a81b031992831660ff909616959095179490941790915560c08501516005909201805460e08701511515600160a01b0292169290931691909117179055611e006113fc613704565b6004811115611e1157611e11614762565b14611e2f57604051636b263a7560e01b815260040160405180910390fd5b60a081015160405163d55fad0560e01b81526001600160a01b0391821660048201527f00000000000000000000000000000000000000000000000000000000000000009091166024820152604481018390527373cb72a7efaddd99cdd2d110e2f4b8b65bf3b8129063d55fad0590606401602060405180830381865af4158015611ebd573d6000803e3d6000fd5b505050506040513d601f19601f82011682018060405250810190611ee19190614b80565b50604051829084907f23a87b7444856c0a68cbd431aaafca806284c2bd83791d761cc6adb66f92075990600090a3611f1883613ab5565b50610b4760018055565b60008181526004602081905260408083209051631ebff4d960e11b8152734dca189d7fb51d9cc375e4d697e5800c5d21ff8792633d7fe9b292611f8b92909187917f00000000000000000000000000000000000000000000000000000000000000009101614d08565b602060405180830381865af4158015611fa8573d6000803e3d6000fd5b505050506040513d601f19601f82011682018060405250810190610c2a9190614c7e565b611fd4613196565b60025415806120175750600460006003600081548110611ff657611ff6614bbe565b90600052602060002001548152602001908152602001600020600101546000145b156120355760405163e0d00bd360e01b815260040160405180910390fd5b336001600160a01b037f0000000000000000000000000000000000000000000000000000000000000000161461207e57604051631172e7cd60e01b815260040160405180910390fd5b6000600360008154811061209457612094614bbe565b6000918252602080832090910154808352600480835260408085208151610100808201845282548252600183015496820196909652600282015492810192909252600381015460608301529182015460ff80821660808401526001600160a01b0395909104851660a083015260059092015493841660c0820152600160a01b90930416151560e0830152925061212a90836131c0565b90506000816040015182602001516121429190614bea565b90506121736113218385847f00000000000000000000000000000000000000000000000000000000000000006134bc565b60009384526004602081815260409586902083518155908301516001820155948201516002860155606082015160038601556080820151908501805460a08401516001600160a01b03908116610100026001600160a81b031992831660ff909516949094179390931790915560c08301516005909601805460e0909401511515600160a01b029390911695909116949094171790925550612215905060018055565b565b6000336001600160a01b037f0000000000000000000000000000000000000000000000000000000000000000161461226257604051631172e7cd60e01b815260040160405180910390fd5b604051633500fa7b60e21b81526001600160e01b03198416600482015282151560248201527f00000000000000000000000000000000000000000000000000000000000000006001600160a01b03169063d403e9ec90604401610be4565b604051630d63d4af60e41b81526001600160a01b0382811660048301526000917f00000000000000000000000000000000000000000000000000000000000000009091169063d63d4af090602401602060405180830381865afa15801561232b573d6000803e3d6000fd5b505050506040513d601f19601f8201168201806040525081019061234f9190614c7e565b6001600160a01b038316600090815260066020526040902054610c2a9190614bea565b60a48111806123815750600481105b1561239f57604051632c9dd1c960e01b815260040160405180910390fd5b60008282336040516020016123b693929190614d38565b60408051601f1981840301815291815281516020928301206000818152928390529120549091506001600160a01b03168061240457604051630df0f4e960e41b815260040160405180910390fd5b6001600160a01b038116331461242d5760405163110dc63f60e01b815260040160405180910390fd5b6000828152602081815260409182902080546001600160a01b031916905590518381527f2d8bff7bc81a295ee86f540e195478665ae7503c42e2fe02600843e860a1d9db910160405180910390a150505050565b6003546000805b828110156125de57600381815481106124a3576124a3614bbe565b600091825260208083209091015480835260048083526040938490208451610100808201875282548252600183015495820195909552600282015495810195909552600381015460608601529081015460ff80821660808701526001600160a01b0394909104841660a086015260059091015492831660c0850152600160a01b909204909116151560e0830152925061253c81846131c0565b60008481526004602081815260409283902084518155908401516001820155918301516002830155606083015160038301556080830151908201805460a085015160ff9093166001600160a81b0319918216176101006001600160a01b03948516021790915560c08401516005909301805460e09095015193909216931692909217600160a01b91151591909102179055506125d781614d5e565b9050612488565b505050565b600083815260046020526040902060050154839061262b907f0000000000000000000000000000000000000000000000000000000000000000906001600160a01b0316613bf9565b15612756576000848152600460208181526040928390208351610100808201865282548252600183015493820193909352600282015494810194909452600381015460608501529182015460ff80821660808601526001600160a01b0392909104821660a085015260059092015490811660c0840152600160a01b900416151560e08201526126ba90856131c0565b60008581526004602081815260409283902084518155908401516001820155918301516002830155606083015160038301556080830151908201805460a085015160ff9093166001600160a81b0319918216176101006001600160a01b03948516021790915560c08401516005909301805460e09095015193909216931692909217600160a01b91151591909102179055612756848484613d83565b50505050565b600073274946031d204567281f7616718b4abb940ef78463306d4f037f0000000000000000000000000000000000000000000000000000000000000000846127a56113fc613704565b7f00000000000000000000000000000000000000000000000000000000000000006040518563ffffffff1660e01b81526004016127e59493929190614d77565b602060405180830381865af4158015612802573d6000803e3d6000fd5b505050506040513d601f19601f82011682018060405250810190610c2a9190614b80565b61282e613196565b600160055460ff16600481111561284757612847614762565b1461286557604051634065aaf160e11b815260040160405180910390fd5b60008281526004602052604090206005015482906128ad907f0000000000000000000000000000000000000000000000000000000000000000906001600160a01b0316613bf9565b15611f185760008381526004602081815260408084208151610100808201845282548252600183015494820194909452600282015492810192909252600381015460608301529283015460ff80821660808401529290046001600160a01b0390811660a083015260059093015492831660c0820152600160a01b90920416151560e082015261293c90856131c0565b905082816000018181516129509190614bea565b90525060008481526004602081815260409283902084518155908401516001820155838301516002820155606084015160038201556080840151818301805460a08701516001600160a01b0390811661010081026001600160a81b031993841660ff909616959095179490941790925560c08701516005909401805460e08901511515600160a01b02921694909216938417179055925162f6020f60e71b8152918201929092526024810191909152604481018490527373cb72a7efaddd99cdd2d110e2f4b8b65bf3b81290637b01078090606401602060405180830381865af4158015612a42573d6000803e3d6000fd5b505050506040513d601f19601f82011682018060405250810190612a669190614b80565b50604051839085907f12a48a2aa5f96e98f382b97b87c5f26c4fa0811d2dc20810972985835540286f90600090a35050610b4760018055565b6000612aa9613196565b600160055460ff166004811115612ac257612ac2614762565b14612ae057604051634065aaf160e11b815260040160405180910390fd5b817f0000000000000000000000000000000000000000000000000000000000000000612b0c8282613bf9565b15612bb9576000612b1e858789613e6c565b9050612b2b818a8a613d83565b60405162f6020f60e71b81526001600160a01b03808816600483015286166024820152604481018890527373cb72a7efaddd99cdd2d110e2f4b8b65bf3b81290637b01078090606401602060405180830381865af4158015612b91573d6000803e3d6000fd5b505050506040513d601f19601f82011682018060405250810190612bb59190614b80565b5092505b5050612bc460018055565b95945050505050565b612bd5613196565b6002541580612c185750600460006003600081548110612bf757612bf7614bbe565b90600052602060002001548152602001908152602001600020600101546000145b15612c365760405163e0d00bd360e01b815260040160405180910390fd5b60006003600081548110612c4c57612c4c614bbe565b6000918252602080832090910154808352600480835260408085208151610100808201845282548252600183015496820196909652600282015492810192909252600381015460608301529182015460ff80821660808401526001600160a01b0395909104851660a083015260059092015493841660c0820152600160a01b90930416151560e08301529250612ce290836131c0565b905080604001518160200151612cf89190614bea565b831115612d1357806040015181602001516119ca9190614bea565b612d1f818385336134bc565b60009283526004602081815260409485902083518155908301516001820155938201516002850155606082015160038501556080820151908401805460a08401516001600160a01b03908116610100026001600160a81b031992831660ff909516949094179390931790915560c08301516005909501805460e0909401511515600160a01b029390911694909116939093171790915550610e5d60018055565b600060055460ff166004811115612dd857612dd8614762565b14612df55760405162dc149f60e41b815260040160405180910390fd5b612dfd6140d0565b610e5d600161373d565b60008060008060008060008060006003600081548110612e2957612e29614bbe565b6000918252602080832091909101548083526004808352604080852081516101008082018452825482526001830154968201879052600283015482850152600383015460608301528285015460ff80821660808501529190046001600160a01b0390811660a084015260059093015480841660c0840152600160a01b900416151560e0820152915163cc280aaf60e01b815292830194909452602482018390527f000000000000000000000000000000000000000000000000000000000000000090931660448201529093509091908190734dca189d7fb51d9cc375e4d697e5800c5d21ff879063cc280aaf906064016040805180830381865af4158015612f35573d6000803e3d6000fd5b505050506040513d601f19601f82011682018060405250810190612f599190614dae565b91509150838360c001518460a0015185602001518660000151734dca189d7fb51d9cc375e4d697e5800c5d21ff87633d7fe9b2898b7f00000000000000000000000000000000000000000000000000000000000000006040518463ffffffff1660e01b8152600401612fcd93929190614ddd565b602060405180830381865af4158015612fea573d6000803e3d6000fd5b505050506040513d601f19601f8201168201806040525081019061300e9190614c7e565b87879b509b509b509b509b509b509b509b50505050509091929394959697565b600073274946031d204567281f7616718b4abb940ef78463f6be8d107f00000000000000000000000000000000000000000000000000000000000000006130766113fc613704565b7f00000000000000000000000000000000000000000000000000000000000000007f0000000000000000000000000000000000000000000000000000000000000000876040518663ffffffff1660e01b81526004016127e5959493929190614dec565b600381815481106130e957600080fd5b600091825260209091200154905081565b7f00000000000000000000000000000000000000000000000000000000000000006001600160a01b0316331461314357604051631172e7cd60e01b815260040160405180910390fd5b61314e6113fc613704565b600481111561315f5761315f614762565b60021461317f57604051636ef5bcdd60e11b815260040160405180910390fd5b6131876140e0565b1561221557610e5d600461373d565b6002600154036131b957604051633ee5aeb560e01b815260040160405180910390fd5b6002600155565b6131c86145d3565b604051634a4b6ed160e11b8152734dca189d7fb51d9cc375e4d697e5800c5d21ff8790639496dda29061322390869086907f000000000000000000000000000000000000000000000000000000000000000090600401614ddd565b61010060405180830381865af4158015613241573d6000803e3d6000fd5b505050506040513d601f19601f82011682018060405250810190610c279190614b06565b60405163a2c5925f60e01b81526001600160a01b0382811660048301526000917f00000000000000000000000000000000000000000000000000000000000000009091169063a2c5925f906024016020604051808303816000875af11580156132d2573d6000803e3d6000fd5b505050506040513d601f19601f820116820180604052508101906132f69190614b80565b6132ff57600080fd5b506001919050565b6000836001600160a01b0316856001600160a01b0316036133b55760405163f07c570960e01b81526001600160a01b0386811660048301527f0000000000000000000000000000000000000000000000000000000000000000169063f07c5709906024016020604051808303816000875af115801561338a573d6000803e3d6000fd5b505050506040513d601f19601f820116820180604052508101906133ae9190614c7e565b90506134b4565b6001600160a01b03851660009081526006602052604080822054905163b085a00d60e01b8152829173274946031d204567281f7616718b4abb940ef7849163b085a00d91613451918b918b917f0000000000000000000000000000000000000000000000000000000000000000917f0000000000000000000000000000000000000000000000000000000000000000918d908d90600401614e2c565b6040805180830381865af415801561346d573d6000803e3d6000fd5b505050506040513d601f19601f820116820180604052508101906134919190614e92565b6001600160a01b03891660009081526006602052604090205592506134b4915050565b949350505050565b6134c46145d3565b60405163d7c637c960e01b8152734dca189d7fb51d9cc375e4d697e5800c5d21ff879063d7c637c990613501908890889088908890600401614eb6565b61010060405180830381865af415801561351f573d6000803e3d6000fd5b505050506040513d601f19601f82011682018060405250810190612bc49190614b06565b61354b6145d3565b8260e0015161356d5760405163d320557760e01b815260040160405180910390fd5b6020830151156135905760405163131689dd60e01b815260040160405180910390fd5b600060e08401526040516299c7a960e21b81526003600482015260248101839052739cbe9741b3503a790e69e1587b5d51c0056154dc906302671ea490604401602060405180830381865af41580156135ed573d6000803e3d6000fd5b505050506040513d601f19601f820116820180604052508101906136119190614b80565b506000801b600360008154811061362a5761362a614bbe565b9060005260206000200154036136b057604051631272aa3360e11b815260036004820152739cbe9741b3503a790e69e1587b5d51c0056154dc906324e5546690602401602060405180830381865af415801561368a573d6000803e3d6000fd5b505050506040513d601f19601f820116820180604052508101906136ae9190614b80565b505b6002805460001981019091556000036001016136d2576136d0600361373d565b505b60405182907f7a6d4520711ed1189e0417ec7e099096e5ac3c188863274446a6d3dafded499890600090a25090919050565b60008061370f6140f9565b9050600181600481111561372557613725614762565b1461372f57919050565b6137376141ca565b91505090565b600081600481111561375157613751614762565b60055460ff16600481111561376857613768614762565b03613771575090565b81600481111561378357613783614762565b6040517f2125b4f86fd7a6a349e4e174a768e7c98ec9b7d124822556b128e40a16b642f790600090a26005805483919060ff191660018360048111156137cb576137cb614762565b0217905592915050565b60035460009081908082036137ef57506000928392509050565b6000805b828110156139b7576003818154811061380e5761380e614bbe565b600091825260209091200154915081156139a75760008281526004602081905260408083209051636b579f7b60e11b815283928392734dca189d7fb51d9cc375e4d697e5800c5d21ff879263d6af3ef6926138b092918a917f0000000000000000000000000000000000000000000000000000000000000000917f00000000000000000000000000000000000000000000000000000000000000009101614eec565b61014060405180830381865af41580156138ce573d6000803e3d6000fd5b505050506040513d601f19601f820116820180604052508101906138f29190614f23565b919450925090506139038289614bea565b975061390f8188614bea565b60008681526004602081815260409283902087518155908701516001820155918601516002830155606086015160038301556080860151908201805460a088015160ff9093166001600160a81b0319918216176101006001600160a01b03948516021790915560c08701516005909301805460e09098015193909216961695909517600160a01b911515919091021790935550909450505b6139b081614d5e565b90506137f3565b5050509091565b604051630180cdbb60e21b8152600481018490526001600160a01b03838116602483015282811660448301526000917f00000000000000000000000000000000000000000000000000000000000000009182169063060336ec906064016020604051808303816000875af1158015613a3a573d6000803e3d6000fd5b505050506040513d601f19601f82011682018060405250810190613a5e9190614b80565b613a6757600080fd5b6040516001600160a01b038281168252851690869088907feb18a64f5be27a04f549ac2ef204545abfbd24f9274dde558c5321804b08f2629060200160405180910390a45092949350505050565b600354600090613ac790600190614bfd565b9050806000805b838111613bf25760038181548110613ae857613ae8614bbe565b90600052602060002001549150818514613b3057811580613b095750838314155b80613b24575060008281526004602052604090206001015415155b613be257809250613be2565b838303613b3e575050505050565b600060038481548110613b5357613b53614bbe565b906000526020600020015490508060038381548110613b7457613b74614bbe565b90600052602060002001819055508560038581548110613b9657613b96614bbe565b90600052602060002001819055508184877fee3e50299ece6c644a824740e6a8ff24a83a4b747cbf3796a156def7107a8feb84604051613bd891815260200190565b60405180910390a4505b613beb81614d5e565b9050613ace565b5050505050565b6000336001600160a01b03841614801590613c1d5750336001600160a01b03831614155b15613c3a576040516282b42960e81b815260040160405180910390fd5b6000613c468484614261565b90506000803683604051602001613c5f93929190614d38565b60408051601f1981840301815291815281516020928301206000818152928390529120549091506001600160a01b0316613d2a576000803633604051602001613caa93929190614d38565b60408051601f198184030181528282528051602091820120600081815280835283902080546001600160a01b031916331790558084526001600160a01b0387169184019190915292507f1396bca9f810b74b131a089057c919e38ad204e3df53fec73db0e1f3be4caa0d910160405180910390a160009350505050610c2a565b6000818152602081815260409182902080546001600160a01b031916905590518281527f590cb0fad602b541ce3d8b8de5ea73f5db52e7bafb4fab2595dca5e904009ff1910160405180910390a1506001949350505050565b604051639412647f60e01b8152600481018490526001600160801b038084166024830152821660448201527f00000000000000000000000000000000000000000000000000000000000000006001600160a01b031690639412647f906064016020604051808303816000875af1158015613e01573d6000803e3d6000fd5b505050506040513d601f19601f82011682018060405250810190613e259190614b80565b50806001600160801b0316826001600160801b0316847feb29c2b3e23350f884045ab45689641c7503ccc09063055895c6a8edcf0a7ad160405160405180910390a4505050565b6040516310ccadff60e21b81523060048201526001600160a01b03808516602483015283166044820152600090734dca189d7fb51d9cc375e4d697e5800c5d21ff8790634332b7fc90606401602060405180830381865af4158015613ed5573d6000803e3d6000fd5b505050506040513d601f19601f82011682018060405250810190613ef99190614c7e565b6000818152600460205260409020600501549091506001600160a01b031615613f355760405163384e583f60e11b815260040160405180910390fd5b60405163beccf5db60e01b815260048101829052602481018390526001600160a01b03808616604483015280851660648301527f0000000000000000000000000000000000000000000000000000000000000000166084820152734dca189d7fb51d9cc375e4d697e5800c5d21ff879063beccf5db9060a40161010060405180830381865af4158015613fcc573d6000803e3d6000fd5b505050506040513d601f19601f82011682018060405250810190613ff09190614b06565b600082815260046020818152604080842085518155918501516001808401919091559085015160028084019190915560608601516003808501919091556080870151948401805460a08901516001600160a01b03908116610100026001600160a81b031992831660ff909916989098179790971790915560c08801516005909501805460e0909901511515600160a01b02989091169490951693909317959095179092558054808301825592527fc2575a0e9e593c00f959f8c92f12db2869c3395a3b0502d05e2516446f71f85b90910183905581540190559392505050565b6140d861427f565b61221561435d565b60006140ea61443d565b8015611401575061140161450c565b60055460009060ff16600381600481111561411657614116614762565b14806141335750600481600481111561413157614131614762565b145b1561413d57919050565b7f0000000000000000000000000000000000000000000000000000000000000000421015801561416e575060025415155b156141c257600360008154811061418757614187614bbe565b600091825260208220015460405190917f02a583914117d56eb883091ec1c35f0dfc356386054377ef6914e54eac90fe7c91a2600291505090565b600191505090565b60007f00000000000000000000000000000000000000000000000000000000000000006001600160a01b031663578c65e46040518163ffffffff1660e01b81526004016020604051808303816000875af115801561422c573d6000803e3d6000fd5b505050506040513d601f19601f820116820180604052508101906142509190614b80565b1561425b5750600290565b50600190565b6000336001600160a01b038416146142795782610c27565b50919050565b306001600160a01b03167f00000000000000000000000000000000000000000000000000000000000000006001600160a01b0316638da5cb5b6040518163ffffffff1660e01b8152600401602060405180830381865afa1580156142e7573d6000803e3d6000fd5b505050506040513d601f19601f8201168201806040525081019061430b9190614f5c565b6001600160a01b0316146122155760405163219f710160e11b81526001600160a01b037f00000000000000000000000000000000000000000000000000000000000000001660048201526024016119e6565b306001600160a01b03167f00000000000000000000000000000000000000000000000000000000000000006001600160a01b031663b56b83536040518163ffffffff1660e01b81526004016020604051808303816000875af11580156143c7573d6000803e3d6000fd5b505050506040513d601f19601f820116820180604052508101906143eb9190614f5c565b6001600160a01b0316146122155760405163219f710160e11b81526001600160a01b037f00000000000000000000000000000000000000000000000000000000000000001660048201526024016119e6565b60007f00000000000000000000000000000000000000000000000000000000000000006001600160a01b031663c047e5636040518163ffffffff1660e01b81526004016020604051808303816000875af115801561449f573d6000803e3d6000fd5b505050506040513d601f19601f820116820180604052508101906144c39190614c7e565b1561425b576040516368f5afab60e01b81526001600160a01b037f00000000000000000000000000000000000000000000000000000000000000001660048201526024016119e6565b60405163121ee17760e11b81526001600160a01b037f0000000000000000000000000000000000000000000000000000000000000000811660048301527f000000000000000000000000000000000000000000000000000000000000000016602482015260009073274946031d204567281f7616718b4abb940ef7849063243dc2ee90604401602060405180830381865af41580156145af573d6000803e3d6000fd5b505050506040513d601f19601f820116820180604052508101906114019190614b80565b60405180610100016040528060008152602001600081526020016000815260200160008152602001600060ff16815260200160006001600160a01b0316815260200160006001600160a01b031681526020016000151581525090565b6000806040838503121561464257600080fd5b50508035926020909101359150565b6001600160a01b0381168114610e5d57600080fd5b600080828403608081121561467a57600080fd5b833561468581614651565b92506060601f198201121561469957600080fd5b506020830190509250929050565b6000602082840312156146b957600080fd5b813561120881614651565b60008083601f8401126146d657600080fd5b50813567ffffffffffffffff8111156146ee57600080fd5b60208301915083602082850101111561470657600080fd5b9250929050565b60008060006040848603121561472257600080fd5b833561472d81614651565b9250602084013567ffffffffffffffff81111561474957600080fd5b614755868287016146c4565b9497909650939450505050565b634e487b7160e01b600052602160045260246000fd5b6005811061479657634e487b7160e01b600052602160045260246000fd5b9052565b60208101610c2a8284614778565b6000602082840312156147ba57600080fd5b5035919050565b600080604083850312156147d457600080fd5b8235915060208301356147e681614651565b809150509250929050565b60008060006060848603121561480657600080fd5b833561481181614651565b9250602084013561482181614651565b929592945050506040919091013590565b80356001600160e01b031981168114611ba457600080fd5b8015158114610e5d57600080fd5b6000806040838503121561486b57600080fd5b61487483614832565b915060208301356147e68161484a565b6000806020838503121561489757600080fd5b823567ffffffffffffffff8111156148ae57600080fd5b6148ba858286016146c4565b90969095509350505050565b6001600160801b0381168114610e5d57600080fd5b6000806000606084860312156148f057600080fd5b833592506020840135614902816148c6565b91506040840135614912816148c6565b809150509250925092565b600080600080600060a0868803121561493557600080fd5b8535614940816148c6565b94506020860135614950816148c6565b935060408601359250606086013561496781614651565b9150608086013561497781614651565b809150509295509295909350565b8051825260208101516020830152604081015160408301526060810151606083015260ff608082015116608083015260a081015160018060a01b0380821660a08501528060c08401511660c0850152505060e0810151151560e08301525050565b61016081016149f58287614985565b6101008201949094526001600160a01b039290921661012083015261014090910152919050565b60ff81168114610e5d57600080fd5b8051611ba481614a1c565b8051611ba481614651565b8051611ba48161484a565b6000610100808385031215614a6057600080fd5b6040519081019067ffffffffffffffff82118183101715614a9157634e487b7160e01b600052604160045260246000fd5b8160405280925083518152602084015160208201526040840151604082015260608401516060820152614ac660808501614a2b565b6080820152614ad760a08501614a36565b60a0820152614ae860c08501614a36565b60c0820152614af960e08501614a41565b60e0820152505092915050565b60006101008284031215614b1957600080fd5b610c278383614a4c565b6001600160a01b0383168152608081018235614b3e81614a1c565b60ff8116602084015250614b5460208401614832565b63ffffffff60e01b808216604085015280614b7160408701614832565b16606085015250509392505050565b600060208284031215614b9257600080fd5b81516112088161484a565b600060208284031215614baf57600080fd5b81516005811061120857600080fd5b634e487b7160e01b600052603260045260246000fd5b634e487b7160e01b600052601160045260246000fd5b80820180821115610c2a57610c2a614bd4565b81810381811115610c2a57610c2a614bd4565b6000600160ff1b8201614c2557614c25614bd4565b5060000390565b6001600160a01b0388811682528781166020830152604082018790526060820186905260e0820190614c616080840187614778565b80851660a084015280841660c08401525098975050505050505050565b600060208284031215614c9057600080fd5b5051919050565b80548252600181015460208301526002810154604083015260038101546060830152600481015460ff811660808401526001600160a01b03600882901c811660a085015260058301546001600160a01b038282161660c08601529150506125de60e0840160ff8360a01c1615159052565b6101408101614d178286614c97565b6101008201939093526001600160a01b039190911661012090910152919050565b8284823760609190911b6bffffffffffffffffffffffff19169101908152601401919050565b600060018201614d7057614d70614bd4565b5060010190565b6001600160a01b0385811682528416602082015260808101614d9c6040830185614778565b60ff8316606083015295945050505050565b60008060408385031215614dc157600080fd5b8251614dcc816148c6565b60208401519092506147e6816148c6565b6101408101614d178286614985565b6001600160a01b03868116825260a0820190614e0b6020840188614778565b94851660408301529284166060820152921660809092019190915292915050565b6001600160a01b03888116825287811660208301528681166040830152851660608201526080810184905260c060a0820181905281018290526000828460e0840137600060e0848401015260e0601f19601f850116830101905098975050505050505050565b60008060408385031215614ea557600080fd5b505080516020909101519092909150565b6101608101614ec58287614985565b6101008201949094526101208101929092526001600160a01b031661014090910152919050565b6101608101614efb8287614c97565b6101008201949094526001600160a01b03928316610120820152911661014090910152919050565b60008060006101408486031215614f3957600080fd5b614f438585614a4c565b9250610100840151915061012084015190509250925092565b600060208284031215614f6e57600080fd5b81516112088161465156fe7dcdf49c7e92795e08b749f8dd551c92f7be794148ac2f9db089e2e67cbdd519a26469706673582212208733dbe44802e3af08ce0d8809b3390257e15334e33b49f363b50e06dbfa236564736f6c6343000814003360a060405234801561001057600080fd5b50336080526080516104ff6100376000396000818161017c015261023a01526104ff6000f3fe608060405234801561001057600080fd5b50600436106100575760003560e01c80637443c9071461005c5780639412647f146100b6578063b6973283146100d9578063c6198352146100fa578063dc7262051461010d575b600080fd5b61009161006a36600461036c565b6000908152602081905260409020546001600160801b0380821692600160801b9092041690565b604080516001600160801b039384168152929091166020830152015b60405180910390f35b6100c96100c43660046103a1565b61016f565b60405190151581526020016100ad565b6100ec6100e73660046103dd565b610218565b6040519081526020016100ad565b6100ec6101083660046103dd565b61022d565b61014961011b36600461036c565b600060208190529081526040902080546001909101546001600160801b0380831692600160801b9004169083565b604080516001600160801b039485168152939092166020840152908201526060016100ad565b6000336001600160a01b037f000000000000000000000000000000000000000000000000000000000000000016146101c25760405162461bcd60e51b81526004016101b990610409565b60405180910390fd5b50604080516060810182526001600160801b038085168252838116602080840191825242848601908152600089815291829052949020925190518216600160801b02911617815590516001918201559392505050565b60006102258484846102a0565b949350505050565b6000336001600160a01b037f000000000000000000000000000000000000000000000000000000000000000016146102775760405162461bcd60e51b81526004016101b990610409565b6102828484846102a0565b60009485526020859052604090942042600190910155509192915050565b600083815260208181526040808320815160608101835281546001600160801b038082168352600160801b90910416938101939093526001015490820181905282906102ec9042610464565b905061031182602001516001600160801b0316868661030b9190610464565b8361033b565b8251610327906001600160801b0316878461033b565b610331919061047d565b9695505050505050565b600061034d6127106301e187e0610490565b826103588587610490565b6103629190610490565b61022591906104a7565b60006020828403121561037e57600080fd5b5035919050565b80356001600160801b038116811461039c57600080fd5b919050565b6000806000606084860312156103b657600080fd5b833592506103c660208501610385565b91506103d460408501610385565b90509250925092565b6000806000606084860312156103f257600080fd5b505081359360208301359350604090920135919050565b60208082526025908201527f496e74657265737452617465437265643a206f6e6c79206c696e6520636f6e746040820152643930b1ba1760d91b606082015260800190565b634e487b7160e01b600052601160045260246000fd5b818103818111156104775761047761044e565b92915050565b808201808211156104775761047761044e565b80820281158282048414176104775761047761044e565b6000826104c457634e487b7160e01b600052601260045260246000fd5b50049056fea2646970667358221220cc319329f225bb958bcd4f2ad83f42002b262e8b8c6bfae743f6187613790f3964736f6c63430008140033","linkReferences":{}},"methodIdentifiers":{"accrueInterest()":"a6afed95","addCredit(uint128,uint128,uint256,address,address)":"cb836209","addSpigot(address,(uint8,bytes4,bytes4))":"18906bf7","arbiter()":"fe25e00a","available(bytes32)":"6932854f","borrow(bytes32,uint256)":"7c93ec30","borrower()":"7df1f1b9","claimAndRepay(address,bytes)":"1acb7525","claimAndTrade(address,bytes)":"5f618768","close(bytes32)":"39c79e0c","counts()":"817cc1ea","credits(bytes32)":"42997913","deadline()":"29dcb0cf","declareInsolvent()":"feccf26f","defaultRevenueSplit()":"e96b496f","depositAndClose()":"7eef544d","depositAndRepay(uint256)":"dfe96083","escrow()":"e2fdcc17","healthcheck()":"4f42fc02","ids(uint256)":"fac333ac","increaseCredit(bytes32,uint256)":"c3651574","init()":"e1c7392a","interestAccrued(bytes32)":"7df33c20","interestRate()":"7c3a00fd","liquidate(uint256,address)":"5fae8b3d","mutualConsentProposals(bytes32)":"38deee8f","nextInQ()":"e701af99","oracle()":"7dc0d1d0","releaseSpigot(address)":"ebb65a0f","revokeConsent(bytes)":"a4e7d38f","rollover(address)":"1a5bb098","setRates(bytes32,uint128,uint128)":"ac856fac","spigot()":"5e235d54","status()":"200d2ed2","stepQ()":"62bfcc68","swapTarget()":"7e7f0cde","sweep(address,address,uint256)":"62c06767","tradeable(address)":"9637b5d3","unused(address)":"461035af","updateOutstandingDebt()":"501b56d8","updateOwnerSplit(address)":"b57cb9fc","updateWhitelist(bytes4,bool)":"921c5fcb","useAndRepay(uint256)":"67828fbd","withdraw(bytes32,uint256)":"040cf020"},"id":29}