{"abi":[{"type":"constructor","inputs":[{"name":"_supportedToken1","type":"address","internalType":"address"},{"name":"_supportedToken2","type":"address","internalType":"address"}],"stateMutability":"nonpayable"},{"type":"function","name":"_getLatestAnswer","inputs":[{"name":"token","type":"address","internalType":"address"}],"outputs":[{"name":"","type":"int256","internalType":"int256"}],"stateMutability":"view"},{"type":"function","name":"changePrice","inputs":[{"name":"token","type":"address","internalType":"address"},{"name":"newPrice","type":"int256","internalType":"int256"}],"outputs":[],"stateMutability":"nonpayable"},{"type":"function","name":"decimals","inputs":[{"name":"token","type":"address","internalType":"address"},{"name":"quote","type":"address","internalType":"address"}],"outputs":[{"name":"","type":"uint8","internalType":"uint8"}],"stateMutability":"view"},{"type":"function","name":"getLatestAnswer","inputs":[{"name":"token","type":"address","internalType":"address"}],"outputs":[{"name":"","type":"int256","internalType":"int256"}],"stateMutability":"view"},{"type":"function","name":"healthcheck","inputs":[],"outputs":[{"name":"status","type":"uint8","internalType":"enum LineLib.STATUS"}],"stateMutability":"pure"},{"type":"function","name":"init","inputs":[],"outputs":[{"name":"","type":"bool","internalType":"bool"}],"stateMutability":"pure"},{"type":"function","name":"line","inputs":[],"outputs":[{"name":"","type":"address","internalType":"address"}],"stateMutability":"pure"}],"bytecode":{"object":"0x608060405234801561001057600080fd5b5060405161042d38038061042d83398101604081905261002f916100be565b6001600160a01b0391821660009081526020819052604080822064174876e80090559190921682528120642e90edd0009081905573eeeeeeeeeeeeeeeeeeeeeeeeeeeeeeeeeeeeeeee9091527fd0d045a07f9a74a2c48a464add9b06f25f501dbdf5bd4dd5a7489f86f449adda556100f1565b80516001600160a01b03811681146100b957600080fd5b919050565b600080604083850312156100d157600080fd5b6100da836100a2565b91506100e8602084016100a2565b90509250929050565b61032d806101006000396000f3fe608060405234801561001057600080fd5b506004361061007d5760003560e01c80636849a3ba1161005b5780636849a3ba14610082578063b56b8353146100dc578063b8745802146100eb578063e1c7392a1461011757600080fd5b8063168909db146100825780634f42fc02146100a857806358e2d3a8146100b7575b600080fd5b610095610090366004610234565b610126565b6040519081526020015b60405180910390f35b600160405161009f919061024f565b6100ca6100c5366004610277565b6101ad565b60405160ff909116815260200161009f565b6040516000815260200161009f565b6101156100f93660046102aa565b6001600160a01b03909116600090815260208190526040902055565b005b6040516001815260200161009f565b6001600160a01b03811660009081526020819052604081205481036101915760405162461bcd60e51b815260206004820152601f60248201527f53696d706c654f7261636c653a20756e737570706f7274656420746f6b656e00604482015260640160405180910390fd5b506001600160a01b031660009081526020819052604090205490565b6000826001600160a01b031663313ce5676040518163ffffffff1660e01b8152600401602060405180830381865afa1580156101ed573d6000803e3d6000fd5b505050506040513d601f19601f8201168201806040525081019061021191906102d4565b9392505050565b80356001600160a01b038116811461022f57600080fd5b919050565b60006020828403121561024657600080fd5b61021182610218565b602081016005831061027157634e487b7160e01b600052602160045260246000fd5b91905290565b6000806040838503121561028a57600080fd5b61029383610218565b91506102a160208401610218565b90509250929050565b600080604083850312156102bd57600080fd5b6102c683610218565b946020939093013593505050565b6000602082840312156102e657600080fd5b815160ff8116811461021157600080fdfea2646970667358221220a3f0ace68506e589eaf1f09b8a0971269dd423fe648436dac7f138bc7c32cf0364736f6c63430008140033","linkReferences":{}},"methodIdentifiers":{"_getLatestAnswer(address)":"168909db","changePrice(address,int256)":"b8745802","decimals(address,address)":"58e2d3a8","getLatestAnswer(address)":"6849a3ba","healthcheck()":"4f42fc02","init()":"e1c7392a","line()":"b56b8353"},"id":24}