{
  "address": "0xa2F25Bd7439B40616d580556F56576B6754a3724",
  "abi": [
    {
      "inputs": [
        {
          "internalType": "address",
          "name": "_supportedToken1",
          "type": "address"
        },
        {
          "internalType": "address",
          "name": "_supportedToken2",
          "type": "address"
        }
      ],
      "stateMutability": "nonpayable",
      "type": "constructor"
    },
    {
      "inputs": [
        {
          "internalType": "address",
          "name": "token",
          "type": "address"
        },
        {
          "internalType": "int256",
          "name": "newPrice",
          "type": "int256"
        }
      ],
      "name": "changePrice",
      "outputs": [],
      "stateMutability": "nonpayable",
      "type": "function"
    },
    {
      "inputs": [
        {
          "internalType": "address",
          "name": "token",
          "type": "address"
        }
      ],
      "name": "getLatestAnswer",
      "outputs": [
        {
          "internalType": "int256",
          "name": "",
          "type": "int256"
        }
      ],
      "stateMutability": "nonpayable",
      "type": "function"
    },
    {
      "inputs": [],
      "name": "healthcheck",
      "outputs": [
        {
          "internalType": "enum LoanLib.STATUS",
          "name": "status",
          "type": "uint8"
        }
      ],
      "stateMutability": "nonpayable",
      "type": "function"
    },
    {
      "inputs": [],
      "name": "init",
      "outputs": [
        {
          "internalType": "bool",
          "name": "",
          "type": "bool"
        }
      ],
      "stateMutability": "nonpayable",
      "type": "function"
    },
    {
      "inputs": [],
      "name": "loan",
      "outputs": [
        {
          "internalType": "address",
          "name": "",
          "type": "address"
        }
      ],
      "stateMutability": "nonpayable",
      "type": "function"
    }
  ],
  "transactionHash": "0x427100ce7456180b4115012568d619b37c5a2ef71fd394a0487e6001751fcb87",
  "args": [
    "0x681c2796f7DD8A0627844828a52fE81E7d883064",
    "0x0000000000000000000000000000000000000000"
  ],
  "numDeployments": 1,
  "solcInputHash": "c9946f40425898595ffdf05b633e603a",
  "bytecode": "0x608060405234801561001057600080fd5b506040516106793803806106798339818101604052810190610032919061012c565b64174876e8006000808473ffffffffffffffffffffffffffffffffffffffff1673ffffffffffffffffffffffffffffffffffffffff16815260200190815260200160002081905550642e90edd0006000808373ffffffffffffffffffffffffffffffffffffffff1673ffffffffffffffffffffffffffffffffffffffff16815260200190815260200160002081905550505061016c565b600080fd5b600073ffffffffffffffffffffffffffffffffffffffff82169050919050565b60006100f9826100ce565b9050919050565b610109816100ee565b811461011457600080fd5b50565b60008151905061012681610100565b92915050565b60008060408385031215610143576101426100c9565b5b600061015185828601610117565b925050602061016285828601610117565b9150509250929050565b6104fe8061017b6000396000f3fe608060405234801561001057600080fd5b50600436106100575760003560e01c80634f42fc021461005c5780636849a3ba1461007a578063b8745802146100aa578063d285b7b4146100c6578063e1c7392a146100e4575b600080fd5b610064610102565b60405161007191906102a0565b60405180910390f35b610094600480360381019061008f919061031e565b61010b565b6040516100a19190610364565b60405180910390f35b6100c460048036038101906100bf91906103ab565b6101d4565b005b6100ce61021b565b6040516100db91906103fa565b60405180910390f35b6100ec610220565b6040516100f99190610430565b60405180910390f35b60006002905090565b6000806000808473ffffffffffffffffffffffffffffffffffffffff1673ffffffffffffffffffffffffffffffffffffffff16815260200190815260200160002054141561018e576040517f08c379a0000000000000000000000000000000000000000000000000000000008152600401610185906104a8565b60405180910390fd5b6000808373ffffffffffffffffffffffffffffffffffffffff1673ffffffffffffffffffffffffffffffffffffffff168152602001908152602001600020549050919050565b806000808473ffffffffffffffffffffffffffffffffffffffff1673ffffffffffffffffffffffffffffffffffffffff168152602001908152602001600020819055505050565b600090565b60006001905090565b7f4e487b7100000000000000000000000000000000000000000000000000000000600052602160045260246000fd5b600c811061026957610268610229565b5b50565b600081905061027a82610258565b919050565b600061028a8261026c565b9050919050565b61029a8161027f565b82525050565b60006020820190506102b56000830184610291565b92915050565b600080fd5b600073ffffffffffffffffffffffffffffffffffffffff82169050919050565b60006102eb826102c0565b9050919050565b6102fb816102e0565b811461030657600080fd5b50565b600081359050610318816102f2565b92915050565b600060208284031215610334576103336102bb565b5b600061034284828501610309565b91505092915050565b6000819050919050565b61035e8161034b565b82525050565b60006020820190506103796000830184610355565b92915050565b6103888161034b565b811461039357600080fd5b50565b6000813590506103a58161037f565b92915050565b600080604083850312156103c2576103c16102bb565b5b60006103d085828601610309565b92505060206103e185828601610396565b9150509250929050565b6103f4816102e0565b82525050565b600060208201905061040f60008301846103eb565b92915050565b60008115159050919050565b61042a81610415565b82525050565b60006020820190506104456000830184610421565b92915050565b600082825260208201905092915050565b7f53696d706c654f7261636c653a20756e737570706f7274656420746f6b656e00600082015250565b6000610492601f8361044b565b915061049d8261045c565b602082019050919050565b600060208201905081810360008301526104c181610485565b905091905056fea2646970667358221220be62210762624c72b21e4287af1cc7d991308a59c998350d4dbe1caf360bfcc864736f6c63430008090033",
  "devdoc": {
    "kind": "dev",
    "methods": {},
    "version": 1
  },
  "userdoc": {
    "kind": "user",
    "methods": {
      "getLatestAnswer(address)": {
        "notice": "current price for token asset. denominated in USD "
      }
    },
    "version": 1
  },
  "storageLayout": {
    "storage": [
      {
        "astId": 2467,
        "contract": "contracts/mock/SimpleOracle.sol:SimpleOracle",
        "label": "prices",
        "offset": 0,
        "slot": "0",
        "type": "t_mapping(t_address,t_int256)"
      }
    ],
    "types": {
      "t_address": {
        "encoding": "inplace",
        "label": "address",
        "numberOfBytes": "20"
      },
      "t_int256": {
        "encoding": "inplace",
        "label": "int256",
        "numberOfBytes": "32"
      },
      "t_mapping(t_address,t_int256)": {
        "encoding": "mapping",
        "key": "t_address",
        "label": "mapping(address => int256)",
        "numberOfBytes": "32",
        "value": "t_int256"
      }
    }
  }
}