{"abi":[{"type":"function","name":"getBalance","inputs":[{"name":"token","type":"address","internalType":"address"}],"outputs":[{"name":"","type":"uint256","internalType":"uint256"}],"stateMutability":"view"},{"type":"event","name":"RefundIssued","inputs":[{"name":"recipient","type":"address","indexed":true,"internalType":"address"},{"name":"value","type":"uint256","indexed":false,"internalType":"uint256"}],"anonymous":false},{"type":"error","name":"AddressEmptyCode","inputs":[{"name":"target","type":"address","internalType":"address"}]},{"type":"error","name":"AddressInsufficientBalance","inputs":[{"name":"account","type":"address","internalType":"address"}]},{"type":"error","name":"BadToken","inputs":[]},{"type":"error","name":"EthSentWithERC20","inputs":[]},{"type":"error","name":"FailedInnerCall","inputs":[]},{"type":"error","name":"RefundEthFailed","inputs":[]},{"type":"error","name":"SafeERC20FailedOperation","inputs":[{"name":"token","type":"address","internalType":"address"}]},{"type":"error","name":"SendingEthFailed","inputs":[]},{"type":"error","name":"TransferFailed","inputs":[]}],"bytecode":{"object":"0x6106b561003a600b82828239805160001a60731461002d57634e487b7160e01b600052600060045260246000fd5b30600052607381538281f3fe730000000000000000000000000000000000000000301460806040526004361061004b5760003560e01c80637b01078014610050578063d55fad0514610085578063f8b2cb4f146100a5575b600080fd5b81801561005c57600080fd5b5061007061006b36600461059d565b6100c6565b60405190151581526020015b60405180910390f35b81801561009157600080fd5b506100706100a036600461059d565b6101d5565b6100b86100b33660046105d9565b610262565b60405190815260200161007c565b60006001600160a01b0384166100ef576040516312171d8360e31b815260040160405180910390fd5b6001600160a01b03841673eeeeeeeeeeeeeeeeeeeeeeeeeeeeeeeeeeeeeeee1461014c57341561013257604051636200f63360e11b815260040160405180910390fd5b6101476001600160a01b038516843085610313565b6101ca565b8134101561016d576040516312171d8360e31b815260040160405180910390fd5b813411156101ca57600061018183346105f4565b905061018d3382610380565b156101c85760405181815233907fa171b6942063c6f2800ce40a780edce37baa2b618571b11eedd1e69e626e7d769060200160405180910390a25b505b5060015b9392505050565b60006001600160a01b0384166101fe576040516312171d8360e31b815260040160405180910390fd5b6001600160a01b03841673eeeeeeeeeeeeeeeeeeeeeeeeeeeeeeeeeeeeeeee14610236576101476001600160a01b03851684846103dc565b60006102428484610380565b9050806101c8576040516353fa338760e01b815260040160405180910390fd5b60006001600160a01b03821661027a57506000919050565b73eeeeeeeeeeeeeeeeeeeeeeeeeeeeeeeeeeeeeeed196001600160a01b038316016102a5574761030d565b6040516370a0823160e01b81523060048201526001600160a01b038316906370a0823190602401602060405180830381865afa1580156102e9573d6000803e3d6000fd5b505050506040513d601f19601f8201168201806040525081019061030d9190610615565b92915050565b6040516001600160a01b03848116602483015283811660448301526064820183905261037a9186918216906323b872dd906084015b604051602081830303815290604052915060e01b6020820180516001600160e01b038381831617835250505050610412565b50505050565b6000826001600160a01b03168260405160006040518083038185875af1925050503d80600081146103cd576040519150601f19603f3d011682016040523d82523d6000602084013e6103d2565b606091505b5090949350505050565b6040516001600160a01b0383811660248301526044820183905261040d91859182169063a9059cbb90606401610348565b505050565b60006104276001600160a01b0384168361047a565b9050805160001415801561044c57508080602001905181019061044a919061062e565b155b1561040d57604051635274afe760e01b81526001600160a01b03841660048201526024015b60405180910390fd5b60606101ce8383600084600080856001600160a01b031684866040516104a09190610650565b60006040518083038185875af1925050503d80600081146104dd576040519150601f19603f3d011682016040523d82523d6000602084013e6104e2565b606091505b50915091506104f28683836104fc565b9695505050505050565b6060826105115761050c82610558565b6101ce565b815115801561052857506001600160a01b0384163b155b1561055157604051639996b31560e01b81526001600160a01b0385166004820152602401610471565b50806101ce565b8051156105685780518082602001fd5b604051630a12f52160e11b815260040160405180910390fd5b80356001600160a01b038116811461059857600080fd5b919050565b6000806000606084860312156105b257600080fd5b6105bb84610581565b92506105c960208501610581565b9150604084013590509250925092565b6000602082840312156105eb57600080fd5b6101ce82610581565b8181038181111561030d57634e487b7160e01b600052601160045260246000fd5b60006020828403121561062757600080fd5b5051919050565b60006020828403121561064057600080fd5b815180151581146101ce57600080fd5b6000825160005b818110156106715760208186018101518583015201610657565b50600092019182525091905056fea2646970667358221220dd7f7a3934748996f4a13de0e6c0dadcde1cebfe0726a60ddc9c2ee73355b3cd64736f6c63430008140033","linkReferences":{}},"methodIdentifiers":{"getBalance(address)":"f8b2cb4f","receiveTokenOrETH(address,address,uint256)":"7b010780","sendOutTokenOrETH(address,address,uint256)":"d55fad05"},"id":73}