{"abi":[{"type":"constructor","inputs":[{"name":"_owner","type":"address","internalType":"address"},{"name":"_operator","type":"address","internalType":"address"}],"stateMutability":"nonpayable"},{"type":"receive","stateMutability":"payable"},{"type":"function","name":"addSpigot","inputs":[{"name":"revenueContract","type":"address","internalType":"address"},{"name":"setting","type":"tuple","internalType":"struct ISpigot.Setting","components":[{"name":"ownerSplit","type":"uint8","internalType":"uint8"},{"name":"claimFunction","type":"bytes4","internalType":"bytes4"},{"name":"transferOwnerFunction","type":"bytes4","internalType":"bytes4"}]}],"outputs":[{"name":"","type":"bool","internalType":"bool"}],"stateMutability":"nonpayable"},{"type":"function","name":"claimOperatorTokens","inputs":[{"name":"token","type":"address","internalType":"address"}],"outputs":[{"name":"claimed","type":"uint256","internalType":"uint256"}],"stateMutability":"nonpayable"},{"type":"function","name":"claimOwnerTokens","inputs":[{"name":"token","type":"address","internalType":"address"}],"outputs":[{"name":"claimed","type":"uint256","internalType":"uint256"}],"stateMutability":"nonpayable"},{"type":"function","name":"claimRevenue","inputs":[{"name":"revenueContract","type":"address","internalType":"address"},{"name":"token","type":"address","internalType":"address"},{"name":"data","type":"bytes","internalType":"bytes"}],"outputs":[{"name":"claimed","type":"uint256","internalType":"uint256"}],"stateMutability":"nonpayable"},{"type":"function","name":"getOperatorTokens","inputs":[{"name":"token","type":"address","internalType":"address"}],"outputs":[{"name":"","type":"uint256","internalType":"uint256"}],"stateMutability":"view"},{"type":"function","name":"getOwnerTokens","inputs":[{"name":"token","type":"address","internalType":"address"}],"outputs":[{"name":"","type":"uint256","internalType":"uint256"}],"stateMutability":"view"},{"type":"function","name":"getSetting","inputs":[{"name":"revenueContract","type":"address","internalType":"address"}],"outputs":[{"name":"","type":"uint8","internalType":"uint8"},{"name":"","type":"bytes4","internalType":"bytes4"},{"name":"","type":"bytes4","internalType":"bytes4"}],"stateMutability":"view"},{"type":"function","name":"isWhitelisted","inputs":[{"name":"func","type":"bytes4","internalType":"bytes4"}],"outputs":[{"name":"","type":"bool","internalType":"bool"}],"stateMutability":"view"},{"type":"function","name":"operate","inputs":[{"name":"revenueContract","type":"address","internalType":"address"},{"name":"data","type":"bytes","internalType":"bytes"}],"outputs":[{"name":"","type":"bool","internalType":"bool"}],"stateMutability":"nonpayable"},{"type":"function","name":"operator","inputs":[],"outputs":[{"name":"","type":"address","internalType":"address"}],"stateMutability":"view"},{"type":"function","name":"owner","inputs":[],"outputs":[{"name":"","type":"address","internalType":"address"}],"stateMutability":"view"},{"type":"function","name":"removeSpigot","inputs":[{"name":"revenueContract","type":"address","internalType":"address"}],"outputs":[{"name":"","type":"bool","internalType":"bool"}],"stateMutability":"nonpayable"},{"type":"function","name":"updateOperator","inputs":[{"name":"newOperator","type":"address","internalType":"address"}],"outputs":[{"name":"","type":"bool","internalType":"bool"}],"stateMutability":"nonpayable"},{"type":"function","name":"updateOwner","inputs":[{"name":"newOwner","type":"address","internalType":"address"}],"outputs":[{"name":"","type":"bool","internalType":"bool"}],"stateMutability":"nonpayable"},{"type":"function","name":"updateOwnerSplit","inputs":[{"name":"revenueContract","type":"address","internalType":"address"},{"name":"ownerSplit","type":"uint8","internalType":"uint8"}],"outputs":[{"name":"","type":"bool","internalType":"bool"}],"stateMutability":"nonpayable"},{"type":"function","name":"updateWhitelistedFunction","inputs":[{"name":"func","type":"bytes4","internalType":"bytes4"},{"name":"allowed","type":"bool","internalType":"bool"}],"outputs":[{"name":"","type":"bool","internalType":"bool"}],"stateMutability":"nonpayable"},{"type":"event","name":"AddSpigot","inputs":[{"name":"revenueContract","type":"address","indexed":true,"internalType":"address"},{"name":"ownerSplit","type":"uint256","indexed":false,"internalType":"uint256"},{"name":"claimFnSig","type":"bytes4","indexed":false,"internalType":"bytes4"},{"name":"trsfrFnSig","type":"bytes4","indexed":false,"internalType":"bytes4"}],"anonymous":false},{"type":"event","name":"ClaimOperatorTokens","inputs":[{"name":"token","type":"address","indexed":true,"internalType":"address"},{"name":"amount","type":"uint256","indexed":true,"internalType":"uint256"},{"name":"operator","type":"address","indexed":false,"internalType":"address"}],"anonymous":false},{"type":"event","name":"ClaimOwnerTokens","inputs":[{"name":"token","type":"address","indexed":true,"internalType":"address"},{"name":"amount","type":"uint256","indexed":true,"internalType":"uint256"},{"name":"owner","type":"address","indexed":false,"internalType":"address"}],"anonymous":false},{"type":"event","name":"ClaimRevenue","inputs":[{"name":"token","type":"address","indexed":true,"internalType":"address"},{"name":"amount","type":"uint256","indexed":true,"internalType":"uint256"},{"name":"escrowed","type":"uint256","indexed":false,"internalType":"uint256"},{"name":"revenueContract","type":"address","indexed":false,"internalType":"address"}],"anonymous":false},{"type":"event","name":"RemoveSpigot","inputs":[{"name":"revenueContract","type":"address","indexed":true,"internalType":"address"},{"name":"token","type":"address","indexed":false,"internalType":"address"}],"anonymous":false},{"type":"event","name":"UpdateOperator","inputs":[{"name":"newOperator","type":"address","indexed":true,"internalType":"address"}],"anonymous":false},{"type":"event","name":"UpdateOwner","inputs":[{"name":"newOwner","type":"address","indexed":true,"internalType":"address"}],"anonymous":false},{"type":"event","name":"UpdateOwnerSplit","inputs":[{"name":"revenueContract","type":"address","indexed":true,"internalType":"address"},{"name":"split","type":"uint8","indexed":true,"internalType":"uint8"}],"anonymous":false},{"type":"event","name":"UpdateWhitelistFunction","inputs":[{"name":"func","type":"bytes4","indexed":true,"internalType":"bytes4"},{"name":"allowed","type":"bool","indexed":true,"internalType":"bool"}],"anonymous":false},{"type":"error","name":"BadFunction","inputs":[]},{"type":"error","name":"BadSetting","inputs":[]},{"type":"error","name":"CallerAccessDenied","inputs":[]},{"type":"error","name":"ClaimFailed","inputs":[]},{"type":"error","name":"InvalidRevenueContract","inputs":[]},{"type":"error","name":"NoRevenue","inputs":[]},{"type":"error","name":"OperatorFnCallFailed","inputs":[]},{"type":"error","name":"OperatorFnNotValid","inputs":[]},{"type":"error","name":"OperatorFnNotWhitelisted","inputs":[]},{"type":"error","name":"ReentrancyGuardReentrantCall","inputs":[]},{"type":"error","name":"UnclaimedRevenue","inputs":[]}],"bytecode":{"object":"0x608060405234801561001057600080fd5b50604051610dd1380380610dd183398101604081905261002f91610081565b6001600081905580546001600160a01b039384166001600160a01b031991821617909155600280549290931691161790556100b4565b80516001600160a01b038116811461007c57600080fd5b919050565b6000806040838503121561009457600080fd5b61009d83610065565b91506100ab60208401610065565b90509250929050565b610d0e806100c36000396000f3fe6080604052600436106100f75760003560e01c8063880cdc311161008a578063d2ee198611610059578063d2ee1986146102f6578063d403e9ec14610316578063d63d4af014610336578063f07c57091461036c57600080fd5b8063880cdc311461024e5780638da5cb5b1461026e578063ac7475ed1461028c578063c2ae60d8146102ac57600080fd5b806353ad370d116100c657806353ad370d146101bc578063570ca735146101dc5780635beb0deb1461020e578063744790511461022e57600080fd5b806312879a52146101035780631846f4791461013857806318906bf7146101585780634e6dcd901461017857600080fd5b366100fe57005b600080fd5b34801561010f57600080fd5b5061012361011e366004610954565b61038c565b60405190151581526020015b60405180910390f35b34801561014457600080fd5b5061012361015336600461098b565b610423565b34801561016457600080fd5b506101236101733660046109bc565b6104b0565b34801561018457600080fd5b506101ae61019336600461098b565b6001600160a01b031660009081526004602052604090205490565b60405190815260200161012f565b3480156101c857600080fd5b506101236101d7366004610aac565b610527565b3480156101e857600080fd5b506002546001600160a01b03165b6040516001600160a01b03909116815260200161012f565b34801561021a57600080fd5b506101ae61022936600461098b565b6105b1565b34801561023a57600080fd5b506101ae610249366004610aff565b610650565b34801561025a57600080fd5b5061012361026936600461098b565b6106e7565b34801561027a57600080fd5b506001546001600160a01b03166101f6565b34801561029857600080fd5b506101236102a736600461098b565b610731565b3480156102b857600080fd5b506102cc6102c736600461098b565b61077b565b6040805160ff90941684526001600160e01b0319928316602085015291169082015260600161012f565b34801561030257600080fd5b50610123610311366004610b60565b610812565b34801561032257600080fd5b50610123610331366004610b8b565b61085d565b34801561034257600080fd5b506101ae61035136600461098b565b6001600160a01b031660009081526003602052604090205490565b34801561037857600080fd5b506101ae61038736600461098b565b6108b0565b6040516324c4684d60e21b8152600160048201526001600160a01b038316602482015260ff8216604482015260009073__$7703afd4da5b3150468ac963f777627f3c$__90639311a134906064015b602060405180830381865af41580156103f8573d6000803e3d6000fd5b505050506040513d601f19601f8201168201806040525081019061041c9190610bb9565b9392505050565b60405163d72efba960e01b8152600160048201526001600160a01b038216602482015260009073__$7703afd4da5b3150468ac963f777627f3c$__9063d72efba9906044015b602060405180830381865af4158015610486573d6000803e3d6000fd5b505050506040513d601f19601f820116820180604052508101906104aa9190610bb9565b92915050565b6040805163f51fdc4b60e01b8152600160048201526001600160a01b0384166024820152825160ff16604482015260208301516001600160e01b0319908116606483015291830151909116608482015260009073__$7703afd4da5b3150468ac963f777627f3c$__9063f51fdc4b9060a4016103db565b604051637f6b516f60e01b815260009073__$7703afd4da5b3150468ac963f777627f3c$__90637f6b516f9061056890600190889088908890600401610bff565b602060405180830381865af4158015610585573d6000803e3d6000fd5b505050506040513d601f19601f820116820180604052508101906105a99190610bb9565b949350505050565b60006105bb610901565b60405163eacd6e0960e01b8152600160048201526001600160a01b038316602482015273__$7703afd4da5b3150468ac963f777627f3c$__9063eacd6e09906044015b602060405180830381865af415801561061b573d6000803e3d6000fd5b505050506040513d601f19601f8201168201806040525081019061063f9190610c34565b905061064b6001600055565b919050565b600061065a610901565b604051637796f76360e01b815273__$7703afd4da5b3150468ac963f777627f3c$__90637796f7639061069a906001908990899089908990600401610c4d565b602060405180830381865af41580156106b7573d6000803e3d6000fd5b505050506040513d601f19601f820116820180604052508101906106db9190610c34565b90506105a96001600055565b604051633f279f2760e11b8152600160048201526001600160a01b038216602482015260009073__$7703afd4da5b3150468ac963f777627f3c$__90637e4f3e4e90604401610469565b60405163939ee34160e01b8152600160048201526001600160a01b038216602482015260009073__$7703afd4da5b3150468ac963f777627f3c$__9063939ee34190604401610469565b604051634f94f74160e01b8152600160048201526001600160a01b03821660248201526000908190819073__$7703afd4da5b3150468ac963f777627f3c$__90634f94f74190604401606060405180830381865af41580156107e1573d6000803e3d6000fd5b505050506040513d601f19601f820116820180604052508101906108059190610c8b565b9250925092509193909250565b6040516320a7a3e560e01b8152600160048201526001600160e01b03198216602482015260009073__$7703afd4da5b3150468ac963f777627f3c$__906320a7a3e590604401610469565b604051633f28cbf160e01b8152600160048201526001600160e01b031983166024820152811515604482015260009073__$7703afd4da5b3150468ac963f777627f3c$__90633f28cbf1906064016103db565b60006108ba610901565b604051631bb69fcd60e21b8152600160048201526001600160a01b038316602482015273__$7703afd4da5b3150468ac963f777627f3c$__90636eda7f34906044016105fe565b60026000540361092457604051633ee5aeb560e01b815260040160405180910390fd5b6002600055565b80356001600160a01b038116811461064b57600080fd5b60ff8116811461095157600080fd5b50565b6000806040838503121561096757600080fd5b6109708361092b565b9150602083013561098081610942565b809150509250929050565b60006020828403121561099d57600080fd5b61041c8261092b565b6001600160e01b03198116811461095157600080fd5b60008082840360808112156109d057600080fd5b6109d98461092b565b92506060601f19820112156109ed57600080fd5b506040516060810181811067ffffffffffffffff82111715610a1f57634e487b7160e01b600052604160045260246000fd5b6040526020840135610a3081610942565b81526040840135610a40816109a6565b60208201526060840135610a53816109a6565b6040820152919491935090915050565b60008083601f840112610a7557600080fd5b50813567ffffffffffffffff811115610a8d57600080fd5b602083019150836020828501011115610aa557600080fd5b9250929050565b600080600060408486031215610ac157600080fd5b610aca8461092b565b9250602084013567ffffffffffffffff811115610ae657600080fd5b610af286828701610a63565b9497909650939450505050565b60008060008060608587031215610b1557600080fd5b610b1e8561092b565b9350610b2c6020860161092b565b9250604085013567ffffffffffffffff811115610b4857600080fd5b610b5487828801610a63565b95989497509550505050565b600060208284031215610b7257600080fd5b813561041c816109a6565b801515811461095157600080fd5b60008060408385031215610b9e57600080fd5b8235610ba9816109a6565b9150602083013561098081610b7d565b600060208284031215610bcb57600080fd5b815161041c81610b7d565b81835281816020850137506000828201602090810191909152601f909101601f19169091010190565b8481526001600160a01b0384166020820152606060408201819052600090610c2a9083018486610bd6565b9695505050505050565b600060208284031215610c4657600080fd5b5051919050565b8581526001600160a01b03858116602083015284166040820152608060608201819052600090610c809083018486610bd6565b979650505050505050565b600080600060608486031215610ca057600080fd5b8351610cab81610942565b6020850151909350610cbc816109a6565b6040850151909250610ccd816109a6565b80915050925092509256fea2646970667358221220a3dfd1b3d62f894d664f8a473d4db41f2af850408408edc3ad1c1ebfabb244f764736f6c63430008140033","linkReferences":{"contracts/utils/SpigotLib.sol":{"SpigotLib":[{"start":1152,"length":20},{"start":1294,"length":20},{"start":1480,"length":20},{"start":1532,"length":20},{"start":1699,"length":20},{"start":1836,"length":20},{"start":2002,"length":20},{"start":2076,"length":20},{"start":2154,"length":20},{"start":2302,"length":20},{"start":2385,"length":20},{"start":2466,"length":20}]}}},"methodIdentifiers":{"addSpigot(address,(uint8,bytes4,bytes4))":"18906bf7","claimOperatorTokens(address)":"5beb0deb","claimOwnerTokens(address)":"f07c5709","claimRevenue(address,address,bytes)":"74479051","getOperatorTokens(address)":"4e6dcd90","getOwnerTokens(address)":"d63d4af0","getSetting(address)":"c2ae60d8","isWhitelisted(bytes4)":"d2ee1986","operate(address,bytes)":"53ad370d","operator()":"570ca735","owner()":"8da5cb5b","removeSpigot(address)":"1846f479","updateOperator(address)":"ac7475ed","updateOwner(address)":"880cdc31","updateOwnerSplit(address,uint8)":"12879a52","updateWhitelistedFunction(bytes4,bool)":"d403e9ec"},"id":38}