{"abi":[{"type":"receive","stateMutability":"payable"},{"type":"function","name":"accept","inputs":[{"name":"token","type":"address","internalType":"address"},{"name":"from","type":"address","internalType":"address"},{"name":"amount","type":"uint256","internalType":"uint256"}],"outputs":[],"stateMutability":"payable"},{"type":"function","name":"balance","inputs":[{"name":"token","type":"address","internalType":"address"}],"outputs":[{"name":"","type":"uint256","internalType":"uint256"}],"stateMutability":"nonpayable"},{"type":"function","name":"send","inputs":[{"name":"token","type":"address","internalType":"address"},{"name":"to","type":"address","internalType":"address"},{"name":"amount","type":"uint256","internalType":"uint256"}],"outputs":[],"stateMutability":"payable"},{"type":"function","name":"setReceiveableState","inputs":[{"name":"state","type":"bool","internalType":"bool"}],"outputs":[],"stateMutability":"nonpayable"}],"bytecode":{"object":"0x60806040526000805460ff1916600117905534801561001d57600080fd5b5061035d8061002d6000396000f3fe6080604052600436106100435760003560e01c80630779afe61461005e578063861151651461007157806399358ece14610084578063e3d670d7146100b257600080fd5b366100595760005460ff1661005757600080fd5b005b600080fd5b61005761006c366004610265565b6100e4565b61005761007f366004610265565b610176565b34801561009057600080fd5b5061005761009f3660046102b2565b6000805460ff1916911515919091179055565b3480156100be57600080fd5b506100d26100cd3660046102d6565b6101c4565b60405190815260200160405180910390f35b60405163d55fad0560e01b81526001600160a01b03808516600483015283166024820152604481018290527373cb72a7efaddd99cdd2d110e2f4b8b65bf3b8129063d55fad05906064015b602060405180830381865af415801561014c573d6000803e3d6000fd5b505050506040513d601f19601f8201168201806040525081019061017091906102f1565b50505050565b60405162f6020f60e71b81526001600160a01b03808516600483015283166024820152604481018290527373cb72a7efaddd99cdd2d110e2f4b8b65bf3b81290637b0107809060640161012f565b60405163f8b2cb4f60e01b81526001600160a01b03821660048201526000907373cb72a7efaddd99cdd2d110e2f4b8b65bf3b8129063f8b2cb4f90602401602060405180830381865af415801561021f573d6000803e3d6000fd5b505050506040513d601f19601f82011682018060405250810190610243919061030e565b92915050565b80356001600160a01b038116811461026057600080fd5b919050565b60008060006060848603121561027a57600080fd5b61028384610249565b925061029160208501610249565b9150604084013590509250925092565b80151581146102af57600080fd5b50565b6000602082840312156102c457600080fd5b81356102cf816102a1565b9392505050565b6000602082840312156102e857600080fd5b6102cf82610249565b60006020828403121561030357600080fd5b81516102cf816102a1565b60006020828403121561032057600080fd5b505191905056fea26469706673582212202ee3c2ed543480da8ab36822c0138568558610ea798bed493d9a36c1e416324b64736f6c63430008140033","linkReferences":{}},"methodIdentifiers":{"accept(address,address,uint256)":"86115165","balance(address)":"e3d670d7","send(address,address,uint256)":"0779afe6","setReceiveableState(bool)":"99358ece"},"id":13}