{"abi":[{"type":"function","name":"accept","inputs":[{"name":"token","type":"address","internalType":"address"},{"name":"from","type":"address","internalType":"address"},{"name":"amount","type":"uint256","internalType":"uint256"}],"outputs":[],"stateMutability":"payable"},{"type":"function","name":"balance","inputs":[{"name":"token","type":"address","internalType":"address"}],"outputs":[{"name":"","type":"uint256","internalType":"uint256"}],"stateMutability":"nonpayable"},{"type":"function","name":"send","inputs":[{"name":"token","type":"address","internalType":"address"},{"name":"to","type":"address","internalType":"address"},{"name":"amount","type":"uint256","internalType":"uint256"}],"outputs":[],"stateMutability":"payable"}],"bytecode":{"object":"0x608060405234801561001057600080fd5b506102e3806100206000396000f3fe6080604052600436106100345760003560e01c80630779afe614610039578063861151651461004e578063e3d670d714610061575b600080fd5b61004c610047366004610214565b610093565b005b61004c61005c366004610214565b610125565b34801561006d57600080fd5b5061008161007c366004610250565b610173565b60405190815260200160405180910390f35b60405163d55fad0560e01b81526001600160a01b03808516600483015283166024820152604481018290527373cb72a7efaddd99cdd2d110e2f4b8b65bf3b8129063d55fad05906064015b602060405180830381865af41580156100fb573d6000803e3d6000fd5b505050506040513d601f19601f8201168201806040525081019061011f9190610272565b50505050565b60405162f6020f60e71b81526001600160a01b03808516600483015283166024820152604481018290527373cb72a7efaddd99cdd2d110e2f4b8b65bf3b81290637b010780906064016100de565b60405163f8b2cb4f60e01b81526001600160a01b03821660048201526000907373cb72a7efaddd99cdd2d110e2f4b8b65bf3b8129063f8b2cb4f90602401602060405180830381865af41580156101ce573d6000803e3d6000fd5b505050506040513d601f19601f820116820180604052508101906101f29190610294565b92915050565b80356001600160a01b038116811461020f57600080fd5b919050565b60008060006060848603121561022957600080fd5b610232846101f8565b9250610240602085016101f8565b9150604084013590509250925092565b60006020828403121561026257600080fd5b61026b826101f8565b9392505050565b60006020828403121561028457600080fd5b8151801515811461026b57600080fd5b6000602082840312156102a657600080fd5b505191905056fea2646970667358221220f59703bee63c22ec1ff0567a28226a1597063f7e7f596ee5031bdb465265d07664736f6c63430008140033","linkReferences":{}},"methodIdentifiers":{"accept(address,address,uint256)":"86115165","balance(address)":"e3d670d7","send(address,address,uint256)":"0779afe6"},"id":13}