{"abi":[{"type":"constructor","inputs":[{"name":"assetAddr","type":"address","internalType":"address"}],"stateMutability":"nonpayable"},{"type":"function","name":"allowance","inputs":[{"name":"owner","type":"address","internalType":"address"},{"name":"spender","type":"address","internalType":"address"}],"outputs":[{"name":"","type":"uint256","internalType":"uint256"}],"stateMutability":"view"},{"type":"function","name":"approve","inputs":[{"name":"spender","type":"address","internalType":"address"},{"name":"value","type":"uint256","internalType":"uint256"}],"outputs":[{"name":"","type":"bool","internalType":"bool"}],"stateMutability":"nonpayable"},{"type":"function","name":"asset","inputs":[],"outputs":[{"name":"","type":"address","internalType":"address"}],"stateMutability":"view"},{"type":"function","name":"balanceOf","inputs":[{"name":"account","type":"address","internalType":"address"}],"outputs":[{"name":"","type":"uint256","internalType":"uint256"}],"stateMutability":"view"},{"type":"function","name":"burnFrom","inputs":[{"name":"account","type":"address","internalType":"address"},{"name":"amount","type":"uint256","internalType":"uint256"}],"outputs":[{"name":"","type":"bool","internalType":"bool"}],"stateMutability":"nonpayable"},{"type":"function","name":"decimals","inputs":[],"outputs":[{"name":"","type":"uint8","internalType":"uint8"}],"stateMutability":"view"},{"type":"function","name":"mint","inputs":[{"name":"account","type":"address","internalType":"address"},{"name":"amount","type":"uint256","internalType":"uint256"}],"outputs":[{"name":"","type":"bool","internalType":"bool"}],"stateMutability":"nonpayable"},{"type":"function","name":"name","inputs":[],"outputs":[{"name":"","type":"string","internalType":"string"}],"stateMutability":"view"},{"type":"function","name":"previewRedeem","inputs":[{"name":"amount","type":"uint256","internalType":"uint256"}],"outputs":[{"name":"","type":"uint256","internalType":"uint256"}],"stateMutability":"view"},{"type":"function","name":"setAssetAddress","inputs":[{"name":"assetAddr","type":"address","internalType":"address"}],"outputs":[],"stateMutability":"nonpayable"},{"type":"function","name":"setAssetMultiplier","inputs":[{"name":"multiplier","type":"uint256","internalType":"uint256"}],"outputs":[],"stateMutability":"nonpayable"},{"type":"function","name":"symbol","inputs":[],"outputs":[{"name":"","type":"string","internalType":"string"}],"stateMutability":"view"},{"type":"function","name":"totalSupply","inputs":[],"outputs":[{"name":"","type":"uint256","internalType":"uint256"}],"stateMutability":"view"},{"type":"function","name":"transfer","inputs":[{"name":"to","type":"address","internalType":"address"},{"name":"value","type":"uint256","internalType":"uint256"}],"outputs":[{"name":"","type":"bool","internalType":"bool"}],"stateMutability":"nonpayable"},{"type":"function","name":"transferFrom","inputs":[{"name":"from","type":"address","internalType":"address"},{"name":"to","type":"address","internalType":"address"},{"name":"value","type":"uint256","internalType":"uint256"}],"outputs":[{"name":"","type":"bool","internalType":"bool"}],"stateMutability":"nonpayable"},{"type":"event","name":"Approval","inputs":[{"name":"owner","type":"address","indexed":true,"internalType":"address"},{"name":"spender","type":"address","indexed":true,"internalType":"address"},{"name":"value","type":"uint256","indexed":false,"internalType":"uint256"}],"anonymous":false},{"type":"event","name":"Transfer","inputs":[{"name":"from","type":"address","indexed":true,"internalType":"address"},{"name":"to","type":"address","indexed":true,"internalType":"address"},{"name":"value","type":"uint256","indexed":false,"internalType":"uint256"}],"anonymous":false},{"type":"error","name":"ERC20InsufficientAllowance","inputs":[{"name":"spender","type":"address","internalType":"address"},{"name":"allowance","type":"uint256","internalType":"uint256"},{"name":"needed","type":"uint256","internalType":"uint256"}]},{"type":"error","name":"ERC20InsufficientBalance","inputs":[{"name":"sender","type":"address","internalType":"address"},{"name":"balance","type":"uint256","internalType":"uint256"},{"name":"needed","type":"uint256","internalType":"uint256"}]},{"type":"error","name":"ERC20InvalidApprover","inputs":[{"name":"approver","type":"address","internalType":"address"}]},{"type":"error","name":"ERC20InvalidReceiver","inputs":[{"name":"receiver","type":"address","internalType":"address"}]},{"type":"error","name":"ERC20InvalidSender","inputs":[{"name":"sender","type":"address","internalType":"address"}]},{"type":"error","name":"ERC20InvalidSpender","inputs":[{"name":"spender","type":"address","internalType":"address"}]}],"bytecode":{"object":"0x60806040523480156200001157600080fd5b5060405162000b7e38038062000b7e8339810160408190526200003491620000d7565b6040518060400160405280601781526020017f546f6b656e206561726e656420617320726576656e756500000000000000000081525060405180604001604052806005815260200164212929292960d91b8152508160039081620000999190620001ae565b506004620000a88282620001ae565b5050600580546001600160a01b0319166001600160a01b0393909316929092179091555060016006556200027a565b600060208284031215620000ea57600080fd5b81516001600160a01b03811681146200010257600080fd5b9392505050565b634e487b7160e01b600052604160045260246000fd5b600181811c908216806200013457607f821691505b6020821081036200015557634e487b7160e01b600052602260045260246000fd5b50919050565b601f821115620001a957600081815260208120601f850160051c81016020861015620001845750805b601f850160051c820191505b81811015620001a55782815560010162000190565b5050505b505050565b81516001600160401b03811115620001ca57620001ca62000109565b620001e281620001db84546200011f565b846200015b565b602080601f8311600181146200021a5760008415620002015750858301515b600019600386901b1c1916600185901b178555620001a5565b600085815260208120601f198616915b828110156200024b578886015182559484019460019091019084016200022a565b50858210156200026a5787850151600019600388901b60f8161c191681555b5050505050600190811b01905550565b6108f4806200028a6000396000f3fe608060405234801561001057600080fd5b50600436106100f55760003560e01c806340c10f191161009757806379cc67901161006657806379cc67901461021e57806395d89b4114610231578063a9059cbb14610239578063dd62ed3e1461024c57600080fd5b806340c10f191461019f5780634cdad506146101b257806370a08231146101c5578063770e09fd146101ee57600080fd5b806319aca419116100d357806319aca4191461014d57806323b872dd14610162578063313ce5671461017557806338d52e0f1461018457600080fd5b806306fdde03146100fa578063095ea7b31461011857806318160ddd1461013b575b600080fd5b610102610285565b60405161010f9190610706565b60405180910390f35b61012b610126366004610770565b610317565b604051901515815260200161010f565b6002545b60405190815260200161010f565b61016061015b36600461079a565b600655565b005b61012b6101703660046107b3565b610331565b6040516012815260200161010f565b6005546040516001600160a01b03909116815260200161010f565b61012b6101ad366004610770565b610355565b61013f6101c036600461079a565b61036a565b61013f6101d33660046107ef565b6001600160a01b031660009081526020819052604090205490565b6101606101fc3660046107ef565b600580546001600160a01b0319166001600160a01b0392909216919091179055565b61012b61022c366004610770565b61037a565b610102610386565b61012b610247366004610770565b610395565b61013f61025a366004610811565b6001600160a01b03918216600090815260016020908152604080832093909416825291909152205490565b60606003805461029490610844565b80601f01602080910402602001604051908101604052809291908181526020018280546102c090610844565b801561030d5780601f106102e25761010080835404028352916020019161030d565b820191906000526020600020905b8154815290600101906020018083116102f057829003601f168201915b5050505050905090565b6000336103258185856103a3565b60019150505b92915050565b60003361033f8582856103b5565b61034a858585610438565b506001949350505050565b60006103618383610497565b50600192915050565b60006006548261032b9190610894565b600061036183836104d1565b60606004805461029490610844565b600033610325818585610438565b6103b08383836001610507565b505050565b6001600160a01b038381166000908152600160209081526040808320938616835292905220546000198114610432578181101561042357604051637dc7a0d960e11b81526001600160a01b038416600482015260248101829052604481018390526064015b60405180910390fd5b61043284848484036000610507565b50505050565b6001600160a01b03831661046257604051634b637e8f60e11b81526000600482015260240161041a565b6001600160a01b03821661048c5760405163ec442f0560e01b81526000600482015260240161041a565b6103b08383836105dc565b6001600160a01b0382166104c15760405163ec442f0560e01b81526000600482015260240161041a565b6104cd600083836105dc565b5050565b6001600160a01b0382166104fb57604051634b637e8f60e11b81526000600482015260240161041a565b6104cd826000836105dc565b6001600160a01b0384166105315760405163e602df0560e01b81526000600482015260240161041a565b6001600160a01b03831661055b57604051634a1406b160e11b81526000600482015260240161041a565b6001600160a01b038085166000908152600160209081526040808320938716835292905220829055801561043257826001600160a01b0316846001600160a01b03167f8c5be1e5ebec7d5bd14f71427d1e84f3dd0314c0f7b2291e5b200ac8c7c3b925846040516105ce91815260200190565b60405180910390a350505050565b6001600160a01b0383166106075780600260008282546105fc91906108ab565b909155506106799050565b6001600160a01b0383166000908152602081905260409020548181101561065a5760405163391434e360e21b81526001600160a01b0385166004820152602481018290526044810183905260640161041a565b6001600160a01b03841660009081526020819052604090209082900390555b6001600160a01b038216610695576002805482900390556106b4565b6001600160a01b03821660009081526020819052604090208054820190555b816001600160a01b0316836001600160a01b03167fddf252ad1be2c89b69c2b068fc378daa952ba7f163c4a11628f55a4df523b3ef836040516106f991815260200190565b60405180910390a3505050565b600060208083528351808285015260005b8181101561073357858101830151858201604001528201610717565b506000604082860101526040601f19601f8301168501019250505092915050565b80356001600160a01b038116811461076b57600080fd5b919050565b6000806040838503121561078357600080fd5b61078c83610754565b946020939093013593505050565b6000602082840312156107ac57600080fd5b5035919050565b6000806000606084860312156107c857600080fd5b6107d184610754565b92506107df60208501610754565b9150604084013590509250925092565b60006020828403121561080157600080fd5b61080a82610754565b9392505050565b6000806040838503121561082457600080fd5b61082d83610754565b915061083b60208401610754565b90509250929050565b600181811c9082168061085857607f821691505b60208210810361087857634e487b7160e01b600052602260045260246000fd5b50919050565b634e487b7160e01b600052601160045260246000fd5b808202811582820484141761032b5761032b61087e565b8082018082111561032b5761032b61087e56fea2646970667358221220dacd6beff35d7ea1b56e88ed8e5e231056ad0e9d7e649305bfe427bc517e944a64736f6c63430008140033","linkReferences":{}},"methodIdentifiers":{"allowance(address,address)":"dd62ed3e","approve(address,uint256)":"095ea7b3","asset()":"38d52e0f","balanceOf(address)":"70a08231","burnFrom(address,uint256)":"79cc6790","decimals()":"313ce567","mint(address,uint256)":"40c10f19","name()":"06fdde03","previewRedeem(uint256)":"4cdad506","setAssetAddress(address)":"770e09fd","setAssetMultiplier(uint256)":"19aca419","symbol()":"95d89b41","totalSupply()":"18160ddd","transfer(address,uint256)":"a9059cbb","transferFrom(address,address,uint256)":"23b872dd"},"id":23}