{"abi":[{"type":"constructor","inputs":[{"name":"oracle_","type":"address","internalType":"address"},{"name":"arbiter_","type":"address","internalType":"address"},{"name":"borrower_","type":"address","internalType":"address"},{"name":"ttl_","type":"uint256","internalType":"uint256"}],"stateMutability":"nonpayable"},{"type":"function","name":"accrueInterest","inputs":[],"outputs":[],"stateMutability":"nonpayable"},{"type":"function","name":"addCredit","inputs":[{"name":"drate","type":"uint128","internalType":"uint128"},{"name":"frate","type":"uint128","internalType":"uint128"},{"name":"amount","type":"uint256","internalType":"uint256"},{"name":"token","type":"address","internalType":"address"},{"name":"lender","type":"address","internalType":"address"}],"outputs":[{"name":"","type":"bytes32","internalType":"bytes32"}],"stateMutability":"payable"},{"type":"function","name":"arbiter","inputs":[],"outputs":[{"name":"","type":"address","internalType":"address"}],"stateMutability":"view"},{"type":"function","name":"available","inputs":[{"name":"id","type":"bytes32","internalType":"bytes32"}],"outputs":[{"name":"","type":"uint256","internalType":"uint256"},{"name":"","type":"uint256","internalType":"uint256"}],"stateMutability":"view"},{"type":"function","name":"borrow","inputs":[{"name":"id","type":"bytes32","internalType":"bytes32"},{"name":"amount","type":"uint256","internalType":"uint256"}],"outputs":[],"stateMutability":"nonpayable"},{"type":"function","name":"borrower","inputs":[],"outputs":[{"name":"","type":"address","internalType":"address"}],"stateMutability":"view"},{"type":"function","name":"close","inputs":[{"name":"id","type":"bytes32","internalType":"bytes32"}],"outputs":[],"stateMutability":"payable"},{"type":"function","name":"counts","inputs":[],"outputs":[{"name":"","type":"uint256","internalType":"uint256"},{"name":"","type":"uint256","internalType":"uint256"}],"stateMutability":"view"},{"type":"function","name":"credits","inputs":[{"name":"","type":"bytes32","internalType":"bytes32"}],"outputs":[{"name":"deposit","type":"uint256","internalType":"uint256"},{"name":"principal","type":"uint256","internalType":"uint256"},{"name":"interestAccrued","type":"uint256","internalType":"uint256"},{"name":"interestRepaid","type":"uint256","internalType":"uint256"},{"name":"decimals","type":"uint8","internalType":"uint8"},{"name":"token","type":"address","internalType":"address"},{"name":"lender","type":"address","internalType":"address"},{"name":"isOpen","type":"bool","internalType":"bool"}],"stateMutability":"view"},{"type":"function","name":"deadline","inputs":[],"outputs":[{"name":"","type":"uint256","internalType":"uint256"}],"stateMutability":"view"},{"type":"function","name":"declareInsolvent","inputs":[],"outputs":[],"stateMutability":"nonpayable"},{"type":"function","name":"depositAndClose","inputs":[],"outputs":[],"stateMutability":"payable"},{"type":"function","name":"depositAndRepay","inputs":[{"name":"amount","type":"uint256","internalType":"uint256"}],"outputs":[],"stateMutability":"payable"},{"type":"function","name":"healthcheck","inputs":[],"outputs":[{"name":"","type":"uint8","internalType":"enum LineLib.STATUS"}],"stateMutability":"nonpayable"},{"type":"function","name":"ids","inputs":[{"name":"","type":"uint256","internalType":"uint256"}],"outputs":[{"name":"","type":"bytes32","internalType":"bytes32"}],"stateMutability":"view"},{"type":"function","name":"increaseCredit","inputs":[{"name":"id","type":"bytes32","internalType":"bytes32"},{"name":"amount","type":"uint256","internalType":"uint256"}],"outputs":[],"stateMutability":"payable"},{"type":"function","name":"init","inputs":[],"outputs":[],"stateMutability":"nonpayable"},{"type":"function","name":"interestAccrued","inputs":[{"name":"id","type":"bytes32","internalType":"bytes32"}],"outputs":[{"name":"","type":"uint256","internalType":"uint256"}],"stateMutability":"view"},{"type":"function","name":"interestRate","inputs":[],"outputs":[{"name":"","type":"address","internalType":"contract InterestRateCredit"}],"stateMutability":"view"},{"type":"function","name":"mutualConsentProposals","inputs":[{"name":"","type":"bytes32","internalType":"bytes32"}],"outputs":[{"name":"","type":"address","internalType":"address"}],"stateMutability":"view"},{"type":"function","name":"nextInQ","inputs":[],"outputs":[{"name":"","type":"bytes32","internalType":"bytes32"},{"name":"","type":"address","internalType":"address"},{"name":"","type":"address","internalType":"address"},{"name":"","type":"uint256","internalType":"uint256"},{"name":"","type":"uint256","internalType":"uint256"},{"name":"","type":"uint256","internalType":"uint256"},{"name":"","type":"uint128","internalType":"uint128"},{"name":"","type":"uint128","internalType":"uint128"}],"stateMutability":"view"},{"type":"function","name":"oracle","inputs":[],"outputs":[{"name":"","type":"address","internalType":"contract IOracle"}],"stateMutability":"view"},{"type":"function","name":"revokeConsent","inputs":[{"name":"_reconstrucedMsgData","type":"bytes","internalType":"bytes"}],"outputs":[],"stateMutability":"nonpayable"},{"type":"function","name":"setRates","inputs":[{"name":"id","type":"bytes32","internalType":"bytes32"},{"name":"drate","type":"uint128","internalType":"uint128"},{"name":"frate","type":"uint128","internalType":"uint128"}],"outputs":[],"stateMutability":"nonpayable"},{"type":"function","name":"status","inputs":[],"outputs":[{"name":"","type":"uint8","internalType":"enum LineLib.STATUS"}],"stateMutability":"view"},{"type":"function","name":"stepQ","inputs":[],"outputs":[],"stateMutability":"nonpayable"},{"type":"function","name":"updateOutstandingDebt","inputs":[],"outputs":[{"name":"","type":"uint256","internalType":"uint256"},{"name":"","type":"uint256","internalType":"uint256"}],"stateMutability":"nonpayable"},{"type":"function","name":"withdraw","inputs":[{"name":"id","type":"bytes32","internalType":"bytes32"},{"name":"amount","type":"uint256","internalType":"uint256"}],"outputs":[],"stateMutability":"nonpayable"},{"type":"event","name":"AddCredit","inputs":[{"name":"lender","type":"address","indexed":true,"internalType":"address"},{"name":"token","type":"address","indexed":true,"internalType":"address"},{"name":"deposit","type":"uint256","indexed":true,"internalType":"uint256"},{"name":"id","type":"bytes32","indexed":false,"internalType":"bytes32"}],"anonymous":false},{"type":"event","name":"Borrow","inputs":[{"name":"id","type":"bytes32","indexed":true,"internalType":"bytes32"},{"name":"amount","type":"uint256","indexed":true,"internalType":"uint256"}],"anonymous":false},{"type":"event","name":"CloseCreditPosition","inputs":[{"name":"id","type":"bytes32","indexed":true,"internalType":"bytes32"}],"anonymous":false},{"type":"event","name":"Default","inputs":[{"name":"id","type":"bytes32","indexed":true,"internalType":"bytes32"}],"anonymous":false},{"type":"event","name":"DeployLine","inputs":[{"name":"oracle","type":"address","indexed":true,"internalType":"address"},{"name":"arbiter","type":"address","indexed":true,"internalType":"address"},{"name":"borrower","type":"address","indexed":true,"internalType":"address"}],"anonymous":false},{"type":"event","name":"IncreaseCredit","inputs":[{"name":"id","type":"bytes32","indexed":true,"internalType":"bytes32"},{"name":"deposit","type":"uint256","indexed":true,"internalType":"uint256"}],"anonymous":false},{"type":"event","name":"InterestAccrued","inputs":[{"name":"id","type":"bytes32","indexed":true,"internalType":"bytes32"},{"name":"amount","type":"uint256","indexed":true,"internalType":"uint256"}],"anonymous":false},{"type":"event","name":"MutualConsentAccepted","inputs":[{"name":"proposalId","type":"bytes32","indexed":false,"internalType":"bytes32"}],"anonymous":false},{"type":"event","name":"MutualConsentRegistered","inputs":[{"name":"proposalId","type":"bytes32","indexed":false,"internalType":"bytes32"},{"name":"taker","type":"address","indexed":false,"internalType":"address"}],"anonymous":false},{"type":"event","name":"MutualConsentRevoked","inputs":[{"name":"proposalId","type":"bytes32","indexed":false,"internalType":"bytes32"}],"anonymous":false},{"type":"event","name":"RepayInterest","inputs":[{"name":"id","type":"bytes32","indexed":true,"internalType":"bytes32"},{"name":"amount","type":"uint256","indexed":true,"internalType":"uint256"}],"anonymous":false},{"type":"event","name":"RepayPrincipal","inputs":[{"name":"id","type":"bytes32","indexed":true,"internalType":"bytes32"},{"name":"amount","type":"uint256","indexed":true,"internalType":"uint256"}],"anonymous":false},{"type":"event","name":"SetRates","inputs":[{"name":"id","type":"bytes32","indexed":true,"internalType":"bytes32"},{"name":"dRate","type":"uint128","indexed":true,"internalType":"uint128"},{"name":"fRate","type":"uint128","indexed":true,"internalType":"uint128"}],"anonymous":false},{"type":"event","name":"SortedIntoQ","inputs":[{"name":"id","type":"bytes32","indexed":true,"internalType":"bytes32"},{"name":"newIdx","type":"uint256","indexed":true,"internalType":"uint256"},{"name":"oldIdx","type":"uint256","indexed":true,"internalType":"uint256"},{"name":"oldId","type":"bytes32","indexed":false,"internalType":"bytes32"}],"anonymous":false},{"type":"event","name":"UpdateStatus","inputs":[{"name":"status","type":"uint256","indexed":true,"internalType":"uint256"}],"anonymous":false},{"type":"event","name":"WithdrawDeposit","inputs":[{"name":"id","type":"bytes32","indexed":true,"internalType":"bytes32"},{"name":"amount","type":"uint256","indexed":true,"internalType":"uint256"}],"anonymous":false},{"type":"event","name":"WithdrawProfit","inputs":[{"name":"id","type":"bytes32","indexed":true,"internalType":"bytes32"},{"name":"amount","type":"uint256","indexed":true,"internalType":"uint256"}],"anonymous":false},{"type":"error","name":"AlreadyInitialized","inputs":[]},{"type":"error","name":"BadModule","inputs":[{"name":"module","type":"address","internalType":"address"}]},{"type":"error","name":"BorrowFailed","inputs":[]},{"type":"error","name":"CallerAccessDenied","inputs":[]},{"type":"error","name":"CantStepQ","inputs":[]},{"type":"error","name":"CloseFailedWithPrincipal","inputs":[]},{"type":"error","name":"EthSupportDisabled","inputs":[]},{"type":"error","name":"InvalidConsent","inputs":[]},{"type":"error","name":"NoLiquidity","inputs":[]},{"type":"error","name":"NoTokenPrice","inputs":[]},{"type":"error","name":"NonZeroEthValue","inputs":[]},{"type":"error","name":"NotActive","inputs":[]},{"type":"error","name":"NotBorrowing","inputs":[]},{"type":"error","name":"NotInsolvent","inputs":[{"name":"module","type":"address","internalType":"address"}]},{"type":"error","name":"NotLiquidatable","inputs":[]},{"type":"error","name":"NotUserConsent","inputs":[]},{"type":"error","name":"PositionExists","inputs":[]},{"type":"error","name":"PositionIsClosed","inputs":[]},{"type":"error","name":"ReentrancyGuardReentrantCall","inputs":[]},{"type":"error","name":"RepayAmountExceedsDebt","inputs":[{"name":"totalAvailable","type":"uint256","internalType":"uint256"}]},{"type":"error","name":"TokenTransferFailed","inputs":[]},{"type":"error","name":"Unauthorized","inputs":[]},{"type":"error","name":"UnsupportedMutualConsentFunction","inputs":[]}],"bytecode":{"object":"0x6101206040523480156200001257600080fd5b506040516200382e3803806200382e833981016040819052620000359162000106565b600180556001600160a01b0380851660e05283811660c052821660a0526200005e814262000158565b6080526040516200006f90620000db565b604051809103906000f0801580156200008c573d6000803e3d6000fd5b506001600160a01b03908116610100526040518382169185811691908716907f823bb3f9854921652e62f2fcf067240bf72adb3bf3717b6e65c78f99df300e5890600090a45050505062000180565b61053680620032f883390190565b80516001600160a01b03811681146200010157600080fd5b919050565b600080600080608085870312156200011d57600080fd5b6200012885620000e9565b93506200013860208601620000e9565b92506200014860408601620000e9565b6060959095015193969295505050565b808201808211156200017a57634e487b7160e01b600052601160045260246000fd5b92915050565b60805160a05160c05160e051610100516130ae6200024a600039600081816103f701528181610e4901528181611bad01528181611c7201528181611e25015281816122fc015261272b01526000818161044b015281816122da01526128e501526000818161061e0152611d3301526000818161047f0152818161081f015281816108fa01528181610b1101528181610d3701528181610f2a015281816110390152818161138c0152818161154401526117a8015260008181610220015261212401526130ae6000f3fe6080604052600436106101b75760003560e01c80637df33c20116100ec578063cb8362091161008a578063e701af9911610064578063e701af9914610584578063fac333ac146105ec578063fe25e00a1461060c578063feccf26f1461064057600080fd5b8063cb83620914610549578063dfe960831461055c578063e1c7392a1461056f57600080fd5b8063a4e7d38f116100c6578063a4e7d38f146104e1578063a6afed9514610501578063ac856fac14610516578063c36515741461053657600080fd5b80637df33c20146104a15780637eef544d146104c1578063817cc1ea146104c957600080fd5b8063501b56d8116101595780637c3a00fd116101335780637c3a00fd146103e55780637c93ec30146104195780637dc0d1d0146104395780637df1f1b91461046d57600080fd5b8063501b56d81461038657806362bfcc68146103b05780636932854f146103c557600080fd5b806338deee8f1161019557806338deee8f1461025057806339c79e0c1461029e57806342997913146102b15780634f42fc021461037157600080fd5b8063040cf020146101bc578063200d2ed2146101de57806329dcb0cf1461020e575b600080fd5b3480156101c857600080fd5b506101dc6101d7366004612ac5565b610655565b005b3480156101ea57600080fd5b506005546101f89060ff1681565b6040516102059190612afd565b60405180910390f35b34801561021a57600080fd5b506102427f000000000000000000000000000000000000000000000000000000000000000081565b604051908152602001610205565b34801561025c57600080fd5b5061028661026b366004612b25565b6000602081905290815260409020546001600160a01b031681565b6040516001600160a01b039091168152602001610205565b6101dc6102ac366004612b25565b61080c565b3480156102bd57600080fd5b506103256102cc366004612b25565b600460208190526000918252604090912080546001820154600283015460038401549484015460059094015492949193909260ff808316926001600160a01b0361010090910481169290811691600160a01b9091041688565b60408051988952602089019790975295870194909452606086019290925260ff1660808501526001600160a01b0390811660a08501521660c0830152151560e082015261010001610205565b34801561037d57600080fd5b506101f86109cb565b34801561039257600080fd5b5061039b610a06565b60408051928352602083019190915201610205565b3480156103bc57600080fd5b506101dc610a19565b3480156103d157600080fd5b5061039b6103e0366004612b25565b610a8d565b3480156103f157600080fd5b506102867f000000000000000000000000000000000000000000000000000000000000000081565b34801561042557600080fd5b506101dc610434366004612ac5565b610ac7565b34801561044557600080fd5b506102867f000000000000000000000000000000000000000000000000000000000000000081565b34801561047957600080fd5b506102867f000000000000000000000000000000000000000000000000000000000000000081565b3480156104ad57600080fd5b506102426104bc366004612b25565b610e06565b6101dc610eb6565b3480156104d557600080fd5b5060025460035461039b565b3480156104ed57600080fd5b506101dc6104fc366004612b3e565b611101565b34801561050d57600080fd5b506101dc611210565b34801561052257600080fd5b506101dc610531366004612bc5565b611372565b6101dc610544366004612ac5565b6114eb565b610242610557366004612c1c565b611764565b6101dc61056a366004612b25565b611892565b34801561057b57600080fd5b506101dc611aa9565b34801561059057600080fd5b50610599611ae9565b604080519889526001600160a01b0397881660208a015296909516958701959095526060860192909252608085015260a08401526001600160801b0391821660c08401521660e082015261010001610205565b3480156105f857600080fd5b50610242610607366004612b25565b611d10565b34801561061857600080fd5b506102867f000000000000000000000000000000000000000000000000000000000000000081565b34801561064c57600080fd5b506101dc611d31565b61065d611dc0565b6000828152600460208181526040928390208351610100808201865282548252600183015493820193909352600282015494810194909452600381015460608501529182015460ff80821660808601526001600160a01b0392909104821660a085015260059092015490811660c0840152600160a01b900416151560e0820152734dca189d7fb51d9cc375e4d697e5800c5d21ff879063d4ce9333906107039085611dea565b8433856040518563ffffffff1660e01b81526004016107259493929190612ce5565b61010060405180830381865af4158015610743573d6000803e3d6000fd5b505050506040513d601f19601f820116820180604052508101906107679190612e06565b60008381526004602081815260409283902084518155908401516001820155918301516002830155606083015160038301556080830151908201805460a08501516001600160a01b03908116610100026001600160a81b031992831660ff909516949094179390931790915560c08401516005909301805460e0909501511515600160a01b0294909116929091169190911791909117905561080860018055565b5050565b610814611dc0565b336001600160a01b037f0000000000000000000000000000000000000000000000000000000000000000161461085d57604051631172e7cd60e01b815260040160405180910390fd5b60008181526004602081815260408084208151610100808201845282548252600183015494820194909452600282015492810192909252600381015460608301529283015460ff80821660808401529290046001600160a01b0390811660a083015260059093015492831660c0820152600160a01b90920416151560e08201526108e79083611dea565b604081015190915061092461091e8385847f0000000000000000000000000000000000000000000000000000000000000000611e96565b84611f1d565b60008481526004602081815260409283902084518155908401516001820155918301516002830155606083015160038301556080830151908201805460a08501516001600160a01b03908116610100026001600160a81b031992831660ff909516949094179390931790915560c08401516005909301805460e0909501511515600160a01b02949091169290911691909117919091179055506109c8905060018055565b50565b6000600160055460ff1660048111156109e6576109e6612ae7565b10156109f157600080fd5b610a016109fc6120de565b6121af565b905090565b600080610a11612247565b915091509091565b604051631272aa3360e11b815260036004820152739cbe9741b3503a790e69e1587b5d51c0056154dc906324e5546690602401602060405180830381865af4158015610a69573d6000803e3d6000fd5b505050506040513d601f19601f820116820180604052508101906109c89190612e23565b6000818152600460205260408120600181015490548291610aad91612e54565b600093845260046020526040909320600301549293915050565b610acf611dc0565b600160055460ff166004811115610ae857610ae8612ae7565b14610b0657604051634065aaf160e11b815260040160405180910390fd5b336001600160a01b037f00000000000000000000000000000000000000000000000000000000000000001614610b4f57604051631172e7cd60e01b815260040160405180910390fd5b60008281526004602081815260408084208151610100808201845282548252600183015494820194909452600282015492810192909252600381015460608301529283015460ff80821660808401529290046001600160a01b0390811660a083015260059093015492831660c0820152600160a01b90920416151560e0820152610bd99084611dea565b90508060e00151610bfd5760405163d320557760e01b815260040160405180910390fd5b60208101518151610c0e9190612e54565b821115610c2e57604051636180f03f60e11b815260040160405180910390fd5b8181602001818151610c409190612e67565b9052506000838152600460208181526040928390208451815590840151600180830191909155928401516002820155606084015160038201556080840151918101805460a08601516001600160a01b03908116610100026001600160a81b031992831660ff909616959095179490941790915560c08501516005909201805460e08701511515600160a01b0292169290931691909117179055610ce46109fc6120de565b6004811115610cf557610cf5612ae7565b14610d1357604051636b263a7560e01b815260040160405180910390fd5b60a081015160405163d55fad0560e01b81526001600160a01b0391821660048201527f00000000000000000000000000000000000000000000000000000000000000009091166024820152604481018390527373cb72a7efaddd99cdd2d110e2f4b8b65bf3b8129063d55fad0590606401602060405180830381865af4158015610da1573d6000803e3d6000fd5b505050506040513d601f19601f82011682018060405250810190610dc59190612e23565b50604051829084907f23a87b7444856c0a68cbd431aaafca806284c2bd83791d761cc6adb66f92075990600090a3610dfc83612430565b5061080860018055565b60008181526004602081905260408083209051631ebff4d960e11b8152734dca189d7fb51d9cc375e4d697e5800c5d21ff8792633d7fe9b292610e6f92909187917f00000000000000000000000000000000000000000000000000000000000000009101612eeb565b602060405180830381865af4158015610e8c573d6000803e3d6000fd5b505050506040513d601f19601f82011682018060405250810190610eb09190612f1b565b92915050565b610ebe611dc0565b6002541580610f015750600460006003600081548110610ee057610ee0612f34565b90600052602060002001548152602001908152602001600020600101546000145b15610f1f5760405163e0d00bd360e01b815260040160405180910390fd5b336001600160a01b037f00000000000000000000000000000000000000000000000000000000000000001614610f6857604051631172e7cd60e01b815260040160405180910390fd5b60006003600081548110610f7e57610f7e612f34565b6000918252602080832090910154808352600480835260408085208151610100808201845282548252600183015496820196909652600282015492810192909252600381015460608301529182015460ff80821660808401526001600160a01b0395909104851660a083015260059092015493841660c0820152600160a01b90930416151560e083015292506110149083611dea565b905060008160400151826020015161102c9190612e67565b905061105d61091e8385847f0000000000000000000000000000000000000000000000000000000000000000611e96565b60009384526004602081815260409586902083518155908301516001820155948201516002860155606082015160038601556080820151908501805460a08401516001600160a01b03908116610100026001600160a81b031992831660ff909516949094179390931790915560c08301516005909601805460e0909401511515600160a01b0293909116959091169490941717909255506110ff905060018055565b565b60a48111806111105750600481105b1561112e57604051632c9dd1c960e01b815260040160405180910390fd5b600082823360405160200161114593929190612f4a565b60408051601f1981840301815291815281516020928301206000818152928390529120549091506001600160a01b03168061119357604051630df0f4e960e41b815260040160405180910390fd5b6001600160a01b03811633146111bc5760405163110dc63f60e01b815260040160405180910390fd5b6000828152602081815260409182902080546001600160a01b031916905590518381527f2d8bff7bc81a295ee86f540e195478665ae7503c42e2fe02600843e860a1d9db910160405180910390a150505050565b6003546000805b8281101561136d576003818154811061123257611232612f34565b600091825260208083209091015480835260048083526040938490208451610100808201875282548252600183015495820195909552600282015495810195909552600381015460608601529081015460ff80821660808701526001600160a01b0394909104841660a086015260059091015492831660c0850152600160a01b909204909116151560e083015292506112cb8184611dea565b60008481526004602081815260409283902084518155908401516001820155918301516002830155606083015160038301556080830151908201805460a085015160ff9093166001600160a81b0319918216176101006001600160a01b03948516021790915560c08401516005909301805460e09095015193909216931692909217600160a01b911515919091021790555061136681612f70565b9050611217565b505050565b60008381526004602052604090206005015483906113ba907f0000000000000000000000000000000000000000000000000000000000000000906001600160a01b0316612574565b156114e5576000848152600460208181526040928390208351610100808201865282548252600183015493820193909352600282015494810194909452600381015460608501529182015460ff80821660808601526001600160a01b0392909104821660a085015260059092015490811660c0840152600160a01b900416151560e08201526114499085611dea565b60008581526004602081815260409283902084518155908401516001820155918301516002830155606083015160038301556080830151908201805460a085015160ff9093166001600160a81b0319918216176101006001600160a01b03948516021790915560c08401516005909301805460e09095015193909216931692909217600160a01b911515919091021790556114e58484846126fe565b50505050565b6114f3611dc0565b600160055460ff16600481111561150c5761150c612ae7565b1461152a57604051634065aaf160e11b815260040160405180910390fd5b6000828152600460205260409020600501548290611572907f0000000000000000000000000000000000000000000000000000000000000000906001600160a01b0316612574565b15610dfc5760008381526004602081815260408084208151610100808201845282548252600183015494820194909452600282015492810192909252600381015460608301529283015460ff80821660808401529290046001600160a01b0390811660a083015260059093015492831660c0820152600160a01b90920416151560e08201526116019085611dea565b905082816000018181516116159190612e67565b90525060008481526004602081815260409283902084518155908401516001820155838301516002820155606084015160038201556080840151818301805460a08701516001600160a01b0390811661010081026001600160a81b031993841660ff909616959095179490941790925560c08701516005909401805460e08901511515600160a01b02921694909216938417179055925162f6020f60e71b8152918201929092526024810191909152604481018490527373cb72a7efaddd99cdd2d110e2f4b8b65bf3b81290637b01078090606401602060405180830381865af4158015611707573d6000803e3d6000fd5b505050506040513d601f19601f8201168201806040525081019061172b9190612e23565b50604051839085907f12a48a2aa5f96e98f382b97b87c5f26c4fa0811d2dc20810972985835540286f90600090a3505061080860018055565b600061176e611dc0565b600160055460ff16600481111561178757611787612ae7565b146117a557604051634065aaf160e11b815260040160405180910390fd5b817f00000000000000000000000000000000000000000000000000000000000000006117d18282612574565b1561187e5760006117e38587896127e7565b90506117f0818a8a6126fe565b60405162f6020f60e71b81526001600160a01b03808816600483015286166024820152604481018890527373cb72a7efaddd99cdd2d110e2f4b8b65bf3b81290637b01078090606401602060405180830381865af4158015611856573d6000803e3d6000fd5b505050506040513d601f19601f8201168201806040525081019061187a9190612e23565b5092505b505061188960018055565b95945050505050565b61189a611dc0565b60025415806118dd57506004600060036000815481106118bc576118bc612f34565b90600052602060002001548152602001908152602001600020600101546000145b156118fb5760405163e0d00bd360e01b815260040160405180910390fd5b6000600360008154811061191157611911612f34565b6000918252602080832090910154808352600480835260408085208151610100808201845282548252600183015496820196909652600282015492810192909252600381015460608301529182015460ff80821660808401526001600160a01b0395909104851660a083015260059092015493841660c0820152600160a01b90930416151560e083015292506119a79083611dea565b9050806040015181602001516119bd9190612e67565b8311156119fd57806040015181602001516119d89190612e67565b6040516373a50fb160e01b81526004016119f491815260200190565b60405180910390fd5b611a0981838533611e96565b60009283526004602081815260409485902083518155908301516001820155938201516002850155606082015160038501556080820151908401805460a08401516001600160a01b03908116610100026001600160a81b031992831660ff909516949094179390931790915560c08301516005909501805460e0909401511515600160a01b0293909116949091169390931717909155506109c860018055565b600060055460ff166004811115611ac257611ac2612ae7565b14611adf5760405162dc149f60e41b815260040160405180910390fd5b6109c860016121af565b60008060008060008060008060006003600081548110611b0b57611b0b612f34565b6000918252602080832091909101548083526004808352604080852081516101008082018452825482526001830154968201879052600283015482850152600383015460608301528285015460ff80821660808501529190046001600160a01b0390811660a084015260059093015480841660c0840152600160a01b900416151560e0820152915163cc280aaf60e01b815292830194909452602482018390527f000000000000000000000000000000000000000000000000000000000000000090931660448201529093509091908190734dca189d7fb51d9cc375e4d697e5800c5d21ff879063cc280aaf906064016040805180830381865af4158015611c17573d6000803e3d6000fd5b505050506040513d601f19601f82011682018060405250810190611c3b9190612f89565b91509150838360c001518460a0015185602001518660000151734dca189d7fb51d9cc375e4d697e5800c5d21ff87633d7fe9b2898b7f00000000000000000000000000000000000000000000000000000000000000006040518463ffffffff1660e01b8152600401611caf93929190612fc3565b602060405180830381865af4158015611ccc573d6000803e3d6000fd5b505050506040513d601f19601f82011682018060405250810190611cf09190612f1b565b87879b509b509b509b509b509b509b509b50505050509091929394959697565b60038181548110611d2057600080fd5b600091825260209091200154905081565b7f00000000000000000000000000000000000000000000000000000000000000006001600160a01b03163314611d7a57604051631172e7cd60e01b815260040160405180910390fd5b611d856109fc6120de565b6004811115611d9657611d96612ae7565b600214611db657604051636ef5bcdd60e11b815260040160405180910390fd5b6109c860046121af565b600260015403611de357604051633ee5aeb560e01b815260040160405180910390fd5b6002600155565b611df2612a69565b604051634a4b6ed160e11b8152734dca189d7fb51d9cc375e4d697e5800c5d21ff8790639496dda290611e4d90869086907f000000000000000000000000000000000000000000000000000000000000000090600401612fc3565b61010060405180830381865af4158015611e6b573d6000803e3d6000fd5b505050506040513d601f19601f82011682018060405250810190611e8f9190612e06565b9392505050565b611e9e612a69565b60405163d7c637c960e01b8152734dca189d7fb51d9cc375e4d697e5800c5d21ff879063d7c637c990611edb908890889088908890600401612fd2565b61010060405180830381865af4158015611ef9573d6000803e3d6000fd5b505050506040513d601f19601f820116820180604052508101906118899190612e06565b611f25612a69565b8260e00151611f475760405163d320557760e01b815260040160405180910390fd5b602083015115611f6a5760405163131689dd60e01b815260040160405180910390fd5b600060e08401526040516299c7a960e21b81526003600482015260248101839052739cbe9741b3503a790e69e1587b5d51c0056154dc906302671ea490604401602060405180830381865af4158015611fc7573d6000803e3d6000fd5b505050506040513d601f19601f82011682018060405250810190611feb9190612e23565b506000801b600360008154811061200457612004612f34565b90600052602060002001540361208a57604051631272aa3360e11b815260036004820152739cbe9741b3503a790e69e1587b5d51c0056154dc906324e5546690602401602060405180830381865af4158015612064573d6000803e3d6000fd5b505050506040513d601f19601f820116820180604052508101906120889190612e23565b505b6002805460001981019091556000036001016120ac576120aa60036121af565b505b60405182907f7a6d4520711ed1189e0417ec7e099096e5ac3c188863274446a6d3dafded499890600090a25090919050565b60055460009060ff1660038160048111156120fb576120fb612ae7565b14806121185750600481600481111561211657612116612ae7565b145b1561212257919050565b7f00000000000000000000000000000000000000000000000000000000000000004210158015612153575060025415155b156121a757600360008154811061216c5761216c612f34565b600091825260208220015460405190917f02a583914117d56eb883091ec1c35f0dfc356386054377ef6914e54eac90fe7c91a2600291505090565b600191505090565b60008160048111156121c3576121c3612ae7565b60055460ff1660048111156121da576121da612ae7565b036121e3575090565b8160048111156121f5576121f5612ae7565b6040517f2125b4f86fd7a6a349e4e174a768e7c98ec9b7d124822556b128e40a16b642f790600090a26005805483919060ff1916600183600481111561223d5761223d612ae7565b0217905592915050565b600354600090819080820361226157506000928392509050565b6000805b82811015612429576003818154811061228057612280612f34565b600091825260209091200154915081156124195760008281526004602081905260408083209051636b579f7b60e11b815283928392734dca189d7fb51d9cc375e4d697e5800c5d21ff879263d6af3ef69261232292918a917f0000000000000000000000000000000000000000000000000000000000000000917f00000000000000000000000000000000000000000000000000000000000000009101613008565b61014060405180830381865af4158015612340573d6000803e3d6000fd5b505050506040513d601f19601f82011682018060405250810190612364919061303f565b919450925090506123758289612e67565b97506123818188612e67565b60008681526004602081815260409283902087518155908701516001820155918601516002830155606086015160038301556080860151908201805460a088015160ff9093166001600160a81b0319918216176101006001600160a01b03948516021790915560c08701516005909301805460e09098015193909216961695909517600160a01b911515919091021790935550909450505b61242281612f70565b9050612265565b5050509091565b60035460009061244290600190612e54565b9050806000805b83811161256d576003818154811061246357612463612f34565b906000526020600020015491508185146124ab578115806124845750838314155b8061249f575060008281526004602052604090206001015415155b61255d5780925061255d565b8383036124b9575050505050565b6000600384815481106124ce576124ce612f34565b9060005260206000200154905080600383815481106124ef576124ef612f34565b9060005260206000200181905550856003858154811061251157612511612f34565b90600052602060002001819055508184877fee3e50299ece6c644a824740e6a8ff24a83a4b747cbf3796a156def7107a8feb8460405161255391815260200190565b60405180910390a4505b61256681612f70565b9050612449565b5050505050565b6000336001600160a01b038416148015906125985750336001600160a01b03831614155b156125b5576040516282b42960e81b815260040160405180910390fd5b60006125c18484612a4b565b905060008036836040516020016125da93929190612f4a565b60408051601f1981840301815291815281516020928301206000818152928390529120549091506001600160a01b03166126a557600080363360405160200161262593929190612f4a565b60408051601f198184030181528282528051602091820120600081815280835283902080546001600160a01b031916331790558084526001600160a01b0387169184019190915292507f1396bca9f810b74b131a089057c919e38ad204e3df53fec73db0e1f3be4caa0d910160405180910390a160009350505050610eb0565b6000818152602081815260409182902080546001600160a01b031916905590518281527f590cb0fad602b541ce3d8b8de5ea73f5db52e7bafb4fab2595dca5e904009ff1910160405180910390a1506001949350505050565b604051639412647f60e01b8152600481018490526001600160801b038084166024830152821660448201527f00000000000000000000000000000000000000000000000000000000000000006001600160a01b031690639412647f906064016020604051808303816000875af115801561277c573d6000803e3d6000fd5b505050506040513d601f19601f820116820180604052508101906127a09190612e23565b50806001600160801b0316826001600160801b0316847feb29c2b3e23350f884045ab45689641c7503ccc09063055895c6a8edcf0a7ad160405160405180910390a4505050565b6040516310ccadff60e21b81523060048201526001600160a01b03808516602483015283166044820152600090734dca189d7fb51d9cc375e4d697e5800c5d21ff8790634332b7fc90606401602060405180830381865af4158015612850573d6000803e3d6000fd5b505050506040513d601f19601f820116820180604052508101906128749190612f1b565b6000818152600460205260409020600501549091506001600160a01b0316156128b05760405163384e583f60e11b815260040160405180910390fd5b60405163beccf5db60e01b815260048101829052602481018390526001600160a01b03808616604483015280851660648301527f0000000000000000000000000000000000000000000000000000000000000000166084820152734dca189d7fb51d9cc375e4d697e5800c5d21ff879063beccf5db9060a40161010060405180830381865af4158015612947573d6000803e3d6000fd5b505050506040513d601f19601f8201168201806040525081019061296b9190612e06565b600082815260046020818152604080842085518155918501516001808401919091559085015160028084019190915560608601516003808501919091556080870151948401805460a08901516001600160a01b03908116610100026001600160a81b031992831660ff909916989098179790971790915560c08801516005909501805460e0909901511515600160a01b02989091169490951693909317959095179092558054808301825592527fc2575a0e9e593c00f959f8c92f12db2869c3395a3b0502d05e2516446f71f85b90910183905581540190559392505050565b6000336001600160a01b03841614612a635782611e8f565b50919050565b60405180610100016040528060008152602001600081526020016000815260200160008152602001600060ff16815260200160006001600160a01b0316815260200160006001600160a01b031681526020016000151581525090565b60008060408385031215612ad857600080fd5b50508035926020909101359150565b634e487b7160e01b600052602160045260246000fd5b6020810160058310612b1f57634e487b7160e01b600052602160045260246000fd5b91905290565b600060208284031215612b3757600080fd5b5035919050565b60008060208385031215612b5157600080fd5b823567ffffffffffffffff80821115612b6957600080fd5b818501915085601f830112612b7d57600080fd5b813581811115612b8c57600080fd5b866020828501011115612b9e57600080fd5b60209290920196919550909350505050565b6001600160801b03811681146109c857600080fd5b600080600060608486031215612bda57600080fd5b833592506020840135612bec81612bb0565b91506040840135612bfc81612bb0565b809150509250925092565b6001600160a01b03811681146109c857600080fd5b600080600080600060a08688031215612c3457600080fd5b8535612c3f81612bb0565b94506020860135612c4f81612bb0565b9350604086013592506060860135612c6681612c07565b91506080860135612c7681612c07565b809150509295509295909350565b8051825260208101516020830152604081015160408301526060810151606083015260ff608082015116608083015260a081015160018060a01b0380821660a08501528060c08401511660c0850152505060e0810151151560e08301525050565b6101608101612cf48287612c84565b6101008201949094526001600160a01b039290921661012083015261014090910152919050565b805160ff81168114612d2c57600080fd5b919050565b8051612d2c81612c07565b80518015158114612d2c57600080fd5b6000610100808385031215612d6057600080fd5b6040519081019067ffffffffffffffff82118183101715612d9157634e487b7160e01b600052604160045260246000fd5b8160405280925083518152602084015160208201526040840151604082015260608401516060820152612dc660808501612d1b565b6080820152612dd760a08501612d31565b60a0820152612de860c08501612d31565b60c0820152612df960e08501612d3c565b60e0820152505092915050565b60006101008284031215612e1957600080fd5b611e8f8383612d4c565b600060208284031215612e3557600080fd5b611e8f82612d3c565b634e487b7160e01b600052601160045260246000fd5b81810381811115610eb057610eb0612e3e565b80820180821115610eb057610eb0612e3e565b80548252600181015460208301526002810154604083015260038101546060830152600481015460ff811660808401526001600160a01b03600882901c811660a085015260058301546001600160a01b038282161660c086015291505061136d60e0840160ff8360a01c1615159052565b6101408101612efa8286612e7a565b6101008201939093526001600160a01b039190911661012090910152919050565b600060208284031215612f2d57600080fd5b5051919050565b634e487b7160e01b600052603260045260246000fd5b8284823760609190911b6bffffffffffffffffffffffff19169101908152601401919050565b600060018201612f8257612f82612e3e565b5060010190565b60008060408385031215612f9c57600080fd5b8251612fa781612bb0565b6020840151909250612fb881612bb0565b809150509250929050565b6101408101612efa8286612c84565b6101608101612fe18287612c84565b6101008201949094526101208101929092526001600160a01b031661014090910152919050565b61016081016130178287612e7a565b6101008201949094526001600160a01b03928316610120820152911661014090910152919050565b6000806000610140848603121561305557600080fd5b61305f8585612d4c565b925061010084015191506101208401519050925092509256fea2646970667358221220ecb3946afb3e0b5f783ee4976d43fa903e0b3bdea643b44604743e69c1d0f71964736f6c6343000814003360a060405234801561001057600080fd5b50336080526080516104ff6100376000396000818161017c015261023a01526104ff6000f3fe608060405234801561001057600080fd5b50600436106100575760003560e01c80637443c9071461005c5780639412647f146100b6578063b6973283146100d9578063c6198352146100fa578063dc7262051461010d575b600080fd5b61009161006a36600461036c565b6000908152602081905260409020546001600160801b0380821692600160801b9092041690565b604080516001600160801b039384168152929091166020830152015b60405180910390f35b6100c96100c43660046103a1565b61016f565b60405190151581526020016100ad565b6100ec6100e73660046103dd565b610218565b6040519081526020016100ad565b6100ec6101083660046103dd565b61022d565b61014961011b36600461036c565b600060208190529081526040902080546001909101546001600160801b0380831692600160801b9004169083565b604080516001600160801b039485168152939092166020840152908201526060016100ad565b6000336001600160a01b037f000000000000000000000000000000000000000000000000000000000000000016146101c25760405162461bcd60e51b81526004016101b990610409565b60405180910390fd5b50604080516060810182526001600160801b038085168252838116602080840191825242848601908152600089815291829052949020925190518216600160801b02911617815590516001918201559392505050565b60006102258484846102a0565b949350505050565b6000336001600160a01b037f000000000000000000000000000000000000000000000000000000000000000016146102775760405162461bcd60e51b81526004016101b990610409565b6102828484846102a0565b60009485526020859052604090942042600190910155509192915050565b600083815260208181526040808320815160608101835281546001600160801b038082168352600160801b90910416938101939093526001015490820181905282906102ec9042610464565b905061031182602001516001600160801b0316868661030b9190610464565b8361033b565b8251610327906001600160801b0316878461033b565b610331919061047d565b9695505050505050565b600061034d6127106301e187e0610490565b826103588587610490565b6103629190610490565b61022591906104a7565b60006020828403121561037e57600080fd5b5035919050565b80356001600160801b038116811461039c57600080fd5b919050565b6000806000606084860312156103b657600080fd5b833592506103c660208501610385565b91506103d460408501610385565b90509250925092565b6000806000606084860312156103f257600080fd5b505081359360208301359350604090920135919050565b60208082526025908201527f496e74657265737452617465437265643a206f6e6c79206c696e6520636f6e746040820152643930b1ba1760d91b606082015260800190565b634e487b7160e01b600052601160045260246000fd5b818103818111156104775761047761044e565b92915050565b808201808211156104775761047761044e565b80820281158282048414176104775761047761044e565b6000826104c457634e487b7160e01b600052601260045260246000fd5b50049056fea2646970667358221220cc319329f225bb958bcd4f2ad83f42002b262e8b8c6bfae743f6187613790f3964736f6c63430008140033","linkReferences":{}},"methodIdentifiers":{"accrueInterest()":"a6afed95","addCredit(uint128,uint128,uint256,address,address)":"cb836209","arbiter()":"fe25e00a","available(bytes32)":"6932854f","borrow(bytes32,uint256)":"7c93ec30","borrower()":"7df1f1b9","close(bytes32)":"39c79e0c","counts()":"817cc1ea","credits(bytes32)":"42997913","deadline()":"29dcb0cf","declareInsolvent()":"feccf26f","depositAndClose()":"7eef544d","depositAndRepay(uint256)":"dfe96083","healthcheck()":"4f42fc02","ids(uint256)":"fac333ac","increaseCredit(bytes32,uint256)":"c3651574","init()":"e1c7392a","interestAccrued(bytes32)":"7df33c20","interestRate()":"7c3a00fd","mutualConsentProposals(bytes32)":"38deee8f","nextInQ()":"e701af99","oracle()":"7dc0d1d0","revokeConsent(bytes)":"a4e7d38f","setRates(bytes32,uint128,uint128)":"ac856fac","status()":"200d2ed2","stepQ()":"62bfcc68","updateOutstandingDebt()":"501b56d8","withdraw(bytes32,uint256)":"040cf020"},"id":28}