{"abi":[{"type":"constructor","inputs":[{"name":"oracle_","type":"address","internalType":"address"},{"name":"arbiter_","type":"address","internalType":"address"},{"name":"borrower_","type":"address","internalType":"address"},{"name":"spigot_","type":"address","internalType":"address"},{"name":"swapTarget_","type":"address","internalType":"address payable"},{"name":"ttl_","type":"uint256","internalType":"uint256"},{"name":"defaultRevenueSplit_","type":"uint8","internalType":"uint8"}],"stateMutability":"nonpayable"},{"type":"receive","stateMutability":"payable"},{"type":"function","name":"accrueInterest","inputs":[],"outputs":[],"stateMutability":"nonpayable"},{"type":"function","name":"addCredit","inputs":[{"name":"drate","type":"uint128","internalType":"uint128"},{"name":"frate","type":"uint128","internalType":"uint128"},{"name":"amount","type":"uint256","internalType":"uint256"},{"name":"token","type":"address","internalType":"address"},{"name":"lender","type":"address","internalType":"address"}],"outputs":[{"name":"","type":"bytes32","internalType":"bytes32"}],"stateMutability":"payable"},{"type":"function","name":"addSpigot","inputs":[{"name":"revenueContract","type":"address","internalType":"address"},{"name":"setting","type":"tuple","internalType":"struct ISpigot.Setting","components":[{"name":"ownerSplit","type":"uint8","internalType":"uint8"},{"name":"claimFunction","type":"bytes4","internalType":"bytes4"},{"name":"transferOwnerFunction","type":"bytes4","internalType":"bytes4"}]}],"outputs":[{"name":"","type":"bool","internalType":"bool"}],"stateMutability":"nonpayable"},{"type":"function","name":"arbiter","inputs":[],"outputs":[{"name":"","type":"address","internalType":"address"}],"stateMutability":"view"},{"type":"function","name":"available","inputs":[{"name":"id","type":"bytes32","internalType":"bytes32"}],"outputs":[{"name":"","type":"uint256","internalType":"uint256"},{"name":"","type":"uint256","internalType":"uint256"}],"stateMutability":"view"},{"type":"function","name":"borrow","inputs":[{"name":"id","type":"bytes32","internalType":"bytes32"},{"name":"amount","type":"uint256","internalType":"uint256"}],"outputs":[],"stateMutability":"nonpayable"},{"type":"function","name":"borrower","inputs":[],"outputs":[{"name":"","type":"address","internalType":"address"}],"stateMutability":"view"},{"type":"function","name":"claimAndRepay","inputs":[{"name":"claimToken","type":"address","internalType":"address"},{"name":"zeroExTradeData","type":"bytes","internalType":"bytes"}],"outputs":[{"name":"","type":"uint256","internalType":"uint256"}],"stateMutability":"nonpayable"},{"type":"function","name":"claimAndTrade","inputs":[{"name":"claimToken","type":"address","internalType":"address"},{"name":"zeroExTradeData","type":"bytes","internalType":"bytes"}],"outputs":[{"name":"","type":"uint256","internalType":"uint256"}],"stateMutability":"nonpayable"},{"type":"function","name":"close","inputs":[{"name":"id","type":"bytes32","internalType":"bytes32"}],"outputs":[],"stateMutability":"payable"},{"type":"function","name":"counts","inputs":[],"outputs":[{"name":"","type":"uint256","internalType":"uint256"},{"name":"","type":"uint256","internalType":"uint256"}],"stateMutability":"view"},{"type":"function","name":"credits","inputs":[{"name":"","type":"bytes32","internalType":"bytes32"}],"outputs":[{"name":"deposit","type":"uint256","internalType":"uint256"},{"name":"principal","type":"uint256","internalType":"uint256"},{"name":"interestAccrued","type":"uint256","internalType":"uint256"},{"name":"interestRepaid","type":"uint256","internalType":"uint256"},{"name":"decimals","type":"uint8","internalType":"uint8"},{"name":"token","type":"address","internalType":"address"},{"name":"lender","type":"address","internalType":"address"},{"name":"isOpen","type":"bool","internalType":"bool"}],"stateMutability":"view"},{"type":"function","name":"deadline","inputs":[],"outputs":[{"name":"","type":"uint256","internalType":"uint256"}],"stateMutability":"view"},{"type":"function","name":"declareInsolvent","inputs":[],"outputs":[],"stateMutability":"nonpayable"},{"type":"function","name":"defaultRevenueSplit","inputs":[],"outputs":[{"name":"","type":"uint8","internalType":"uint8"}],"stateMutability":"view"},{"type":"function","name":"depositAndClose","inputs":[],"outputs":[],"stateMutability":"payable"},{"type":"function","name":"depositAndRepay","inputs":[{"name":"amount","type":"uint256","internalType":"uint256"}],"outputs":[],"stateMutability":"payable"},{"type":"function","name":"healthcheck","inputs":[],"outputs":[{"name":"","type":"uint8","internalType":"enum LineLib.STATUS"}],"stateMutability":"nonpayable"},{"type":"function","name":"ids","inputs":[{"name":"","type":"uint256","internalType":"uint256"}],"outputs":[{"name":"","type":"bytes32","internalType":"bytes32"}],"stateMutability":"view"},{"type":"function","name":"increaseCredit","inputs":[{"name":"id","type":"bytes32","internalType":"bytes32"},{"name":"amount","type":"uint256","internalType":"uint256"}],"outputs":[],"stateMutability":"payable"},{"type":"function","name":"init","inputs":[],"outputs":[],"stateMutability":"nonpayable"},{"type":"function","name":"interestAccrued","inputs":[{"name":"id","type":"bytes32","internalType":"bytes32"}],"outputs":[{"name":"","type":"uint256","internalType":"uint256"}],"stateMutability":"view"},{"type":"function","name":"interestRate","inputs":[],"outputs":[{"name":"","type":"address","internalType":"contract InterestRateCredit"}],"stateMutability":"view"},{"type":"function","name":"mutualConsentProposals","inputs":[{"name":"","type":"bytes32","internalType":"bytes32"}],"outputs":[{"name":"","type":"address","internalType":"address"}],"stateMutability":"view"},{"type":"function","name":"nextInQ","inputs":[],"outputs":[{"name":"","type":"bytes32","internalType":"bytes32"},{"name":"","type":"address","internalType":"address"},{"name":"","type":"address","internalType":"address"},{"name":"","type":"uint256","internalType":"uint256"},{"name":"","type":"uint256","internalType":"uint256"},{"name":"","type":"uint256","internalType":"uint256"},{"name":"","type":"uint128","internalType":"uint128"},{"name":"","type":"uint128","internalType":"uint128"}],"stateMutability":"view"},{"type":"function","name":"oracle","inputs":[],"outputs":[{"name":"","type":"address","internalType":"contract IOracle"}],"stateMutability":"view"},{"type":"function","name":"releaseSpigot","inputs":[{"name":"to","type":"address","internalType":"address"}],"outputs":[{"name":"","type":"bool","internalType":"bool"}],"stateMutability":"nonpayable"},{"type":"function","name":"revokeConsent","inputs":[{"name":"_reconstrucedMsgData","type":"bytes","internalType":"bytes"}],"outputs":[],"stateMutability":"nonpayable"},{"type":"function","name":"setRates","inputs":[{"name":"id","type":"bytes32","internalType":"bytes32"},{"name":"drate","type":"uint128","internalType":"uint128"},{"name":"frate","type":"uint128","internalType":"uint128"}],"outputs":[],"stateMutability":"nonpayable"},{"type":"function","name":"spigot","inputs":[],"outputs":[{"name":"","type":"address","internalType":"contract ISpigot"}],"stateMutability":"view"},{"type":"function","name":"status","inputs":[],"outputs":[{"name":"","type":"uint8","internalType":"enum LineLib.STATUS"}],"stateMutability":"view"},{"type":"function","name":"stepQ","inputs":[],"outputs":[],"stateMutability":"nonpayable"},{"type":"function","name":"swapTarget","inputs":[],"outputs":[{"name":"","type":"address","internalType":"address payable"}],"stateMutability":"view"},{"type":"function","name":"sweep","inputs":[{"name":"to","type":"address","internalType":"address"},{"name":"token","type":"address","internalType":"address"},{"name":"amount","type":"uint256","internalType":"uint256"}],"outputs":[{"name":"","type":"uint256","internalType":"uint256"}],"stateMutability":"nonpayable"},{"type":"function","name":"tradeable","inputs":[{"name":"token","type":"address","internalType":"address"}],"outputs":[{"name":"","type":"uint256","internalType":"uint256"}],"stateMutability":"view"},{"type":"function","name":"unused","inputs":[{"name":"token","type":"address","internalType":"address"}],"outputs":[{"name":"","type":"uint256","internalType":"uint256"}],"stateMutability":"view"},{"type":"function","name":"updateOutstandingDebt","inputs":[],"outputs":[{"name":"","type":"uint256","internalType":"uint256"},{"name":"","type":"uint256","internalType":"uint256"}],"stateMutability":"nonpayable"},{"type":"function","name":"updateOwnerSplit","inputs":[{"name":"revenueContract","type":"address","internalType":"address"}],"outputs":[{"name":"","type":"bool","internalType":"bool"}],"stateMutability":"nonpayable"},{"type":"function","name":"updateWhitelist","inputs":[{"name":"func","type":"bytes4","internalType":"bytes4"},{"name":"allowed","type":"bool","internalType":"bool"}],"outputs":[{"name":"","type":"bool","internalType":"bool"}],"stateMutability":"nonpayable"},{"type":"function","name":"useAndRepay","inputs":[{"name":"amount","type":"uint256","internalType":"uint256"}],"outputs":[{"name":"","type":"bool","internalType":"bool"}],"stateMutability":"nonpayable"},{"type":"function","name":"withdraw","inputs":[{"name":"id","type":"bytes32","internalType":"bytes32"},{"name":"amount","type":"uint256","internalType":"uint256"}],"outputs":[],"stateMutability":"nonpayable"},{"type":"event","name":"AddCredit","inputs":[{"name":"lender","type":"address","indexed":true,"internalType":"address"},{"name":"token","type":"address","indexed":true,"internalType":"address"},{"name":"deposit","type":"uint256","indexed":true,"internalType":"uint256"},{"name":"id","type":"bytes32","indexed":false,"internalType":"bytes32"}],"anonymous":false},{"type":"event","name":"Borrow","inputs":[{"name":"id","type":"bytes32","indexed":true,"internalType":"bytes32"},{"name":"amount","type":"uint256","indexed":true,"internalType":"uint256"}],"anonymous":false},{"type":"event","name":"CloseCreditPosition","inputs":[{"name":"id","type":"bytes32","indexed":true,"internalType":"bytes32"}],"anonymous":false},{"type":"event","name":"Default","inputs":[{"name":"id","type":"bytes32","indexed":true,"internalType":"bytes32"}],"anonymous":false},{"type":"event","name":"DeployLine","inputs":[{"name":"oracle","type":"address","indexed":true,"internalType":"address"},{"name":"arbiter","type":"address","indexed":true,"internalType":"address"},{"name":"borrower","type":"address","indexed":true,"internalType":"address"}],"anonymous":false},{"type":"event","name":"IncreaseCredit","inputs":[{"name":"id","type":"bytes32","indexed":true,"internalType":"bytes32"},{"name":"deposit","type":"uint256","indexed":true,"internalType":"uint256"}],"anonymous":false},{"type":"event","name":"InterestAccrued","inputs":[{"name":"id","type":"bytes32","indexed":true,"internalType":"bytes32"},{"name":"amount","type":"uint256","indexed":true,"internalType":"uint256"}],"anonymous":false},{"type":"event","name":"MutualConsentAccepted","inputs":[{"name":"proposalId","type":"bytes32","indexed":false,"internalType":"bytes32"}],"anonymous":false},{"type":"event","name":"MutualConsentRegistered","inputs":[{"name":"proposalId","type":"bytes32","indexed":false,"internalType":"bytes32"},{"name":"taker","type":"address","indexed":false,"internalType":"address"}],"anonymous":false},{"type":"event","name":"MutualConsentRevoked","inputs":[{"name":"proposalId","type":"bytes32","indexed":false,"internalType":"bytes32"}],"anonymous":false},{"type":"event","name":"RepayInterest","inputs":[{"name":"id","type":"bytes32","indexed":true,"internalType":"bytes32"},{"name":"amount","type":"uint256","indexed":true,"internalType":"uint256"}],"anonymous":false},{"type":"event","name":"RepayPrincipal","inputs":[{"name":"id","type":"bytes32","indexed":true,"internalType":"bytes32"},{"name":"amount","type":"uint256","indexed":true,"internalType":"uint256"}],"anonymous":false},{"type":"event","name":"ReservesChanged","inputs":[{"name":"token","type":"address","indexed":true,"internalType":"address"},{"name":"diff","type":"int256","indexed":true,"internalType":"int256"},{"name":"tokenType","type":"uint256","indexed":false,"internalType":"uint256"}],"anonymous":false},{"type":"event","name":"RevenuePayment","inputs":[{"name":"token","type":"address","indexed":true,"internalType":"address"},{"name":"amount","type":"uint256","indexed":true,"internalType":"uint256"}],"anonymous":false},{"type":"event","name":"SetRates","inputs":[{"name":"id","type":"bytes32","indexed":true,"internalType":"bytes32"},{"name":"dRate","type":"uint128","indexed":true,"internalType":"uint128"},{"name":"fRate","type":"uint128","indexed":true,"internalType":"uint128"}],"anonymous":false},{"type":"event","name":"SortedIntoQ","inputs":[{"name":"id","type":"bytes32","indexed":true,"internalType":"bytes32"},{"name":"newIdx","type":"uint256","indexed":true,"internalType":"uint256"},{"name":"oldIdx","type":"uint256","indexed":true,"internalType":"uint256"},{"name":"oldId","type":"bytes32","indexed":false,"internalType":"bytes32"}],"anonymous":false},{"type":"event","name":"TradeSpigotRevenue","inputs":[{"name":"revenueToken","type":"address","indexed":true,"internalType":"address"},{"name":"revenueTokenAmount","type":"uint256","indexed":false,"internalType":"uint256"},{"name":"debtToken","type":"address","indexed":true,"internalType":"address"},{"name":"debtTokensBought","type":"uint256","indexed":true,"internalType":"uint256"}],"anonymous":false},{"type":"event","name":"UpdateStatus","inputs":[{"name":"status","type":"uint256","indexed":true,"internalType":"uint256"}],"anonymous":false},{"type":"event","name":"WithdrawDeposit","inputs":[{"name":"id","type":"bytes32","indexed":true,"internalType":"bytes32"},{"name":"amount","type":"uint256","indexed":true,"internalType":"uint256"}],"anonymous":false},{"type":"event","name":"WithdrawProfit","inputs":[{"name":"id","type":"bytes32","indexed":true,"internalType":"bytes32"},{"name":"amount","type":"uint256","indexed":true,"internalType":"uint256"}],"anonymous":false},{"type":"error","name":"AlreadyInitialized","inputs":[]},{"type":"error","name":"BadModule","inputs":[{"name":"module","type":"address","internalType":"address"}]},{"type":"error","name":"BorrowFailed","inputs":[]},{"type":"error","name":"CallerAccessDenied","inputs":[]},{"type":"error","name":"CantStepQ","inputs":[]},{"type":"error","name":"CloseFailedWithPrincipal","inputs":[]},{"type":"error","name":"EthSupportDisabled","inputs":[]},{"type":"error","name":"InvalidConsent","inputs":[]},{"type":"error","name":"NoLiquidity","inputs":[]},{"type":"error","name":"NoTokenPrice","inputs":[]},{"type":"error","name":"NonZeroEthValue","inputs":[]},{"type":"error","name":"NotActive","inputs":[]},{"type":"error","name":"NotBorrowing","inputs":[]},{"type":"error","name":"NotInsolvent","inputs":[{"name":"module","type":"address","internalType":"address"}]},{"type":"error","name":"NotLiquidatable","inputs":[]},{"type":"error","name":"NotUserConsent","inputs":[]},{"type":"error","name":"PositionExists","inputs":[]},{"type":"error","name":"PositionIsClosed","inputs":[]},{"type":"error","name":"ReentrancyGuardReentrantCall","inputs":[]},{"type":"error","name":"RepayAmountExceedsDebt","inputs":[{"name":"totalAvailable","type":"uint256","internalType":"uint256"}]},{"type":"error","name":"ReservesOverdrawn","inputs":[{"name":"token","type":"address","internalType":"address"},{"name":"amountAvailable","type":"uint256","internalType":"uint256"}]},{"type":"error","name":"TokenTransferFailed","inputs":[]},{"type":"error","name":"Unauthorized","inputs":[]},{"type":"error","name":"UnsupportedMutualConsentFunction","inputs":[]}],"bytecode":{"object":"0x6101806040523480156200001257600080fd5b506040516200509538038062005095833981016040819052620000359162000139565b600180556001600160a01b0380881660e05280871660c052851660a05286868684620000628142620001dd565b608052604051620000739062000112565b604051809103906000f08015801562000090573d6000803e3d6000fd5b506001600160a01b03908116610100526040518382169185811691908716907f823bb3f9854921652e62f2fcf067240bf72adb3bf3717b6e65c78f99df300e5890600090a4505050606460ff831611159050620000ec57600080fd5b6001600160a01b039384166101205260ff16610140525016610160525062000205915050565b6105368062004b5f83390190565b6001600160a01b03811681146200013657600080fd5b50565b600080600080600080600060e0888a0312156200015557600080fd5b8751620001628162000120565b6020890151909750620001758162000120565b6040890151909650620001888162000120565b60608901519095506200019b8162000120565b6080890151909450620001ae8162000120565b60a089015160c08a0151919450925060ff81168114620001cd57600080fd5b8091505092959891949750929550565b80820180821115620001ff57634e487b7160e01b600052601160045260246000fd5b92915050565b60805160a05160c05160e051610100516101205161014051610160516147d56200038a600039600081816106830152612fee01526000818161084201526124340152600081816104de01528181610b1801528181611f1601528181611f6f0152818161240701528181612cd901528181612f2c0152818161301001528181613c6801528181613d0d0152613d510152600081816105a701528181611bf201528181612b5801528181612c1d01528181612e880152818161350d015261393c0152600081816105fb015281816134eb0152613af60152600081816108c801528181610ac301528181610cc1015281816111cf015281816113bb01528181611eb101528181612d2601528181612d890152613d7901526000818161062f01528181610f5d015281816110380152818161139a015281816115c4015281816118ba01528181611ae001528181611ccd01528181611ddc0152818161228a0152818161250c015281816127700152612d05015260008181610314015261333501526147d56000f3fe60806040526004361061024a5760003560e01c80637df1f1b911610139578063b57cb9fc116100b6578063e701af991161007a578063e701af99146107c8578063e96b496f14610830578063ebb65a0f14610876578063fac333ac14610896578063fe25e00a146108b6578063feccf26f146108ea57600080fd5b8063b57cb9fc1461075a578063c36515741461077a578063cb8362091461078d578063dfe96083146107a0578063e1c7392a146107b357600080fd5b8063921c5fcb116100fd578063921c5fcb146106c55780639637b5d3146106e5578063a4e7d38f14610705578063a6afed9514610725578063ac856fac1461073a57600080fd5b80637df1f1b91461061d5780637df33c20146106515780637e7f0cde146106715780637eef544d146106a5578063817cc1ea146106ad57600080fd5b8063501b56d8116101c757806367828fbd1161018b57806367828fbd146105555780636932854f146105755780637c3a00fd146105955780637c93ec30146105c95780637dc0d1d0146105e957600080fd5b8063501b56d8146104a25780635e235d54146104cc5780635f6187681461050057806362bfcc681461052057806362c067671461053557600080fd5b806338deee8f1161020e57806338deee8f1461033657806339c79e0c146103845780634299791314610397578063461035af146104575780634f42fc021461048d57600080fd5b8063040cf0201461025657806318906bf7146102785780631acb7525146102ad578063200d2ed2146102db57806329dcb0cf1461030257600080fd5b3661025157005b600080fd5b34801561026257600080fd5b50610276610271366004613e7b565b6108ff565b005b34801561028457600080fd5b50610298610293366004613eb2565b610ab6565b60405190151581526020015b60405180910390f35b3480156102b957600080fd5b506102cd6102c8366004613f3c565b610b9b565b6040519081526020016102a4565b3480156102e757600080fd5b506005546102f59060ff1681565b6040516102a49190613fc9565b34801561030e57600080fd5b506102cd7f000000000000000000000000000000000000000000000000000000000000000081565b34801561034257600080fd5b5061036c610351366004613fd7565b6000602081905290815260409020546001600160a01b031681565b6040516001600160a01b0390911681526020016102a4565b610276610392366004613fd7565b610f4a565b3480156103a357600080fd5b5061040b6103b2366004613fd7565b600460208190526000918252604090912080546001820154600283015460038401549484015460059094015492949193909260ff808316926001600160a01b0361010090910481169290811691600160a01b9091041688565b60408051988952602089019790975295870194909452606086019290925260ff1660808501526001600160a01b0390811660a08501521660c0830152151560e0820152610100016102a4565b34801561046357600080fd5b506102cd610472366004613ff0565b6001600160a01b031660009081526006602052604090205490565b34801561049957600080fd5b506102f5611109565b3480156104ae57600080fd5b506104b7611144565b604080519283526020830191909152016102a4565b3480156104d857600080fd5b5061036c7f000000000000000000000000000000000000000000000000000000000000000081565b34801561050c57600080fd5b506102cd61051b366004613f3c565b611157565b34801561052c57600080fd5b506102766112d4565b34801561054157600080fd5b506102cd61055036600461400d565b611348565b34801561056157600080fd5b50610298610570366004613fd7565b6114ba565b34801561058157600080fd5b506104b7610590366004613fd7565b611836565b3480156105a157600080fd5b5061036c7f000000000000000000000000000000000000000000000000000000000000000081565b3480156105d557600080fd5b506102766105e4366004613e7b565b611870565b3480156105f557600080fd5b5061036c7f000000000000000000000000000000000000000000000000000000000000000081565b34801561062957600080fd5b5061036c7f000000000000000000000000000000000000000000000000000000000000000081565b34801561065d57600080fd5b506102cd61066c366004613fd7565b611baf565b34801561067d57600080fd5b5061036c7f000000000000000000000000000000000000000000000000000000000000000081565b610276611c59565b3480156106b957600080fd5b506002546003546104b7565b3480156106d157600080fd5b506102986106e0366004614074565b611ea4565b3480156106f157600080fd5b506102cd610700366004613ff0565b611f4d565b34801561071157600080fd5b506102766107203660046140ab565b611fff565b34801561073157600080fd5b5061027661210e565b34801561074657600080fd5b50610276610755366004614102565b612270565b34801561076657600080fd5b50610298610775366004613ff0565b6123e9565b610276610788366004613e7b565b6124b3565b6102cd61079b366004614144565b61272c565b6102766107ae366004613fd7565b61285a565b3480156107bf57600080fd5b50610276612a4c565b3480156107d457600080fd5b506107dd612a94565b604080519889526001600160a01b0397881660208a015296909516958701959095526060860192909252608085015260a08401526001600160801b0391821660c08401521660e0820152610100016102a4565b34801561083c57600080fd5b506108647f000000000000000000000000000000000000000000000000000000000000000081565b60405160ff90911681526020016102a4565b34801561088257600080fd5b50610298610891366004613ff0565b612cbb565b3480156108a257600080fd5b506102cd6108b1366004613fd7565b612d66565b3480156108c257600080fd5b5061036c7f000000000000000000000000000000000000000000000000000000000000000081565b3480156108f657600080fd5b50610276612d87565b610907612e23565b6000828152600460208181526040928390208351610100808201865282548252600183015493820193909352600282015494810194909452600381015460608501529182015460ff80821660808601526001600160a01b0392909104821660a085015260059092015490811660c0840152600160a01b900416151560e0820152734dca189d7fb51d9cc375e4d697e5800c5d21ff879063d4ce9333906109ad9085612e4d565b8433856040518563ffffffff1660e01b81526004016109cf949392919061420d565b61010060405180830381865af41580156109ed573d6000803e3d6000fd5b505050506040513d601f19601f82011682018060405250810190610a11919061432d565b60008381526004602081815260409283902084518155908401516001820155918301516002830155606083015160038301556080830151908201805460a08501516001600160a01b03908116610100026001600160a81b031992831660ff909516949094179390931790915560c08401516005909301805460e0909501511515600160a01b02949091169290911691909117919091179055610ab260018055565b5050565b6000336001600160a01b037f00000000000000000000000000000000000000000000000000000000000000001614610b0157604051631172e7cd60e01b815260040160405180910390fd5b6040516318906bf760e01b81526001600160a01b037f000000000000000000000000000000000000000000000000000000000000000016906318906bf790610b4f908690869060040161434a565b6020604051808303816000875af1158015610b6e573d6000803e3d6000fd5b505050506040513d601f19601f82011682018060405250810190610b9291906143a7565b90505b92915050565b600060025460001480610be25750600460006003600081548110610bc157610bc16143c4565b90600052602060002001548152602001908152602001600020600101546000145b15610c005760405163e0d00bd360e01b815260040160405180910390fd5b610c08612e23565b60006003600081548110610c1e57610c1e6143c4565b6000918252602080832090910154808352600480835260408085208151610100808201845282548252600183015496820196909652600282015492810192909252600381015460608301529182015460ff80821660808401526001600160a01b0395909104851660a083015260059092015493841660c0820152600160a01b90930416151560e08301529250610cb49083612e4d565b9050336001600160a01b037f00000000000000000000000000000000000000000000000000000000000000001614610cff57604051631172e7cd60e01b815260040160405180910390fd5b6000610d11878360a001518888612ef2565b60a08301516001600160a01b031660009081526006602052604081205491925090610d3c90836143f0565b9050600083602001518460400151610d5491906143f0565b905080821115610d62578091505b82821115610def576000610d768484614403565b9050610d8181614416565b8560a001516001600160a01b03166000805160206147808339815191526001604051610daf91815260200190565b60405180910390a360a08501516001600160a01b031660009081526006602052604081208054839290610de3908490614403565b90915550610e67915050565b6000610dfb8385614403565b9050808560a001516001600160a01b03166000805160206147808339815191526001604051610e2c91815260200190565b60405180910390a360a08501516001600160a01b031660009081526006602052604081208054839290610e609084906143f0565b9091555050505b610e7484868460006130a7565b600086815260046020818152604080842085518155918501516001830155848101516002830155606085015160038301556080850151928201805460a087015160ff9095166001600160a81b0319918216176101006001600160a01b03968716021790915560c08601516005909301805460e0909701519385169690911695909517600160a01b9215159290920291909117909355915184928c16917f8343d4254deba24e9e0e659e47f973c9705b70baa52a884516698b13af1588bb91a350909350505050610f4360018055565b9392505050565b610f52612e23565b336001600160a01b037f00000000000000000000000000000000000000000000000000000000000000001614610f9b57604051631172e7cd60e01b815260040160405180910390fd5b60008181526004602081815260408084208151610100808201845282548252600183015494820194909452600282015492810192909252600381015460608301529283015460ff80821660808401529290046001600160a01b0390811660a083015260059093015492831660c0820152600160a01b90920416151560e08201526110259083612e4d565b604081015190915061106261105c8385847f00000000000000000000000000000000000000000000000000000000000000006130a7565b8461312e565b60008481526004602081815260409283902084518155908401516001820155918301516002830155606083015160038301556080830151908201805460a08501516001600160a01b03908116610100026001600160a81b031992831660ff909516949094179390931790915560c08401516005909301805460e0909501511515600160a01b0294909116929091169190911791909117905550611106905060018055565b50565b6000600160055460ff16600481111561112457611124613f91565b101561112f57600080fd5b61113f61113a6132ef565b6133c0565b905090565b60008061114f613458565b915091509091565b60006002546000148061119e575060046000600360008154811061117d5761117d6143c4565b90600052602060002001548152602001908152602001600020600101546000145b156111bc5760405163e0d00bd360e01b815260040160405180910390fd5b6111c4612e23565b336001600160a01b037f0000000000000000000000000000000000000000000000000000000000000000161461120d57604051631172e7cd60e01b815260040160405180910390fd5b6000600460006003600081548110611227576112276143c4565b9060005260206000200154815260200190815260200160002060040160019054906101000a90046001600160a01b03169050600061126786838787612ef2565b6001600160a01b0383166000908152600660205260408120805492935083929091906112949084906143f0565b90915550506040516001815281906001600160a01b038416906000805160206147808339815191529060200160405180910390a3915050610f4360018055565b604051631272aa3360e11b815260036004820152739cbe9741b3503a790e69e1587b5d51c0056154dc906324e5546690602401602060405180830381865af4158015611324573d6000803e3d6000fd5b505050506040513d601f19601f8201168201806040525081019061110691906143a7565b6000611352612e23565b6001600160a01b03831660009081526006602052604081205473274946031d204567281f7616718b4abb940ef784906385831bc39087908790879061139861113a6132ef565b7f00000000000000000000000000000000000000000000000000000000000000007f00000000000000000000000000000000000000000000000000000000000000006040518863ffffffff1660e01b81526004016113fc9796959493929190614432565b602060405180830381865af4158015611419573d6000803e3d6000fd5b505050506040513d601f19601f8201168201806040525081019061143d9190614484565b905080156114af576001600160a01b0384166000908152600660205260408120805483929061146d908490614403565b9091555061147c905081614416565b846001600160a01b031660008051602061478083398151915260016040516114a691815260200190565b60405180910390a35b9050610f4360018055565b60006002546000148061150157506004600060036000815481106114e0576114e06143c4565b90600052602060002001548152602001908152602001600020600101546000145b1561151f5760405163e0d00bd360e01b815260040160405180910390fd5b60006003600081548110611535576115356143c4565b600091825260208083209091015480835260048083526040938490208451610100808201875282548252600183015495820195909552600282015495810195909552600381015460608601529081015460ff80821660808701526001600160a01b0394909104841660a086015260059091015480841660c0860152600160a01b900416151560e08401529250337f00000000000000000000000000000000000000000000000000000000000000009091161480159061160a57508060c001516001600160a01b0316336001600160a01b031614155b1561162857604051631172e7cd60e01b815260040160405180910390fd5b8060400151816020015161163c91906143f0565b84111561167c578060400151816020015161165791906143f0565b6040516373a50fb160e01b815260040161167391815260200190565b60405180910390fd5b60a08101516001600160a01b03166000908152600660205260409020548411156116df5760a08101516001600160a01b031660008181526006602052604090819020549051625ea67960e21b815260048101929092526024820152604401611673565b60a08101516001600160a01b03166000908152600660205260408120805486929061170b908490614403565b9091555061171a905084614416565b8160a001516001600160a01b0316600080516020614780833981519152600060405161174891815260200190565b60405180910390a361176661175d8284612e4d565b838660006130a7565b600083815260046020818152604080842085518155918501516001830155848101516002830155606085015160038301556080850151928201805460a08088015160ff9096166001600160a81b0319928316176101006001600160a01b03978816021790925560c08701516005909401805460e0909801519486169790911696909617600160a01b931515939093029290921790945584015192518793909116917f8343d4254deba24e9e0e659e47f973c9705b70baa52a884516698b13af1588bb91a36001925050505b919050565b600081815260046020526040812060018101549054829161185691614403565b600093845260046020526040909320600301549293915050565b611878612e23565b600160055460ff16600481111561189157611891613f91565b146118af57604051634065aaf160e11b815260040160405180910390fd5b336001600160a01b037f000000000000000000000000000000000000000000000000000000000000000016146118f857604051631172e7cd60e01b815260040160405180910390fd5b60008281526004602081815260408084208151610100808201845282548252600183015494820194909452600282015492810192909252600381015460608301529283015460ff80821660808401529290046001600160a01b0390811660a083015260059093015492831660c0820152600160a01b90920416151560e08201526119829084612e4d565b90508060e001516119a65760405163d320557760e01b815260040160405180910390fd5b602081015181516119b79190614403565b8211156119d757604051636180f03f60e11b815260040160405180910390fd5b81816020018181516119e991906143f0565b9052506000838152600460208181526040928390208451815590840151600180830191909155928401516002820155606084015160038201556080840151918101805460a08601516001600160a01b03908116610100026001600160a81b031992831660ff909616959095179490941790915560c08501516005909201805460e08701511515600160a01b0292169290931691909117179055611a8d61113a6132ef565b6004811115611a9e57611a9e613f91565b14611abc57604051636b263a7560e01b815260040160405180910390fd5b60a081015160405163d55fad0560e01b81526001600160a01b0391821660048201527f00000000000000000000000000000000000000000000000000000000000000009091166024820152604481018390527373cb72a7efaddd99cdd2d110e2f4b8b65bf3b8129063d55fad0590606401602060405180830381865af4158015611b4a573d6000803e3d6000fd5b505050506040513d601f19601f82011682018060405250810190611b6e91906143a7565b50604051829084907f23a87b7444856c0a68cbd431aaafca806284c2bd83791d761cc6adb66f92075990600090a3611ba583613641565b50610ab260018055565b60008181526004602081905260408083209051631ebff4d960e11b8152734dca189d7fb51d9cc375e4d697e5800c5d21ff8792633d7fe9b292611c1892909187917f0000000000000000000000000000000000000000000000000000000000000000910161450e565b602060405180830381865af4158015611c35573d6000803e3d6000fd5b505050506040513d601f19601f82011682018060405250810190610b959190614484565b611c61612e23565b6002541580611ca45750600460006003600081548110611c8357611c836143c4565b90600052602060002001548152602001908152602001600020600101546000145b15611cc25760405163e0d00bd360e01b815260040160405180910390fd5b336001600160a01b037f00000000000000000000000000000000000000000000000000000000000000001614611d0b57604051631172e7cd60e01b815260040160405180910390fd5b60006003600081548110611d2157611d216143c4565b6000918252602080832090910154808352600480835260408085208151610100808201845282548252600183015496820196909652600282015492810192909252600381015460608301529182015460ff80821660808401526001600160a01b0395909104851660a083015260059092015493841660c0820152600160a01b90930416151560e08301529250611db79083612e4d565b9050600081604001518260200151611dcf91906143f0565b9050611e0061105c8385847f00000000000000000000000000000000000000000000000000000000000000006130a7565b60009384526004602081815260409586902083518155908301516001820155948201516002860155606082015160038601556080820151908501805460a08401516001600160a01b03908116610100026001600160a81b031992831660ff909516949094179390931790915560c08301516005909601805460e0909401511515600160a01b029390911695909116949094171790925550611ea2905060018055565b565b6000336001600160a01b037f00000000000000000000000000000000000000000000000000000000000000001614611eef57604051631172e7cd60e01b815260040160405180910390fd5b604051633500fa7b60e21b81526001600160e01b03198416600482015282151560248201527f00000000000000000000000000000000000000000000000000000000000000006001600160a01b03169063d403e9ec90604401610b4f565b604051630d63d4af60e41b81526001600160a01b0382811660048301526000917f00000000000000000000000000000000000000000000000000000000000000009091169063d63d4af090602401602060405180830381865afa158015611fb8573d6000803e3d6000fd5b505050506040513d601f19601f82011682018060405250810190611fdc9190614484565b6001600160a01b038316600090815260066020526040902054610b9591906143f0565b60a481118061200e5750600481105b1561202c57604051632c9dd1c960e01b815260040160405180910390fd5b60008282336040516020016120439392919061453e565b60408051601f1981840301815291815281516020928301206000818152928390529120549091506001600160a01b03168061209157604051630df0f4e960e41b815260040160405180910390fd5b6001600160a01b03811633146120ba5760405163110dc63f60e01b815260040160405180910390fd5b6000828152602081815260409182902080546001600160a01b031916905590518381527f2d8bff7bc81a295ee86f540e195478665ae7503c42e2fe02600843e860a1d9db910160405180910390a150505050565b6003546000805b8281101561226b5760038181548110612130576121306143c4565b600091825260208083209091015480835260048083526040938490208451610100808201875282548252600183015495820195909552600282015495810195909552600381015460608601529081015460ff80821660808701526001600160a01b0394909104841660a086015260059091015492831660c0850152600160a01b909204909116151560e083015292506121c98184612e4d565b60008481526004602081815260409283902084518155908401516001820155918301516002830155606083015160038301556080830151908201805460a085015160ff9093166001600160a81b0319918216176101006001600160a01b03948516021790915560c08401516005909301805460e09095015193909216931692909217600160a01b911515919091021790555061226481614564565b9050612115565b505050565b60008381526004602052604090206005015483906122b8907f0000000000000000000000000000000000000000000000000000000000000000906001600160a01b0316613785565b156123e3576000848152600460208181526040928390208351610100808201865282548252600183015493820193909352600282015494810194909452600381015460608501529182015460ff80821660808601526001600160a01b0392909104821660a085015260059092015490811660c0840152600160a01b900416151560e08201526123479085612e4d565b60008581526004602081815260409283902084518155908401516001820155918301516002830155606083015160038301556080830151908201805460a085015160ff9093166001600160a81b0319918216176101006001600160a01b03948516021790915560c08401516005909301805460e09095015193909216931692909217600160a01b911515919091021790556123e384848461390f565b50505050565b600073274946031d204567281f7616718b4abb940ef78463306d4f037f00000000000000000000000000000000000000000000000000000000000000008461243261113a6132ef565b7f00000000000000000000000000000000000000000000000000000000000000006040518563ffffffff1660e01b8152600401612472949392919061457d565b602060405180830381865af415801561248f573d6000803e3d6000fd5b505050506040513d601f19601f82011682018060405250810190610b9591906143a7565b6124bb612e23565b600160055460ff1660048111156124d4576124d4613f91565b146124f257604051634065aaf160e11b815260040160405180910390fd5b600082815260046020526040902060050154829061253a907f0000000000000000000000000000000000000000000000000000000000000000906001600160a01b0316613785565b15611ba55760008381526004602081815260408084208151610100808201845282548252600183015494820194909452600282015492810192909252600381015460608301529283015460ff80821660808401529290046001600160a01b0390811660a083015260059093015492831660c0820152600160a01b90920416151560e08201526125c99085612e4d565b905082816000018181516125dd91906143f0565b90525060008481526004602081815260409283902084518155908401516001820155838301516002820155606084015160038201556080840151818301805460a08701516001600160a01b0390811661010081026001600160a81b031993841660ff909616959095179490941790925560c08701516005909401805460e08901511515600160a01b02921694909216938417179055925162f6020f60e71b8152918201929092526024810191909152604481018490527373cb72a7efaddd99cdd2d110e2f4b8b65bf3b81290637b01078090606401602060405180830381865af41580156126cf573d6000803e3d6000fd5b505050506040513d601f19601f820116820180604052508101906126f391906143a7565b50604051839085907f12a48a2aa5f96e98f382b97b87c5f26c4fa0811d2dc20810972985835540286f90600090a35050610ab260018055565b6000612736612e23565b600160055460ff16600481111561274f5761274f613f91565b1461276d57604051634065aaf160e11b815260040160405180910390fd5b817f00000000000000000000000000000000000000000000000000000000000000006127998282613785565b156128465760006127ab8587896139f8565b90506127b8818a8a61390f565b60405162f6020f60e71b81526001600160a01b03808816600483015286166024820152604481018890527373cb72a7efaddd99cdd2d110e2f4b8b65bf3b81290637b01078090606401602060405180830381865af415801561281e573d6000803e3d6000fd5b505050506040513d601f19601f8201168201806040525081019061284291906143a7565b5092505b505061285160018055565b95945050505050565b612862612e23565b60025415806128a55750600460006003600081548110612884576128846143c4565b90600052602060002001548152602001908152602001600020600101546000145b156128c35760405163e0d00bd360e01b815260040160405180910390fd5b600060036000815481106128d9576128d96143c4565b6000918252602080832090910154808352600480835260408085208151610100808201845282548252600183015496820196909652600282015492810192909252600381015460608301529182015460ff80821660808401526001600160a01b0395909104851660a083015260059092015493841660c0820152600160a01b90930416151560e0830152925061296f9083612e4d565b90508060400151816020015161298591906143f0565b8311156129a0578060400151816020015161165791906143f0565b6129ac818385336130a7565b60009283526004602081815260409485902083518155908301516001820155938201516002850155606082015160038501556080820151908401805460a08401516001600160a01b03908116610100026001600160a81b031992831660ff909516949094179390931790915560c08301516005909501805460e0909401511515600160a01b02939091169490911693909317179091555061110660018055565b600060055460ff166004811115612a6557612a65613f91565b14612a825760405162dc149f60e41b815260040160405180910390fd5b612a8a613c5c565b61110660016133c0565b60008060008060008060008060006003600081548110612ab657612ab66143c4565b6000918252602080832091909101548083526004808352604080852081516101008082018452825482526001830154968201879052600283015482850152600383015460608301528285015460ff80821660808501529190046001600160a01b0390811660a084015260059093015480841660c0840152600160a01b900416151560e0820152915163cc280aaf60e01b815292830194909452602482018390527f000000000000000000000000000000000000000000000000000000000000000090931660448201529093509091908190734dca189d7fb51d9cc375e4d697e5800c5d21ff879063cc280aaf906064016040805180830381865af4158015612bc2573d6000803e3d6000fd5b505050506040513d601f19601f82011682018060405250810190612be691906145b4565b91509150838360c001518460a0015185602001518660000151734dca189d7fb51d9cc375e4d697e5800c5d21ff87633d7fe9b2898b7f00000000000000000000000000000000000000000000000000000000000000006040518463ffffffff1660e01b8152600401612c5a939291906145e3565b602060405180830381865af4158015612c77573d6000803e3d6000fd5b505050506040513d601f19601f82011682018060405250810190612c9b9190614484565b87879b509b509b509b509b509b509b509b50505050509091929394959697565b600073274946031d204567281f7616718b4abb940ef78463f6be8d107f0000000000000000000000000000000000000000000000000000000000000000612d0361113a6132ef565b7f00000000000000000000000000000000000000000000000000000000000000007f0000000000000000000000000000000000000000000000000000000000000000876040518663ffffffff1660e01b81526004016124729594939291906145f2565b60038181548110612d7657600080fd5b600091825260209091200154905081565b7f00000000000000000000000000000000000000000000000000000000000000006001600160a01b03163314612dd057604051631172e7cd60e01b815260040160405180910390fd5b612ddb61113a6132ef565b6004811115612dec57612dec613f91565b600214612e0c57604051636ef5bcdd60e11b815260040160405180910390fd5b612e14613d3a565b15611ea25761110660046133c0565b600260015403612e4657604051633ee5aeb560e01b815260040160405180910390fd5b6002600155565b612e55613e1f565b604051634a4b6ed160e11b8152734dca189d7fb51d9cc375e4d697e5800c5d21ff8790639496dda290612eb090869086907f0000000000000000000000000000000000000000000000000000000000000000906004016145e3565b61010060405180830381865af4158015612ece573d6000803e3d6000fd5b505050506040513d601f19601f82011682018060405250810190610b92919061432d565b6000836001600160a01b0316856001600160a01b031603612fa05760405163f07c570960e01b81526001600160a01b0386811660048301527f0000000000000000000000000000000000000000000000000000000000000000169063f07c5709906024016020604051808303816000875af1158015612f75573d6000803e3d6000fd5b505050506040513d601f19601f82011682018060405250810190612f999190614484565b905061309f565b6001600160a01b03851660009081526006602052604080822054905163b085a00d60e01b8152829173274946031d204567281f7616718b4abb940ef7849163b085a00d9161303c918b918b917f0000000000000000000000000000000000000000000000000000000000000000917f0000000000000000000000000000000000000000000000000000000000000000918d908d90600401614632565b6040805180830381865af4158015613058573d6000803e3d6000fd5b505050506040513d601f19601f8201168201806040525081019061307c9190614698565b6001600160a01b038916600090815260066020526040902055925061309f915050565b949350505050565b6130af613e1f565b60405163d7c637c960e01b8152734dca189d7fb51d9cc375e4d697e5800c5d21ff879063d7c637c9906130ec9088908890889088906004016146bc565b61010060405180830381865af415801561310a573d6000803e3d6000fd5b505050506040513d601f19601f82011682018060405250810190612851919061432d565b613136613e1f565b8260e001516131585760405163d320557760e01b815260040160405180910390fd5b60208301511561317b5760405163131689dd60e01b815260040160405180910390fd5b600060e08401526040516299c7a960e21b81526003600482015260248101839052739cbe9741b3503a790e69e1587b5d51c0056154dc906302671ea490604401602060405180830381865af41580156131d8573d6000803e3d6000fd5b505050506040513d601f19601f820116820180604052508101906131fc91906143a7565b506000801b6003600081548110613215576132156143c4565b90600052602060002001540361329b57604051631272aa3360e11b815260036004820152739cbe9741b3503a790e69e1587b5d51c0056154dc906324e5546690602401602060405180830381865af4158015613275573d6000803e3d6000fd5b505050506040513d601f19601f8201168201806040525081019061329991906143a7565b505b6002805460001981019091556000036001016132bd576132bb60036133c0565b505b60405182907f7a6d4520711ed1189e0417ec7e099096e5ac3c188863274446a6d3dafded499890600090a25090919050565b60055460009060ff16600381600481111561330c5761330c613f91565b14806133295750600481600481111561332757613327613f91565b145b1561333357919050565b7f00000000000000000000000000000000000000000000000000000000000000004210158015613364575060025415155b156133b857600360008154811061337d5761337d6143c4565b600091825260208220015460405190917f02a583914117d56eb883091ec1c35f0dfc356386054377ef6914e54eac90fe7c91a2600291505090565b600191505090565b60008160048111156133d4576133d4613f91565b60055460ff1660048111156133eb576133eb613f91565b036133f4575090565b81600481111561340657613406613f91565b6040517f2125b4f86fd7a6a349e4e174a768e7c98ec9b7d124822556b128e40a16b642f790600090a26005805483919060ff1916600183600481111561344e5761344e613f91565b0217905592915050565b600354600090819080820361347257506000928392509050565b6000805b8281101561363a5760038181548110613491576134916143c4565b6000918252602090912001549150811561362a5760008281526004602081905260408083209051636b579f7b60e11b815283928392734dca189d7fb51d9cc375e4d697e5800c5d21ff879263d6af3ef69261353392918a917f0000000000000000000000000000000000000000000000000000000000000000917f000000000000000000000000000000000000000000000000000000000000000091016146f2565b61014060405180830381865af4158015613551573d6000803e3d6000fd5b505050506040513d601f19601f820116820180604052508101906135759190614729565b9194509250905061358682896143f0565b975061359281886143f0565b60008681526004602081815260409283902087518155908701516001820155918601516002830155606086015160038301556080860151908201805460a088015160ff9093166001600160a81b0319918216176101006001600160a01b03948516021790915560c08701516005909301805460e09098015193909216961695909517600160a01b911515919091021790935550909450505b61363381614564565b9050613476565b5050509091565b60035460009061365390600190614403565b9050806000805b83811161377e5760038181548110613674576136746143c4565b906000526020600020015491508185146136bc578115806136955750838314155b806136b0575060008281526004602052604090206001015415155b61376e5780925061376e565b8383036136ca575050505050565b6000600384815481106136df576136df6143c4565b906000526020600020015490508060038381548110613700576137006143c4565b90600052602060002001819055508560038581548110613722576137226143c4565b90600052602060002001819055508184877fee3e50299ece6c644a824740e6a8ff24a83a4b747cbf3796a156def7107a8feb8460405161376491815260200190565b60405180910390a4505b61377781614564565b905061365a565b5050505050565b6000336001600160a01b038416148015906137a95750336001600160a01b03831614155b156137c6576040516282b42960e81b815260040160405180910390fd5b60006137d28484613e01565b905060008036836040516020016137eb9392919061453e565b60408051601f1981840301815291815281516020928301206000818152928390529120549091506001600160a01b03166138b65760008036336040516020016138369392919061453e565b60408051601f198184030181528282528051602091820120600081815280835283902080546001600160a01b031916331790558084526001600160a01b0387169184019190915292507f1396bca9f810b74b131a089057c919e38ad204e3df53fec73db0e1f3be4caa0d910160405180910390a160009350505050610b95565b6000818152602081815260409182902080546001600160a01b031916905590518281527f590cb0fad602b541ce3d8b8de5ea73f5db52e7bafb4fab2595dca5e904009ff1910160405180910390a1506001949350505050565b604051639412647f60e01b8152600481018490526001600160801b038084166024830152821660448201527f00000000000000000000000000000000000000000000000000000000000000006001600160a01b031690639412647f906064016020604051808303816000875af115801561398d573d6000803e3d6000fd5b505050506040513d601f19601f820116820180604052508101906139b191906143a7565b50806001600160801b0316826001600160801b0316847feb29c2b3e23350f884045ab45689641c7503ccc09063055895c6a8edcf0a7ad160405160405180910390a4505050565b6040516310ccadff60e21b81523060048201526001600160a01b03808516602483015283166044820152600090734dca189d7fb51d9cc375e4d697e5800c5d21ff8790634332b7fc90606401602060405180830381865af4158015613a61573d6000803e3d6000fd5b505050506040513d601f19601f82011682018060405250810190613a859190614484565b6000818152600460205260409020600501549091506001600160a01b031615613ac15760405163384e583f60e11b815260040160405180910390fd5b60405163beccf5db60e01b815260048101829052602481018390526001600160a01b03808616604483015280851660648301527f0000000000000000000000000000000000000000000000000000000000000000166084820152734dca189d7fb51d9cc375e4d697e5800c5d21ff879063beccf5db9060a40161010060405180830381865af4158015613b58573d6000803e3d6000fd5b505050506040513d601f19601f82011682018060405250810190613b7c919061432d565b600082815260046020818152604080842085518155918501516001808401919091559085015160028084019190915560608601516003808501919091556080870151948401805460a08901516001600160a01b03908116610100026001600160a81b031992831660ff909916989098179790971790915560c08801516005909501805460e0909901511515600160a01b02989091169490951693909317959095179092558054808301825592527fc2575a0e9e593c00f959f8c92f12db2869c3395a3b0502d05e2516446f71f85b90910183905581540190559392505050565b306001600160a01b03167f00000000000000000000000000000000000000000000000000000000000000006001600160a01b0316638da5cb5b6040518163ffffffff1660e01b8152600401602060405180830381865afa158015613cc4573d6000803e3d6000fd5b505050506040513d601f19601f82011682018060405250810190613ce89190614762565b6001600160a01b031614611ea25760405163219f710160e11b81526001600160a01b037f0000000000000000000000000000000000000000000000000000000000000000166004820152602401611673565b60405163121ee17760e11b81526001600160a01b037f0000000000000000000000000000000000000000000000000000000000000000811660048301527f000000000000000000000000000000000000000000000000000000000000000016602482015260009073274946031d204567281f7616718b4abb940ef7849063243dc2ee90604401602060405180830381865af4158015613ddd573d6000803e3d6000fd5b505050506040513d601f19601f8201168201806040525081019061113f91906143a7565b6000336001600160a01b03841614613e195782610b92565b50919050565b60405180610100016040528060008152602001600081526020016000815260200160008152602001600060ff16815260200160006001600160a01b0316815260200160006001600160a01b031681526020016000151581525090565b60008060408385031215613e8e57600080fd5b50508035926020909101359150565b6001600160a01b038116811461110657600080fd5b6000808284036080811215613ec657600080fd5b8335613ed181613e9d565b92506060601f1982011215613ee557600080fd5b506020830190509250929050565b60008083601f840112613f0557600080fd5b50813567ffffffffffffffff811115613f1d57600080fd5b602083019150836020828501011115613f3557600080fd5b9250929050565b600080600060408486031215613f5157600080fd5b8335613f5c81613e9d565b9250602084013567ffffffffffffffff811115613f7857600080fd5b613f8486828701613ef3565b9497909650939450505050565b634e487b7160e01b600052602160045260246000fd5b60058110613fc557634e487b7160e01b600052602160045260246000fd5b9052565b60208101610b958284613fa7565b600060208284031215613fe957600080fd5b5035919050565b60006020828403121561400257600080fd5b8135610f4381613e9d565b60008060006060848603121561402257600080fd5b833561402d81613e9d565b9250602084013561403d81613e9d565b929592945050506040919091013590565b80356001600160e01b03198116811461183157600080fd5b801515811461110657600080fd5b6000806040838503121561408757600080fd5b6140908361404e565b915060208301356140a081614066565b809150509250929050565b600080602083850312156140be57600080fd5b823567ffffffffffffffff8111156140d557600080fd5b6140e185828601613ef3565b90969095509350505050565b6001600160801b038116811461110657600080fd5b60008060006060848603121561411757600080fd5b833592506020840135614129816140ed565b91506040840135614139816140ed565b809150509250925092565b600080600080600060a0868803121561415c57600080fd5b8535614167816140ed565b94506020860135614177816140ed565b935060408601359250606086013561418e81613e9d565b9150608086013561419e81613e9d565b809150509295509295909350565b8051825260208101516020830152604081015160408301526060810151606083015260ff608082015116608083015260a081015160018060a01b0380821660a08501528060c08401511660c0850152505060e0810151151560e08301525050565b610160810161421c82876141ac565b6101008201949094526001600160a01b039290921661012083015261014090910152919050565b60ff8116811461110657600080fd5b805161183181614243565b805161183181613e9d565b805161183181614066565b600061010080838503121561428757600080fd5b6040519081019067ffffffffffffffff821181831017156142b857634e487b7160e01b600052604160045260246000fd5b81604052809250835181526020840151602082015260408401516040820152606084015160608201526142ed60808501614252565b60808201526142fe60a0850161425d565b60a082015261430f60c0850161425d565b60c082015261432060e08501614268565b60e0820152505092915050565b6000610100828403121561434057600080fd5b610b928383614273565b6001600160a01b038316815260808101823561436581614243565b60ff811660208401525061437b6020840161404e565b63ffffffff60e01b8082166040850152806143986040870161404e565b16606085015250509392505050565b6000602082840312156143b957600080fd5b8151610f4381614066565b634e487b7160e01b600052603260045260246000fd5b634e487b7160e01b600052601160045260246000fd5b80820180821115610b9557610b956143da565b81810381811115610b9557610b956143da565b6000600160ff1b820161442b5761442b6143da565b5060000390565b6001600160a01b0388811682528781166020830152604082018790526060820186905260e08201906144676080840187613fa7565b80851660a084015280841660c08401525098975050505050505050565b60006020828403121561449657600080fd5b5051919050565b80548252600181015460208301526002810154604083015260038101546060830152600481015460ff811660808401526001600160a01b03600882901c811660a085015260058301546001600160a01b038282161660c086015291505061226b60e0840160ff8360a01c1615159052565b610140810161451d828661449d565b6101008201939093526001600160a01b039190911661012090910152919050565b8284823760609190911b6bffffffffffffffffffffffff19169101908152601401919050565b600060018201614576576145766143da565b5060010190565b6001600160a01b03858116825284166020820152608081016145a26040830185613fa7565b60ff8316606083015295945050505050565b600080604083850312156145c757600080fd5b82516145d2816140ed565b60208401519092506140a0816140ed565b610140810161451d82866141ac565b6001600160a01b03868116825260a08201906146116020840188613fa7565b94851660408301529284166060820152921660809092019190915292915050565b6001600160a01b03888116825287811660208301528681166040830152851660608201526080810184905260c060a0820181905281018290526000828460e0840137600060e0848401015260e0601f19601f850116830101905098975050505050505050565b600080604083850312156146ab57600080fd5b505080516020909101519092909150565b61016081016146cb82876141ac565b6101008201949094526101208101929092526001600160a01b031661014090910152919050565b6101608101614701828761449d565b6101008201949094526001600160a01b03928316610120820152911661014090910152919050565b6000806000610140848603121561473f57600080fd5b6147498585614273565b9250610100840151915061012084015190509250925092565b60006020828403121561477457600080fd5b8151610f4381613e9d56fe7dcdf49c7e92795e08b749f8dd551c92f7be794148ac2f9db089e2e67cbdd519a2646970667358221220acd2ff5316274fd073449ba20eb71925925fa69497000e9bdc198607029d21b364736f6c6343000814003360a060405234801561001057600080fd5b50336080526080516104ff6100376000396000818161017c015261023a01526104ff6000f3fe608060405234801561001057600080fd5b50600436106100575760003560e01c80637443c9071461005c5780639412647f146100b6578063b6973283146100d9578063c6198352146100fa578063dc7262051461010d575b600080fd5b61009161006a36600461036c565b6000908152602081905260409020546001600160801b0380821692600160801b9092041690565b604080516001600160801b039384168152929091166020830152015b60405180910390f35b6100c96100c43660046103a1565b61016f565b60405190151581526020016100ad565b6100ec6100e73660046103dd565b610218565b6040519081526020016100ad565b6100ec6101083660046103dd565b61022d565b61014961011b36600461036c565b600060208190529081526040902080546001909101546001600160801b0380831692600160801b9004169083565b604080516001600160801b039485168152939092166020840152908201526060016100ad565b6000336001600160a01b037f000000000000000000000000000000000000000000000000000000000000000016146101c25760405162461bcd60e51b81526004016101b990610409565b60405180910390fd5b50604080516060810182526001600160801b038085168252838116602080840191825242848601908152600089815291829052949020925190518216600160801b02911617815590516001918201559392505050565b60006102258484846102a0565b949350505050565b6000336001600160a01b037f000000000000000000000000000000000000000000000000000000000000000016146102775760405162461bcd60e51b81526004016101b990610409565b6102828484846102a0565b60009485526020859052604090942042600190910155509192915050565b600083815260208181526040808320815160608101835281546001600160801b038082168352600160801b90910416938101939093526001015490820181905282906102ec9042610464565b905061031182602001516001600160801b0316868661030b9190610464565b8361033b565b8251610327906001600160801b0316878461033b565b610331919061047d565b9695505050505050565b600061034d6127106301e187e0610490565b826103588587610490565b6103629190610490565b61022591906104a7565b60006020828403121561037e57600080fd5b5035919050565b80356001600160801b038116811461039c57600080fd5b919050565b6000806000606084860312156103b657600080fd5b833592506103c660208501610385565b91506103d460408501610385565b90509250925092565b6000806000606084860312156103f257600080fd5b505081359360208301359350604090920135919050565b60208082526025908201527f496e74657265737452617465437265643a206f6e6c79206c696e6520636f6e746040820152643930b1ba1760d91b606082015260800190565b634e487b7160e01b600052601160045260246000fd5b818103818111156104775761047761044e565b92915050565b808201808211156104775761047761044e565b80820281158282048414176104775761047761044e565b6000826104c457634e487b7160e01b600052601260045260246000fd5b50049056fea2646970667358221220cc319329f225bb958bcd4f2ad83f42002b262e8b8c6bfae743f6187613790f3964736f6c63430008140033","linkReferences":{}},"methodIdentifiers":{"accrueInterest()":"a6afed95","addCredit(uint128,uint128,uint256,address,address)":"cb836209","addSpigot(address,(uint8,bytes4,bytes4))":"18906bf7","arbiter()":"fe25e00a","available(bytes32)":"6932854f","borrow(bytes32,uint256)":"7c93ec30","borrower()":"7df1f1b9","claimAndRepay(address,bytes)":"1acb7525","claimAndTrade(address,bytes)":"5f618768","close(bytes32)":"39c79e0c","counts()":"817cc1ea","credits(bytes32)":"42997913","deadline()":"29dcb0cf","declareInsolvent()":"feccf26f","defaultRevenueSplit()":"e96b496f","depositAndClose()":"7eef544d","depositAndRepay(uint256)":"dfe96083","healthcheck()":"4f42fc02","ids(uint256)":"fac333ac","increaseCredit(bytes32,uint256)":"c3651574","init()":"e1c7392a","interestAccrued(bytes32)":"7df33c20","interestRate()":"7c3a00fd","mutualConsentProposals(bytes32)":"38deee8f","nextInQ()":"e701af99","oracle()":"7dc0d1d0","releaseSpigot(address)":"ebb65a0f","revokeConsent(bytes)":"a4e7d38f","setRates(bytes32,uint128,uint128)":"ac856fac","spigot()":"5e235d54","status()":"200d2ed2","stepQ()":"62bfcc68","swapTarget()":"7e7f0cde","sweep(address,address,uint256)":"62c06767","tradeable(address)":"9637b5d3","unused(address)":"461035af","updateOutstandingDebt()":"501b56d8","updateOwnerSplit(address)":"b57cb9fc","updateWhitelist(bytes4,bool)":"921c5fcb","useAndRepay(uint256)":"67828fbd","withdraw(bytes32,uint256)":"040cf020"},"id":30}