{"abi":[{"type":"constructor","inputs":[],"stateMutability":"nonpayable"},{"type":"function","name":"accrueInterest","inputs":[{"name":"id","type":"bytes32","internalType":"bytes32"},{"name":"drawnBalance","type":"uint256","internalType":"uint256"},{"name":"facilityBalance","type":"uint256","internalType":"uint256"}],"outputs":[{"name":"accrued","type":"uint256","internalType":"uint256"}],"stateMutability":"nonpayable"},{"type":"function","name":"getInterestAccrued","inputs":[{"name":"id","type":"bytes32","internalType":"bytes32"},{"name":"drawnBalance","type":"uint256","internalType":"uint256"},{"name":"facilityBalance","type":"uint256","internalType":"uint256"}],"outputs":[{"name":"","type":"uint256","internalType":"uint256"}],"stateMutability":"view"},{"type":"function","name":"getRates","inputs":[{"name":"id","type":"bytes32","internalType":"bytes32"}],"outputs":[{"name":"","type":"uint128","internalType":"uint128"},{"name":"","type":"uint128","internalType":"uint128"}],"stateMutability":"view"},{"type":"function","name":"rates","inputs":[{"name":"","type":"bytes32","internalType":"bytes32"}],"outputs":[{"name":"dRate","type":"uint128","internalType":"uint128"},{"name":"fRate","type":"uint128","internalType":"uint128"},{"name":"lastAccrued","type":"uint256","internalType":"uint256"}],"stateMutability":"view"},{"type":"function","name":"setRate","inputs":[{"name":"id","type":"bytes32","internalType":"bytes32"},{"name":"dRate","type":"uint128","internalType":"uint128"},{"name":"fRate","type":"uint128","internalType":"uint128"}],"outputs":[{"name":"","type":"bool","internalType":"bool"}],"stateMutability":"nonpayable"}],"bytecode":{"object":"0x60a060405234801561001057600080fd5b50336080526080516104ff6100376000396000818161017c015261023a01526104ff6000f3fe608060405234801561001057600080fd5b50600436106100575760003560e01c80637443c9071461005c5780639412647f146100b6578063b6973283146100d9578063c6198352146100fa578063dc7262051461010d575b600080fd5b61009161006a36600461036c565b6000908152602081905260409020546001600160801b0380821692600160801b9092041690565b604080516001600160801b039384168152929091166020830152015b60405180910390f35b6100c96100c43660046103a1565b61016f565b60405190151581526020016100ad565b6100ec6100e73660046103dd565b610218565b6040519081526020016100ad565b6100ec6101083660046103dd565b61022d565b61014961011b36600461036c565b600060208190529081526040902080546001909101546001600160801b0380831692600160801b9004169083565b604080516001600160801b039485168152939092166020840152908201526060016100ad565b6000336001600160a01b037f000000000000000000000000000000000000000000000000000000000000000016146101c25760405162461bcd60e51b81526004016101b990610409565b60405180910390fd5b50604080516060810182526001600160801b038085168252838116602080840191825242848601908152600089815291829052949020925190518216600160801b02911617815590516001918201559392505050565b60006102258484846102a0565b949350505050565b6000336001600160a01b037f000000000000000000000000000000000000000000000000000000000000000016146102775760405162461bcd60e51b81526004016101b990610409565b6102828484846102a0565b60009485526020859052604090942042600190910155509192915050565b600083815260208181526040808320815160608101835281546001600160801b038082168352600160801b90910416938101939093526001015490820181905282906102ec9042610464565b905061031182602001516001600160801b0316868661030b9190610464565b8361033b565b8251610327906001600160801b0316878461033b565b610331919061047d565b9695505050505050565b600061034d6127106301e187e0610490565b826103588587610490565b6103629190610490565b61022591906104a7565b60006020828403121561037e57600080fd5b5035919050565b80356001600160801b038116811461039c57600080fd5b919050565b6000806000606084860312156103b657600080fd5b833592506103c660208501610385565b91506103d460408501610385565b90509250925092565b6000806000606084860312156103f257600080fd5b505081359360208301359350604090920135919050565b60208082526025908201527f496e74657265737452617465437265643a206f6e6c79206c696e6520636f6e746040820152643930b1ba1760d91b606082015260800190565b634e487b7160e01b600052601160045260246000fd5b818103818111156104775761047761044e565b92915050565b808201808211156104775761047761044e565b80820281158282048414176104775761047761044e565b6000826104c457634e487b7160e01b600052601260045260246000fd5b50049056fea2646970667358221220cc319329f225bb958bcd4f2ad83f42002b262e8b8c6bfae743f6187613790f3964736f6c63430008140033","linkReferences":{}},"methodIdentifiers":{"accrueInterest(bytes32,uint256,uint256)":"c6198352","getInterestAccrued(bytes32,uint256,uint256)":"b6973283","getRates(bytes32)":"7443c907","rates(bytes32)":"dc726205","setRate(bytes32,uint128,uint128)":"9412647f"},"id":34}