{"abi":[{"type":"constructor","inputs":[{"name":"_owner","type":"address","internalType":"address"},{"name":"token","type":"address","internalType":"address"}],"stateMutability":"nonpayable"},{"type":"receive","stateMutability":"payable"},{"type":"function","name":"claimPullPayment","inputs":[],"outputs":[{"name":"","type":"bool","internalType":"bool"}],"stateMutability":"nonpayable"},{"type":"function","name":"count","inputs":[],"outputs":[{"name":"","type":"uint256","internalType":"uint256"}],"stateMutability":"view"},{"type":"function","name":"doAnOperationsThing","inputs":[],"outputs":[{"name":"","type":"bool","internalType":"bool"}],"stateMutability":"nonpayable"},{"type":"function","name":"doAnOperationsThingWithArgs","inputs":[{"name":"val","type":"uint256","internalType":"uint256"}],"outputs":[{"name":"","type":"bool","internalType":"bool"}],"stateMutability":"nonpayable"},{"type":"function","name":"getNonce","inputs":[{"name":"_address","type":"address","internalType":"address"}],"outputs":[{"name":"","type":"uint256","internalType":"uint256"}],"stateMutability":"view"},{"type":"function","name":"incrementCount","inputs":[],"outputs":[],"stateMutability":"nonpayable"},{"type":"function","name":"manager","inputs":[],"outputs":[{"name":"","type":"address","internalType":"address"}],"stateMutability":"view"},{"type":"function","name":"methodologist","inputs":[],"outputs":[{"name":"","type":"address","internalType":"address"}],"stateMutability":"view"},{"type":"function","name":"mutualConsentProposals","inputs":[{"name":"","type":"bytes32","internalType":"bytes32"}],"outputs":[{"name":"","type":"address","internalType":"address"}],"stateMutability":"view"},{"type":"function","name":"nonce","inputs":[{"name":"","type":"address","internalType":"address"}],"outputs":[{"name":"","type":"uint256","internalType":"uint256"}],"stateMutability":"view"},{"type":"function","name":"owner","inputs":[],"outputs":[{"name":"","type":"address","internalType":"address"}],"stateMutability":"view"},{"type":"function","name":"revokeConsent","inputs":[{"name":"_reconstrucedMsgData","type":"bytes","internalType":"bytes"}],"outputs":[],"stateMutability":"nonpayable"},{"type":"function","name":"sendPushPayment","inputs":[],"outputs":[{"name":"","type":"bool","internalType":"bool"}],"stateMutability":"nonpayable"},{"type":"function","name":"setManager","inputs":[{"name":"newManager","type":"address","internalType":"address"}],"outputs":[],"stateMutability":"nonpayable"},{"type":"function","name":"setMethodologist","inputs":[{"name":"newMethodologist","type":"address","internalType":"address"}],"outputs":[],"stateMutability":"nonpayable"},{"type":"function","name":"transferOwnership","inputs":[{"name":"newOwner","type":"address","internalType":"address"}],"outputs":[{"name":"","type":"bool","internalType":"bool"}],"stateMutability":"nonpayable"},{"type":"function","name":"updateNonce","inputs":[{"name":"_address","type":"address","internalType":"address"},{"name":"num","type":"uint256","internalType":"uint256"}],"outputs":[],"stateMutability":"nonpayable"},{"type":"event","name":"MutualConsentAccepted","inputs":[{"name":"proposalId","type":"bytes32","indexed":false,"internalType":"bytes32"}],"anonymous":false},{"type":"event","name":"MutualConsentRegistered","inputs":[{"name":"proposalId","type":"bytes32","indexed":false,"internalType":"bytes32"},{"name":"taker","type":"address","indexed":false,"internalType":"address"}],"anonymous":false},{"type":"event","name":"MutualConsentRevoked","inputs":[{"name":"proposalId","type":"bytes32","indexed":false,"internalType":"bytes32"}],"anonymous":false},{"type":"error","name":"InvalidConsent","inputs":[]},{"type":"error","name":"NonZeroEthValue","inputs":[]},{"type":"error","name":"NotUserConsent","inputs":[]},{"type":"error","name":"Unauthorized","inputs":[]},{"type":"error","name":"UnsupportedMutualConsentFunction","inputs":[]}],"bytecode":{"object":"0x608060405234801561001057600080fd5b50604051610e6b380380610e6b83398101604081905261002f91610093565b600180546001600160a01b039384166001600160a01b0319918216811790925560028054821683179055600380548216909217909155600480549290931691161790556100c6565b80516001600160a01b038116811461008e57600080fd5b919050565b600080604083850312156100a657600080fd5b6100af83610077565b91506100bd60208401610077565b90509250929050565b610d96806100d56000396000f3fe6080604052600436106101025760003560e01c806370ae92d211610095578063a4e7d38f11610064578063a4e7d38f146102d9578063d0ebdbe7146102f9578063e008a92714610319578063e5071b8e14610339578063f2fde38b1461034e57600080fd5b806370ae92d214610257578063810b68d0146102845780638da5cb5b146102995780639f8e67bf146102b957600080fd5b806338deee8f116100d157806338deee8f146101a7578063441344af146101f5578063481c6a7514610217578063660db4841461023757600080fd5b806306661abd1461010e5780630d558fff146101375780632c9a53281461015c5780632d0335ab1461017157600080fd5b3661010957005b600080fd5b34801561011a57600080fd5b5061012460055481565b6040519081526020015b60405180910390f35b34801561014357600080fd5b5061014c61036e565b604051901515815260200161012e565b34801561016857600080fd5b5061014c610514565b34801561017d57600080fd5b5061012461018c366004610bec565b6001600160a01b031660009081526006602052604090205490565b3480156101b357600080fd5b506101dd6101c2366004610c07565b6000602081905290815260409020546001600160a01b031681565b6040516001600160a01b03909116815260200161012e565b34801561020157600080fd5b50610215610210366004610c20565b6105d9565b005b34801561022357600080fd5b506002546101dd906001600160a01b031681565b34801561024357600080fd5b50610215610252366004610bec565b61065c565b34801561026357600080fd5b50610124610272366004610bec565b60066020526000908152604090205481565b34801561029057600080fd5b5061014c6106d8565b3480156102a557600080fd5b506001546101dd906001600160a01b031681565b3480156102c557600080fd5b506003546101dd906001600160a01b031681565b3480156102e557600080fd5b506102156102f4366004610c4a565b610735565b34801561030557600080fd5b50610215610314366004610bec565b610844565b34801561032557600080fd5b5061014c610334366004610c07565b6108d6565b34801561034557600080fd5b5061021561093b565b34801561035a57600080fd5b5061014c610369366004610bec565b6109a7565b6004546000906001600160a01b031673eeeeeeeeeeeeeeeeeeeeeeeeeeeeeeeeeeeeeeee146104d357600480546001546040516370a0823160e01b815230938101939093526001600160a01b039182169263a9059cbb929091169083906370a08231906024015b602060405180830381865afa1580156103f2573d6000803e3d6000fd5b505050506040513d601f19601f820116820180604052508101906104169190610cbc565b6040516001600160e01b031960e085901b1681526001600160a01b03909216600483015260248201526044016020604051808303816000875af1158015610461573d6000803e3d6000fd5b505050506040513d601f19601f820116820180604052508101906104859190610cd5565b6104ce5760405162461bcd60e51b81526020600482015260156024820152742932bb32b73ab29d103130b2103a3930b739b332b960591b60448201526064015b60405180910390fd5b61050e565b6001546040516001600160a01b03909116904780156108fc02916000818181858888f1935050505015801561050c573d6000803e3d6000fd5b505b50600190565b6001546000906001600160a01b031633146105715760405162461bcd60e51b815260206004820152601d60248201527f526576656e75653a204f6e6c79206f776e65722063616e20636c61696d00000060448201526064016104c5565b6004546001600160a01b031673eeeeeeeeeeeeeeeeeeeeeeeeeeeeeeeeeeeeeeee146104d357600480546001546040516370a0823160e01b815230938101939093526001600160a01b039182169263a9059cbb929091169083906370a08231906024016103d5565b6002546001600160a01b0316331461062b5760405162461bcd60e51b815260206004820152601560248201527413db9b1e481b585b9859d95c8818d85b8818d85b1b605a1b60448201526064016104c5565b6001600160a01b03821660009081526006602052604081208054839290610653908490610cf7565b90915550505050565b6003546001600160a01b031633146106b65760405162461bcd60e51b815260206004820152601b60248201527f4f6e6c79206d6574686f646f6c6f676973742063616e2063616c6c000000000060448201526064016104c5565b600380546001600160a01b0319166001600160a01b0392909216919091179055565b6001546000906001600160a01b0316331461050e5760405162461bcd60e51b815260206004820152601f60248201527f526576656e75653a204f6e6c79206f776e65722063616e206f7065726174650060448201526064016104c5565b60a48111806107445750600481105b1561076257604051632c9dd1c960e01b815260040160405180910390fd5b600082823360405160200161077993929190610d18565b60408051601f1981840301815291815281516020928301206000818152928390529120549091506001600160a01b0316806107c757604051630df0f4e960e41b815260040160405180910390fd5b6001600160a01b03811633146107f05760405163110dc63f60e01b815260040160405180910390fd5b6000828152602081815260409182902080546001600160a01b031916905590518381527f2d8bff7bc81a295ee86f540e195478665ae7503c42e2fe02600843e860a1d9db910160405180910390a150505050565b6002546003546001600160a01b0391821691166108618282610a28565b156108d1576001600160a01b0383166108b55760405162461bcd60e51b815260206004820152601660248201527516995c9bc81859191c995cdcc81b9bdd081d985b1a5960521b60448201526064016104c5565b600280546001600160a01b0319166001600160a01b0385161790555b505050565b6000600a82116109145760405162461bcd60e51b81526020600482015260096024820152681d1bdbc81cdb585b1b60ba1b60448201526064016104c5565b61091f600283610d3e565b60000361092e57506001919050565b506000919050565b919050565b6002546001600160a01b0316331461098d5760405162461bcd60e51b815260206004820152601560248201527413db9b1e481b585b9859d95c8818d85b8818d85b1b605a1b60448201526064016104c5565b6001600560008282546109a09190610cf7565b9091555050565b6001546000906001600160a01b03163314610a045760405162461bcd60e51b815260206004820181905260248201527f526576656e75653a204f6e6c79206f776e65722063616e207472616e7366657260448201526064016104c5565b50600180546001600160a01b0319166001600160a01b039290921691909117815590565b6000336001600160a01b03841614801590610a4c5750336001600160a01b03831614155b15610a69576040516282b42960e81b815260040160405180910390fd5b6000610a758484610bb4565b90506000803683604051602001610a8e93929190610d18565b60408051601f1981840301815291815281516020928301206000818152928390529120549091506001600160a01b0316610b59576000803633604051602001610ad993929190610d18565b60408051601f198184030181528282528051602091820120600081815280835283902080546001600160a01b031916331790558084526001600160a01b0387169184019190915292507f1396bca9f810b74b131a089057c919e38ad204e3df53fec73db0e1f3be4caa0d910160405180910390a160009350505050610bae565b6000818152602081815260409182902080546001600160a01b031916905590518281527f590cb0fad602b541ce3d8b8de5ea73f5db52e7bafb4fab2595dca5e904009ff1910160405180910390a16001925050505b92915050565b6000336001600160a01b03841614610bcc5782610bce565b815b9392505050565b80356001600160a01b038116811461093657600080fd5b600060208284031215610bfe57600080fd5b610bce82610bd5565b600060208284031215610c1957600080fd5b5035919050565b60008060408385031215610c3357600080fd5b610c3c83610bd5565b946020939093013593505050565b60008060208385031215610c5d57600080fd5b823567ffffffffffffffff80821115610c7557600080fd5b818501915085601f830112610c8957600080fd5b813581811115610c9857600080fd5b866020828501011115610caa57600080fd5b60209290920196919550909350505050565b600060208284031215610cce57600080fd5b5051919050565b600060208284031215610ce757600080fd5b81518015158114610bce57600080fd5b80820180821115610bae57634e487b7160e01b600052601160045260246000fd5b8284823760609190911b6bffffffffffffffffffffffff19169101908152601401919050565b600082610d5b57634e487b7160e01b600052601260045260246000fd5b50069056fea2646970667358221220a71b5fca28a8eed5ac2ed345c35fe6b7552ee552aec71a646f49e3b4f687766864736f6c63430008140033","linkReferences":{}},"methodIdentifiers":{"claimPullPayment()":"2c9a5328","count()":"06661abd","doAnOperationsThing()":"810b68d0","doAnOperationsThingWithArgs(uint256)":"e008a927","getNonce(address)":"2d0335ab","incrementCount()":"e5071b8e","manager()":"481c6a75","methodologist()":"9f8e67bf","mutualConsentProposals(bytes32)":"38deee8f","nonce(address)":"70ae92d2","owner()":"8da5cb5b","revokeConsent(bytes)":"a4e7d38f","sendPushPayment()":"0d558fff","setManager(address)":"d0ebdbe7","setMethodologist(address)":"660db484","transferOwnership(address)":"f2fde38b","updateNonce(address,uint256)":"441344af"},"id":25}